{
  "_format": "hh-sol-artifact-1",
  "contractName": "CoreCollection",
  "sourceName": "contracts/CoreCollection.sol",
  "abi": [
    {
      "inputs": [
        {
          "internalType": "address",
          "name": "_contractAddress",
          "type": "address"
        }
      ],
      "stateMutability": "nonpayable",
      "type": "constructor"
    },
    {
      "anonymous": false,
      "inputs": [
        {
          "indexed": true,
          "internalType": "address",
          "name": "owner",
          "type": "address"
        },
        {
          "indexed": true,
          "internalType": "address",
          "name": "approved",
          "type": "address"
        },
        {
          "indexed": true,
          "internalType": "uint256",
          "name": "tokenId",
          "type": "uint256"
        }
      ],
      "name": "Approval",
      "type": "event"
    },
    {
      "anonymous": false,
      "inputs": [
        {
          "indexed": true,
          "internalType": "address",
          "name": "owner",
          "type": "address"
        },
        {
          "indexed": true,
          "internalType": "address",
          "name": "operator",
          "type": "address"
        },
        {
          "indexed": false,
          "internalType": "bool",
          "name": "approved",
          "type": "bool"
        }
      ],
      "name": "ApprovalForAll",
      "type": "event"
    },
    {
      "anonymous": false,
      "inputs": [
        {
          "indexed": false,
          "internalType": "string",
          "name": "_name",
          "type": "string"
        },
        {
          "indexed": false,
          "internalType": "uint256",
          "name": "_collectionId",
          "type": "uint256"
        }
      ],
      "name": "CollectionCreated",
      "type": "event"
    },
    {
      "anonymous": false,
      "inputs": [
        {
          "indexed": false,
          "internalType": "uint256",
          "name": "_itemId",
          "type": "uint256"
        },
        {
          "indexed": false,
          "internalType": "string",
          "name": "_NFTName",
          "type": "string"
        },
        {
          "components": [
            {
              "internalType": "uint256",
              "name": "collectionId",
              "type": "uint256"
            },
            {
              "internalType": "string",
              "name": "name",
              "type": "string"
            },
            {
              "internalType": "address",
              "name": "creator",
              "type": "address"
            },
            {
              "internalType": "uint256[]",
              "name": "itemIds",
              "type": "uint256[]"
            }
          ],
          "indexed": false,
          "internalType": "struct CoreCollection.Collection",
          "name": "_collection",
          "type": "tuple"
        }
      ],
      "name": "NFTCreated",
      "type": "event"
    },
    {
      "anonymous": false,
      "inputs": [
        {
          "indexed": false,
          "internalType": "uint256",
          "name": "_newItemId",
          "type": "uint256"
        },
        {
          "indexed": false,
          "internalType": "string",
          "name": "_tokenURI",
          "type": "string"
        }
      ],
      "name": "TokenCreated",
      "type": "event"
    },
    {
      "anonymous": false,
      "inputs": [
        {
          "indexed": true,
          "internalType": "address",
          "name": "from",
          "type": "address"
        },
        {
          "indexed": true,
          "internalType": "address",
          "name": "to",
          "type": "address"
        },
        {
          "indexed": true,
          "internalType": "uint256",
          "name": "tokenId",
          "type": "uint256"
        }
      ],
      "name": "Transfer",
      "type": "event"
    },
    {
      "inputs": [
        {
          "internalType": "uint256",
          "name": "",
          "type": "uint256"
        }
      ],
      "name": "NFTs",
      "outputs": [
        {
          "internalType": "uint256",
          "name": "itemId",
          "type": "uint256"
        },
        {
          "internalType": "string",
          "name": "nft_name",
          "type": "string"
        },
        {
          "internalType": "address",
          "name": "creator",
          "type": "address"
        },
        {
          "internalType": "string",
          "name": "externalLink",
          "type": "string"
        }
      ],
      "stateMutability": "view",
      "type": "function"
    },
    {
      "inputs": [
        {
          "internalType": "address",
          "name": "to",
          "type": "address"
        },
        {
          "internalType": "uint256",
          "name": "tokenId",
          "type": "uint256"
        }
      ],
      "name": "approve",
      "outputs": [],
      "stateMutability": "nonpayable",
      "type": "function"
    },
    {
      "inputs": [
        {
          "internalType": "address",
          "name": "owner",
          "type": "address"
        }
      ],
      "name": "balanceOf",
      "outputs": [
        {
          "internalType": "uint256",
          "name": "",
          "type": "uint256"
        }
      ],
      "stateMutability": "view",
      "type": "function"
    },
    {
      "inputs": [
        {
          "internalType": "uint256",
          "name": "",
          "type": "uint256"
        }
      ],
      "name": "collectionIdToUser",
      "outputs": [
        {
          "internalType": "address",
          "name": "",
          "type": "address"
        }
      ],
      "stateMutability": "view",
      "type": "function"
    },
    {
      "inputs": [
        {
          "internalType": "uint256",
          "name": "",
          "type": "uint256"
        }
      ],
      "name": "collections",
      "outputs": [
        {
          "internalType": "uint256",
          "name": "collectionId",
          "type": "uint256"
        },
        {
          "internalType": "string",
          "name": "name",
          "type": "string"
        },
        {
          "internalType": "address",
          "name": "creator",
          "type": "address"
        }
      ],
      "stateMutability": "view",
      "type": "function"
    },
    {
      "inputs": [
        {
          "internalType": "string",
          "name": "_name",
          "type": "string"
        }
      ],
      "name": "createCollection",
      "outputs": [],
      "stateMutability": "nonpayable",
      "type": "function"
    },
    {
      "inputs": [
        {
          "internalType": "string",
          "name": "_NFTName",
          "type": "string"
        },
        {
          "internalType": "uint256",
          "name": "_collectionId",
          "type": "uint256"
        },
        {
          "internalType": "string",
          "name": "_externalLink",
          "type": "string"
        },
        {
          "internalType": "string",
          "name": "_tokenURI",
          "type": "string"
        }
      ],
      "name": "createNFT",
      "outputs": [],
      "stateMutability": "nonpayable",
      "type": "function"
    },
    {
      "inputs": [
        {
          "internalType": "uint256",
          "name": "tokenId",
          "type": "uint256"
        }
      ],
      "name": "getApproved",
      "outputs": [
        {
          "internalType": "address",
          "name": "",
          "type": "address"
        }
      ],
      "stateMutability": "view",
      "type": "function"
    },
    {
      "inputs": [
        {
          "internalType": "address",
          "name": "_address",
          "type": "address"
        }
      ],
      "name": "getCollectionIds",
      "outputs": [
        {
          "internalType": "uint256[]",
          "name": "",
          "type": "uint256[]"
        }
      ],
      "stateMutability": "view",
      "type": "function"
    },
    {
      "inputs": [
        {
          "internalType": "uint256",
          "name": "collectionId",
          "type": "uint256"
        }
      ],
      "name": "getItems",
      "outputs": [
        {
          "internalType": "uint256[]",
          "name": "",
          "type": "uint256[]"
        }
      ],
      "stateMutability": "view",
      "type": "function"
    },
    {
      "inputs": [
        {
          "internalType": "address",
          "name": "owner",
          "type": "address"
        },
        {
          "internalType": "address",
          "name": "operator",
          "type": "address"
        }
      ],
      "name": "isApprovedForAll",
      "outputs": [
        {
          "internalType": "bool",
          "name": "",
          "type": "bool"
        }
      ],
      "stateMutability": "view",
      "type": "function"
    },
    {
      "inputs": [],
      "name": "name",
      "outputs": [
        {
          "internalType": "string",
          "name": "",
          "type": "string"
        }
      ],
      "stateMutability": "view",
      "type": "function"
    },
    {
      "inputs": [
        {
          "internalType": "uint256",
          "name": "tokenId",
          "type": "uint256"
        }
      ],
      "name": "ownerOf",
      "outputs": [
        {
          "internalType": "address",
          "name": "",
          "type": "address"
        }
      ],
      "stateMutability": "view",
      "type": "function"
    },
    {
      "inputs": [
        {
          "internalType": "address",
          "name": "from",
          "type": "address"
        },
        {
          "internalType": "address",
          "name": "to",
          "type": "address"
        },
        {
          "internalType": "uint256",
          "name": "tokenId",
          "type": "uint256"
        }
      ],
      "name": "safeTransferFrom",
      "outputs": [],
      "stateMutability": "nonpayable",
      "type": "function"
    },
    {
      "inputs": [
        {
          "internalType": "address",
          "name": "from",
          "type": "address"
        },
        {
          "internalType": "address",
          "name": "to",
          "type": "address"
        },
        {
          "internalType": "uint256",
          "name": "tokenId",
          "type": "uint256"
        },
        {
          "internalType": "bytes",
          "name": "_data",
          "type": "bytes"
        }
      ],
      "name": "safeTransferFrom",
      "outputs": [],
      "stateMutability": "nonpayable",
      "type": "function"
    },
    {
      "inputs": [
        {
          "internalType": "address",
          "name": "operator",
          "type": "address"
        },
        {
          "internalType": "bool",
          "name": "approved",
          "type": "bool"
        }
      ],
      "name": "setApprovalForAll",
      "outputs": [],
      "stateMutability": "nonpayable",
      "type": "function"
    },
    {
      "inputs": [
        {
          "internalType": "bytes4",
          "name": "interfaceId",
          "type": "bytes4"
        }
      ],
      "name": "supportsInterface",
      "outputs": [
        {
          "internalType": "bool",
          "name": "",
          "type": "bool"
        }
      ],
      "stateMutability": "view",
      "type": "function"
    },
    {
      "inputs": [],
      "name": "symbol",
      "outputs": [
        {
          "internalType": "string",
          "name": "",
          "type": "string"
        }
      ],
      "stateMutability": "view",
      "type": "function"
    },
    {
      "inputs": [
        {
          "internalType": "uint256",
          "name": "tokenId",
          "type": "uint256"
        }
      ],
      "name": "tokenURI",
      "outputs": [
        {
          "internalType": "string",
          "name": "",
          "type": "string"
        }
      ],
      "stateMutability": "view",
      "type": "function"
    },
    {
      "inputs": [
        {
          "internalType": "address",
          "name": "from",
          "type": "address"
        },
        {
          "internalType": "address",
          "name": "to",
          "type": "address"
        },
        {
          "internalType": "uint256",
          "name": "tokenId",
          "type": "uint256"
        }
      ],
      "name": "transferFrom",
      "outputs": [],
      "stateMutability": "nonpayable",
      "type": "function"
    },
    {
      "inputs": [
        {
          "internalType": "address",
          "name": "",
          "type": "address"
        },
        {
          "internalType": "uint256",
          "name": "",
          "type": "uint256"
        }
      ],
      "name": "userToCollectionIds",
      "outputs": [
        {
          "internalType": "uint256",
          "name": "",
          "type": "uint256"
        }
      ],
      "stateMutability": "view",
      "type": "function"
    }
  ],
  "bytecode": "0x60806040523480156200001157600080fd5b5060405162003dec38038062003dec8339818101604052810190620000379190620001e6565b6040518060400160405280600581526020017f4f617369730000000000000000000000000000000000000000000000000000008152506040518060400160405280600281526020017f4f430000000000000000000000000000000000000000000000000000000000008152508160009080519060200190620000bb9291906200011f565b508060019080519060200190620000d49291906200011f565b50505080600760006101000a81548173ffffffffffffffffffffffffffffffffffffffff021916908373ffffffffffffffffffffffffffffffffffffffff16021790555050620002c5565b8280546200012d9062000246565b90600052602060002090601f0160209004810192826200015157600085556200019d565b82601f106200016c57805160ff19168380011785556200019d565b828001600101855582156200019d579182015b828111156200019c5782518255916020019190600101906200017f565b5b509050620001ac9190620001b0565b5090565b5b80821115620001cb576000816000905550600101620001b1565b5090565b600081519050620001e081620002ab565b92915050565b600060208284031215620001f957600080fd5b60006200020984828501620001cf565b91505092915050565b60006200021f8262000226565b9050919050565b600073ffffffffffffffffffffffffffffffffffffffff82169050919050565b600060028204905060018216806200025f57607f821691505b602082108114156200027657620002756200027c565b5b50919050565b7f4e487b7100000000000000000000000000000000000000000000000000000000600052602260045260246000fd5b620002b68162000212565b8114620002c257600080fd5b50565b613b1780620002d56000396000f3fe608060405234801561001057600080fd5b50600436106101375760003560e01c806370a08231116100b8578063a3c0b95b1161007c578063a3c0b95b14610370578063b88d4fde146103a3578063bd0be695146103bf578063c87b56dd146103ef578063e985e9c51461041f578063fdbda0ec1461044f57610137565b806370a08231146102a65780637863365f146102d6578063796c5e941461030657806395d89b4114610336578063a22cb4651461035457610137565b806309a16ae5116100ff57806309a16ae5146101f257806323b872dd146102225780633db45b541461023e57806342842e0e1461025a5780636352211e1461027657610137565b806301ffc9a71461013c578063059dfe131461016c57806306fdde0314610188578063081812fc146101a6578063095ea7b3146101d6575b600080fd5b6101566004803603810190610151919061266c565b610481565b6040516101639190612d79565b60405180910390f35b610186600480360381019061018191906126be565b610563565b005b6101906107be565b60405161019d9190612d94565b60405180910390f35b6101c060048036038101906101bb91906127aa565b610850565b6040516101cd9190612cf0565b60405180910390f35b6101f060048036038101906101eb9190612630565b6108d5565b005b61020c600480360381019061020791906124c5565b6109ed565b6040516102199190612d57565b60405180910390f35b61023c6004803603810190610237919061252a565b610a84565b005b610258600480360381019061025391906126ff565b610ae4565b005b610274600480360381019061026f919061252a565b610d8a565b005b610290600480360381019061028b91906127aa565b610daa565b60405161029d9190612cf0565b60405180910390f35b6102c060048036038101906102bb91906124c5565b610e5c565b6040516102cd9190612fe6565b60405180910390f35b6102f060048036038101906102eb9190612630565b610f14565b6040516102fd9190612fe6565b60405180910390f35b610320600480360381019061031b91906127aa565b610f45565b60405161032d9190612d57565b60405180910390f35b61033e610fb3565b60405161034b9190612d94565b60405180910390f35b61036e600480360381019061036991906125f4565b611045565b005b61038a600480360381019061038591906127aa565b61105b565b60405161039a949392919061306f565b60405180910390f35b6103bd60048036038101906103b89190612579565b6111bb565b005b6103d960048036038101906103d491906127aa565b61121d565b6040516103e69190612cf0565b60405180910390f35b610409600480360381019061040491906127aa565b611250565b6040516104169190612d94565b60405180910390f35b610439600480360381019061043491906124ee565b6113a2565b6040516104469190612d79565b60405180910390f35b610469600480360381019061046491906127aa565b611436565b60405161047893929190613031565b60405180910390f35b60007f80ac58cd000000000000000000000000000000000000000000000000000000007bffffffffffffffffffffffffffffffffffffffffffffffffffffffff1916827bffffffffffffffffffffffffffffffffffffffffffffffffffffffff1916148061054c57507f5b5e139f000000000000000000000000000000000000000000000000000000007bffffffffffffffffffffffffffffffffffffffffffffffffffffffff1916827bffffffffffffffffffffffffffffffffffffffffffffffffffffffff1916145b8061055c575061055b82611508565b5b9050919050565b60096000815480929190610576906134a0565b91905055506000600954905060405180608001604052808281526020018381526020013373ffffffffffffffffffffffffffffffffffffffff168152602001600067ffffffffffffffff8111156105f6577f4e487b7100000000000000000000000000000000000000000000000000000000600052604160045260246000fd5b6040519080825280602002602001820160405280156106245781602001602082028036833780820191505090505b50815250600b600083815260200190815260200160002060008201518160000155602082015181600101908051906020019061066192919061229c565b5060408201518160020160006101000a81548173ffffffffffffffffffffffffffffffffffffffff021916908373ffffffffffffffffffffffffffffffffffffffff16021790555060608201518160030190805190602001906106c5929190612322565b5090505033600c600083815260200190815260200160002060006101000a81548173ffffffffffffffffffffffffffffffffffffffff021916908373ffffffffffffffffffffffffffffffffffffffff160217905550600d60003373ffffffffffffffffffffffffffffffffffffffff1673ffffffffffffffffffffffffffffffffffffffff1681526020019081526020016000208190806001815401808255809150506001900390600052602060002001600090919091909150557f7b5a520c0e4b578a26c9d30d55a79e2b2aec43c74bca7a5e2719980ec06d54e082826040516107b2929190612db6565b60405180910390a15050565b6060600080546107cd90613409565b80601f01602080910402602001604051908101604052809291908181526020018280546107f990613409565b80156108465780601f1061081b57610100808354040283529160200191610846565b820191906000526020600020905b81548152906001019060200180831161082957829003601f168201915b5050505050905090565b600061085b82611572565b61089a576040517f08c379a000000000000000000000000000000000000000000000000000000000815260040161089190612f66565b60405180910390fd5b6004600083815260200190815260200160002060009054906101000a900473ffffffffffffffffffffffffffffffffffffffff169050919050565b60006108e082610daa565b90508073ffffffffffffffffffffffffffffffffffffffff168373ffffffffffffffffffffffffffffffffffffffff161415610951576040517f08c379a000000000000000000000000000000000000000000000000000000000815260040161094890612fa6565b60405180910390fd5b8073ffffffffffffffffffffffffffffffffffffffff166109706115de565b73ffffffffffffffffffffffffffffffffffffffff16148061099f575061099e816109996115de565b6113a2565b5b6109de576040517f08c379a00000000000000000000000000000000000000000000000000000000081526004016109d590612ea6565b60405180910390fd5b6109e883836115e6565b505050565b6060600d60008373ffffffffffffffffffffffffffffffffffffffff1673ffffffffffffffffffffffffffffffffffffffff168152602001908152602001600020805480602002602001604051908101604052809291908181526020018280548015610a7857602002820191906000526020600020905b815481526020019060010190808311610a64575b50505050509050919050565b610a95610a8f6115de565b8261169f565b610ad4576040517f08c379a0000000000000000000000000000000000000000000000000000000008152600401610acb90612fc6565b60405180910390fd5b610adf83838361177d565b505050565b6000610af082336119e4565b9050610b1f600760009054906101000a900473ffffffffffffffffffffffffffffffffffffffff166001611045565b60405180608001604052808281526020018681526020013373ffffffffffffffffffffffffffffffffffffffff16815260200184815250600a6000838152602001908152602001600020600082015181600001556020820151816001019080519060200190610b8f92919061229c565b5060408201518160020160006101000a81548173ffffffffffffffffffffffffffffffffffffffff021916908373ffffffffffffffffffffffffffffffffffffffff1602179055506060820151816003019080519060200190610bf392919061229c565b50905050600b6000600d60003373ffffffffffffffffffffffffffffffffffffffff1673ffffffffffffffffffffffffffffffffffffffff1681526020019081526020016000208681548110610c72577f4e487b7100000000000000000000000000000000000000000000000000000000600052603260045260246000fd5b906000526020600020015481526020019081526020016000206003018190806001815401808255809150506001900390600052602060002001600090919091909150557f276d44579a9ca458b8dbacf1fa90abfb08d6017ce6aeebd0f02bc1f81de208d68186600b6000600d60003373ffffffffffffffffffffffffffffffffffffffff1673ffffffffffffffffffffffffffffffffffffffff1681526020019081526020016000208981548110610d53577f4e487b7100000000000000000000000000000000000000000000000000000000600052603260045260246000fd5b90600052602060002001548152602001908152602001600020604051610d7b939291906130c2565b60405180910390a15050505050565b610da5838383604051806020016040528060008152506111bb565b505050565b6000806002600084815260200190815260200160002060009054906101000a900473ffffffffffffffffffffffffffffffffffffffff169050600073ffffffffffffffffffffffffffffffffffffffff168173ffffffffffffffffffffffffffffffffffffffff161415610e53576040517f08c379a0000000000000000000000000000000000000000000000000000000008152600401610e4a90612ee6565b60405180910390fd5b80915050919050565b60008073ffffffffffffffffffffffffffffffffffffffff168273ffffffffffffffffffffffffffffffffffffffff161415610ecd576040517f08c379a0000000000000000000000000000000000000000000000000000000008152600401610ec490612ec6565b60405180910390fd5b600360008373ffffffffffffffffffffffffffffffffffffffff1673ffffffffffffffffffffffffffffffffffffffff168152602001908152602001600020549050919050565b600d6020528160005260406000208181548110610f3057600080fd5b90600052602060002001600091509150505481565b6060600b6000838152602001908152602001600020600301805480602002602001604051908101604052809291908181526020018280548015610fa757602002820191906000526020600020905b815481526020019060010190808311610f93575b50505050509050919050565b606060018054610fc290613409565b80601f0160208091040260200160405190810160405280929190818152602001828054610fee90613409565b801561103b5780601f106110105761010080835404028352916020019161103b565b820191906000526020600020905b81548152906001019060200180831161101e57829003601f168201915b5050505050905090565b6110576110506115de565b8383611a56565b5050565b600a60205280600052604060002060009150905080600001549080600101805461108490613409565b80601f01602080910402602001604051908101604052809291908181526020018280546110b090613409565b80156110fd5780601f106110d2576101008083540402835291602001916110fd565b820191906000526020600020905b8154815290600101906020018083116110e057829003601f168201915b5050505050908060020160009054906101000a900473ffffffffffffffffffffffffffffffffffffffff169080600301805461113890613409565b80601f016020809104026020016040519081016040528092919081815260200182805461116490613409565b80156111b15780601f10611186576101008083540402835291602001916111b1565b820191906000526020600020905b81548152906001019060200180831161119457829003601f168201915b5050505050905084565b6111cc6111c66115de565b8361169f565b61120b576040517f08c379a000000000000000000000000000000000000000000000000000000000815260040161120290612fc6565b60405180910390fd5b61121784848484611bc3565b50505050565b600c6020528060005260406000206000915054906101000a900473ffffffffffffffffffffffffffffffffffffffff1681565b606061125b82611572565b61129a576040517f08c379a000000000000000000000000000000000000000000000000000000000815260040161129190612f46565b60405180910390fd5b60006006600084815260200190815260200160002080546112ba90613409565b80601f01602080910402602001604051908101604052809291908181526020018280546112e690613409565b80156113335780601f1061130857610100808354040283529160200191611333565b820191906000526020600020905b81548152906001019060200180831161131657829003601f168201915b505050505090506000611344611c1f565b905060008151141561135a57819250505061139d565b60008251111561138f578082604051602001611377929190612ccc565b6040516020818303038152906040529250505061139d565b61139884611c36565b925050505b919050565b6000600560008473ffffffffffffffffffffffffffffffffffffffff1673ffffffffffffffffffffffffffffffffffffffff16815260200190815260200160002060008373ffffffffffffffffffffffffffffffffffffffff1673ffffffffffffffffffffffffffffffffffffffff16815260200190815260200160002060009054906101000a900460ff16905092915050565b600b60205280600052604060002060009150905080600001549080600101805461145f90613409565b80601f016020809104026020016040519081016040528092919081815260200182805461148b90613409565b80156114d85780601f106114ad576101008083540402835291602001916114d8565b820191906000526020600020905b8154815290600101906020018083116114bb57829003601f168201915b5050505050908060020160009054906101000a900473ffffffffffffffffffffffffffffffffffffffff16905083565b60007f01ffc9a7000000000000000000000000000000000000000000000000000000007bffffffffffffffffffffffffffffffffffffffffffffffffffffffff1916827bffffffffffffffffffffffffffffffffffffffffffffffffffffffff1916149050919050565b60008073ffffffffffffffffffffffffffffffffffffffff166002600084815260200190815260200160002060009054906101000a900473ffffffffffffffffffffffffffffffffffffffff1673ffffffffffffffffffffffffffffffffffffffff1614159050919050565b600033905090565b816004600083815260200190815260200160002060006101000a81548173ffffffffffffffffffffffffffffffffffffffff021916908373ffffffffffffffffffffffffffffffffffffffff160217905550808273ffffffffffffffffffffffffffffffffffffffff1661165983610daa565b73ffffffffffffffffffffffffffffffffffffffff167f8c5be1e5ebec7d5bd14f71427d1e84f3dd0314c0f7b2291e5b200ac8c7c3b92560405160405180910390a45050565b60006116aa82611572565b6116e9576040517f08c379a00000000000000000000000000000000000000000000000000000000081526004016116e090612e86565b60405180910390fd5b60006116f483610daa565b90508073ffffffffffffffffffffffffffffffffffffffff168473ffffffffffffffffffffffffffffffffffffffff16148061176357508373ffffffffffffffffffffffffffffffffffffffff1661174b84610850565b73ffffffffffffffffffffffffffffffffffffffff16145b80611774575061177381856113a2565b5b91505092915050565b8273ffffffffffffffffffffffffffffffffffffffff1661179d82610daa565b73ffffffffffffffffffffffffffffffffffffffff16146117f3576040517f08c379a00000000000000000000000000000000000000000000000000000000081526004016117ea90612e06565b60405180910390fd5b600073ffffffffffffffffffffffffffffffffffffffff168273ffffffffffffffffffffffffffffffffffffffff161415611863576040517f08c379a000000000000000000000000000000000000000000000000000000000815260040161185a90612e46565b60405180910390fd5b61186e838383611cdd565b6118796000826115e6565b6001600360008573ffffffffffffffffffffffffffffffffffffffff1673ffffffffffffffffffffffffffffffffffffffff16815260200190815260200160002060008282546118c991906132f5565b925050819055506001600360008473ffffffffffffffffffffffffffffffffffffffff1673ffffffffffffffffffffffffffffffffffffffff1681526020019081526020016000206000828254611920919061326e565b92505081905550816002600083815260200190815260200160002060006101000a81548173ffffffffffffffffffffffffffffffffffffffff021916908373ffffffffffffffffffffffffffffffffffffffff160217905550808273ffffffffffffffffffffffffffffffffffffffff168473ffffffffffffffffffffffffffffffffffffffff167fddf252ad1be2c89b69c2b068fc378daa952ba7f163c4a11628f55a4df523b3ef60405160405180910390a46119df838383611ce2565b505050565b6000600860008154809291906119f9906134a0565b91905055506008549050611a0d8282611ce7565b611a178184611ec1565b7f5d3ac5872118b949a1f8db596134a0e1587ecf18f2203bb1e3ea420c3c3f8fa98184604051611a48929190613001565b60405180910390a192915050565b8173ffffffffffffffffffffffffffffffffffffffff168373ffffffffffffffffffffffffffffffffffffffff161415611ac5576040517f08c379a0000000000000000000000000000000000000000000000000000000008152600401611abc90612e66565b60405180910390fd5b80600560008573ffffffffffffffffffffffffffffffffffffffff1673ffffffffffffffffffffffffffffffffffffffff16815260200190815260200160002060008473ffffffffffffffffffffffffffffffffffffffff1673ffffffffffffffffffffffffffffffffffffffff16815260200190815260200160002060006101000a81548160ff0219169083151502179055508173ffffffffffffffffffffffffffffffffffffffff168373ffffffffffffffffffffffffffffffffffffffff167f17307eab39ab6107e8899845ad3d59bd9653f200f220920489ca2b5937696c3183604051611bb69190612d79565b60405180910390a3505050565b611bce84848461177d565b611bda84848484611f35565b611c19576040517f08c379a0000000000000000000000000000000000000000000000000000000008152600401611c1090612de6565b60405180910390fd5b50505050565b606060405180602001604052806000815250905090565b6060611c4182611572565b611c80576040517f08c379a0000000000000000000000000000000000000000000000000000000008152600401611c7790612f86565b60405180910390fd5b6000611c8a611c1f565b90506000815111611caa5760405180602001604052806000815250611cd5565b80611cb4846120cc565b604051602001611cc5929190612ccc565b6040516020818303038152906040525b915050919050565b505050565b505050565b600073ffffffffffffffffffffffffffffffffffffffff168273ffffffffffffffffffffffffffffffffffffffff161415611d57576040517f08c379a0000000000000000000000000000000000000000000000000000000008152600401611d4e90612f26565b60405180910390fd5b611d6081611572565b15611da0576040517f08c379a0000000000000000000000000000000000000000000000000000000008152600401611d9790612e26565b60405180910390fd5b611dac60008383611cdd565b6001600360008473ffffffffffffffffffffffffffffffffffffffff1673ffffffffffffffffffffffffffffffffffffffff1681526020019081526020016000206000828254611dfc919061326e565b92505081905550816002600083815260200190815260200160002060006101000a81548173ffffffffffffffffffffffffffffffffffffffff021916908373ffffffffffffffffffffffffffffffffffffffff160217905550808273ffffffffffffffffffffffffffffffffffffffff16600073ffffffffffffffffffffffffffffffffffffffff167fddf252ad1be2c89b69c2b068fc378daa952ba7f163c4a11628f55a4df523b3ef60405160405180910390a4611ebd60008383611ce2565b5050565b611eca82611572565b611f09576040517f08c379a0000000000000000000000000000000000000000000000000000000008152600401611f0090612f06565b60405180910390fd5b80600660008481526020019081526020016000209080519060200190611f3092919061229c565b505050565b6000611f568473ffffffffffffffffffffffffffffffffffffffff16612279565b156120bf578373ffffffffffffffffffffffffffffffffffffffff1663150b7a02611f7f6115de565b8786866040518563ffffffff1660e01b8152600401611fa19493929190612d0b565b602060405180830381600087803b158015611fbb57600080fd5b505af1925050508015611fec57506040513d601f19601f82011682018060405250810190611fe99190612695565b60015b61206f573d806000811461201c576040519150601f19603f3d011682016040523d82523d6000602084013e612021565b606091505b50600081511415612067576040517f08c379a000000000000000000000000000000000000000000000000000000000815260040161205e90612de6565b60405180910390fd5b805181602001fd5b63150b7a0260e01b7bffffffffffffffffffffffffffffffffffffffffffffffffffffffff1916817bffffffffffffffffffffffffffffffffffffffffffffffffffffffff1916149150506120c4565b600190505b949350505050565b60606000821415612114576040518060400160405280600181526020017f30000000000000000000000000000000000000000000000000000000000000008152509050612274565b600082905060005b6000821461214657808061212f906134a0565b915050600a8261213f91906132c4565b915061211c565b60008167ffffffffffffffff811115612188577f4e487b7100000000000000000000000000000000000000000000000000000000600052604160045260246000fd5b6040519080825280601f01601f1916602001820160405280156121ba5781602001600182028036833780820191505090505b5090505b6000851461226d576001826121d391906132f5565b9150600a856121e291906134e9565b60306121ee919061326e565b60f81b81838151811061222a577f4e487b7100000000000000000000000000000000000000000000000000000000600052603260045260246000fd5b60200101907effffffffffffffffffffffffffffffffffffffffffffffffffffffffffffff1916908160001a905350600a8561226691906132c4565b94506121be565b8093505050505b919050565b6000808273ffffffffffffffffffffffffffffffffffffffff163b119050919050565b8280546122a890613409565b90600052602060002090601f0160209004810192826122ca5760008555612311565b82601f106122e357805160ff1916838001178555612311565b82800160010185558215612311579182015b828111156123105782518255916020019190600101906122f5565b5b50905061231e919061236f565b5090565b82805482825590600052602060002090810192821561235e579160200282015b8281111561235d578251825591602001919060010190612342565b5b50905061236b919061236f565b5090565b5b80821115612388576000816000905550600101612370565b5090565b600061239f61239a8461312c565b613107565b9050828152602081018484840111156123b757600080fd5b6123c28482856133c7565b509392505050565b60006123dd6123d88461315d565b613107565b9050828152602081018484840111156123f557600080fd5b6124008482856133c7565b509392505050565b60008135905061241781613a85565b92915050565b60008135905061242c81613a9c565b92915050565b60008135905061244181613ab3565b92915050565b60008151905061245681613ab3565b92915050565b600082601f83011261246d57600080fd5b813561247d84826020860161238c565b91505092915050565b600082601f83011261249757600080fd5b81356124a78482602086016123ca565b91505092915050565b6000813590506124bf81613aca565b92915050565b6000602082840312156124d757600080fd5b60006124e584828501612408565b91505092915050565b6000806040838503121561250157600080fd5b600061250f85828601612408565b925050602061252085828601612408565b9150509250929050565b60008060006060848603121561253f57600080fd5b600061254d86828701612408565b935050602061255e86828701612408565b925050604061256f868287016124b0565b9150509250925092565b6000806000806080858703121561258f57600080fd5b600061259d87828801612408565b94505060206125ae87828801612408565b93505060406125bf878288016124b0565b925050606085013567ffffffffffffffff8111156125dc57600080fd5b6125e88782880161245c565b91505092959194509250565b6000806040838503121561260757600080fd5b600061261585828601612408565b92505060206126268582860161241d565b9150509250929050565b6000806040838503121561264357600080fd5b600061265185828601612408565b9250506020612662858286016124b0565b9150509250929050565b60006020828403121561267e57600080fd5b600061268c84828501612432565b91505092915050565b6000602082840312156126a757600080fd5b60006126b584828501612447565b91505092915050565b6000602082840312156126d057600080fd5b600082013567ffffffffffffffff8111156126ea57600080fd5b6126f684828501612486565b91505092915050565b6000806000806080858703121561271557600080fd5b600085013567ffffffffffffffff81111561272f57600080fd5b61273b87828801612486565b945050602061274c878288016124b0565b935050604085013567ffffffffffffffff81111561276957600080fd5b61277587828801612486565b925050606085013567ffffffffffffffff81111561279257600080fd5b61279e87828801612486565b91505092959194509250565b6000602082840312156127bc57600080fd5b60006127ca848285016124b0565b91505092915050565b60006127df8383612cae565b60208301905092915050565b6127f481613353565b82525050565b61280381613353565b82525050565b6000612814826131c8565b61281e818561321f565b93506128298361318e565b8060005b8381101561285a57815161284188826127d3565b975061284c836131f4565b92505060018101905061282d565b5085935050505092915050565b6000612872826131d3565b61287c818561320e565b93506128878361319e565b8060005b838110156128bf5761289c826135d6565b6128a688826127d3565b97506128b183613201565b92505060018101905061288b565b5085935050505092915050565b6128d581613365565b82525050565b60006128e6826131de565b6128f08185613230565b93506129008185602086016133d6565b612909816135e9565b840191505092915050565b600061291f826131e9565b6129298185613252565b93506129398185602086016133d6565b612942816135e9565b840191505092915050565b6000612958826131e9565b6129628185613263565b93506129728185602086016133d6565b80840191505092915050565b6000815461298b81613409565b6129958186613241565b945060018216600081146129b057600181146129c2576129f5565b60ff19831686526020860193506129f5565b6129cb856131b3565b60005b838110156129ed578154818901526001820191506020810190506129ce565b808801955050505b50505092915050565b6000612a0b603283613252565b9150612a1682613607565b604082019050919050565b6000612a2e602583613252565b9150612a3982613656565b604082019050919050565b6000612a51601c83613252565b9150612a5c826136a5565b602082019050919050565b6000612a74602483613252565b9150612a7f826136ce565b604082019050919050565b6000612a97601983613252565b9150612aa28261371d565b602082019050919050565b6000612aba602c83613252565b9150612ac582613746565b604082019050919050565b6000612add603883613252565b9150612ae882613795565b604082019050919050565b6000612b00602a83613252565b9150612b0b826137e4565b604082019050919050565b6000612b23602983613252565b9150612b2e82613833565b604082019050919050565b6000612b46602e83613252565b9150612b5182613882565b604082019050919050565b6000612b69602083613252565b9150612b74826138d1565b602082019050919050565b6000612b8c603183613252565b9150612b97826138fa565b604082019050919050565b6000612baf602c83613252565b9150612bba82613949565b604082019050919050565b6000612bd2602f83613252565b9150612bdd82613998565b604082019050919050565b6000612bf5602183613252565b9150612c00826139e7565b604082019050919050565b6000612c18603183613252565b9150612c2382613a36565b604082019050919050565b6000608083016000808401549050612c4581613455565b612c526000870182612cae565b50600184018583036020870152612c69838261297e565b92505060028401549050612c7c8161343b565b612c8960408701826127eb565b50600384018583036060870152612ca08382612867565b925050819250505092915050565b612cb7816133bd565b82525050565b612cc6816133bd565b82525050565b6000612cd8828561294d565b9150612ce4828461294d565b91508190509392505050565b6000602082019050612d0560008301846127fa565b92915050565b6000608082019050612d2060008301876127fa565b612d2d60208301866127fa565b612d3a6040830185612cbd565b8181036060830152612d4c81846128db565b905095945050505050565b60006020820190508181036000830152612d718184612809565b905092915050565b6000602082019050612d8e60008301846128cc565b92915050565b60006020820190508181036000830152612dae8184612914565b905092915050565b60006040820190508181036000830152612dd08185612914565b9050612ddf6020830184612cbd565b9392505050565b60006020820190508181036000830152612dff816129fe565b9050919050565b60006020820190508181036000830152612e1f81612a21565b9050919050565b60006020820190508181036000830152612e3f81612a44565b9050919050565b60006020820190508181036000830152612e5f81612a67565b9050919050565b60006020820190508181036000830152612e7f81612a8a565b9050919050565b60006020820190508181036000830152612e9f81612aad565b9050919050565b60006020820190508181036000830152612ebf81612ad0565b9050919050565b60006020820190508181036000830152612edf81612af3565b9050919050565b60006020820190508181036000830152612eff81612b16565b9050919050565b60006020820190508181036000830152612f1f81612b39565b9050919050565b60006020820190508181036000830152612f3f81612b5c565b9050919050565b60006020820190508181036000830152612f5f81612b7f565b9050919050565b60006020820190508181036000830152612f7f81612ba2565b9050919050565b60006020820190508181036000830152612f9f81612bc5565b9050919050565b60006020820190508181036000830152612fbf81612be8565b9050919050565b60006020820190508181036000830152612fdf81612c0b565b9050919050565b6000602082019050612ffb6000830184612cbd565b92915050565b60006040820190506130166000830185612cbd565b81810360208301526130288184612914565b90509392505050565b60006060820190506130466000830186612cbd565b81810360208301526130588185612914565b905061306760408301846127fa565b949350505050565b60006080820190506130846000830187612cbd565b81810360208301526130968186612914565b90506130a560408301856127fa565b81810360608301526130b78184612914565b905095945050505050565b60006060820190506130d76000830186612cbd565b81810360208301526130e98185612914565b905081810360408301526130fd8184612c2e565b9050949350505050565b6000613111613122565b905061311d828261346f565b919050565b6000604051905090565b600067ffffffffffffffff821115613147576131466135a7565b5b613150826135e9565b9050602081019050919050565b600067ffffffffffffffff821115613178576131776135a7565b5b613181826135e9565b9050602081019050919050565b6000819050602082019050919050565b60008190508160005260206000209050919050565b60008190508160005260206000209050919050565b600081519050919050565b600081549050919050565b600081519050919050565b600081519050919050565b6000602082019050919050565b6000600182019050919050565b600082825260208201905092915050565b600082825260208201905092915050565b600082825260208201905092915050565b600082825260208201905092915050565b600082825260208201905092915050565b600081905092915050565b6000613279826133bd565b9150613284836133bd565b9250827fffffffffffffffffffffffffffffffffffffffffffffffffffffffffffffffff038211156132b9576132b861351a565b5b828201905092915050565b60006132cf826133bd565b91506132da836133bd565b9250826132ea576132e9613549565b5b828204905092915050565b6000613300826133bd565b915061330b836133bd565b92508282101561331e5761331d61351a565b5b828203905092915050565b600073ffffffffffffffffffffffffffffffffffffffff82169050919050565b6000819050919050565b600061335e8261339d565b9050919050565b60008115159050919050565b60007fffffffff0000000000000000000000000000000000000000000000000000000082169050919050565b600073ffffffffffffffffffffffffffffffffffffffff82169050919050565b6000819050919050565b82818337600083830152505050565b60005b838110156133f45780820151818401526020810190506133d9565b83811115613403576000848401525b50505050565b6000600282049050600182168061342157607f821691505b6020821081141561343557613434613578565b5b50919050565b600061344e613449836135fa565b613329565b9050919050565b6000613468613463836135fa565b613349565b9050919050565b613478826135e9565b810181811067ffffffffffffffff82111715613497576134966135a7565b5b80604052505050565b60006134ab826133bd565b91507fffffffffffffffffffffffffffffffffffffffffffffffffffffffffffffffff8214156134de576134dd61351a565b5b600182019050919050565b60006134f4826133bd565b91506134ff836133bd565b92508261350f5761350e613549565b5b828206905092915050565b7f4e487b7100000000000000000000000000000000000000000000000000000000600052601160045260246000fd5b7f4e487b7100000000000000000000000000000000000000000000000000000000600052601260045260246000fd5b7f4e487b7100000000000000000000000000000000000000000000000000000000600052602260045260246000fd5b7f4e487b7100000000000000000000000000000000000000000000000000000000600052604160045260246000fd5b60006135e28254613455565b9050919050565b6000601f19601f8301169050919050565b60008160001c9050919050565b7f4552433732313a207472616e7366657220746f206e6f6e20455243373231526560008201527f63656976657220696d706c656d656e7465720000000000000000000000000000602082015250565b7f4552433732313a207472616e736665722066726f6d20696e636f72726563742060008201527f6f776e6572000000000000000000000000000000000000000000000000000000602082015250565b7f4552433732313a20746f6b656e20616c7265616479206d696e74656400000000600082015250565b7f4552433732313a207472616e7366657220746f20746865207a65726f2061646460008201527f7265737300000000000000000000000000000000000000000000000000000000602082015250565b7f4552433732313a20617070726f766520746f2063616c6c657200000000000000600082015250565b7f4552433732313a206f70657261746f7220717565727920666f72206e6f6e657860008201527f697374656e7420746f6b656e0000000000000000000000000000000000000000602082015250565b7f4552433732313a20617070726f76652063616c6c6572206973206e6f74206f7760008201527f6e6572206e6f7220617070726f76656420666f7220616c6c0000000000000000602082015250565b7f4552433732313a2062616c616e636520717565727920666f7220746865207a6560008201527f726f206164647265737300000000000000000000000000000000000000000000602082015250565b7f4552433732313a206f776e657220717565727920666f72206e6f6e657869737460008201527f656e7420746f6b656e0000000000000000000000000000000000000000000000602082015250565b7f45524337323155524953746f726167653a2055524920736574206f66206e6f6e60008201527f6578697374656e7420746f6b656e000000000000000000000000000000000000602082015250565b7f4552433732313a206d696e7420746f20746865207a65726f2061646472657373600082015250565b7f45524337323155524953746f726167653a2055524920717565727920666f722060008201527f6e6f6e6578697374656e7420746f6b656e000000000000000000000000000000602082015250565b7f4552433732313a20617070726f76656420717565727920666f72206e6f6e657860008201527f697374656e7420746f6b656e0000000000000000000000000000000000000000602082015250565b7f4552433732314d657461646174613a2055524920717565727920666f72206e6f60008201527f6e6578697374656e7420746f6b656e0000000000000000000000000000000000602082015250565b7f4552433732313a20617070726f76616c20746f2063757272656e74206f776e6560008201527f7200000000000000000000000000000000000000000000000000000000000000602082015250565b7f4552433732313a207472616e736665722063616c6c6572206973206e6f74206f60008201527f776e6572206e6f7220617070726f766564000000000000000000000000000000602082015250565b613a8e81613353565b8114613a9957600080fd5b50565b613aa581613365565b8114613ab057600080fd5b50565b613abc81613371565b8114613ac757600080fd5b50565b613ad3816133bd565b8114613ade57600080fd5b5056fea26469706673582212202fa183f4866be369c6220d2d3e418c07884e17f2d63d43c342ef60ca009d1d7964736f6c63430008040033",
  "linkReferences": {},
  "deployedLinkReferences": {}
}