{
  "_format": "hh-sol-artifact-1",
  "contractName": "CoreCollection",
  "sourceName": "contracts/CoreCollection.sol",
  "abi": [
    {
      "inputs": [
        {
          "internalType": "address",
          "name": "_contractAddress",
          "type": "address"
        }
      ],
      "stateMutability": "nonpayable",
      "type": "constructor"
    },
    {
      "anonymous": false,
      "inputs": [
        {
          "indexed": true,
          "internalType": "address",
          "name": "owner",
          "type": "address"
        },
        {
          "indexed": true,
          "internalType": "address",
          "name": "approved",
          "type": "address"
        },
        {
          "indexed": true,
          "internalType": "uint256",
          "name": "tokenId",
          "type": "uint256"
        }
      ],
      "name": "Approval",
      "type": "event"
    },
    {
      "anonymous": false,
      "inputs": [
        {
          "indexed": true,
          "internalType": "address",
          "name": "owner",
          "type": "address"
        },
        {
          "indexed": true,
          "internalType": "address",
          "name": "operator",
          "type": "address"
        },
        {
          "indexed": false,
          "internalType": "bool",
          "name": "approved",
          "type": "bool"
        }
      ],
      "name": "ApprovalForAll",
      "type": "event"
    },
    {
      "anonymous": false,
      "inputs": [
        {
          "indexed": false,
          "internalType": "string",
          "name": "_name",
          "type": "string"
        },
        {
          "indexed": false,
          "internalType": "uint256",
          "name": "_collectionId",
          "type": "uint256"
        }
      ],
      "name": "CollectionCreated",
      "type": "event"
    },
    {
      "anonymous": false,
      "inputs": [
        {
          "indexed": false,
          "internalType": "uint256",
          "name": "_itemId",
          "type": "uint256"
        },
        {
          "indexed": false,
          "internalType": "string",
          "name": "_NFTName",
          "type": "string"
        },
        {
          "components": [
            {
              "internalType": "uint256",
              "name": "collectionId",
              "type": "uint256"
            },
            {
              "internalType": "string",
              "name": "name",
              "type": "string"
            },
            {
              "internalType": "address",
              "name": "creator",
              "type": "address"
            },
            {
              "internalType": "uint256[]",
              "name": "itemIds",
              "type": "uint256[]"
            }
          ],
          "indexed": false,
          "internalType": "struct CoreCollection.Collection",
          "name": "_collection",
          "type": "tuple"
        }
      ],
      "name": "NFTCreated",
      "type": "event"
    },
    {
      "anonymous": false,
      "inputs": [
        {
          "indexed": false,
          "internalType": "uint256",
          "name": "_newItemId",
          "type": "uint256"
        },
        {
          "indexed": false,
          "internalType": "string",
          "name": "_tokenURI",
          "type": "string"
        }
      ],
      "name": "TokenCreated",
      "type": "event"
    },
    {
      "anonymous": false,
      "inputs": [
        {
          "indexed": true,
          "internalType": "address",
          "name": "from",
          "type": "address"
        },
        {
          "indexed": true,
          "internalType": "address",
          "name": "to",
          "type": "address"
        },
        {
          "indexed": true,
          "internalType": "uint256",
          "name": "tokenId",
          "type": "uint256"
        }
      ],
      "name": "Transfer",
      "type": "event"
    },
    {
      "inputs": [
        {
          "internalType": "uint256",
          "name": "",
          "type": "uint256"
        }
      ],
      "name": "NFTs",
      "outputs": [
        {
          "internalType": "uint256",
          "name": "itemId",
          "type": "uint256"
        },
        {
          "internalType": "string",
          "name": "nft_name",
          "type": "string"
        },
        {
          "internalType": "address",
          "name": "creator",
          "type": "address"
        },
        {
          "internalType": "string",
          "name": "externalLink",
          "type": "string"
        }
      ],
      "stateMutability": "view",
      "type": "function"
    },
    {
      "inputs": [
        {
          "internalType": "address",
          "name": "to",
          "type": "address"
        },
        {
          "internalType": "uint256",
          "name": "tokenId",
          "type": "uint256"
        }
      ],
      "name": "approve",
      "outputs": [],
      "stateMutability": "nonpayable",
      "type": "function"
    },
    {
      "inputs": [
        {
          "internalType": "address",
          "name": "owner",
          "type": "address"
        }
      ],
      "name": "balanceOf",
      "outputs": [
        {
          "internalType": "uint256",
          "name": "",
          "type": "uint256"
        }
      ],
      "stateMutability": "view",
      "type": "function"
    },
    {
      "inputs": [
        {
          "internalType": "uint256",
          "name": "",
          "type": "uint256"
        }
      ],
      "name": "collectionIdToUser",
      "outputs": [
        {
          "internalType": "address",
          "name": "",
          "type": "address"
        }
      ],
      "stateMutability": "view",
      "type": "function"
    },
    {
      "inputs": [
        {
          "internalType": "uint256",
          "name": "",
          "type": "uint256"
        }
      ],
      "name": "collectionLink",
      "outputs": [
        {
          "internalType": "string",
          "name": "",
          "type": "string"
        }
      ],
      "stateMutability": "view",
      "type": "function"
    },
    {
      "inputs": [
        {
          "internalType": "uint256",
          "name": "",
          "type": "uint256"
        }
      ],
      "name": "collections",
      "outputs": [
        {
          "internalType": "uint256",
          "name": "collectionId",
          "type": "uint256"
        },
        {
          "internalType": "string",
          "name": "name",
          "type": "string"
        },
        {
          "internalType": "address",
          "name": "creator",
          "type": "address"
        }
      ],
      "stateMutability": "view",
      "type": "function"
    },
    {
      "inputs": [
        {
          "internalType": "string",
          "name": "_name",
          "type": "string"
        },
        {
          "internalType": "string",
          "name": "_collectionLink",
          "type": "string"
        }
      ],
      "name": "createCollection",
      "outputs": [],
      "stateMutability": "nonpayable",
      "type": "function"
    },
    {
      "inputs": [
        {
          "internalType": "string",
          "name": "_NFTName",
          "type": "string"
        },
        {
          "internalType": "uint256",
          "name": "_collectionId",
          "type": "uint256"
        },
        {
          "internalType": "string",
          "name": "_externalLink",
          "type": "string"
        },
        {
          "internalType": "string",
          "name": "_tokenURI",
          "type": "string"
        }
      ],
      "name": "createNFT",
      "outputs": [],
      "stateMutability": "nonpayable",
      "type": "function"
    },
    {
      "inputs": [],
      "name": "getAllCollections",
      "outputs": [
        {
          "internalType": "uint256[]",
          "name": "",
          "type": "uint256[]"
        }
      ],
      "stateMutability": "view",
      "type": "function"
    },
    {
      "inputs": [
        {
          "internalType": "uint256",
          "name": "tokenId",
          "type": "uint256"
        }
      ],
      "name": "getApproved",
      "outputs": [
        {
          "internalType": "address",
          "name": "",
          "type": "address"
        }
      ],
      "stateMutability": "view",
      "type": "function"
    },
    {
      "inputs": [
        {
          "internalType": "address",
          "name": "_address",
          "type": "address"
        }
      ],
      "name": "getCollectionIds",
      "outputs": [
        {
          "internalType": "uint256[]",
          "name": "",
          "type": "uint256[]"
        }
      ],
      "stateMutability": "view",
      "type": "function"
    },
    {
      "inputs": [
        {
          "internalType": "uint256",
          "name": "collectionId",
          "type": "uint256"
        }
      ],
      "name": "getItems",
      "outputs": [
        {
          "internalType": "uint256[]",
          "name": "",
          "type": "uint256[]"
        }
      ],
      "stateMutability": "view",
      "type": "function"
    },
    {
      "inputs": [
        {
          "internalType": "address",
          "name": "owner",
          "type": "address"
        },
        {
          "internalType": "address",
          "name": "operator",
          "type": "address"
        }
      ],
      "name": "isApprovedForAll",
      "outputs": [
        {
          "internalType": "bool",
          "name": "",
          "type": "bool"
        }
      ],
      "stateMutability": "view",
      "type": "function"
    },
    {
      "inputs": [],
      "name": "name",
      "outputs": [
        {
          "internalType": "string",
          "name": "",
          "type": "string"
        }
      ],
      "stateMutability": "view",
      "type": "function"
    },
    {
      "inputs": [
        {
          "internalType": "uint256",
          "name": "tokenId",
          "type": "uint256"
        }
      ],
      "name": "ownerOf",
      "outputs": [
        {
          "internalType": "address",
          "name": "",
          "type": "address"
        }
      ],
      "stateMutability": "view",
      "type": "function"
    },
    {
      "inputs": [
        {
          "internalType": "address",
          "name": "from",
          "type": "address"
        },
        {
          "internalType": "address",
          "name": "to",
          "type": "address"
        },
        {
          "internalType": "uint256",
          "name": "tokenId",
          "type": "uint256"
        }
      ],
      "name": "safeTransferFrom",
      "outputs": [],
      "stateMutability": "nonpayable",
      "type": "function"
    },
    {
      "inputs": [
        {
          "internalType": "address",
          "name": "from",
          "type": "address"
        },
        {
          "internalType": "address",
          "name": "to",
          "type": "address"
        },
        {
          "internalType": "uint256",
          "name": "tokenId",
          "type": "uint256"
        },
        {
          "internalType": "bytes",
          "name": "_data",
          "type": "bytes"
        }
      ],
      "name": "safeTransferFrom",
      "outputs": [],
      "stateMutability": "nonpayable",
      "type": "function"
    },
    {
      "inputs": [
        {
          "internalType": "address",
          "name": "operator",
          "type": "address"
        },
        {
          "internalType": "bool",
          "name": "approved",
          "type": "bool"
        }
      ],
      "name": "setApprovalForAll",
      "outputs": [],
      "stateMutability": "nonpayable",
      "type": "function"
    },
    {
      "inputs": [
        {
          "internalType": "bytes4",
          "name": "interfaceId",
          "type": "bytes4"
        }
      ],
      "name": "supportsInterface",
      "outputs": [
        {
          "internalType": "bool",
          "name": "",
          "type": "bool"
        }
      ],
      "stateMutability": "view",
      "type": "function"
    },
    {
      "inputs": [],
      "name": "symbol",
      "outputs": [
        {
          "internalType": "string",
          "name": "",
          "type": "string"
        }
      ],
      "stateMutability": "view",
      "type": "function"
    },
    {
      "inputs": [
        {
          "internalType": "uint256",
          "name": "tokenId",
          "type": "uint256"
        }
      ],
      "name": "tokenURI",
      "outputs": [
        {
          "internalType": "string",
          "name": "",
          "type": "string"
        }
      ],
      "stateMutability": "view",
      "type": "function"
    },
    {
      "inputs": [
        {
          "internalType": "address",
          "name": "from",
          "type": "address"
        },
        {
          "internalType": "address",
          "name": "to",
          "type": "address"
        },
        {
          "internalType": "uint256",
          "name": "tokenId",
          "type": "uint256"
        }
      ],
      "name": "transferFrom",
      "outputs": [],
      "stateMutability": "nonpayable",
      "type": "function"
    },
    {
      "inputs": [
        {
          "internalType": "address",
          "name": "",
          "type": "address"
        },
        {
          "internalType": "uint256",
          "name": "",
          "type": "uint256"
        }
      ],
      "name": "userToCollectionIds",
      "outputs": [
        {
          "internalType": "uint256",
          "name": "",
          "type": "uint256"
        }
      ],
      "stateMutability": "view",
      "type": "function"
    }
  ],
  "bytecode": "0x60806040523480156200001157600080fd5b506040516200402c3803806200402c8339818101604052810190620000379190620001e6565b6040518060400160405280600581526020017f4f617369730000000000000000000000000000000000000000000000000000008152506040518060400160405280600281526020017f4f430000000000000000000000000000000000000000000000000000000000008152508160009080519060200190620000bb9291906200011f565b508060019080519060200190620000d49291906200011f565b50505080600760006101000a81548173ffffffffffffffffffffffffffffffffffffffff021916908373ffffffffffffffffffffffffffffffffffffffff16021790555050620002c5565b8280546200012d9062000246565b90600052602060002090601f0160209004810192826200015157600085556200019d565b82601f106200016c57805160ff19168380011785556200019d565b828001600101855582156200019d579182015b828111156200019c5782518255916020019190600101906200017f565b5b509050620001ac9190620001b0565b5090565b5b80821115620001cb576000816000905550600101620001b1565b5090565b600081519050620001e081620002ab565b92915050565b600060208284031215620001f957600080fd5b60006200020984828501620001cf565b91505092915050565b60006200021f8262000226565b9050919050565b600073ffffffffffffffffffffffffffffffffffffffff82169050919050565b600060028204905060018216806200025f57607f821691505b602082108114156200027657620002756200027c565b5b50919050565b7f4e487b7100000000000000000000000000000000000000000000000000000000600052602260045260246000fd5b620002b68162000212565b8114620002c257600080fd5b50565b613d5780620002d56000396000f3fe608060405234801561001057600080fd5b506004361061014d5760003560e01c806370a08231116100c3578063b88d4fde1161007c578063b88d4fde146103d7578063bd0be695146103f3578063c87b56dd14610423578063e56b88c814610453578063e985e9c514610483578063fdbda0ec146104b35761014d565b806370a08231146102da5780637863365f1461030a578063796c5e941461033a57806395d89b411461036a578063a22cb46514610388578063a3c0b95b146103a45761014d565b8063176b9b7511610115578063176b9b751461021c57806323b872dd146102385780633db45b541461025457806342842e0e146102705780636352211e1461028c5780636804a958146102bc5761014d565b806301ffc9a71461015257806306fdde0314610182578063081812fc146101a0578063095ea7b3146101d057806309a16ae5146101ec575b600080fd5b61016c60048036038101906101679190612881565b6104e5565b6040516101799190612fb9565b60405180910390f35b61018a6105c7565b6040516101979190612fd4565b60405180910390f35b6101ba60048036038101906101b591906129ea565b610659565b6040516101c79190612f30565b60405180910390f35b6101ea60048036038101906101e59190612845565b6106de565b005b610206600480360381019061020191906126da565b6107f6565b6040516102139190612f97565b60405180910390f35b610236600480360381019061023191906128d3565b61088d565b005b610252600480360381019061024d919061273f565b610b11565b005b61026e6004803603810190610269919061293f565b610b71565b005b61028a6004803603810190610285919061273f565b610e17565b005b6102a660048036038101906102a191906129ea565b610e37565b6040516102b39190612f30565b60405180910390f35b6102c4610ee9565b6040516102d19190612f97565b60405180910390f35b6102f460048036038101906102ef91906126da565b610fd1565b6040516103019190613226565b60405180910390f35b610324600480360381019061031f9190612845565b611089565b6040516103319190613226565b60405180910390f35b610354600480360381019061034f91906129ea565b6110ba565b6040516103619190612f97565b60405180910390f35b610372611128565b60405161037f9190612fd4565b60405180910390f35b6103a2600480360381019061039d9190612809565b6111ba565b005b6103be60048036038101906103b991906129ea565b6111d0565b6040516103ce94939291906132af565b60405180910390f35b6103f160048036038101906103ec919061278e565b611330565b005b61040d600480360381019061040891906129ea565b611392565b60405161041a9190612f30565b60405180910390f35b61043d600480360381019061043891906129ea565b6113c5565b60405161044a9190612fd4565b60405180910390f35b61046d600480360381019061046891906129ea565b611517565b60405161047a9190612fd4565b60405180910390f35b61049d60048036038101906104989190612703565b6115b7565b6040516104aa9190612fb9565b60405180910390f35b6104cd60048036038101906104c891906129ea565b61164b565b6040516104dc93929190613271565b60405180910390f35b60007f80ac58cd000000000000000000000000000000000000000000000000000000007bffffffffffffffffffffffffffffffffffffffffffffffffffffffff1916827bffffffffffffffffffffffffffffffffffffffffffffffffffffffff191614806105b057507f5b5e139f000000000000000000000000000000000000000000000000000000007bffffffffffffffffffffffffffffffffffffffffffffffffffffffff1916827bffffffffffffffffffffffffffffffffffffffffffffffffffffffff1916145b806105c057506105bf8261171d565b5b9050919050565b6060600080546105d690613649565b80601f016020809104026020016040519081016040528092919081815260200182805461060290613649565b801561064f5780601f106106245761010080835404028352916020019161064f565b820191906000526020600020905b81548152906001019060200180831161063257829003601f168201915b5050505050905090565b600061066482611787565b6106a3576040517f08c379a000000000000000000000000000000000000000000000000000000000815260040161069a906131a6565b60405180910390fd5b6004600083815260200190815260200160002060009054906101000a900473ffffffffffffffffffffffffffffffffffffffff169050919050565b60006106e982610e37565b90508073ffffffffffffffffffffffffffffffffffffffff168373ffffffffffffffffffffffffffffffffffffffff16141561075a576040517f08c379a0000000000000000000000000000000000000000000000000000000008152600401610751906131e6565b60405180910390fd5b8073ffffffffffffffffffffffffffffffffffffffff166107796117f3565b73ffffffffffffffffffffffffffffffffffffffff1614806107a857506107a7816107a26117f3565b6115b7565b5b6107e7576040517f08c379a00000000000000000000000000000000000000000000000000000000081526004016107de906130e6565b60405180910390fd5b6107f183836117fb565b505050565b6060600e60008373ffffffffffffffffffffffffffffffffffffffff1673ffffffffffffffffffffffffffffffffffffffff16815260200190815260200160002080548060200260200160405190810160405280929190818152602001828054801561088157602002820191906000526020600020905b81548152602001906001019080831161086d575b50505050509050919050565b600960008154809291906108a0906136e0565b91905055506000600954905060405180608001604052808281526020018481526020013373ffffffffffffffffffffffffffffffffffffffff168152602001600067ffffffffffffffff811115610920577f4e487b7100000000000000000000000000000000000000000000000000000000600052604160045260246000fd5b60405190808252806020026020018201604052801561094e5781602001602082028036833780820191505090505b50815250600c600083815260200190815260200160002060008201518160000155602082015181600101908051906020019061098b9291906124b1565b5060408201518160020160006101000a81548173ffffffffffffffffffffffffffffffffffffffff021916908373ffffffffffffffffffffffffffffffffffffffff16021790555060608201518160030190805190602001906109ef929190612537565b5090505033600d600083815260200190815260200160002060006101000a81548173ffffffffffffffffffffffffffffffffffffffff021916908373ffffffffffffffffffffffffffffffffffffffff160217905550600e60003373ffffffffffffffffffffffffffffffffffffffff1673ffffffffffffffffffffffffffffffffffffffff16815260200190815260200160002081908060018154018082558091505060019003906000526020600020016000909190919091505581600a60008381526020019081526020016000209080519060200190610ad29291906124b1565b507f7b5a520c0e4b578a26c9d30d55a79e2b2aec43c74bca7a5e2719980ec06d54e08382604051610b04929190612ff6565b60405180910390a1505050565b610b22610b1c6117f3565b826118b4565b610b61576040517f08c379a0000000000000000000000000000000000000000000000000000000008152600401610b5890613206565b60405180910390fd5b610b6c838383611992565b505050565b6000610b7d8233611bf9565b9050610bac600760009054906101000a900473ffffffffffffffffffffffffffffffffffffffff1660016111ba565b60405180608001604052808281526020018681526020013373ffffffffffffffffffffffffffffffffffffffff16815260200184815250600b6000838152602001908152602001600020600082015181600001556020820151816001019080519060200190610c1c9291906124b1565b5060408201518160020160006101000a81548173ffffffffffffffffffffffffffffffffffffffff021916908373ffffffffffffffffffffffffffffffffffffffff1602179055506060820151816003019080519060200190610c809291906124b1565b50905050600c6000600e60003373ffffffffffffffffffffffffffffffffffffffff1673ffffffffffffffffffffffffffffffffffffffff1681526020019081526020016000208681548110610cff577f4e487b7100000000000000000000000000000000000000000000000000000000600052603260045260246000fd5b906000526020600020015481526020019081526020016000206003018190806001815401808255809150506001900390600052602060002001600090919091909150557f276d44579a9ca458b8dbacf1fa90abfb08d6017ce6aeebd0f02bc1f81de208d68186600c6000600e60003373ffffffffffffffffffffffffffffffffffffffff1673ffffffffffffffffffffffffffffffffffffffff1681526020019081526020016000208981548110610de0577f4e487b7100000000000000000000000000000000000000000000000000000000600052603260045260246000fd5b90600052602060002001548152602001908152602001600020604051610e0893929190613302565b60405180910390a15050505050565b610e3283838360405180602001604052806000815250611330565b505050565b6000806002600084815260200190815260200160002060009054906101000a900473ffffffffffffffffffffffffffffffffffffffff169050600073ffffffffffffffffffffffffffffffffffffffff168173ffffffffffffffffffffffffffffffffffffffff161415610ee0576040517f08c379a0000000000000000000000000000000000000000000000000000000008152600401610ed790613126565b60405180910390fd5b80915050919050565b6060600060095467ffffffffffffffff811115610f2f577f4e487b7100000000000000000000000000000000000000000000000000000000600052604160045260246000fd5b604051908082528060200260200182016040528015610f5d5781602001602082028036833780820191505090505b5090506000600190505b6009548111610fc95780828281518110610faa577f4e487b7100000000000000000000000000000000000000000000000000000000600052603260045260246000fd5b6020026020010181815250508080610fc1906136e0565b915050610f67565b508091505090565b60008073ffffffffffffffffffffffffffffffffffffffff168273ffffffffffffffffffffffffffffffffffffffff161415611042576040517f08c379a000000000000000000000000000000000000000000000000000000000815260040161103990613106565b60405180910390fd5b600360008373ffffffffffffffffffffffffffffffffffffffff1673ffffffffffffffffffffffffffffffffffffffff168152602001908152602001600020549050919050565b600e60205281600052604060002081815481106110a557600080fd5b90600052602060002001600091509150505481565b6060600c600083815260200190815260200160002060030180548060200260200160405190810160405280929190818152602001828054801561111c57602002820191906000526020600020905b815481526020019060010190808311611108575b50505050509050919050565b60606001805461113790613649565b80601f016020809104026020016040519081016040528092919081815260200182805461116390613649565b80156111b05780601f10611185576101008083540402835291602001916111b0565b820191906000526020600020905b81548152906001019060200180831161119357829003601f168201915b5050505050905090565b6111cc6111c56117f3565b8383611c6b565b5050565b600b6020528060005260406000206000915090508060000154908060010180546111f990613649565b80601f016020809104026020016040519081016040528092919081815260200182805461122590613649565b80156112725780601f1061124757610100808354040283529160200191611272565b820191906000526020600020905b81548152906001019060200180831161125557829003601f168201915b5050505050908060020160009054906101000a900473ffffffffffffffffffffffffffffffffffffffff16908060030180546112ad90613649565b80601f01602080910402602001604051908101604052809291908181526020018280546112d990613649565b80156113265780601f106112fb57610100808354040283529160200191611326565b820191906000526020600020905b81548152906001019060200180831161130957829003601f168201915b5050505050905084565b61134161133b6117f3565b836118b4565b611380576040517f08c379a000000000000000000000000000000000000000000000000000000000815260040161137790613206565b60405180910390fd5b61138c84848484611dd8565b50505050565b600d6020528060005260406000206000915054906101000a900473ffffffffffffffffffffffffffffffffffffffff1681565b60606113d082611787565b61140f576040517f08c379a000000000000000000000000000000000000000000000000000000000815260040161140690613186565b60405180910390fd5b600060066000848152602001908152602001600020805461142f90613649565b80601f016020809104026020016040519081016040528092919081815260200182805461145b90613649565b80156114a85780601f1061147d576101008083540402835291602001916114a8565b820191906000526020600020905b81548152906001019060200180831161148b57829003601f168201915b5050505050905060006114b9611e34565b90506000815114156114cf578192505050611512565b6000825111156115045780826040516020016114ec929190612f0c565b60405160208183030381529060405292505050611512565b61150d84611e4b565b925050505b919050565b600a602052806000526040600020600091509050805461153690613649565b80601f016020809104026020016040519081016040528092919081815260200182805461156290613649565b80156115af5780601f10611584576101008083540402835291602001916115af565b820191906000526020600020905b81548152906001019060200180831161159257829003601f168201915b505050505081565b6000600560008473ffffffffffffffffffffffffffffffffffffffff1673ffffffffffffffffffffffffffffffffffffffff16815260200190815260200160002060008373ffffffffffffffffffffffffffffffffffffffff1673ffffffffffffffffffffffffffffffffffffffff16815260200190815260200160002060009054906101000a900460ff16905092915050565b600c60205280600052604060002060009150905080600001549080600101805461167490613649565b80601f01602080910402602001604051908101604052809291908181526020018280546116a090613649565b80156116ed5780601f106116c2576101008083540402835291602001916116ed565b820191906000526020600020905b8154815290600101906020018083116116d057829003601f168201915b5050505050908060020160009054906101000a900473ffffffffffffffffffffffffffffffffffffffff16905083565b60007f01ffc9a7000000000000000000000000000000000000000000000000000000007bffffffffffffffffffffffffffffffffffffffffffffffffffffffff1916827bffffffffffffffffffffffffffffffffffffffffffffffffffffffff1916149050919050565b60008073ffffffffffffffffffffffffffffffffffffffff166002600084815260200190815260200160002060009054906101000a900473ffffffffffffffffffffffffffffffffffffffff1673ffffffffffffffffffffffffffffffffffffffff1614159050919050565b600033905090565b816004600083815260200190815260200160002060006101000a81548173ffffffffffffffffffffffffffffffffffffffff021916908373ffffffffffffffffffffffffffffffffffffffff160217905550808273ffffffffffffffffffffffffffffffffffffffff1661186e83610e37565b73ffffffffffffffffffffffffffffffffffffffff167f8c5be1e5ebec7d5bd14f71427d1e84f3dd0314c0f7b2291e5b200ac8c7c3b92560405160405180910390a45050565b60006118bf82611787565b6118fe576040517f08c379a00000000000000000000000000000000000000000000000000000000081526004016118f5906130c6565b60405180910390fd5b600061190983610e37565b90508073ffffffffffffffffffffffffffffffffffffffff168473ffffffffffffffffffffffffffffffffffffffff16148061197857508373ffffffffffffffffffffffffffffffffffffffff1661196084610659565b73ffffffffffffffffffffffffffffffffffffffff16145b80611989575061198881856115b7565b5b91505092915050565b8273ffffffffffffffffffffffffffffffffffffffff166119b282610e37565b73ffffffffffffffffffffffffffffffffffffffff1614611a08576040517f08c379a00000000000000000000000000000000000000000000000000000000081526004016119ff90613046565b60405180910390fd5b600073ffffffffffffffffffffffffffffffffffffffff168273ffffffffffffffffffffffffffffffffffffffff161415611a78576040517f08c379a0000000000000000000000000000000000000000000000000000000008152600401611a6f90613086565b60405180910390fd5b611a83838383611ef2565b611a8e6000826117fb565b6001600360008573ffffffffffffffffffffffffffffffffffffffff1673ffffffffffffffffffffffffffffffffffffffff1681526020019081526020016000206000828254611ade9190613535565b925050819055506001600360008473ffffffffffffffffffffffffffffffffffffffff1673ffffffffffffffffffffffffffffffffffffffff1681526020019081526020016000206000828254611b3591906134ae565b92505081905550816002600083815260200190815260200160002060006101000a81548173ffffffffffffffffffffffffffffffffffffffff021916908373ffffffffffffffffffffffffffffffffffffffff160217905550808273ffffffffffffffffffffffffffffffffffffffff168473ffffffffffffffffffffffffffffffffffffffff167fddf252ad1be2c89b69c2b068fc378daa952ba7f163c4a11628f55a4df523b3ef60405160405180910390a4611bf4838383611ef7565b505050565b600060086000815480929190611c0e906136e0565b91905055506008549050611c228282611efc565b611c2c81846120d6565b7f5d3ac5872118b949a1f8db596134a0e1587ecf18f2203bb1e3ea420c3c3f8fa98184604051611c5d929190613241565b60405180910390a192915050565b8173ffffffffffffffffffffffffffffffffffffffff168373ffffffffffffffffffffffffffffffffffffffff161415611cda576040517f08c379a0000000000000000000000000000000000000000000000000000000008152600401611cd1906130a6565b60405180910390fd5b80600560008573ffffffffffffffffffffffffffffffffffffffff1673ffffffffffffffffffffffffffffffffffffffff16815260200190815260200160002060008473ffffffffffffffffffffffffffffffffffffffff1673ffffffffffffffffffffffffffffffffffffffff16815260200190815260200160002060006101000a81548160ff0219169083151502179055508173ffffffffffffffffffffffffffffffffffffffff168373ffffffffffffffffffffffffffffffffffffffff167f17307eab39ab6107e8899845ad3d59bd9653f200f220920489ca2b5937696c3183604051611dcb9190612fb9565b60405180910390a3505050565b611de3848484611992565b611def8484848461214a565b611e2e576040517f08c379a0000000000000000000000000000000000000000000000000000000008152600401611e2590613026565b60405180910390fd5b50505050565b606060405180602001604052806000815250905090565b6060611e5682611787565b611e95576040517f08c379a0000000000000000000000000000000000000000000000000000000008152600401611e8c906131c6565b60405180910390fd5b6000611e9f611e34565b90506000815111611ebf5760405180602001604052806000815250611eea565b80611ec9846122e1565b604051602001611eda929190612f0c565b6040516020818303038152906040525b915050919050565b505050565b505050565b600073ffffffffffffffffffffffffffffffffffffffff168273ffffffffffffffffffffffffffffffffffffffff161415611f6c576040517f08c379a0000000000000000000000000000000000000000000000000000000008152600401611f6390613166565b60405180910390fd5b611f7581611787565b15611fb5576040517f08c379a0000000000000000000000000000000000000000000000000000000008152600401611fac90613066565b60405180910390fd5b611fc160008383611ef2565b6001600360008473ffffffffffffffffffffffffffffffffffffffff1673ffffffffffffffffffffffffffffffffffffffff168152602001908152602001600020600082825461201191906134ae565b92505081905550816002600083815260200190815260200160002060006101000a81548173ffffffffffffffffffffffffffffffffffffffff021916908373ffffffffffffffffffffffffffffffffffffffff160217905550808273ffffffffffffffffffffffffffffffffffffffff16600073ffffffffffffffffffffffffffffffffffffffff167fddf252ad1be2c89b69c2b068fc378daa952ba7f163c4a11628f55a4df523b3ef60405160405180910390a46120d260008383611ef7565b5050565b6120df82611787565b61211e576040517f08c379a000000000000000000000000000000000000000000000000000000000815260040161211590613146565b60405180910390fd5b806006600084815260200190815260200160002090805190602001906121459291906124b1565b505050565b600061216b8473ffffffffffffffffffffffffffffffffffffffff1661248e565b156122d4578373ffffffffffffffffffffffffffffffffffffffff1663150b7a026121946117f3565b8786866040518563ffffffff1660e01b81526004016121b69493929190612f4b565b602060405180830381600087803b1580156121d057600080fd5b505af192505050801561220157506040513d601f19601f820116820180604052508101906121fe91906128aa565b60015b612284573d8060008114612231576040519150601f19603f3d011682016040523d82523d6000602084013e612236565b606091505b5060008151141561227c576040517f08c379a000000000000000000000000000000000000000000000000000000000815260040161227390613026565b60405180910390fd5b805181602001fd5b63150b7a0260e01b7bffffffffffffffffffffffffffffffffffffffffffffffffffffffff1916817bffffffffffffffffffffffffffffffffffffffffffffffffffffffff1916149150506122d9565b600190505b949350505050565b60606000821415612329576040518060400160405280600181526020017f30000000000000000000000000000000000000000000000000000000000000008152509050612489565b600082905060005b6000821461235b578080612344906136e0565b915050600a826123549190613504565b9150612331565b60008167ffffffffffffffff81111561239d577f4e487b7100000000000000000000000000000000000000000000000000000000600052604160045260246000fd5b6040519080825280601f01601f1916602001820160405280156123cf5781602001600182028036833780820191505090505b5090505b60008514612482576001826123e89190613535565b9150600a856123f79190613729565b603061240391906134ae565b60f81b81838151811061243f577f4e487b7100000000000000000000000000000000000000000000000000000000600052603260045260246000fd5b60200101907effffffffffffffffffffffffffffffffffffffffffffffffffffffffffffff1916908160001a905350600a8561247b9190613504565b94506123d3565b8093505050505b919050565b6000808273ffffffffffffffffffffffffffffffffffffffff163b119050919050565b8280546124bd90613649565b90600052602060002090601f0160209004810192826124df5760008555612526565b82601f106124f857805160ff1916838001178555612526565b82800160010185558215612526579182015b8281111561252557825182559160200191906001019061250a565b5b5090506125339190612584565b5090565b828054828255906000526020600020908101928215612573579160200282015b82811115612572578251825591602001919060010190612557565b5b5090506125809190612584565b5090565b5b8082111561259d576000816000905550600101612585565b5090565b60006125b46125af8461336c565b613347565b9050828152602081018484840111156125cc57600080fd5b6125d7848285613607565b509392505050565b60006125f26125ed8461339d565b613347565b90508281526020810184848401111561260a57600080fd5b612615848285613607565b509392505050565b60008135905061262c81613cc5565b92915050565b60008135905061264181613cdc565b92915050565b60008135905061265681613cf3565b92915050565b60008151905061266b81613cf3565b92915050565b600082601f83011261268257600080fd5b81356126928482602086016125a1565b91505092915050565b600082601f8301126126ac57600080fd5b81356126bc8482602086016125df565b91505092915050565b6000813590506126d481613d0a565b92915050565b6000602082840312156126ec57600080fd5b60006126fa8482850161261d565b91505092915050565b6000806040838503121561271657600080fd5b60006127248582860161261d565b92505060206127358582860161261d565b9150509250929050565b60008060006060848603121561275457600080fd5b60006127628682870161261d565b93505060206127738682870161261d565b9250506040612784868287016126c5565b9150509250925092565b600080600080608085870312156127a457600080fd5b60006127b28782880161261d565b94505060206127c38782880161261d565b93505060406127d4878288016126c5565b925050606085013567ffffffffffffffff8111156127f157600080fd5b6127fd87828801612671565b91505092959194509250565b6000806040838503121561281c57600080fd5b600061282a8582860161261d565b925050602061283b85828601612632565b9150509250929050565b6000806040838503121561285857600080fd5b60006128668582860161261d565b9250506020612877858286016126c5565b9150509250929050565b60006020828403121561289357600080fd5b60006128a184828501612647565b91505092915050565b6000602082840312156128bc57600080fd5b60006128ca8482850161265c565b91505092915050565b600080604083850312156128e657600080fd5b600083013567ffffffffffffffff81111561290057600080fd5b61290c8582860161269b565b925050602083013567ffffffffffffffff81111561292957600080fd5b6129358582860161269b565b9150509250929050565b6000806000806080858703121561295557600080fd5b600085013567ffffffffffffffff81111561296f57600080fd5b61297b8782880161269b565b945050602061298c878288016126c5565b935050604085013567ffffffffffffffff8111156129a957600080fd5b6129b58782880161269b565b925050606085013567ffffffffffffffff8111156129d257600080fd5b6129de8782880161269b565b91505092959194509250565b6000602082840312156129fc57600080fd5b6000612a0a848285016126c5565b91505092915050565b6000612a1f8383612eee565b60208301905092915050565b612a3481613593565b82525050565b612a4381613593565b82525050565b6000612a5482613408565b612a5e818561345f565b9350612a69836133ce565b8060005b83811015612a9a578151612a818882612a13565b9750612a8c83613434565b925050600181019050612a6d565b5085935050505092915050565b6000612ab282613413565b612abc818561344e565b9350612ac7836133de565b8060005b83811015612aff57612adc82613816565b612ae68882612a13565b9750612af183613441565b925050600181019050612acb565b5085935050505092915050565b612b15816135a5565b82525050565b6000612b268261341e565b612b308185613470565b9350612b40818560208601613616565b612b4981613829565b840191505092915050565b6000612b5f82613429565b612b698185613492565b9350612b79818560208601613616565b612b8281613829565b840191505092915050565b6000612b9882613429565b612ba281856134a3565b9350612bb2818560208601613616565b80840191505092915050565b60008154612bcb81613649565b612bd58186613481565b94506001821660008114612bf05760018114612c0257612c35565b60ff1983168652602086019350612c35565b612c0b856133f3565b60005b83811015612c2d57815481890152600182019150602081019050612c0e565b808801955050505b50505092915050565b6000612c4b603283613492565b9150612c5682613847565b604082019050919050565b6000612c6e602583613492565b9150612c7982613896565b604082019050919050565b6000612c91601c83613492565b9150612c9c826138e5565b602082019050919050565b6000612cb4602483613492565b9150612cbf8261390e565b604082019050919050565b6000612cd7601983613492565b9150612ce28261395d565b602082019050919050565b6000612cfa602c83613492565b9150612d0582613986565b604082019050919050565b6000612d1d603883613492565b9150612d28826139d5565b604082019050919050565b6000612d40602a83613492565b9150612d4b82613a24565b604082019050919050565b6000612d63602983613492565b9150612d6e82613a73565b604082019050919050565b6000612d86602e83613492565b9150612d9182613ac2565b604082019050919050565b6000612da9602083613492565b9150612db482613b11565b602082019050919050565b6000612dcc603183613492565b9150612dd782613b3a565b604082019050919050565b6000612def602c83613492565b9150612dfa82613b89565b604082019050919050565b6000612e12602f83613492565b9150612e1d82613bd8565b604082019050919050565b6000612e35602183613492565b9150612e4082613c27565b604082019050919050565b6000612e58603183613492565b9150612e6382613c76565b604082019050919050565b6000608083016000808401549050612e8581613695565b612e926000870182612eee565b50600184018583036020870152612ea98382612bbe565b92505060028401549050612ebc8161367b565b612ec96040870182612a2b565b50600384018583036060870152612ee08382612aa7565b925050819250505092915050565b612ef7816135fd565b82525050565b612f06816135fd565b82525050565b6000612f188285612b8d565b9150612f248284612b8d565b91508190509392505050565b6000602082019050612f456000830184612a3a565b92915050565b6000608082019050612f606000830187612a3a565b612f6d6020830186612a3a565b612f7a6040830185612efd565b8181036060830152612f8c8184612b1b565b905095945050505050565b60006020820190508181036000830152612fb18184612a49565b905092915050565b6000602082019050612fce6000830184612b0c565b92915050565b60006020820190508181036000830152612fee8184612b54565b905092915050565b600060408201905081810360008301526130108185612b54565b905061301f6020830184612efd565b9392505050565b6000602082019050818103600083015261303f81612c3e565b9050919050565b6000602082019050818103600083015261305f81612c61565b9050919050565b6000602082019050818103600083015261307f81612c84565b9050919050565b6000602082019050818103600083015261309f81612ca7565b9050919050565b600060208201905081810360008301526130bf81612cca565b9050919050565b600060208201905081810360008301526130df81612ced565b9050919050565b600060208201905081810360008301526130ff81612d10565b9050919050565b6000602082019050818103600083015261311f81612d33565b9050919050565b6000602082019050818103600083015261313f81612d56565b9050919050565b6000602082019050818103600083015261315f81612d79565b9050919050565b6000602082019050818103600083015261317f81612d9c565b9050919050565b6000602082019050818103600083015261319f81612dbf565b9050919050565b600060208201905081810360008301526131bf81612de2565b9050919050565b600060208201905081810360008301526131df81612e05565b9050919050565b600060208201905081810360008301526131ff81612e28565b9050919050565b6000602082019050818103600083015261321f81612e4b565b9050919050565b600060208201905061323b6000830184612efd565b92915050565b60006040820190506132566000830185612efd565b81810360208301526132688184612b54565b90509392505050565b60006060820190506132866000830186612efd565b81810360208301526132988185612b54565b90506132a76040830184612a3a565b949350505050565b60006080820190506132c46000830187612efd565b81810360208301526132d68186612b54565b90506132e56040830185612a3a565b81810360608301526132f78184612b54565b905095945050505050565b60006060820190506133176000830186612efd565b81810360208301526133298185612b54565b9050818103604083015261333d8184612e6e565b9050949350505050565b6000613351613362565b905061335d82826136af565b919050565b6000604051905090565b600067ffffffffffffffff821115613387576133866137e7565b5b61339082613829565b9050602081019050919050565b600067ffffffffffffffff8211156133b8576133b76137e7565b5b6133c182613829565b9050602081019050919050565b6000819050602082019050919050565b60008190508160005260206000209050919050565b60008190508160005260206000209050919050565b600081519050919050565b600081549050919050565b600081519050919050565b600081519050919050565b6000602082019050919050565b6000600182019050919050565b600082825260208201905092915050565b600082825260208201905092915050565b600082825260208201905092915050565b600082825260208201905092915050565b600082825260208201905092915050565b600081905092915050565b60006134b9826135fd565b91506134c4836135fd565b9250827fffffffffffffffffffffffffffffffffffffffffffffffffffffffffffffffff038211156134f9576134f861375a565b5b828201905092915050565b600061350f826135fd565b915061351a836135fd565b92508261352a57613529613789565b5b828204905092915050565b6000613540826135fd565b915061354b836135fd565b92508282101561355e5761355d61375a565b5b828203905092915050565b600073ffffffffffffffffffffffffffffffffffffffff82169050919050565b6000819050919050565b600061359e826135dd565b9050919050565b60008115159050919050565b60007fffffffff0000000000000000000000000000000000000000000000000000000082169050919050565b600073ffffffffffffffffffffffffffffffffffffffff82169050919050565b6000819050919050565b82818337600083830152505050565b60005b83811015613634578082015181840152602081019050613619565b83811115613643576000848401525b50505050565b6000600282049050600182168061366157607f821691505b60208210811415613675576136746137b8565b5b50919050565b600061368e6136898361383a565b613569565b9050919050565b60006136a86136a38361383a565b613589565b9050919050565b6136b882613829565b810181811067ffffffffffffffff821117156136d7576136d66137e7565b5b80604052505050565b60006136eb826135fd565b91507fffffffffffffffffffffffffffffffffffffffffffffffffffffffffffffffff82141561371e5761371d61375a565b5b600182019050919050565b6000613734826135fd565b915061373f836135fd565b92508261374f5761374e613789565b5b828206905092915050565b7f4e487b7100000000000000000000000000000000000000000000000000000000600052601160045260246000fd5b7f4e487b7100000000000000000000000000000000000000000000000000000000600052601260045260246000fd5b7f4e487b7100000000000000000000000000000000000000000000000000000000600052602260045260246000fd5b7f4e487b7100000000000000000000000000000000000000000000000000000000600052604160045260246000fd5b60006138228254613695565b9050919050565b6000601f19601f8301169050919050565b60008160001c9050919050565b7f4552433732313a207472616e7366657220746f206e6f6e20455243373231526560008201527f63656976657220696d706c656d656e7465720000000000000000000000000000602082015250565b7f4552433732313a207472616e736665722066726f6d20696e636f72726563742060008201527f6f776e6572000000000000000000000000000000000000000000000000000000602082015250565b7f4552433732313a20746f6b656e20616c7265616479206d696e74656400000000600082015250565b7f4552433732313a207472616e7366657220746f20746865207a65726f2061646460008201527f7265737300000000000000000000000000000000000000000000000000000000602082015250565b7f4552433732313a20617070726f766520746f2063616c6c657200000000000000600082015250565b7f4552433732313a206f70657261746f7220717565727920666f72206e6f6e657860008201527f697374656e7420746f6b656e0000000000000000000000000000000000000000602082015250565b7f4552433732313a20617070726f76652063616c6c6572206973206e6f74206f7760008201527f6e6572206e6f7220617070726f76656420666f7220616c6c0000000000000000602082015250565b7f4552433732313a2062616c616e636520717565727920666f7220746865207a6560008201527f726f206164647265737300000000000000000000000000000000000000000000602082015250565b7f4552433732313a206f776e657220717565727920666f72206e6f6e657869737460008201527f656e7420746f6b656e0000000000000000000000000000000000000000000000602082015250565b7f45524337323155524953746f726167653a2055524920736574206f66206e6f6e60008201527f6578697374656e7420746f6b656e000000000000000000000000000000000000602082015250565b7f4552433732313a206d696e7420746f20746865207a65726f2061646472657373600082015250565b7f45524337323155524953746f726167653a2055524920717565727920666f722060008201527f6e6f6e6578697374656e7420746f6b656e000000000000000000000000000000602082015250565b7f4552433732313a20617070726f76656420717565727920666f72206e6f6e657860008201527f697374656e7420746f6b656e0000000000000000000000000000000000000000602082015250565b7f4552433732314d657461646174613a2055524920717565727920666f72206e6f60008201527f6e6578697374656e7420746f6b656e0000000000000000000000000000000000602082015250565b7f4552433732313a20617070726f76616c20746f2063757272656e74206f776e6560008201527f7200000000000000000000000000000000000000000000000000000000000000602082015250565b7f4552433732313a207472616e736665722063616c6c6572206973206e6f74206f60008201527f776e6572206e6f7220617070726f766564000000000000000000000000000000602082015250565b613cce81613593565b8114613cd957600080fd5b50565b613ce5816135a5565b8114613cf057600080fd5b50565b613cfc816135b1565b8114613d0757600080fd5b50565b613d13816135fd565b8114613d1e57600080fd5b5056fea264697066735822122064cc6127fba85890253b59046c0ffe9b96e411afcd0c9b21b4af559f69c6eb7664736f6c63430008040033",
  "linkReferences": {},
  "deployedLinkReferences": {}
}