{
  "_format": "hh-sol-artifact-1",
  "contractName": "CoreCollection",
  "sourceName": "contracts/CoreCollection.sol",
  "abi": [
    {
      "inputs": [
        {
          "internalType": "address",
          "name": "_contractAddress",
          "type": "address"
        }
      ],
      "stateMutability": "nonpayable",
      "type": "constructor"
    },
    {
      "anonymous": false,
      "inputs": [
        {
          "indexed": true,
          "internalType": "address",
          "name": "owner",
          "type": "address"
        },
        {
          "indexed": true,
          "internalType": "address",
          "name": "approved",
          "type": "address"
        },
        {
          "indexed": true,
          "internalType": "uint256",
          "name": "tokenId",
          "type": "uint256"
        }
      ],
      "name": "Approval",
      "type": "event"
    },
    {
      "anonymous": false,
      "inputs": [
        {
          "indexed": true,
          "internalType": "address",
          "name": "owner",
          "type": "address"
        },
        {
          "indexed": true,
          "internalType": "address",
          "name": "operator",
          "type": "address"
        },
        {
          "indexed": false,
          "internalType": "bool",
          "name": "approved",
          "type": "bool"
        }
      ],
      "name": "ApprovalForAll",
      "type": "event"
    },
    {
      "anonymous": false,
      "inputs": [
        {
          "indexed": false,
          "internalType": "string",
          "name": "_name",
          "type": "string"
        },
        {
          "indexed": false,
          "internalType": "uint256",
          "name": "_collectionId",
          "type": "uint256"
        }
      ],
      "name": "CollectionCreated",
      "type": "event"
    },
    {
      "anonymous": false,
      "inputs": [
        {
          "indexed": false,
          "internalType": "uint256",
          "name": "_itemId",
          "type": "uint256"
        },
        {
          "indexed": false,
          "internalType": "string",
          "name": "_NFTName",
          "type": "string"
        },
        {
          "components": [
            {
              "internalType": "uint256",
              "name": "collectionId",
              "type": "uint256"
            },
            {
              "internalType": "string",
              "name": "name",
              "type": "string"
            },
            {
              "internalType": "address",
              "name": "creator",
              "type": "address"
            },
            {
              "internalType": "string",
              "name": "collectionLink",
              "type": "string"
            },
            {
              "internalType": "uint256[]",
              "name": "itemIds",
              "type": "uint256[]"
            }
          ],
          "indexed": false,
          "internalType": "struct CoreCollection.Collection",
          "name": "_collection",
          "type": "tuple"
        }
      ],
      "name": "NFTCreated",
      "type": "event"
    },
    {
      "anonymous": false,
      "inputs": [
        {
          "indexed": false,
          "internalType": "uint256",
          "name": "_newItemId",
          "type": "uint256"
        },
        {
          "indexed": false,
          "internalType": "string",
          "name": "_tokenURI",
          "type": "string"
        }
      ],
      "name": "TokenCreated",
      "type": "event"
    },
    {
      "anonymous": false,
      "inputs": [
        {
          "indexed": true,
          "internalType": "address",
          "name": "from",
          "type": "address"
        },
        {
          "indexed": true,
          "internalType": "address",
          "name": "to",
          "type": "address"
        },
        {
          "indexed": true,
          "internalType": "uint256",
          "name": "tokenId",
          "type": "uint256"
        }
      ],
      "name": "Transfer",
      "type": "event"
    },
    {
      "inputs": [
        {
          "internalType": "uint256",
          "name": "",
          "type": "uint256"
        }
      ],
      "name": "NFTs",
      "outputs": [
        {
          "internalType": "uint256",
          "name": "itemId",
          "type": "uint256"
        },
        {
          "internalType": "string",
          "name": "nft_name",
          "type": "string"
        },
        {
          "internalType": "address",
          "name": "creator",
          "type": "address"
        },
        {
          "internalType": "string",
          "name": "externalLink",
          "type": "string"
        }
      ],
      "stateMutability": "view",
      "type": "function"
    },
    {
      "inputs": [
        {
          "internalType": "address",
          "name": "to",
          "type": "address"
        },
        {
          "internalType": "uint256",
          "name": "tokenId",
          "type": "uint256"
        }
      ],
      "name": "approve",
      "outputs": [],
      "stateMutability": "nonpayable",
      "type": "function"
    },
    {
      "inputs": [
        {
          "internalType": "address",
          "name": "owner",
          "type": "address"
        }
      ],
      "name": "balanceOf",
      "outputs": [
        {
          "internalType": "uint256",
          "name": "",
          "type": "uint256"
        }
      ],
      "stateMutability": "view",
      "type": "function"
    },
    {
      "inputs": [
        {
          "internalType": "uint256",
          "name": "",
          "type": "uint256"
        }
      ],
      "name": "collectionIdToUser",
      "outputs": [
        {
          "internalType": "address",
          "name": "",
          "type": "address"
        }
      ],
      "stateMutability": "view",
      "type": "function"
    },
    {
      "inputs": [
        {
          "internalType": "uint256",
          "name": "",
          "type": "uint256"
        }
      ],
      "name": "collections",
      "outputs": [
        {
          "internalType": "uint256",
          "name": "collectionId",
          "type": "uint256"
        },
        {
          "internalType": "string",
          "name": "name",
          "type": "string"
        },
        {
          "internalType": "address",
          "name": "creator",
          "type": "address"
        },
        {
          "internalType": "string",
          "name": "collectionLink",
          "type": "string"
        }
      ],
      "stateMutability": "view",
      "type": "function"
    },
    {
      "inputs": [
        {
          "internalType": "string",
          "name": "_name",
          "type": "string"
        },
        {
          "internalType": "string",
          "name": "_collectionLink",
          "type": "string"
        }
      ],
      "name": "createCollection",
      "outputs": [],
      "stateMutability": "nonpayable",
      "type": "function"
    },
    {
      "inputs": [
        {
          "internalType": "string",
          "name": "_NFTName",
          "type": "string"
        },
        {
          "internalType": "uint256",
          "name": "_collectionId",
          "type": "uint256"
        },
        {
          "internalType": "string",
          "name": "_externalLink",
          "type": "string"
        },
        {
          "internalType": "string",
          "name": "_tokenURI",
          "type": "string"
        }
      ],
      "name": "createNFT",
      "outputs": [],
      "stateMutability": "nonpayable",
      "type": "function"
    },
    {
      "inputs": [],
      "name": "getAllCollections",
      "outputs": [
        {
          "internalType": "uint256[]",
          "name": "",
          "type": "uint256[]"
        }
      ],
      "stateMutability": "view",
      "type": "function"
    },
    {
      "inputs": [
        {
          "internalType": "uint256",
          "name": "tokenId",
          "type": "uint256"
        }
      ],
      "name": "getApproved",
      "outputs": [
        {
          "internalType": "address",
          "name": "",
          "type": "address"
        }
      ],
      "stateMutability": "view",
      "type": "function"
    },
    {
      "inputs": [
        {
          "internalType": "address",
          "name": "_address",
          "type": "address"
        }
      ],
      "name": "getCollectionIds",
      "outputs": [
        {
          "internalType": "uint256[]",
          "name": "",
          "type": "uint256[]"
        }
      ],
      "stateMutability": "view",
      "type": "function"
    },
    {
      "inputs": [
        {
          "internalType": "uint256",
          "name": "collectionId",
          "type": "uint256"
        }
      ],
      "name": "getItems",
      "outputs": [
        {
          "internalType": "uint256[]",
          "name": "",
          "type": "uint256[]"
        }
      ],
      "stateMutability": "view",
      "type": "function"
    },
    {
      "inputs": [],
      "name": "getMyNFTs",
      "outputs": [
        {
          "components": [
            {
              "internalType": "uint256",
              "name": "itemId",
              "type": "uint256"
            },
            {
              "internalType": "string",
              "name": "nft_name",
              "type": "string"
            },
            {
              "internalType": "address",
              "name": "creator",
              "type": "address"
            },
            {
              "internalType": "string",
              "name": "externalLink",
              "type": "string"
            }
          ],
          "internalType": "struct CoreCollection.NFT[]",
          "name": "",
          "type": "tuple[]"
        }
      ],
      "stateMutability": "view",
      "type": "function"
    },
    {
      "inputs": [
        {
          "internalType": "address",
          "name": "owner",
          "type": "address"
        },
        {
          "internalType": "address",
          "name": "operator",
          "type": "address"
        }
      ],
      "name": "isApprovedForAll",
      "outputs": [
        {
          "internalType": "bool",
          "name": "",
          "type": "bool"
        }
      ],
      "stateMutability": "view",
      "type": "function"
    },
    {
      "inputs": [],
      "name": "name",
      "outputs": [
        {
          "internalType": "string",
          "name": "",
          "type": "string"
        }
      ],
      "stateMutability": "view",
      "type": "function"
    },
    {
      "inputs": [
        {
          "internalType": "uint256",
          "name": "tokenId",
          "type": "uint256"
        }
      ],
      "name": "ownerOf",
      "outputs": [
        {
          "internalType": "address",
          "name": "",
          "type": "address"
        }
      ],
      "stateMutability": "view",
      "type": "function"
    },
    {
      "inputs": [
        {
          "internalType": "address",
          "name": "from",
          "type": "address"
        },
        {
          "internalType": "address",
          "name": "to",
          "type": "address"
        },
        {
          "internalType": "uint256",
          "name": "tokenId",
          "type": "uint256"
        }
      ],
      "name": "safeTransferFrom",
      "outputs": [],
      "stateMutability": "nonpayable",
      "type": "function"
    },
    {
      "inputs": [
        {
          "internalType": "address",
          "name": "from",
          "type": "address"
        },
        {
          "internalType": "address",
          "name": "to",
          "type": "address"
        },
        {
          "internalType": "uint256",
          "name": "tokenId",
          "type": "uint256"
        },
        {
          "internalType": "bytes",
          "name": "_data",
          "type": "bytes"
        }
      ],
      "name": "safeTransferFrom",
      "outputs": [],
      "stateMutability": "nonpayable",
      "type": "function"
    },
    {
      "inputs": [
        {
          "internalType": "address",
          "name": "operator",
          "type": "address"
        },
        {
          "internalType": "bool",
          "name": "approved",
          "type": "bool"
        }
      ],
      "name": "setApprovalForAll",
      "outputs": [],
      "stateMutability": "nonpayable",
      "type": "function"
    },
    {
      "inputs": [
        {
          "internalType": "bytes4",
          "name": "interfaceId",
          "type": "bytes4"
        }
      ],
      "name": "supportsInterface",
      "outputs": [
        {
          "internalType": "bool",
          "name": "",
          "type": "bool"
        }
      ],
      "stateMutability": "view",
      "type": "function"
    },
    {
      "inputs": [],
      "name": "symbol",
      "outputs": [
        {
          "internalType": "string",
          "name": "",
          "type": "string"
        }
      ],
      "stateMutability": "view",
      "type": "function"
    },
    {
      "inputs": [
        {
          "internalType": "uint256",
          "name": "tokenId",
          "type": "uint256"
        }
      ],
      "name": "tokenURI",
      "outputs": [
        {
          "internalType": "string",
          "name": "",
          "type": "string"
        }
      ],
      "stateMutability": "view",
      "type": "function"
    },
    {
      "inputs": [
        {
          "internalType": "address",
          "name": "from",
          "type": "address"
        },
        {
          "internalType": "address",
          "name": "to",
          "type": "address"
        },
        {
          "internalType": "uint256",
          "name": "tokenId",
          "type": "uint256"
        }
      ],
      "name": "transferFrom",
      "outputs": [],
      "stateMutability": "nonpayable",
      "type": "function"
    },
    {
      "inputs": [
        {
          "internalType": "address",
          "name": "",
          "type": "address"
        },
        {
          "internalType": "uint256",
          "name": "",
          "type": "uint256"
        }
      ],
      "name": "userToCollectionIds",
      "outputs": [
        {
          "internalType": "uint256",
          "name": "",
          "type": "uint256"
        }
      ],
      "stateMutability": "view",
      "type": "function"
    }
  ],
  "bytecode": "0x60806040523480156200001157600080fd5b50604051620044ff380380620044ff8339818101604052810190620000379190620001e6565b6040518060400160405280600581526020017f4f617369730000000000000000000000000000000000000000000000000000008152506040518060400160405280600281526020017f4f430000000000000000000000000000000000000000000000000000000000008152508160009080519060200190620000bb9291906200011f565b508060019080519060200190620000d49291906200011f565b50505080600760006101000a81548173ffffffffffffffffffffffffffffffffffffffff021916908373ffffffffffffffffffffffffffffffffffffffff16021790555050620002c5565b8280546200012d9062000246565b90600052602060002090601f0160209004810192826200015157600085556200019d565b82601f106200016c57805160ff19168380011785556200019d565b828001600101855582156200019d579182015b828111156200019c5782518255916020019190600101906200017f565b5b509050620001ac9190620001b0565b5090565b5b80821115620001cb576000816000905550600101620001b1565b5090565b600081519050620001e081620002ab565b92915050565b600060208284031215620001f957600080fd5b60006200020984828501620001cf565b91505092915050565b60006200021f8262000226565b9050919050565b600073ffffffffffffffffffffffffffffffffffffffff82169050919050565b600060028204905060018216806200025f57607f821691505b602082108114156200027657620002756200027c565b5b50919050565b7f4e487b7100000000000000000000000000000000000000000000000000000000600052602260045260246000fd5b620002b68162000212565b8114620002c257600080fd5b50565b61422a80620002d56000396000f3fe608060405234801561001057600080fd5b506004361061014d5760003560e01c80636804a958116100c3578063a3c0b95b1161007c578063a3c0b95b146103c2578063b88d4fde146103f5578063bd0be69514610411578063c87b56dd14610441578063e985e9c514610471578063fdbda0ec146104a15761014d565b80636804a958146102da57806370a08231146102f85780637863365f14610328578063796c5e941461035857806395d89b4114610388578063a22cb465146103a65761014d565b8063176b9b7511610115578063176b9b751461021c57806323b872dd146102385780633db45b541461025457806342842e0e14610270578063629cb2e41461028c5780636352211e146102aa5761014d565b806301ffc9a71461015257806306fdde0314610182578063081812fc146101a0578063095ea7b3146101d057806309a16ae5146101ec575b600080fd5b61016c60048036038101906101679190612bf2565b6104d4565b6040516101799190613491565b60405180910390f35b61018a6105b6565b60405161019791906134ac565b60405180910390f35b6101ba60048036038101906101b59190612d5b565b610648565b6040516101c791906133e6565b60405180910390f35b6101ea60048036038101906101e59190612bb6565b6106cd565b005b61020660048036038101906102019190612a4b565b6107e5565b604051610213919061346f565b60405180910390f35b61023660048036038101906102319190612c44565b61087c565b005b610252600480360381019061024d9190612ab0565b610afb565b005b61026e60048036038101906102699190612cb0565b610b5b565b005b61028a60048036038101906102859190612ab0565b610e01565b005b610294610e21565b6040516102a1919061344d565b60405180910390f35b6102c460048036038101906102bf9190612d5b565b611170565b6040516102d191906133e6565b60405180910390f35b6102e2611222565b6040516102ef919061346f565b60405180910390f35b610312600480360381019061030d9190612a4b565b611316565b60405161031f91906136fe565b60405180910390f35b610342600480360381019061033d9190612bb6565b6113ce565b60405161034f91906136fe565b60405180910390f35b610372600480360381019061036d9190612d5b565b6113ff565b60405161037f919061346f565b60405180910390f35b61039061146d565b60405161039d91906134ac565b60405180910390f35b6103c060048036038101906103bb9190612b7a565b6114ff565b005b6103dc60048036038101906103d79190612d5b565b611515565b6040516103ec9493929190613749565b60405180910390f35b61040f600480360381019061040a9190612aff565b611675565b005b61042b60048036038101906104269190612d5b565b6116d7565b60405161043891906133e6565b60405180910390f35b61045b60048036038101906104569190612d5b565b61170a565b60405161046891906134ac565b60405180910390f35b61048b60048036038101906104869190612a74565b61185c565b6040516104989190613491565b60405180910390f35b6104bb60048036038101906104b69190612d5b565b6118f0565b6040516104cb9493929190613749565b60405180910390f35b60007f80ac58cd000000000000000000000000000000000000000000000000000000007bffffffffffffffffffffffffffffffffffffffffffffffffffffffff1916827bffffffffffffffffffffffffffffffffffffffffffffffffffffffff1916148061059f57507f5b5e139f000000000000000000000000000000000000000000000000000000007bffffffffffffffffffffffffffffffffffffffffffffffffffffffff1916827bffffffffffffffffffffffffffffffffffffffffffffffffffffffff1916145b806105af57506105ae82611a50565b5b9050919050565b6060600080546105c590613b1c565b80601f01602080910402602001604051908101604052809291908181526020018280546105f190613b1c565b801561063e5780601f106106135761010080835404028352916020019161063e565b820191906000526020600020905b81548152906001019060200180831161062157829003601f168201915b5050505050905090565b600061065382611aba565b610692576040517f08c379a00000000000000000000000000000000000000000000000000000000081526004016106899061367e565b60405180910390fd5b6004600083815260200190815260200160002060009054906101000a900473ffffffffffffffffffffffffffffffffffffffff169050919050565b60006106d882611170565b90508073ffffffffffffffffffffffffffffffffffffffff168373ffffffffffffffffffffffffffffffffffffffff161415610749576040517f08c379a0000000000000000000000000000000000000000000000000000000008152600401610740906136be565b60405180910390fd5b8073ffffffffffffffffffffffffffffffffffffffff16610768611b26565b73ffffffffffffffffffffffffffffffffffffffff161480610797575061079681610791611b26565b61185c565b5b6107d6576040517f08c379a00000000000000000000000000000000000000000000000000000000081526004016107cd906135be565b60405180910390fd5b6107e08383611b2e565b505050565b6060600d60008373ffffffffffffffffffffffffffffffffffffffff1673ffffffffffffffffffffffffffffffffffffffff16815260200190815260200160002080548060200260200160405190810160405280929190818152602001828054801561087057602002820191906000526020600020905b81548152602001906001019080831161085c575b50505050509050919050565b6009600081548092919061088f90613bb3565b9190505550600060095490506040518060a001604052808281526020018481526020013373ffffffffffffffffffffffffffffffffffffffff168152602001838152602001600067ffffffffffffffff811115610915577f4e487b7100000000000000000000000000000000000000000000000000000000600052604160045260246000fd5b6040519080825280602002602001820160405280156109435781602001602082028036833780820191505090505b50815250600b60008381526020019081526020016000206000820151816000015560208201518160010190805190602001906109809291906127e4565b5060408201518160020160006101000a81548173ffffffffffffffffffffffffffffffffffffffff021916908373ffffffffffffffffffffffffffffffffffffffff16021790555060608201518160030190805190602001906109e49291906127e4565b506080820151816004019080519060200190610a0192919061286a565b5090505033600c600083815260200190815260200160002060006101000a81548173ffffffffffffffffffffffffffffffffffffffff021916908373ffffffffffffffffffffffffffffffffffffffff160217905550600d60003373ffffffffffffffffffffffffffffffffffffffff1673ffffffffffffffffffffffffffffffffffffffff1681526020019081526020016000208190806001815401808255809150506001900390600052602060002001600090919091909150557f7b5a520c0e4b578a26c9d30d55a79e2b2aec43c74bca7a5e2719980ec06d54e08382604051610aee9291906134ce565b60405180910390a1505050565b610b0c610b06611b26565b82611be7565b610b4b576040517f08c379a0000000000000000000000000000000000000000000000000000000008152600401610b42906136de565b60405180910390fd5b610b56838383611cc5565b505050565b6000610b678233611f2c565b9050610b96600760009054906101000a900473ffffffffffffffffffffffffffffffffffffffff1660016114ff565b60405180608001604052808281526020018681526020013373ffffffffffffffffffffffffffffffffffffffff16815260200184815250600a6000838152602001908152602001600020600082015181600001556020820151816001019080519060200190610c069291906127e4565b5060408201518160020160006101000a81548173ffffffffffffffffffffffffffffffffffffffff021916908373ffffffffffffffffffffffffffffffffffffffff1602179055506060820151816003019080519060200190610c6a9291906127e4565b50905050600b6000600d60003373ffffffffffffffffffffffffffffffffffffffff1673ffffffffffffffffffffffffffffffffffffffff1681526020019081526020016000208681548110610ce9577f4e487b7100000000000000000000000000000000000000000000000000000000600052603260045260246000fd5b906000526020600020015481526020019081526020016000206004018190806001815401808255809150506001900390600052602060002001600090919091909150557f5ba8d7ca25df1b811b6c09ea413fa22e451ce32edb72525624253b9d74f4aec98186600b6000600d60003373ffffffffffffffffffffffffffffffffffffffff1673ffffffffffffffffffffffffffffffffffffffff1681526020019081526020016000208981548110610dca577f4e487b7100000000000000000000000000000000000000000000000000000000600052603260045260246000fd5b90600052602060002001548152602001908152602001600020604051610df29392919061379c565b60405180910390a15050505050565b610e1c83838360405180602001604052806000815250611675565b505050565b6060600080600190505b6008548111610e92573373ffffffffffffffffffffffffffffffffffffffff16610e5482611170565b73ffffffffffffffffffffffffffffffffffffffff161415610e7f578180610e7b90613bb3565b9250505b8080610e8a90613bb3565b915050610e2b565b5060008167ffffffffffffffff811115610ed5577f4e487b7100000000000000000000000000000000000000000000000000000000600052604160045260246000fd5b604051908082528060200260200182016040528015610f0e57816020015b610efb6128b7565b815260200190600190039081610ef35790505b509050600080600190505b6008548111611166573373ffffffffffffffffffffffffffffffffffffffff16610f4282611170565b73ffffffffffffffffffffffffffffffffffffffff16141561115357600a600082815260200190815260200160002060405180608001604052908160008201548152602001600182018054610f9690613b1c565b80601f0160208091040260200160405190810160405280929190818152602001828054610fc290613b1c565b801561100f5780601f10610fe45761010080835404028352916020019161100f565b820191906000526020600020905b815481529060010190602001808311610ff257829003601f168201915b505050505081526020016002820160009054906101000a900473ffffffffffffffffffffffffffffffffffffffff1673ffffffffffffffffffffffffffffffffffffffff1673ffffffffffffffffffffffffffffffffffffffff16815260200160038201805461107e90613b1c565b80601f01602080910402602001604051908101604052809291908181526020018280546110aa90613b1c565b80156110f75780601f106110cc576101008083540402835291602001916110f7565b820191906000526020600020905b8154815290600101906020018083116110da57829003601f168201915b505050505081525050838381518110611139577f4e487b7100000000000000000000000000000000000000000000000000000000600052603260045260246000fd5b6020026020010181905250818061114f90613bb3565b9250505b808061115e90613bb3565b915050610f19565b5081935050505090565b6000806002600084815260200190815260200160002060009054906101000a900473ffffffffffffffffffffffffffffffffffffffff169050600073ffffffffffffffffffffffffffffffffffffffff168173ffffffffffffffffffffffffffffffffffffffff161415611219576040517f08c379a0000000000000000000000000000000000000000000000000000000008152600401611210906135fe565b60405180910390fd5b80915050919050565b6060600060095467ffffffffffffffff811115611268577f4e487b7100000000000000000000000000000000000000000000000000000000600052604160045260246000fd5b6040519080825280602002602001820160405280156112965781602001602082028036833780820191505090505b5090506000600190505b600954811161130e5780826001836112b89190613a08565b815181106112ef577f4e487b7100000000000000000000000000000000000000000000000000000000600052603260045260246000fd5b602002602001018181525050808061130690613bb3565b9150506112a0565b508091505090565b60008073ffffffffffffffffffffffffffffffffffffffff168273ffffffffffffffffffffffffffffffffffffffff161415611387576040517f08c379a000000000000000000000000000000000000000000000000000000000815260040161137e906135de565b60405180910390fd5b600360008373ffffffffffffffffffffffffffffffffffffffff1673ffffffffffffffffffffffffffffffffffffffff168152602001908152602001600020549050919050565b600d60205281600052604060002081815481106113ea57600080fd5b90600052602060002001600091509150505481565b6060600b600083815260200190815260200160002060040180548060200260200160405190810160405280929190818152602001828054801561146157602002820191906000526020600020905b81548152602001906001019080831161144d575b50505050509050919050565b60606001805461147c90613b1c565b80601f01602080910402602001604051908101604052809291908181526020018280546114a890613b1c565b80156114f55780601f106114ca576101008083540402835291602001916114f5565b820191906000526020600020905b8154815290600101906020018083116114d857829003601f168201915b5050505050905090565b61151161150a611b26565b8383611f9e565b5050565b600a60205280600052604060002060009150905080600001549080600101805461153e90613b1c565b80601f016020809104026020016040519081016040528092919081815260200182805461156a90613b1c565b80156115b75780601f1061158c576101008083540402835291602001916115b7565b820191906000526020600020905b81548152906001019060200180831161159a57829003601f168201915b5050505050908060020160009054906101000a900473ffffffffffffffffffffffffffffffffffffffff16908060030180546115f290613b1c565b80601f016020809104026020016040519081016040528092919081815260200182805461161e90613b1c565b801561166b5780601f106116405761010080835404028352916020019161166b565b820191906000526020600020905b81548152906001019060200180831161164e57829003601f168201915b5050505050905084565b611686611680611b26565b83611be7565b6116c5576040517f08c379a00000000000000000000000000000000000000000000000000000000081526004016116bc906136de565b60405180910390fd5b6116d18484848461210b565b50505050565b600c6020528060005260406000206000915054906101000a900473ffffffffffffffffffffffffffffffffffffffff1681565b606061171582611aba565b611754576040517f08c379a000000000000000000000000000000000000000000000000000000000815260040161174b9061365e565b60405180910390fd5b600060066000848152602001908152602001600020805461177490613b1c565b80601f01602080910402602001604051908101604052809291908181526020018280546117a090613b1c565b80156117ed5780601f106117c2576101008083540402835291602001916117ed565b820191906000526020600020905b8154815290600101906020018083116117d057829003601f168201915b5050505050905060006117fe612167565b9050600081511415611814578192505050611857565b6000825111156118495780826040516020016118319291906133c2565b60405160208183030381529060405292505050611857565b6118528461217e565b925050505b919050565b6000600560008473ffffffffffffffffffffffffffffffffffffffff1673ffffffffffffffffffffffffffffffffffffffff16815260200190815260200160002060008373ffffffffffffffffffffffffffffffffffffffff1673ffffffffffffffffffffffffffffffffffffffff16815260200190815260200160002060009054906101000a900460ff16905092915050565b600b60205280600052604060002060009150905080600001549080600101805461191990613b1c565b80601f016020809104026020016040519081016040528092919081815260200182805461194590613b1c565b80156119925780601f1061196757610100808354040283529160200191611992565b820191906000526020600020905b81548152906001019060200180831161197557829003601f168201915b5050505050908060020160009054906101000a900473ffffffffffffffffffffffffffffffffffffffff16908060030180546119cd90613b1c565b80601f01602080910402602001604051908101604052809291908181526020018280546119f990613b1c565b8015611a465780601f10611a1b57610100808354040283529160200191611a46565b820191906000526020600020905b815481529060010190602001808311611a2957829003601f168201915b5050505050905084565b60007f01ffc9a7000000000000000000000000000000000000000000000000000000007bffffffffffffffffffffffffffffffffffffffffffffffffffffffff1916827bffffffffffffffffffffffffffffffffffffffffffffffffffffffff1916149050919050565b60008073ffffffffffffffffffffffffffffffffffffffff166002600084815260200190815260200160002060009054906101000a900473ffffffffffffffffffffffffffffffffffffffff1673ffffffffffffffffffffffffffffffffffffffff1614159050919050565b600033905090565b816004600083815260200190815260200160002060006101000a81548173ffffffffffffffffffffffffffffffffffffffff021916908373ffffffffffffffffffffffffffffffffffffffff160217905550808273ffffffffffffffffffffffffffffffffffffffff16611ba183611170565b73ffffffffffffffffffffffffffffffffffffffff167f8c5be1e5ebec7d5bd14f71427d1e84f3dd0314c0f7b2291e5b200ac8c7c3b92560405160405180910390a45050565b6000611bf282611aba565b611c31576040517f08c379a0000000000000000000000000000000000000000000000000000000008152600401611c289061359e565b60405180910390fd5b6000611c3c83611170565b90508073ffffffffffffffffffffffffffffffffffffffff168473ffffffffffffffffffffffffffffffffffffffff161480611cab57508373ffffffffffffffffffffffffffffffffffffffff16611c9384610648565b73ffffffffffffffffffffffffffffffffffffffff16145b80611cbc5750611cbb818561185c565b5b91505092915050565b8273ffffffffffffffffffffffffffffffffffffffff16611ce582611170565b73ffffffffffffffffffffffffffffffffffffffff1614611d3b576040517f08c379a0000000000000000000000000000000000000000000000000000000008152600401611d329061351e565b60405180910390fd5b600073ffffffffffffffffffffffffffffffffffffffff168273ffffffffffffffffffffffffffffffffffffffff161415611dab576040517f08c379a0000000000000000000000000000000000000000000000000000000008152600401611da29061355e565b60405180910390fd5b611db6838383612225565b611dc1600082611b2e565b6001600360008573ffffffffffffffffffffffffffffffffffffffff1673ffffffffffffffffffffffffffffffffffffffff1681526020019081526020016000206000828254611e119190613a08565b925050819055506001600360008473ffffffffffffffffffffffffffffffffffffffff1673ffffffffffffffffffffffffffffffffffffffff1681526020019081526020016000206000828254611e689190613981565b92505081905550816002600083815260200190815260200160002060006101000a81548173ffffffffffffffffffffffffffffffffffffffff021916908373ffffffffffffffffffffffffffffffffffffffff160217905550808273ffffffffffffffffffffffffffffffffffffffff168473ffffffffffffffffffffffffffffffffffffffff167fddf252ad1be2c89b69c2b068fc378daa952ba7f163c4a11628f55a4df523b3ef60405160405180910390a4611f2783838361222a565b505050565b600060086000815480929190611f4190613bb3565b91905055506008549050611f55828261222f565b611f5f8184612409565b7f5d3ac5872118b949a1f8db596134a0e1587ecf18f2203bb1e3ea420c3c3f8fa98184604051611f90929190613719565b60405180910390a192915050565b8173ffffffffffffffffffffffffffffffffffffffff168373ffffffffffffffffffffffffffffffffffffffff16141561200d576040517f08c379a00000000000000000000000000000000000000000000000000000000081526004016120049061357e565b60405180910390fd5b80600560008573ffffffffffffffffffffffffffffffffffffffff1673ffffffffffffffffffffffffffffffffffffffff16815260200190815260200160002060008473ffffffffffffffffffffffffffffffffffffffff1673ffffffffffffffffffffffffffffffffffffffff16815260200190815260200160002060006101000a81548160ff0219169083151502179055508173ffffffffffffffffffffffffffffffffffffffff168373ffffffffffffffffffffffffffffffffffffffff167f17307eab39ab6107e8899845ad3d59bd9653f200f220920489ca2b5937696c31836040516120fe9190613491565b60405180910390a3505050565b612116848484611cc5565b6121228484848461247d565b612161576040517f08c379a0000000000000000000000000000000000000000000000000000000008152600401612158906134fe565b60405180910390fd5b50505050565b606060405180602001604052806000815250905090565b606061218982611aba565b6121c8576040517f08c379a00000000000000000000000000000000000000000000000000000000081526004016121bf9061369e565b60405180910390fd5b60006121d2612167565b905060008151116121f2576040518060200160405280600081525061221d565b806121fc84612614565b60405160200161220d9291906133c2565b6040516020818303038152906040525b915050919050565b505050565b505050565b600073ffffffffffffffffffffffffffffffffffffffff168273ffffffffffffffffffffffffffffffffffffffff16141561229f576040517f08c379a00000000000000000000000000000000000000000000000000000000081526004016122969061363e565b60405180910390fd5b6122a881611aba565b156122e8576040517f08c379a00000000000000000000000000000000000000000000000000000000081526004016122df9061353e565b60405180910390fd5b6122f460008383612225565b6001600360008473ffffffffffffffffffffffffffffffffffffffff1673ffffffffffffffffffffffffffffffffffffffff16815260200190815260200160002060008282546123449190613981565b92505081905550816002600083815260200190815260200160002060006101000a81548173ffffffffffffffffffffffffffffffffffffffff021916908373ffffffffffffffffffffffffffffffffffffffff160217905550808273ffffffffffffffffffffffffffffffffffffffff16600073ffffffffffffffffffffffffffffffffffffffff167fddf252ad1be2c89b69c2b068fc378daa952ba7f163c4a11628f55a4df523b3ef60405160405180910390a46124056000838361222a565b5050565b61241282611aba565b612451576040517f08c379a00000000000000000000000000000000000000000000000000000000081526004016124489061361e565b60405180910390fd5b806006600084815260200190815260200160002090805190602001906124789291906127e4565b505050565b600061249e8473ffffffffffffffffffffffffffffffffffffffff166127c1565b15612607578373ffffffffffffffffffffffffffffffffffffffff1663150b7a026124c7611b26565b8786866040518563ffffffff1660e01b81526004016124e99493929190613401565b602060405180830381600087803b15801561250357600080fd5b505af192505050801561253457506040513d601f19601f820116820180604052508101906125319190612c1b565b60015b6125b7573d8060008114612564576040519150601f19603f3d011682016040523d82523d6000602084013e612569565b606091505b506000815114156125af576040517f08c379a00000000000000000000000000000000000000000000000000000000081526004016125a6906134fe565b60405180910390fd5b805181602001fd5b63150b7a0260e01b7bffffffffffffffffffffffffffffffffffffffffffffffffffffffff1916817bffffffffffffffffffffffffffffffffffffffffffffffffffffffff19161491505061260c565b600190505b949350505050565b6060600082141561265c576040518060400160405280600181526020017f300000000000000000000000000000000000000000000000000000000000000081525090506127bc565b600082905060005b6000821461268e57808061267790613bb3565b915050600a8261268791906139d7565b9150612664565b60008167ffffffffffffffff8111156126d0577f4e487b7100000000000000000000000000000000000000000000000000000000600052604160045260246000fd5b6040519080825280601f01601f1916602001820160405280156127025781602001600182028036833780820191505090505b5090505b600085146127b55760018261271b9190613a08565b9150600a8561272a9190613bfc565b60306127369190613981565b60f81b818381518110612772577f4e487b7100000000000000000000000000000000000000000000000000000000600052603260045260246000fd5b60200101907effffffffffffffffffffffffffffffffffffffffffffffffffffffffffffff1916908160001a905350600a856127ae91906139d7565b9450612706565b8093505050505b919050565b6000808273ffffffffffffffffffffffffffffffffffffffff163b119050919050565b8280546127f090613b1c565b90600052602060002090601f0160209004810192826128125760008555612859565b82601f1061282b57805160ff1916838001178555612859565b82800160010185558215612859579182015b8281111561285857825182559160200191906001019061283d565b5b50905061286691906128f5565b5090565b8280548282559060005260206000209081019282156128a6579160200282015b828111156128a557825182559160200191906001019061288a565b5b5090506128b391906128f5565b5090565b60405180608001604052806000815260200160608152602001600073ffffffffffffffffffffffffffffffffffffffff168152602001606081525090565b5b8082111561290e5760008160009055506001016128f6565b5090565b600061292561292084613806565b6137e1565b90508281526020810184848401111561293d57600080fd5b612948848285613ada565b509392505050565b600061296361295e84613837565b6137e1565b90508281526020810184848401111561297b57600080fd5b612986848285613ada565b509392505050565b60008135905061299d81614198565b92915050565b6000813590506129b2816141af565b92915050565b6000813590506129c7816141c6565b92915050565b6000815190506129dc816141c6565b92915050565b600082601f8301126129f357600080fd5b8135612a03848260208601612912565b91505092915050565b600082601f830112612a1d57600080fd5b8135612a2d848260208601612950565b91505092915050565b600081359050612a45816141dd565b92915050565b600060208284031215612a5d57600080fd5b6000612a6b8482850161298e565b91505092915050565b60008060408385031215612a8757600080fd5b6000612a958582860161298e565b9250506020612aa68582860161298e565b9150509250929050565b600080600060608486031215612ac557600080fd5b6000612ad38682870161298e565b9350506020612ae48682870161298e565b9250506040612af586828701612a36565b9150509250925092565b60008060008060808587031215612b1557600080fd5b6000612b238782880161298e565b9450506020612b348782880161298e565b9350506040612b4587828801612a36565b925050606085013567ffffffffffffffff811115612b6257600080fd5b612b6e878288016129e2565b91505092959194509250565b60008060408385031215612b8d57600080fd5b6000612b9b8582860161298e565b9250506020612bac858286016129a3565b9150509250929050565b60008060408385031215612bc957600080fd5b6000612bd78582860161298e565b9250506020612be885828601612a36565b9150509250929050565b600060208284031215612c0457600080fd5b6000612c12848285016129b8565b91505092915050565b600060208284031215612c2d57600080fd5b6000612c3b848285016129cd565b91505092915050565b60008060408385031215612c5757600080fd5b600083013567ffffffffffffffff811115612c7157600080fd5b612c7d85828601612a0c565b925050602083013567ffffffffffffffff811115612c9a57600080fd5b612ca685828601612a0c565b9150509250929050565b60008060008060808587031215612cc657600080fd5b600085013567ffffffffffffffff811115612ce057600080fd5b612cec87828801612a0c565b9450506020612cfd87828801612a36565b935050604085013567ffffffffffffffff811115612d1a57600080fd5b612d2687828801612a0c565b925050606085013567ffffffffffffffff811115612d4357600080fd5b612d4f87828801612a0c565b91505092959194509250565b600060208284031215612d6d57600080fd5b6000612d7b84828501612a36565b91505092915050565b6000612d90838361333a565b905092915050565b6000612da483836133a4565b60208301905092915050565b612db981613a66565b82525050565b612dc881613a66565b82525050565b6000612dd9826138b2565b612de38185613910565b935083602082028501612df585613868565b8060005b85811015612e315784840389528151612e128582612d84565b9450612e1d836138e9565b925060208a01995050600181019050612df9565b50829750879550505050505092915050565b6000612e4e826138bd565b612e588185613932565b9350612e6383613878565b8060005b83811015612e94578151612e7b8882612d98565b9750612e86836138f6565b925050600181019050612e67565b5085935050505092915050565b6000612eac826138c8565b612eb68185613921565b9350612ec183613888565b8060005b83811015612ef957612ed682613ce9565b612ee08882612d98565b9750612eeb83613903565b925050600181019050612ec5565b5085935050505092915050565b612f0f81613a78565b82525050565b6000612f20826138d3565b612f2a8185613943565b9350612f3a818560208601613ae9565b612f4381613cfc565b840191505092915050565b6000612f59826138de565b612f638185613954565b9350612f73818560208601613ae9565b612f7c81613cfc565b840191505092915050565b6000612f92826138de565b612f9c8185613965565b9350612fac818560208601613ae9565b612fb581613cfc565b840191505092915050565b6000612fcb826138de565b612fd58185613976565b9350612fe5818560208601613ae9565b80840191505092915050565b60008154612ffe81613b1c565b6130088186613954565b94506001821660008114613023576001811461303557613068565b60ff1983168652602086019350613068565b61303e8561389d565b60005b8381101561306057815481890152600182019150602081019050613041565b808801955050505b50505092915050565b600061307e603283613965565b915061308982613d1a565b604082019050919050565b60006130a1602583613965565b91506130ac82613d69565b604082019050919050565b60006130c4601c83613965565b91506130cf82613db8565b602082019050919050565b60006130e7602483613965565b91506130f282613de1565b604082019050919050565b600061310a601983613965565b915061311582613e30565b602082019050919050565b600061312d602c83613965565b915061313882613e59565b604082019050919050565b6000613150603883613965565b915061315b82613ea8565b604082019050919050565b6000613173602a83613965565b915061317e82613ef7565b604082019050919050565b6000613196602983613965565b91506131a182613f46565b604082019050919050565b60006131b9602e83613965565b91506131c482613f95565b604082019050919050565b60006131dc602083613965565b91506131e782613fe4565b602082019050919050565b60006131ff603183613965565b915061320a8261400d565b604082019050919050565b6000613222602c83613965565b915061322d8261405c565b604082019050919050565b6000613245602f83613965565b9150613250826140ab565b604082019050919050565b6000613268602183613965565b9150613273826140fa565b604082019050919050565b600061328b603183613965565b915061329682614149565b604082019050919050565b600060a0830160008084015490506132b881613b68565b6132c560008701826133a4565b506001840185830360208701526132dc8382612ff1565b925050600284015490506132ef81613b4e565b6132fc6040870182612db0565b506003840185830360608701526133138382612ff1565b92505060048401858303608087015261332c8382612ea1565b925050819250505092915050565b600060808301600083015161335260008601826133a4565b506020830151848203602086015261336a8282612f4e565b915050604083015161337f6040860182612db0565b50606083015184820360608601526133978282612f4e565b9150508091505092915050565b6133ad81613ad0565b82525050565b6133bc81613ad0565b82525050565b60006133ce8285612fc0565b91506133da8284612fc0565b91508190509392505050565b60006020820190506133fb6000830184612dbf565b92915050565b60006080820190506134166000830187612dbf565b6134236020830186612dbf565b61343060408301856133b3565b81810360608301526134428184612f15565b905095945050505050565b600060208201905081810360008301526134678184612dce565b905092915050565b600060208201905081810360008301526134898184612e43565b905092915050565b60006020820190506134a66000830184612f06565b92915050565b600060208201905081810360008301526134c68184612f87565b905092915050565b600060408201905081810360008301526134e88185612f87565b90506134f760208301846133b3565b9392505050565b6000602082019050818103600083015261351781613071565b9050919050565b6000602082019050818103600083015261353781613094565b9050919050565b60006020820190508181036000830152613557816130b7565b9050919050565b60006020820190508181036000830152613577816130da565b9050919050565b60006020820190508181036000830152613597816130fd565b9050919050565b600060208201905081810360008301526135b781613120565b9050919050565b600060208201905081810360008301526135d781613143565b9050919050565b600060208201905081810360008301526135f781613166565b9050919050565b6000602082019050818103600083015261361781613189565b9050919050565b60006020820190508181036000830152613637816131ac565b9050919050565b60006020820190508181036000830152613657816131cf565b9050919050565b60006020820190508181036000830152613677816131f2565b9050919050565b6000602082019050818103600083015261369781613215565b9050919050565b600060208201905081810360008301526136b781613238565b9050919050565b600060208201905081810360008301526136d78161325b565b9050919050565b600060208201905081810360008301526136f78161327e565b9050919050565b600060208201905061371360008301846133b3565b92915050565b600060408201905061372e60008301856133b3565b81810360208301526137408184612f87565b90509392505050565b600060808201905061375e60008301876133b3565b81810360208301526137708186612f87565b905061377f6040830185612dbf565b81810360608301526137918184612f87565b905095945050505050565b60006060820190506137b160008301866133b3565b81810360208301526137c38185612f87565b905081810360408301526137d781846132a1565b9050949350505050565b60006137eb6137fc565b90506137f78282613b82565b919050565b6000604051905090565b600067ffffffffffffffff82111561382157613820613cba565b5b61382a82613cfc565b9050602081019050919050565b600067ffffffffffffffff82111561385257613851613cba565b5b61385b82613cfc565b9050602081019050919050565b6000819050602082019050919050565b6000819050602082019050919050565b60008190508160005260206000209050919050565b60008190508160005260206000209050919050565b600081519050919050565b600081519050919050565b600081549050919050565b600081519050919050565b600081519050919050565b6000602082019050919050565b6000602082019050919050565b6000600182019050919050565b600082825260208201905092915050565b600082825260208201905092915050565b600082825260208201905092915050565b600082825260208201905092915050565b600082825260208201905092915050565b600082825260208201905092915050565b600081905092915050565b600061398c82613ad0565b915061399783613ad0565b9250827fffffffffffffffffffffffffffffffffffffffffffffffffffffffffffffffff038211156139cc576139cb613c2d565b5b828201905092915050565b60006139e282613ad0565b91506139ed83613ad0565b9250826139fd576139fc613c5c565b5b828204905092915050565b6000613a1382613ad0565b9150613a1e83613ad0565b925082821015613a3157613a30613c2d565b5b828203905092915050565b600073ffffffffffffffffffffffffffffffffffffffff82169050919050565b6000819050919050565b6000613a7182613ab0565b9050919050565b60008115159050919050565b60007fffffffff0000000000000000000000000000000000000000000000000000000082169050919050565b600073ffffffffffffffffffffffffffffffffffffffff82169050919050565b6000819050919050565b82818337600083830152505050565b60005b83811015613b07578082015181840152602081019050613aec565b83811115613b16576000848401525b50505050565b60006002820490506001821680613b3457607f821691505b60208210811415613b4857613b47613c8b565b5b50919050565b6000613b61613b5c83613d0d565b613a3c565b9050919050565b6000613b7b613b7683613d0d565b613a5c565b9050919050565b613b8b82613cfc565b810181811067ffffffffffffffff82111715613baa57613ba9613cba565b5b80604052505050565b6000613bbe82613ad0565b91507fffffffffffffffffffffffffffffffffffffffffffffffffffffffffffffffff821415613bf157613bf0613c2d565b5b600182019050919050565b6000613c0782613ad0565b9150613c1283613ad0565b925082613c2257613c21613c5c565b5b828206905092915050565b7f4e487b7100000000000000000000000000000000000000000000000000000000600052601160045260246000fd5b7f4e487b7100000000000000000000000000000000000000000000000000000000600052601260045260246000fd5b7f4e487b7100000000000000000000000000000000000000000000000000000000600052602260045260246000fd5b7f4e487b7100000000000000000000000000000000000000000000000000000000600052604160045260246000fd5b6000613cf58254613b68565b9050919050565b6000601f19601f8301169050919050565b60008160001c9050919050565b7f4552433732313a207472616e7366657220746f206e6f6e20455243373231526560008201527f63656976657220696d706c656d656e7465720000000000000000000000000000602082015250565b7f4552433732313a207472616e736665722066726f6d20696e636f72726563742060008201527f6f776e6572000000000000000000000000000000000000000000000000000000602082015250565b7f4552433732313a20746f6b656e20616c7265616479206d696e74656400000000600082015250565b7f4552433732313a207472616e7366657220746f20746865207a65726f2061646460008201527f7265737300000000000000000000000000000000000000000000000000000000602082015250565b7f4552433732313a20617070726f766520746f2063616c6c657200000000000000600082015250565b7f4552433732313a206f70657261746f7220717565727920666f72206e6f6e657860008201527f697374656e7420746f6b656e0000000000000000000000000000000000000000602082015250565b7f4552433732313a20617070726f76652063616c6c6572206973206e6f74206f7760008201527f6e6572206e6f7220617070726f76656420666f7220616c6c0000000000000000602082015250565b7f4552433732313a2062616c616e636520717565727920666f7220746865207a6560008201527f726f206164647265737300000000000000000000000000000000000000000000602082015250565b7f4552433732313a206f776e657220717565727920666f72206e6f6e657869737460008201527f656e7420746f6b656e0000000000000000000000000000000000000000000000602082015250565b7f45524337323155524953746f726167653a2055524920736574206f66206e6f6e60008201527f6578697374656e7420746f6b656e000000000000000000000000000000000000602082015250565b7f4552433732313a206d696e7420746f20746865207a65726f2061646472657373600082015250565b7f45524337323155524953746f726167653a2055524920717565727920666f722060008201527f6e6f6e6578697374656e7420746f6b656e000000000000000000000000000000602082015250565b7f4552433732313a20617070726f76656420717565727920666f72206e6f6e657860008201527f697374656e7420746f6b656e0000000000000000000000000000000000000000602082015250565b7f4552433732314d657461646174613a2055524920717565727920666f72206e6f60008201527f6e6578697374656e7420746f6b656e0000000000000000000000000000000000602082015250565b7f4552433732313a20617070726f76616c20746f2063757272656e74206f776e6560008201527f7200000000000000000000000000000000000000000000000000000000000000602082015250565b7f4552433732313a207472616e736665722063616c6c6572206973206e6f74206f60008201527f776e6572206e6f7220617070726f766564000000000000000000000000000000602082015250565b6141a181613a66565b81146141ac57600080fd5b50565b6141b881613a78565b81146141c357600080fd5b50565b6141cf81613a84565b81146141da57600080fd5b50565b6141e681613ad0565b81146141f157600080fd5b5056fea2646970667358221220f35a522d4277dc437a06a18a092d85fc746ec7214492177544512aef35d7698d64736f6c63430008040033",
  "linkReferences": {},
  "deployedLinkReferences": {}
}