{
  "_format": "hh-sol-artifact-1",
  "contractName": "CoreCollection",
  "sourceName": "contracts/CoreCollection.sol",
  "abi": [
    {
      "inputs": [
        {
          "internalType": "address",
          "name": "_contractAddress",
          "type": "address"
        }
      ],
      "stateMutability": "nonpayable",
      "type": "constructor"
    },
    {
      "anonymous": false,
      "inputs": [
        {
          "indexed": true,
          "internalType": "address",
          "name": "owner",
          "type": "address"
        },
        {
          "indexed": true,
          "internalType": "address",
          "name": "approved",
          "type": "address"
        },
        {
          "indexed": true,
          "internalType": "uint256",
          "name": "tokenId",
          "type": "uint256"
        }
      ],
      "name": "Approval",
      "type": "event"
    },
    {
      "anonymous": false,
      "inputs": [
        {
          "indexed": true,
          "internalType": "address",
          "name": "owner",
          "type": "address"
        },
        {
          "indexed": true,
          "internalType": "address",
          "name": "operator",
          "type": "address"
        },
        {
          "indexed": false,
          "internalType": "bool",
          "name": "approved",
          "type": "bool"
        }
      ],
      "name": "ApprovalForAll",
      "type": "event"
    },
    {
      "anonymous": false,
      "inputs": [
        {
          "indexed": false,
          "internalType": "string",
          "name": "_name",
          "type": "string"
        },
        {
          "indexed": false,
          "internalType": "uint256",
          "name": "_collectionId",
          "type": "uint256"
        }
      ],
      "name": "CollectionCreated",
      "type": "event"
    },
    {
      "anonymous": false,
      "inputs": [
        {
          "indexed": false,
          "internalType": "uint256",
          "name": "_itemId",
          "type": "uint256"
        },
        {
          "indexed": false,
          "internalType": "string",
          "name": "_NFTName",
          "type": "string"
        },
        {
          "indexed": false,
          "internalType": "uint256",
          "name": "_collectionId",
          "type": "uint256"
        }
      ],
      "name": "NFTCreated",
      "type": "event"
    },
    {
      "anonymous": false,
      "inputs": [
        {
          "indexed": false,
          "internalType": "uint256",
          "name": "_newItemId",
          "type": "uint256"
        },
        {
          "indexed": false,
          "internalType": "string",
          "name": "_tokenURI",
          "type": "string"
        }
      ],
      "name": "TokenCreated",
      "type": "event"
    },
    {
      "anonymous": false,
      "inputs": [
        {
          "indexed": true,
          "internalType": "address",
          "name": "from",
          "type": "address"
        },
        {
          "indexed": true,
          "internalType": "address",
          "name": "to",
          "type": "address"
        },
        {
          "indexed": true,
          "internalType": "uint256",
          "name": "tokenId",
          "type": "uint256"
        }
      ],
      "name": "Transfer",
      "type": "event"
    },
    {
      "inputs": [
        {
          "internalType": "uint256",
          "name": "",
          "type": "uint256"
        }
      ],
      "name": "NFTs",
      "outputs": [
        {
          "internalType": "uint256",
          "name": "itemId",
          "type": "uint256"
        },
        {
          "internalType": "string",
          "name": "nft_name",
          "type": "string"
        },
        {
          "internalType": "address",
          "name": "creator",
          "type": "address"
        },
        {
          "internalType": "string",
          "name": "externalLink",
          "type": "string"
        }
      ],
      "stateMutability": "view",
      "type": "function"
    },
    {
      "inputs": [
        {
          "internalType": "address",
          "name": "to",
          "type": "address"
        },
        {
          "internalType": "uint256",
          "name": "tokenId",
          "type": "uint256"
        }
      ],
      "name": "approve",
      "outputs": [],
      "stateMutability": "nonpayable",
      "type": "function"
    },
    {
      "inputs": [
        {
          "internalType": "address",
          "name": "owner",
          "type": "address"
        }
      ],
      "name": "balanceOf",
      "outputs": [
        {
          "internalType": "uint256",
          "name": "",
          "type": "uint256"
        }
      ],
      "stateMutability": "view",
      "type": "function"
    },
    {
      "inputs": [
        {
          "internalType": "uint256",
          "name": "",
          "type": "uint256"
        }
      ],
      "name": "collectionIdToUser",
      "outputs": [
        {
          "internalType": "address",
          "name": "",
          "type": "address"
        }
      ],
      "stateMutability": "view",
      "type": "function"
    },
    {
      "inputs": [
        {
          "internalType": "uint256",
          "name": "",
          "type": "uint256"
        }
      ],
      "name": "collections",
      "outputs": [
        {
          "internalType": "uint256",
          "name": "collectionId",
          "type": "uint256"
        },
        {
          "internalType": "string",
          "name": "name",
          "type": "string"
        },
        {
          "internalType": "address",
          "name": "creator",
          "type": "address"
        },
        {
          "internalType": "string",
          "name": "collectionLink",
          "type": "string"
        }
      ],
      "stateMutability": "view",
      "type": "function"
    },
    {
      "inputs": [
        {
          "internalType": "string",
          "name": "_name",
          "type": "string"
        },
        {
          "internalType": "string",
          "name": "_collectionLink",
          "type": "string"
        }
      ],
      "name": "createCollection",
      "outputs": [],
      "stateMutability": "nonpayable",
      "type": "function"
    },
    {
      "inputs": [
        {
          "internalType": "string",
          "name": "_NFTName",
          "type": "string"
        },
        {
          "internalType": "uint256",
          "name": "_collectionId",
          "type": "uint256"
        },
        {
          "internalType": "string",
          "name": "_externalLink",
          "type": "string"
        },
        {
          "internalType": "string",
          "name": "_tokenURI",
          "type": "string"
        }
      ],
      "name": "createNFT",
      "outputs": [],
      "stateMutability": "nonpayable",
      "type": "function"
    },
    {
      "inputs": [],
      "name": "getAllCollections",
      "outputs": [
        {
          "internalType": "uint256[]",
          "name": "",
          "type": "uint256[]"
        }
      ],
      "stateMutability": "view",
      "type": "function"
    },
    {
      "inputs": [
        {
          "internalType": "uint256",
          "name": "tokenId",
          "type": "uint256"
        }
      ],
      "name": "getApproved",
      "outputs": [
        {
          "internalType": "address",
          "name": "",
          "type": "address"
        }
      ],
      "stateMutability": "view",
      "type": "function"
    },
    {
      "inputs": [
        {
          "internalType": "address",
          "name": "_address",
          "type": "address"
        }
      ],
      "name": "getCollectionIds",
      "outputs": [
        {
          "internalType": "uint256[]",
          "name": "",
          "type": "uint256[]"
        }
      ],
      "stateMutability": "view",
      "type": "function"
    },
    {
      "inputs": [
        {
          "internalType": "uint256",
          "name": "collectionId",
          "type": "uint256"
        }
      ],
      "name": "getItems",
      "outputs": [
        {
          "internalType": "uint256[]",
          "name": "",
          "type": "uint256[]"
        }
      ],
      "stateMutability": "view",
      "type": "function"
    },
    {
      "inputs": [],
      "name": "getMyNFTs",
      "outputs": [
        {
          "components": [
            {
              "internalType": "uint256",
              "name": "itemId",
              "type": "uint256"
            },
            {
              "internalType": "string",
              "name": "nft_name",
              "type": "string"
            },
            {
              "internalType": "address",
              "name": "creator",
              "type": "address"
            },
            {
              "internalType": "string",
              "name": "externalLink",
              "type": "string"
            }
          ],
          "internalType": "struct CoreCollection.NFT[]",
          "name": "",
          "type": "tuple[]"
        }
      ],
      "stateMutability": "view",
      "type": "function"
    },
    {
      "inputs": [
        {
          "internalType": "address",
          "name": "owner",
          "type": "address"
        },
        {
          "internalType": "address",
          "name": "operator",
          "type": "address"
        }
      ],
      "name": "isApprovedForAll",
      "outputs": [
        {
          "internalType": "bool",
          "name": "",
          "type": "bool"
        }
      ],
      "stateMutability": "view",
      "type": "function"
    },
    {
      "inputs": [],
      "name": "name",
      "outputs": [
        {
          "internalType": "string",
          "name": "",
          "type": "string"
        }
      ],
      "stateMutability": "view",
      "type": "function"
    },
    {
      "inputs": [
        {
          "internalType": "uint256",
          "name": "tokenId",
          "type": "uint256"
        }
      ],
      "name": "ownerOf",
      "outputs": [
        {
          "internalType": "address",
          "name": "",
          "type": "address"
        }
      ],
      "stateMutability": "view",
      "type": "function"
    },
    {
      "inputs": [
        {
          "internalType": "address",
          "name": "from",
          "type": "address"
        },
        {
          "internalType": "address",
          "name": "to",
          "type": "address"
        },
        {
          "internalType": "uint256",
          "name": "tokenId",
          "type": "uint256"
        }
      ],
      "name": "safeTransferFrom",
      "outputs": [],
      "stateMutability": "nonpayable",
      "type": "function"
    },
    {
      "inputs": [
        {
          "internalType": "address",
          "name": "from",
          "type": "address"
        },
        {
          "internalType": "address",
          "name": "to",
          "type": "address"
        },
        {
          "internalType": "uint256",
          "name": "tokenId",
          "type": "uint256"
        },
        {
          "internalType": "bytes",
          "name": "_data",
          "type": "bytes"
        }
      ],
      "name": "safeTransferFrom",
      "outputs": [],
      "stateMutability": "nonpayable",
      "type": "function"
    },
    {
      "inputs": [
        {
          "internalType": "address",
          "name": "operator",
          "type": "address"
        },
        {
          "internalType": "bool",
          "name": "approved",
          "type": "bool"
        }
      ],
      "name": "setApprovalForAll",
      "outputs": [],
      "stateMutability": "nonpayable",
      "type": "function"
    },
    {
      "inputs": [
        {
          "internalType": "bytes4",
          "name": "interfaceId",
          "type": "bytes4"
        }
      ],
      "name": "supportsInterface",
      "outputs": [
        {
          "internalType": "bool",
          "name": "",
          "type": "bool"
        }
      ],
      "stateMutability": "view",
      "type": "function"
    },
    {
      "inputs": [],
      "name": "symbol",
      "outputs": [
        {
          "internalType": "string",
          "name": "",
          "type": "string"
        }
      ],
      "stateMutability": "view",
      "type": "function"
    },
    {
      "inputs": [
        {
          "internalType": "uint256",
          "name": "tokenId",
          "type": "uint256"
        }
      ],
      "name": "tokenURI",
      "outputs": [
        {
          "internalType": "string",
          "name": "",
          "type": "string"
        }
      ],
      "stateMutability": "view",
      "type": "function"
    },
    {
      "inputs": [
        {
          "internalType": "address",
          "name": "from",
          "type": "address"
        },
        {
          "internalType": "address",
          "name": "to",
          "type": "address"
        },
        {
          "internalType": "uint256",
          "name": "tokenId",
          "type": "uint256"
        }
      ],
      "name": "transferFrom",
      "outputs": [],
      "stateMutability": "nonpayable",
      "type": "function"
    },
    {
      "inputs": [
        {
          "internalType": "address",
          "name": "",
          "type": "address"
        },
        {
          "internalType": "uint256",
          "name": "",
          "type": "uint256"
        }
      ],
      "name": "userToCollectionIds",
      "outputs": [
        {
          "internalType": "uint256",
          "name": "",
          "type": "uint256"
        }
      ],
      "stateMutability": "view",
      "type": "function"
    }
  ],
  "bytecode": "0x60806040523480156200001157600080fd5b506040516200421c3803806200421c8339818101604052810190620000379190620001e6565b6040518060400160405280600581526020017f4f617369730000000000000000000000000000000000000000000000000000008152506040518060400160405280600281526020017f4f430000000000000000000000000000000000000000000000000000000000008152508160009080519060200190620000bb9291906200011f565b508060019080519060200190620000d49291906200011f565b50505080600760006101000a81548173ffffffffffffffffffffffffffffffffffffffff021916908373ffffffffffffffffffffffffffffffffffffffff16021790555050620002c5565b8280546200012d9062000246565b90600052602060002090601f0160209004810192826200015157600085556200019d565b82601f106200016c57805160ff19168380011785556200019d565b828001600101855582156200019d579182015b828111156200019c5782518255916020019190600101906200017f565b5b509050620001ac9190620001b0565b5090565b5b80821115620001cb576000816000905550600101620001b1565b5090565b600081519050620001e081620002ab565b92915050565b600060208284031215620001f957600080fd5b60006200020984828501620001cf565b91505092915050565b60006200021f8262000226565b9050919050565b600073ffffffffffffffffffffffffffffffffffffffff82169050919050565b600060028204905060018216806200025f57607f821691505b602082108114156200027657620002756200027c565b5b50919050565b7f4e487b7100000000000000000000000000000000000000000000000000000000600052602260045260246000fd5b620002b68162000212565b8114620002c257600080fd5b50565b613f4780620002d56000396000f3fe608060405234801561001057600080fd5b506004361061014d5760003560e01c80636804a958116100c3578063a3c0b95b1161007c578063a3c0b95b146103c2578063b88d4fde146103f5578063bd0be69514610411578063c87b56dd14610441578063e985e9c514610471578063fdbda0ec146104a15761014d565b80636804a958146102da57806370a08231146102f85780637863365f14610328578063796c5e941461035857806395d89b4114610388578063a22cb465146103a65761014d565b8063176b9b7511610115578063176b9b751461021c57806323b872dd146102385780633db45b541461025457806342842e0e14610270578063629cb2e41461028c5780636352211e146102aa5761014d565b806301ffc9a71461015257806306fdde0314610182578063081812fc146101a0578063095ea7b3146101d057806309a16ae5146101ec575b600080fd5b61016c60048036038101906101679190612b65565b6104d4565b6040516101799190613286565b60405180910390f35b61018a6105b6565b60405161019791906132a1565b60405180910390f35b6101ba60048036038101906101b59190612cce565b610648565b6040516101c791906131db565b60405180910390f35b6101ea60048036038101906101e59190612b29565b6106cd565b005b610206600480360381019061020191906129be565b6107e5565b6040516102139190613264565b60405180910390f35b61023660048036038101906102319190612bb7565b61087c565b005b610252600480360381019061024d9190612a23565b610afb565b005b61026e60048036038101906102699190612c23565b610b5b565b005b61028a60048036038101906102859190612a23565b610d74565b005b610294610d94565b6040516102a19190613242565b60405180910390f35b6102c460048036038101906102bf9190612cce565b6110e3565b6040516102d191906131db565b60405180910390f35b6102e2611195565b6040516102ef9190613264565b60405180910390f35b610312600480360381019061030d91906129be565b611289565b60405161031f91906134f3565b60405180910390f35b610342600480360381019061033d9190612b29565b611341565b60405161034f91906134f3565b60405180910390f35b610372600480360381019061036d9190612cce565b611372565b60405161037f9190613264565b60405180910390f35b6103906113e0565b60405161039d91906132a1565b60405180910390f35b6103c060048036038101906103bb9190612aed565b611472565b005b6103dc60048036038101906103d79190612cce565b611488565b6040516103ec949392919061353e565b60405180910390f35b61040f600480360381019061040a9190612a72565b6115e8565b005b61042b60048036038101906104269190612cce565b61164a565b60405161043891906131db565b60405180910390f35b61045b60048036038101906104569190612cce565b61167d565b60405161046891906132a1565b60405180910390f35b61048b600480360381019061048691906129e7565b6117cf565b6040516104989190613286565b60405180910390f35b6104bb60048036038101906104b69190612cce565b611863565b6040516104cb949392919061353e565b60405180910390f35b60007f80ac58cd000000000000000000000000000000000000000000000000000000007bffffffffffffffffffffffffffffffffffffffffffffffffffffffff1916827bffffffffffffffffffffffffffffffffffffffffffffffffffffffff1916148061059f57507f5b5e139f000000000000000000000000000000000000000000000000000000007bffffffffffffffffffffffffffffffffffffffffffffffffffffffff1916827bffffffffffffffffffffffffffffffffffffffffffffffffffffffff1916145b806105af57506105ae826119c3565b5b9050919050565b6060600080546105c59061388d565b80601f01602080910402602001604051908101604052809291908181526020018280546105f19061388d565b801561063e5780601f106106135761010080835404028352916020019161063e565b820191906000526020600020905b81548152906001019060200180831161062157829003601f168201915b5050505050905090565b600061065382611a2d565b610692576040517f08c379a000000000000000000000000000000000000000000000000000000000815260040161068990613473565b60405180910390fd5b6004600083815260200190815260200160002060009054906101000a900473ffffffffffffffffffffffffffffffffffffffff169050919050565b60006106d8826110e3565b90508073ffffffffffffffffffffffffffffffffffffffff168373ffffffffffffffffffffffffffffffffffffffff161415610749576040517f08c379a0000000000000000000000000000000000000000000000000000000008152600401610740906134b3565b60405180910390fd5b8073ffffffffffffffffffffffffffffffffffffffff16610768611a99565b73ffffffffffffffffffffffffffffffffffffffff161480610797575061079681610791611a99565b6117cf565b5b6107d6576040517f08c379a00000000000000000000000000000000000000000000000000000000081526004016107cd906133b3565b60405180910390fd5b6107e08383611aa1565b505050565b6060600d60008373ffffffffffffffffffffffffffffffffffffffff1673ffffffffffffffffffffffffffffffffffffffff16815260200190815260200160002080548060200260200160405190810160405280929190818152602001828054801561087057602002820191906000526020600020905b81548152602001906001019080831161085c575b50505050509050919050565b6009600081548092919061088f906138f0565b9190505550600060095490506040518060a001604052808281526020018481526020013373ffffffffffffffffffffffffffffffffffffffff168152602001838152602001600067ffffffffffffffff811115610915577f4e487b7100000000000000000000000000000000000000000000000000000000600052604160045260246000fd5b6040519080825280602002602001820160405280156109435781602001602082028036833780820191505090505b50815250600b6000838152602001908152602001600020600082015181600001556020820151816001019080519060200190610980929190612757565b5060408201518160020160006101000a81548173ffffffffffffffffffffffffffffffffffffffff021916908373ffffffffffffffffffffffffffffffffffffffff16021790555060608201518160030190805190602001906109e4929190612757565b506080820151816004019080519060200190610a019291906127dd565b5090505033600c600083815260200190815260200160002060006101000a81548173ffffffffffffffffffffffffffffffffffffffff021916908373ffffffffffffffffffffffffffffffffffffffff160217905550600d60003373ffffffffffffffffffffffffffffffffffffffff1673ffffffffffffffffffffffffffffffffffffffff1681526020019081526020016000208190806001815401808255809150506001900390600052602060002001600090919091909150557f7b5a520c0e4b578a26c9d30d55a79e2b2aec43c74bca7a5e2719980ec06d54e08382604051610aee9291906132c3565b60405180910390a1505050565b610b0c610b06611a99565b82611b5a565b610b4b576040517f08c379a0000000000000000000000000000000000000000000000000000000008152600401610b42906134d3565b60405180910390fd5b610b56838383611c38565b505050565b6000610b678233611e9f565b9050610b96600760009054906101000a900473ffffffffffffffffffffffffffffffffffffffff166001611472565b60405180608001604052808281526020018681526020013373ffffffffffffffffffffffffffffffffffffffff16815260200184815250600a6000838152602001908152602001600020600082015181600001556020820151816001019080519060200190610c06929190612757565b5060408201518160020160006101000a81548173ffffffffffffffffffffffffffffffffffffffff021916908373ffffffffffffffffffffffffffffffffffffffff1602179055506060820151816003019080519060200190610c6a929190612757565b509050506000600d60003373ffffffffffffffffffffffffffffffffffffffff1673ffffffffffffffffffffffffffffffffffffffff1681526020019081526020016000208581548110610ce7577f4e487b7100000000000000000000000000000000000000000000000000000000600052603260045260246000fd5b90600052602060002001549050600b60008281526020019081526020016000206004018290806001815401808255809150506001900390600052602060002001600090919091909150557fcfced03c29b25b69154f93cdeeaf3c30acf71c9196106123a35ce944ad4e889d828783604051610d6493929190613591565b60405180910390a1505050505050565b610d8f838383604051806020016040528060008152506115e8565b505050565b6060600080600190505b6008548111610e05573373ffffffffffffffffffffffffffffffffffffffff16610dc7826110e3565b73ffffffffffffffffffffffffffffffffffffffff161415610df2578180610dee906138f0565b9250505b8080610dfd906138f0565b915050610d9e565b5060008167ffffffffffffffff811115610e48577f4e487b7100000000000000000000000000000000000000000000000000000000600052604160045260246000fd5b604051908082528060200260200182016040528015610e8157816020015b610e6e61282a565b815260200190600190039081610e665790505b509050600080600190505b60085481116110d9573373ffffffffffffffffffffffffffffffffffffffff16610eb5826110e3565b73ffffffffffffffffffffffffffffffffffffffff1614156110c657600a600082815260200190815260200160002060405180608001604052908160008201548152602001600182018054610f099061388d565b80601f0160208091040260200160405190810160405280929190818152602001828054610f359061388d565b8015610f825780601f10610f5757610100808354040283529160200191610f82565b820191906000526020600020905b815481529060010190602001808311610f6557829003601f168201915b505050505081526020016002820160009054906101000a900473ffffffffffffffffffffffffffffffffffffffff1673ffffffffffffffffffffffffffffffffffffffff1673ffffffffffffffffffffffffffffffffffffffff168152602001600382018054610ff19061388d565b80601f016020809104026020016040519081016040528092919081815260200182805461101d9061388d565b801561106a5780601f1061103f5761010080835404028352916020019161106a565b820191906000526020600020905b81548152906001019060200180831161104d57829003601f168201915b5050505050815250508383815181106110ac577f4e487b7100000000000000000000000000000000000000000000000000000000600052603260045260246000fd5b602002602001018190525081806110c2906138f0565b9250505b80806110d1906138f0565b915050610e8c565b5081935050505090565b6000806002600084815260200190815260200160002060009054906101000a900473ffffffffffffffffffffffffffffffffffffffff169050600073ffffffffffffffffffffffffffffffffffffffff168173ffffffffffffffffffffffffffffffffffffffff16141561118c576040517f08c379a0000000000000000000000000000000000000000000000000000000008152600401611183906133f3565b60405180910390fd5b80915050919050565b6060600060095467ffffffffffffffff8111156111db577f4e487b7100000000000000000000000000000000000000000000000000000000600052604160045260246000fd5b6040519080825280602002602001820160405280156112095781602001602082028036833780820191505090505b5090506000600190505b600954811161128157808260018361122b91906137a3565b81518110611262577f4e487b7100000000000000000000000000000000000000000000000000000000600052603260045260246000fd5b6020026020010181815250508080611279906138f0565b915050611213565b508091505090565b60008073ffffffffffffffffffffffffffffffffffffffff168273ffffffffffffffffffffffffffffffffffffffff1614156112fa576040517f08c379a00000000000000000000000000000000000000000000000000000000081526004016112f1906133d3565b60405180910390fd5b600360008373ffffffffffffffffffffffffffffffffffffffff1673ffffffffffffffffffffffffffffffffffffffff168152602001908152602001600020549050919050565b600d602052816000526040600020818154811061135d57600080fd5b90600052602060002001600091509150505481565b6060600b60008381526020019081526020016000206004018054806020026020016040519081016040528092919081815260200182805480156113d457602002820191906000526020600020905b8154815260200190600101908083116113c0575b50505050509050919050565b6060600180546113ef9061388d565b80601f016020809104026020016040519081016040528092919081815260200182805461141b9061388d565b80156114685780601f1061143d57610100808354040283529160200191611468565b820191906000526020600020905b81548152906001019060200180831161144b57829003601f168201915b5050505050905090565b61148461147d611a99565b8383611f11565b5050565b600a6020528060005260406000206000915090508060000154908060010180546114b19061388d565b80601f01602080910402602001604051908101604052809291908181526020018280546114dd9061388d565b801561152a5780601f106114ff5761010080835404028352916020019161152a565b820191906000526020600020905b81548152906001019060200180831161150d57829003601f168201915b5050505050908060020160009054906101000a900473ffffffffffffffffffffffffffffffffffffffff16908060030180546115659061388d565b80601f01602080910402602001604051908101604052809291908181526020018280546115919061388d565b80156115de5780601f106115b3576101008083540402835291602001916115de565b820191906000526020600020905b8154815290600101906020018083116115c157829003601f168201915b5050505050905084565b6115f96115f3611a99565b83611b5a565b611638576040517f08c379a000000000000000000000000000000000000000000000000000000000815260040161162f906134d3565b60405180910390fd5b6116448484848461207e565b50505050565b600c6020528060005260406000206000915054906101000a900473ffffffffffffffffffffffffffffffffffffffff1681565b606061168882611a2d565b6116c7576040517f08c379a00000000000000000000000000000000000000000000000000000000081526004016116be90613453565b60405180910390fd5b60006006600084815260200190815260200160002080546116e79061388d565b80601f01602080910402602001604051908101604052809291908181526020018280546117139061388d565b80156117605780601f1061173557610100808354040283529160200191611760565b820191906000526020600020905b81548152906001019060200180831161174357829003601f168201915b5050505050905060006117716120da565b90506000815114156117875781925050506117ca565b6000825111156117bc5780826040516020016117a49291906131b7565b604051602081830303815290604052925050506117ca565b6117c5846120f1565b925050505b919050565b6000600560008473ffffffffffffffffffffffffffffffffffffffff1673ffffffffffffffffffffffffffffffffffffffff16815260200190815260200160002060008373ffffffffffffffffffffffffffffffffffffffff1673ffffffffffffffffffffffffffffffffffffffff16815260200190815260200160002060009054906101000a900460ff16905092915050565b600b60205280600052604060002060009150905080600001549080600101805461188c9061388d565b80601f01602080910402602001604051908101604052809291908181526020018280546118b89061388d565b80156119055780601f106118da57610100808354040283529160200191611905565b820191906000526020600020905b8154815290600101906020018083116118e857829003601f168201915b5050505050908060020160009054906101000a900473ffffffffffffffffffffffffffffffffffffffff16908060030180546119409061388d565b80601f016020809104026020016040519081016040528092919081815260200182805461196c9061388d565b80156119b95780601f1061198e576101008083540402835291602001916119b9565b820191906000526020600020905b81548152906001019060200180831161199c57829003601f168201915b5050505050905084565b60007f01ffc9a7000000000000000000000000000000000000000000000000000000007bffffffffffffffffffffffffffffffffffffffffffffffffffffffff1916827bffffffffffffffffffffffffffffffffffffffffffffffffffffffff1916149050919050565b60008073ffffffffffffffffffffffffffffffffffffffff166002600084815260200190815260200160002060009054906101000a900473ffffffffffffffffffffffffffffffffffffffff1673ffffffffffffffffffffffffffffffffffffffff1614159050919050565b600033905090565b816004600083815260200190815260200160002060006101000a81548173ffffffffffffffffffffffffffffffffffffffff021916908373ffffffffffffffffffffffffffffffffffffffff160217905550808273ffffffffffffffffffffffffffffffffffffffff16611b14836110e3565b73ffffffffffffffffffffffffffffffffffffffff167f8c5be1e5ebec7d5bd14f71427d1e84f3dd0314c0f7b2291e5b200ac8c7c3b92560405160405180910390a45050565b6000611b6582611a2d565b611ba4576040517f08c379a0000000000000000000000000000000000000000000000000000000008152600401611b9b90613393565b60405180910390fd5b6000611baf836110e3565b90508073ffffffffffffffffffffffffffffffffffffffff168473ffffffffffffffffffffffffffffffffffffffff161480611c1e57508373ffffffffffffffffffffffffffffffffffffffff16611c0684610648565b73ffffffffffffffffffffffffffffffffffffffff16145b80611c2f5750611c2e81856117cf565b5b91505092915050565b8273ffffffffffffffffffffffffffffffffffffffff16611c58826110e3565b73ffffffffffffffffffffffffffffffffffffffff1614611cae576040517f08c379a0000000000000000000000000000000000000000000000000000000008152600401611ca590613313565b60405180910390fd5b600073ffffffffffffffffffffffffffffffffffffffff168273ffffffffffffffffffffffffffffffffffffffff161415611d1e576040517f08c379a0000000000000000000000000000000000000000000000000000000008152600401611d1590613353565b60405180910390fd5b611d29838383612198565b611d34600082611aa1565b6001600360008573ffffffffffffffffffffffffffffffffffffffff1673ffffffffffffffffffffffffffffffffffffffff1681526020019081526020016000206000828254611d8491906137a3565b925050819055506001600360008473ffffffffffffffffffffffffffffffffffffffff1673ffffffffffffffffffffffffffffffffffffffff1681526020019081526020016000206000828254611ddb919061371c565b92505081905550816002600083815260200190815260200160002060006101000a81548173ffffffffffffffffffffffffffffffffffffffff021916908373ffffffffffffffffffffffffffffffffffffffff160217905550808273ffffffffffffffffffffffffffffffffffffffff168473ffffffffffffffffffffffffffffffffffffffff167fddf252ad1be2c89b69c2b068fc378daa952ba7f163c4a11628f55a4df523b3ef60405160405180910390a4611e9a83838361219d565b505050565b600060086000815480929190611eb4906138f0565b91905055506008549050611ec882826121a2565b611ed2818461237c565b7f5d3ac5872118b949a1f8db596134a0e1587ecf18f2203bb1e3ea420c3c3f8fa98184604051611f0392919061350e565b60405180910390a192915050565b8173ffffffffffffffffffffffffffffffffffffffff168373ffffffffffffffffffffffffffffffffffffffff161415611f80576040517f08c379a0000000000000000000000000000000000000000000000000000000008152600401611f7790613373565b60405180910390fd5b80600560008573ffffffffffffffffffffffffffffffffffffffff1673ffffffffffffffffffffffffffffffffffffffff16815260200190815260200160002060008473ffffffffffffffffffffffffffffffffffffffff1673ffffffffffffffffffffffffffffffffffffffff16815260200190815260200160002060006101000a81548160ff0219169083151502179055508173ffffffffffffffffffffffffffffffffffffffff168373ffffffffffffffffffffffffffffffffffffffff167f17307eab39ab6107e8899845ad3d59bd9653f200f220920489ca2b5937696c31836040516120719190613286565b60405180910390a3505050565b612089848484611c38565b612095848484846123f0565b6120d4576040517f08c379a00000000000000000000000000000000000000000000000000000000081526004016120cb906132f3565b60405180910390fd5b50505050565b606060405180602001604052806000815250905090565b60606120fc82611a2d565b61213b576040517f08c379a000000000000000000000000000000000000000000000000000000000815260040161213290613493565b60405180910390fd5b60006121456120da565b905060008151116121655760405180602001604052806000815250612190565b8061216f84612587565b6040516020016121809291906131b7565b6040516020818303038152906040525b915050919050565b505050565b505050565b600073ffffffffffffffffffffffffffffffffffffffff168273ffffffffffffffffffffffffffffffffffffffff161415612212576040517f08c379a000000000000000000000000000000000000000000000000000000000815260040161220990613433565b60405180910390fd5b61221b81611a2d565b1561225b576040517f08c379a000000000000000000000000000000000000000000000000000000000815260040161225290613333565b60405180910390fd5b61226760008383612198565b6001600360008473ffffffffffffffffffffffffffffffffffffffff1673ffffffffffffffffffffffffffffffffffffffff16815260200190815260200160002060008282546122b7919061371c565b92505081905550816002600083815260200190815260200160002060006101000a81548173ffffffffffffffffffffffffffffffffffffffff021916908373ffffffffffffffffffffffffffffffffffffffff160217905550808273ffffffffffffffffffffffffffffffffffffffff16600073ffffffffffffffffffffffffffffffffffffffff167fddf252ad1be2c89b69c2b068fc378daa952ba7f163c4a11628f55a4df523b3ef60405160405180910390a46123786000838361219d565b5050565b61238582611a2d565b6123c4576040517f08c379a00000000000000000000000000000000000000000000000000000000081526004016123bb90613413565b60405180910390fd5b806006600084815260200190815260200160002090805190602001906123eb929190612757565b505050565b60006124118473ffffffffffffffffffffffffffffffffffffffff16612734565b1561257a578373ffffffffffffffffffffffffffffffffffffffff1663150b7a0261243a611a99565b8786866040518563ffffffff1660e01b815260040161245c94939291906131f6565b602060405180830381600087803b15801561247657600080fd5b505af19250505080156124a757506040513d601f19601f820116820180604052508101906124a49190612b8e565b60015b61252a573d80600081146124d7576040519150601f19603f3d011682016040523d82523d6000602084013e6124dc565b606091505b50600081511415612522576040517f08c379a0000000000000000000000000000000000000000000000000000000008152600401612519906132f3565b60405180910390fd5b805181602001fd5b63150b7a0260e01b7bffffffffffffffffffffffffffffffffffffffffffffffffffffffff1916817bffffffffffffffffffffffffffffffffffffffffffffffffffffffff19161491505061257f565b600190505b949350505050565b606060008214156125cf576040518060400160405280600181526020017f3000000000000000000000000000000000000000000000000000000000000000815250905061272f565b600082905060005b600082146126015780806125ea906138f0565b915050600a826125fa9190613772565b91506125d7565b60008167ffffffffffffffff811115612643577f4e487b7100000000000000000000000000000000000000000000000000000000600052604160045260246000fd5b6040519080825280601f01601f1916602001820160405280156126755781602001600182028036833780820191505090505b5090505b600085146127285760018261268e91906137a3565b9150600a8561269d9190613939565b60306126a9919061371c565b60f81b8183815181106126e5577f4e487b7100000000000000000000000000000000000000000000000000000000600052603260045260246000fd5b60200101907effffffffffffffffffffffffffffffffffffffffffffffffffffffffffffff1916908160001a905350600a856127219190613772565b9450612679565b8093505050505b919050565b6000808273ffffffffffffffffffffffffffffffffffffffff163b119050919050565b8280546127639061388d565b90600052602060002090601f01602090048101928261278557600085556127cc565b82601f1061279e57805160ff19168380011785556127cc565b828001600101855582156127cc579182015b828111156127cb5782518255916020019190600101906127b0565b5b5090506127d99190612868565b5090565b828054828255906000526020600020908101928215612819579160200282015b828111156128185782518255916020019190600101906127fd565b5b5090506128269190612868565b5090565b60405180608001604052806000815260200160608152602001600073ffffffffffffffffffffffffffffffffffffffff168152602001606081525090565b5b80821115612881576000816000905550600101612869565b5090565b6000612898612893846135f4565b6135cf565b9050828152602081018484840111156128b057600080fd5b6128bb84828561384b565b509392505050565b60006128d66128d184613625565b6135cf565b9050828152602081018484840111156128ee57600080fd5b6128f984828561384b565b509392505050565b60008135905061291081613eb5565b92915050565b60008135905061292581613ecc565b92915050565b60008135905061293a81613ee3565b92915050565b60008151905061294f81613ee3565b92915050565b600082601f83011261296657600080fd5b8135612976848260208601612885565b91505092915050565b600082601f83011261299057600080fd5b81356129a08482602086016128c3565b91505092915050565b6000813590506129b881613efa565b92915050565b6000602082840312156129d057600080fd5b60006129de84828501612901565b91505092915050565b600080604083850312156129fa57600080fd5b6000612a0885828601612901565b9250506020612a1985828601612901565b9150509250929050565b600080600060608486031215612a3857600080fd5b6000612a4686828701612901565b9350506020612a5786828701612901565b9250506040612a68868287016129a9565b9150509250925092565b60008060008060808587031215612a8857600080fd5b6000612a9687828801612901565b9450506020612aa787828801612901565b9350506040612ab8878288016129a9565b925050606085013567ffffffffffffffff811115612ad557600080fd5b612ae187828801612955565b91505092959194509250565b60008060408385031215612b0057600080fd5b6000612b0e85828601612901565b9250506020612b1f85828601612916565b9150509250929050565b60008060408385031215612b3c57600080fd5b6000612b4a85828601612901565b9250506020612b5b858286016129a9565b9150509250929050565b600060208284031215612b7757600080fd5b6000612b858482850161292b565b91505092915050565b600060208284031215612ba057600080fd5b6000612bae84828501612940565b91505092915050565b60008060408385031215612bca57600080fd5b600083013567ffffffffffffffff811115612be457600080fd5b612bf08582860161297f565b925050602083013567ffffffffffffffff811115612c0d57600080fd5b612c198582860161297f565b9150509250929050565b60008060008060808587031215612c3957600080fd5b600085013567ffffffffffffffff811115612c5357600080fd5b612c5f8782880161297f565b9450506020612c70878288016129a9565b935050604085013567ffffffffffffffff811115612c8d57600080fd5b612c998782880161297f565b925050606085013567ffffffffffffffff811115612cb657600080fd5b612cc28782880161297f565b91505092959194509250565b600060208284031215612ce057600080fd5b6000612cee848285016129a9565b91505092915050565b6000612d03838361312f565b905092915050565b6000612d178383613199565b60208301905092915050565b612d2c816137d7565b82525050565b612d3b816137d7565b82525050565b6000612d4c82613676565b612d5681856136bc565b935083602082028501612d6885613656565b8060005b85811015612da45784840389528151612d858582612cf7565b9450612d90836136a2565b925060208a01995050600181019050612d6c565b50829750879550505050505092915050565b6000612dc182613681565b612dcb81856136cd565b9350612dd683613666565b8060005b83811015612e07578151612dee8882612d0b565b9750612df9836136af565b925050600181019050612dda565b5085935050505092915050565b612e1d816137e9565b82525050565b6000612e2e8261368c565b612e3881856136de565b9350612e4881856020860161385a565b612e5181613a26565b840191505092915050565b6000612e6782613697565b612e7181856136ef565b9350612e8181856020860161385a565b612e8a81613a26565b840191505092915050565b6000612ea082613697565b612eaa8185613700565b9350612eba81856020860161385a565b612ec381613a26565b840191505092915050565b6000612ed982613697565b612ee38185613711565b9350612ef381856020860161385a565b80840191505092915050565b6000612f0c603283613700565b9150612f1782613a37565b604082019050919050565b6000612f2f602583613700565b9150612f3a82613a86565b604082019050919050565b6000612f52601c83613700565b9150612f5d82613ad5565b602082019050919050565b6000612f75602483613700565b9150612f8082613afe565b604082019050919050565b6000612f98601983613700565b9150612fa382613b4d565b602082019050919050565b6000612fbb602c83613700565b9150612fc682613b76565b604082019050919050565b6000612fde603883613700565b9150612fe982613bc5565b604082019050919050565b6000613001602a83613700565b915061300c82613c14565b604082019050919050565b6000613024602983613700565b915061302f82613c63565b604082019050919050565b6000613047602e83613700565b915061305282613cb2565b604082019050919050565b600061306a602083613700565b915061307582613d01565b602082019050919050565b600061308d603183613700565b915061309882613d2a565b604082019050919050565b60006130b0602c83613700565b91506130bb82613d79565b604082019050919050565b60006130d3602f83613700565b91506130de82613dc8565b604082019050919050565b60006130f6602183613700565b915061310182613e17565b604082019050919050565b6000613119603183613700565b915061312482613e66565b604082019050919050565b60006080830160008301516131476000860182613199565b506020830151848203602086015261315f8282612e5c565b91505060408301516131746040860182612d23565b506060830151848203606086015261318c8282612e5c565b9150508091505092915050565b6131a281613841565b82525050565b6131b181613841565b82525050565b60006131c38285612ece565b91506131cf8284612ece565b91508190509392505050565b60006020820190506131f06000830184612d32565b92915050565b600060808201905061320b6000830187612d32565b6132186020830186612d32565b61322560408301856131a8565b81810360608301526132378184612e23565b905095945050505050565b6000602082019050818103600083015261325c8184612d41565b905092915050565b6000602082019050818103600083015261327e8184612db6565b905092915050565b600060208201905061329b6000830184612e14565b92915050565b600060208201905081810360008301526132bb8184612e95565b905092915050565b600060408201905081810360008301526132dd8185612e95565b90506132ec60208301846131a8565b9392505050565b6000602082019050818103600083015261330c81612eff565b9050919050565b6000602082019050818103600083015261332c81612f22565b9050919050565b6000602082019050818103600083015261334c81612f45565b9050919050565b6000602082019050818103600083015261336c81612f68565b9050919050565b6000602082019050818103600083015261338c81612f8b565b9050919050565b600060208201905081810360008301526133ac81612fae565b9050919050565b600060208201905081810360008301526133cc81612fd1565b9050919050565b600060208201905081810360008301526133ec81612ff4565b9050919050565b6000602082019050818103600083015261340c81613017565b9050919050565b6000602082019050818103600083015261342c8161303a565b9050919050565b6000602082019050818103600083015261344c8161305d565b9050919050565b6000602082019050818103600083015261346c81613080565b9050919050565b6000602082019050818103600083015261348c816130a3565b9050919050565b600060208201905081810360008301526134ac816130c6565b9050919050565b600060208201905081810360008301526134cc816130e9565b9050919050565b600060208201905081810360008301526134ec8161310c565b9050919050565b600060208201905061350860008301846131a8565b92915050565b600060408201905061352360008301856131a8565b81810360208301526135358184612e95565b90509392505050565b600060808201905061355360008301876131a8565b81810360208301526135658186612e95565b90506135746040830185612d32565b81810360608301526135868184612e95565b905095945050505050565b60006060820190506135a660008301866131a8565b81810360208301526135b88185612e95565b90506135c760408301846131a8565b949350505050565b60006135d96135ea565b90506135e582826138bf565b919050565b6000604051905090565b600067ffffffffffffffff82111561360f5761360e6139f7565b5b61361882613a26565b9050602081019050919050565b600067ffffffffffffffff8211156136405761363f6139f7565b5b61364982613a26565b9050602081019050919050565b6000819050602082019050919050565b6000819050602082019050919050565b600081519050919050565b600081519050919050565b600081519050919050565b600081519050919050565b6000602082019050919050565b6000602082019050919050565b600082825260208201905092915050565b600082825260208201905092915050565b600082825260208201905092915050565b600082825260208201905092915050565b600082825260208201905092915050565b600081905092915050565b600061372782613841565b915061373283613841565b9250827fffffffffffffffffffffffffffffffffffffffffffffffffffffffffffffffff038211156137675761376661396a565b5b828201905092915050565b600061377d82613841565b915061378883613841565b92508261379857613797613999565b5b828204905092915050565b60006137ae82613841565b91506137b983613841565b9250828210156137cc576137cb61396a565b5b828203905092915050565b60006137e282613821565b9050919050565b60008115159050919050565b60007fffffffff0000000000000000000000000000000000000000000000000000000082169050919050565b600073ffffffffffffffffffffffffffffffffffffffff82169050919050565b6000819050919050565b82818337600083830152505050565b60005b8381101561387857808201518184015260208101905061385d565b83811115613887576000848401525b50505050565b600060028204905060018216806138a557607f821691505b602082108114156138b9576138b86139c8565b5b50919050565b6138c882613a26565b810181811067ffffffffffffffff821117156138e7576138e66139f7565b5b80604052505050565b60006138fb82613841565b91507fffffffffffffffffffffffffffffffffffffffffffffffffffffffffffffffff82141561392e5761392d61396a565b5b600182019050919050565b600061394482613841565b915061394f83613841565b92508261395f5761395e613999565b5b828206905092915050565b7f4e487b7100000000000000000000000000000000000000000000000000000000600052601160045260246000fd5b7f4e487b7100000000000000000000000000000000000000000000000000000000600052601260045260246000fd5b7f4e487b7100000000000000000000000000000000000000000000000000000000600052602260045260246000fd5b7f4e487b7100000000000000000000000000000000000000000000000000000000600052604160045260246000fd5b6000601f19601f8301169050919050565b7f4552433732313a207472616e7366657220746f206e6f6e20455243373231526560008201527f63656976657220696d706c656d656e7465720000000000000000000000000000602082015250565b7f4552433732313a207472616e736665722066726f6d20696e636f72726563742060008201527f6f776e6572000000000000000000000000000000000000000000000000000000602082015250565b7f4552433732313a20746f6b656e20616c7265616479206d696e74656400000000600082015250565b7f4552433732313a207472616e7366657220746f20746865207a65726f2061646460008201527f7265737300000000000000000000000000000000000000000000000000000000602082015250565b7f4552433732313a20617070726f766520746f2063616c6c657200000000000000600082015250565b7f4552433732313a206f70657261746f7220717565727920666f72206e6f6e657860008201527f697374656e7420746f6b656e0000000000000000000000000000000000000000602082015250565b7f4552433732313a20617070726f76652063616c6c6572206973206e6f74206f7760008201527f6e6572206e6f7220617070726f76656420666f7220616c6c0000000000000000602082015250565b7f4552433732313a2062616c616e636520717565727920666f7220746865207a6560008201527f726f206164647265737300000000000000000000000000000000000000000000602082015250565b7f4552433732313a206f776e657220717565727920666f72206e6f6e657869737460008201527f656e7420746f6b656e0000000000000000000000000000000000000000000000602082015250565b7f45524337323155524953746f726167653a2055524920736574206f66206e6f6e60008201527f6578697374656e7420746f6b656e000000000000000000000000000000000000602082015250565b7f4552433732313a206d696e7420746f20746865207a65726f2061646472657373600082015250565b7f45524337323155524953746f726167653a2055524920717565727920666f722060008201527f6e6f6e6578697374656e7420746f6b656e000000000000000000000000000000602082015250565b7f4552433732313a20617070726f76656420717565727920666f72206e6f6e657860008201527f697374656e7420746f6b656e0000000000000000000000000000000000000000602082015250565b7f4552433732314d657461646174613a2055524920717565727920666f72206e6f60008201527f6e6578697374656e7420746f6b656e0000000000000000000000000000000000602082015250565b7f4552433732313a20617070726f76616c20746f2063757272656e74206f776e6560008201527f7200000000000000000000000000000000000000000000000000000000000000602082015250565b7f4552433732313a207472616e736665722063616c6c6572206973206e6f74206f60008201527f776e6572206e6f7220617070726f766564000000000000000000000000000000602082015250565b613ebe816137d7565b8114613ec957600080fd5b50565b613ed5816137e9565b8114613ee057600080fd5b50565b613eec816137f5565b8114613ef757600080fd5b50565b613f0381613841565b8114613f0e57600080fd5b5056fea264697066735822122088d324548aa0e9be75edd48530fc750742247d5d3426fd544b5449b81b33b92e64736f6c63430008040033",
  "linkReferences": {},
  "deployedLinkReferences": {}
}