{
  "_format": "hh-sol-artifact-1",
  "contractName": "CoreCollection",
  "sourceName": "contracts/CoreCollection.sol",
  "abi": [
    {
      "inputs": [
        {
          "internalType": "address",
          "name": "_contractAddress",
          "type": "address"
        }
      ],
      "stateMutability": "nonpayable",
      "type": "constructor"
    },
    {
      "anonymous": false,
      "inputs": [
        {
          "indexed": true,
          "internalType": "address",
          "name": "owner",
          "type": "address"
        },
        {
          "indexed": true,
          "internalType": "address",
          "name": "approved",
          "type": "address"
        },
        {
          "indexed": true,
          "internalType": "uint256",
          "name": "tokenId",
          "type": "uint256"
        }
      ],
      "name": "Approval",
      "type": "event"
    },
    {
      "anonymous": false,
      "inputs": [
        {
          "indexed": true,
          "internalType": "address",
          "name": "owner",
          "type": "address"
        },
        {
          "indexed": true,
          "internalType": "address",
          "name": "operator",
          "type": "address"
        },
        {
          "indexed": false,
          "internalType": "bool",
          "name": "approved",
          "type": "bool"
        }
      ],
      "name": "ApprovalForAll",
      "type": "event"
    },
    {
      "anonymous": false,
      "inputs": [
        {
          "indexed": false,
          "internalType": "string",
          "name": "_name",
          "type": "string"
        },
        {
          "indexed": false,
          "internalType": "uint256",
          "name": "_collectionId",
          "type": "uint256"
        }
      ],
      "name": "CollectionCreated",
      "type": "event"
    },
    {
      "anonymous": false,
      "inputs": [
        {
          "indexed": false,
          "internalType": "uint256",
          "name": "_itemId",
          "type": "uint256"
        },
        {
          "indexed": false,
          "internalType": "string",
          "name": "_NFTName",
          "type": "string"
        },
        {
          "components": [
            {
              "internalType": "uint256",
              "name": "collectionId",
              "type": "uint256"
            },
            {
              "internalType": "string",
              "name": "name",
              "type": "string"
            },
            {
              "internalType": "address",
              "name": "creator",
              "type": "address"
            },
            {
              "internalType": "string",
              "name": "collectionLink",
              "type": "string"
            },
            {
              "internalType": "uint256[]",
              "name": "itemIds",
              "type": "uint256[]"
            }
          ],
          "indexed": false,
          "internalType": "struct CoreCollection.Collection",
          "name": "_collection",
          "type": "tuple"
        }
      ],
      "name": "NFTCreated",
      "type": "event"
    },
    {
      "anonymous": false,
      "inputs": [
        {
          "indexed": false,
          "internalType": "uint256",
          "name": "_newItemId",
          "type": "uint256"
        },
        {
          "indexed": false,
          "internalType": "string",
          "name": "_tokenURI",
          "type": "string"
        }
      ],
      "name": "TokenCreated",
      "type": "event"
    },
    {
      "anonymous": false,
      "inputs": [
        {
          "indexed": true,
          "internalType": "address",
          "name": "from",
          "type": "address"
        },
        {
          "indexed": true,
          "internalType": "address",
          "name": "to",
          "type": "address"
        },
        {
          "indexed": true,
          "internalType": "uint256",
          "name": "tokenId",
          "type": "uint256"
        }
      ],
      "name": "Transfer",
      "type": "event"
    },
    {
      "inputs": [
        {
          "internalType": "uint256",
          "name": "",
          "type": "uint256"
        }
      ],
      "name": "NFTs",
      "outputs": [
        {
          "internalType": "uint256",
          "name": "itemId",
          "type": "uint256"
        },
        {
          "internalType": "string",
          "name": "nft_name",
          "type": "string"
        },
        {
          "internalType": "address",
          "name": "creator",
          "type": "address"
        },
        {
          "internalType": "string",
          "name": "externalLink",
          "type": "string"
        }
      ],
      "stateMutability": "view",
      "type": "function"
    },
    {
      "inputs": [
        {
          "internalType": "address",
          "name": "to",
          "type": "address"
        },
        {
          "internalType": "uint256",
          "name": "tokenId",
          "type": "uint256"
        }
      ],
      "name": "approve",
      "outputs": [],
      "stateMutability": "nonpayable",
      "type": "function"
    },
    {
      "inputs": [
        {
          "internalType": "address",
          "name": "owner",
          "type": "address"
        }
      ],
      "name": "balanceOf",
      "outputs": [
        {
          "internalType": "uint256",
          "name": "",
          "type": "uint256"
        }
      ],
      "stateMutability": "view",
      "type": "function"
    },
    {
      "inputs": [
        {
          "internalType": "uint256",
          "name": "",
          "type": "uint256"
        }
      ],
      "name": "collectionIdToUser",
      "outputs": [
        {
          "internalType": "address",
          "name": "",
          "type": "address"
        }
      ],
      "stateMutability": "view",
      "type": "function"
    },
    {
      "inputs": [
        {
          "internalType": "uint256",
          "name": "",
          "type": "uint256"
        }
      ],
      "name": "collections",
      "outputs": [
        {
          "internalType": "uint256",
          "name": "collectionId",
          "type": "uint256"
        },
        {
          "internalType": "string",
          "name": "name",
          "type": "string"
        },
        {
          "internalType": "address",
          "name": "creator",
          "type": "address"
        },
        {
          "internalType": "string",
          "name": "collectionLink",
          "type": "string"
        }
      ],
      "stateMutability": "view",
      "type": "function"
    },
    {
      "inputs": [
        {
          "internalType": "string",
          "name": "_name",
          "type": "string"
        },
        {
          "internalType": "string",
          "name": "_collectionLink",
          "type": "string"
        }
      ],
      "name": "createCollection",
      "outputs": [],
      "stateMutability": "nonpayable",
      "type": "function"
    },
    {
      "inputs": [
        {
          "internalType": "string",
          "name": "_NFTName",
          "type": "string"
        },
        {
          "internalType": "uint256",
          "name": "_collectionId",
          "type": "uint256"
        },
        {
          "internalType": "string",
          "name": "_externalLink",
          "type": "string"
        },
        {
          "internalType": "string",
          "name": "_tokenURI",
          "type": "string"
        }
      ],
      "name": "createNFT",
      "outputs": [],
      "stateMutability": "nonpayable",
      "type": "function"
    },
    {
      "inputs": [],
      "name": "getAllCollections",
      "outputs": [
        {
          "internalType": "uint256[]",
          "name": "",
          "type": "uint256[]"
        }
      ],
      "stateMutability": "view",
      "type": "function"
    },
    {
      "inputs": [
        {
          "internalType": "uint256",
          "name": "tokenId",
          "type": "uint256"
        }
      ],
      "name": "getApproved",
      "outputs": [
        {
          "internalType": "address",
          "name": "",
          "type": "address"
        }
      ],
      "stateMutability": "view",
      "type": "function"
    },
    {
      "inputs": [
        {
          "internalType": "address",
          "name": "_address",
          "type": "address"
        }
      ],
      "name": "getCollectionIds",
      "outputs": [
        {
          "internalType": "uint256[]",
          "name": "",
          "type": "uint256[]"
        }
      ],
      "stateMutability": "view",
      "type": "function"
    },
    {
      "inputs": [
        {
          "internalType": "uint256",
          "name": "collectionId",
          "type": "uint256"
        }
      ],
      "name": "getItems",
      "outputs": [
        {
          "internalType": "uint256[]",
          "name": "",
          "type": "uint256[]"
        }
      ],
      "stateMutability": "view",
      "type": "function"
    },
    {
      "inputs": [
        {
          "internalType": "address",
          "name": "owner",
          "type": "address"
        },
        {
          "internalType": "address",
          "name": "operator",
          "type": "address"
        }
      ],
      "name": "isApprovedForAll",
      "outputs": [
        {
          "internalType": "bool",
          "name": "",
          "type": "bool"
        }
      ],
      "stateMutability": "view",
      "type": "function"
    },
    {
      "inputs": [],
      "name": "name",
      "outputs": [
        {
          "internalType": "string",
          "name": "",
          "type": "string"
        }
      ],
      "stateMutability": "view",
      "type": "function"
    },
    {
      "inputs": [
        {
          "internalType": "uint256",
          "name": "tokenId",
          "type": "uint256"
        }
      ],
      "name": "ownerOf",
      "outputs": [
        {
          "internalType": "address",
          "name": "",
          "type": "address"
        }
      ],
      "stateMutability": "view",
      "type": "function"
    },
    {
      "inputs": [
        {
          "internalType": "address",
          "name": "from",
          "type": "address"
        },
        {
          "internalType": "address",
          "name": "to",
          "type": "address"
        },
        {
          "internalType": "uint256",
          "name": "tokenId",
          "type": "uint256"
        }
      ],
      "name": "safeTransferFrom",
      "outputs": [],
      "stateMutability": "nonpayable",
      "type": "function"
    },
    {
      "inputs": [
        {
          "internalType": "address",
          "name": "from",
          "type": "address"
        },
        {
          "internalType": "address",
          "name": "to",
          "type": "address"
        },
        {
          "internalType": "uint256",
          "name": "tokenId",
          "type": "uint256"
        },
        {
          "internalType": "bytes",
          "name": "_data",
          "type": "bytes"
        }
      ],
      "name": "safeTransferFrom",
      "outputs": [],
      "stateMutability": "nonpayable",
      "type": "function"
    },
    {
      "inputs": [
        {
          "internalType": "address",
          "name": "operator",
          "type": "address"
        },
        {
          "internalType": "bool",
          "name": "approved",
          "type": "bool"
        }
      ],
      "name": "setApprovalForAll",
      "outputs": [],
      "stateMutability": "nonpayable",
      "type": "function"
    },
    {
      "inputs": [
        {
          "internalType": "bytes4",
          "name": "interfaceId",
          "type": "bytes4"
        }
      ],
      "name": "supportsInterface",
      "outputs": [
        {
          "internalType": "bool",
          "name": "",
          "type": "bool"
        }
      ],
      "stateMutability": "view",
      "type": "function"
    },
    {
      "inputs": [],
      "name": "symbol",
      "outputs": [
        {
          "internalType": "string",
          "name": "",
          "type": "string"
        }
      ],
      "stateMutability": "view",
      "type": "function"
    },
    {
      "inputs": [
        {
          "internalType": "uint256",
          "name": "tokenId",
          "type": "uint256"
        }
      ],
      "name": "tokenURI",
      "outputs": [
        {
          "internalType": "string",
          "name": "",
          "type": "string"
        }
      ],
      "stateMutability": "view",
      "type": "function"
    },
    {
      "inputs": [
        {
          "internalType": "address",
          "name": "from",
          "type": "address"
        },
        {
          "internalType": "address",
          "name": "to",
          "type": "address"
        },
        {
          "internalType": "uint256",
          "name": "tokenId",
          "type": "uint256"
        }
      ],
      "name": "transferFrom",
      "outputs": [],
      "stateMutability": "nonpayable",
      "type": "function"
    },
    {
      "inputs": [
        {
          "internalType": "address",
          "name": "",
          "type": "address"
        },
        {
          "internalType": "uint256",
          "name": "",
          "type": "uint256"
        }
      ],
      "name": "userToCollectionIds",
      "outputs": [
        {
          "internalType": "uint256",
          "name": "",
          "type": "uint256"
        }
      ],
      "stateMutability": "view",
      "type": "function"
    }
  ],
  "bytecode": "0x60806040523480156200001157600080fd5b5060405162003fb638038062003fb68339818101604052810190620000379190620001e6565b6040518060400160405280600581526020017f4f617369730000000000000000000000000000000000000000000000000000008152506040518060400160405280600281526020017f4f430000000000000000000000000000000000000000000000000000000000008152508160009080519060200190620000bb9291906200011f565b508060019080519060200190620000d49291906200011f565b50505080600760006101000a81548173ffffffffffffffffffffffffffffffffffffffff021916908373ffffffffffffffffffffffffffffffffffffffff16021790555050620002c5565b8280546200012d9062000246565b90600052602060002090601f0160209004810192826200015157600085556200019d565b82601f106200016c57805160ff19168380011785556200019d565b828001600101855582156200019d579182015b828111156200019c5782518255916020019190600101906200017f565b5b509050620001ac9190620001b0565b5090565b5b80821115620001cb576000816000905550600101620001b1565b5090565b600081519050620001e081620002ab565b92915050565b600060208284031215620001f957600080fd5b60006200020984828501620001cf565b91505092915050565b60006200021f8262000226565b9050919050565b600073ffffffffffffffffffffffffffffffffffffffff82169050919050565b600060028204905060018216806200025f57607f821691505b602082108114156200027657620002756200027c565b5b50919050565b7f4e487b7100000000000000000000000000000000000000000000000000000000600052602260045260246000fd5b620002b68162000212565b8114620002c257600080fd5b50565b613ce180620002d56000396000f3fe608060405234801561001057600080fd5b50600436106101425760003560e01c806370a08231116100b8578063a3c0b95b1161007c578063a3c0b95b14610399578063b88d4fde146103cc578063bd0be695146103e8578063c87b56dd14610418578063e985e9c514610448578063fdbda0ec1461047857610142565b806370a08231146102cf5780637863365f146102ff578063796c5e941461032f57806395d89b411461035f578063a22cb4651461037d57610142565b8063176b9b751161010a578063176b9b751461021157806323b872dd1461022d5780633db45b541461024957806342842e0e146102655780636352211e146102815780636804a958146102b157610142565b806301ffc9a71461014757806306fdde0314610177578063081812fc14610195578063095ea7b3146101c557806309a16ae5146101e1575b600080fd5b610161600480360381019061015c9190612830565b6104ab565b60405161016e9190612f81565b60405180910390f35b61017f61058d565b60405161018c9190612f9c565b60405180910390f35b6101af60048036038101906101aa9190612999565b61061f565b6040516101bc9190612ef8565b60405180910390f35b6101df60048036038101906101da91906127f4565b6106a4565b005b6101fb60048036038101906101f69190612689565b6107bc565b6040516102089190612f5f565b60405180910390f35b61022b60048036038101906102269190612882565b610853565b005b610247600480360381019061024291906126ee565b610ad2565b005b610263600480360381019061025e91906128ee565b610b32565b005b61027f600480360381019061027a91906126ee565b610dd8565b005b61029b60048036038101906102969190612999565b610df8565b6040516102a89190612ef8565b60405180910390f35b6102b9610eaa565b6040516102c69190612f5f565b60405180910390f35b6102e960048036038101906102e49190612689565b610f92565b6040516102f691906131ee565b60405180910390f35b610319600480360381019061031491906127f4565b61104a565b60405161032691906131ee565b60405180910390f35b61034960048036038101906103449190612999565b61107b565b6040516103569190612f5f565b60405180910390f35b6103676110e9565b6040516103749190612f9c565b60405180910390f35b610397600480360381019061039291906127b8565b61117b565b005b6103b360048036038101906103ae9190612999565b611191565b6040516103c39493929190613239565b60405180910390f35b6103e660048036038101906103e1919061273d565b6112f1565b005b61040260048036038101906103fd9190612999565b611353565b60405161040f9190612ef8565b60405180910390f35b610432600480360381019061042d9190612999565b611386565b60405161043f9190612f9c565b60405180910390f35b610462600480360381019061045d91906126b2565b6114d8565b60405161046f9190612f81565b60405180910390f35b610492600480360381019061048d9190612999565b61156c565b6040516104a29493929190613239565b60405180910390f35b60007f80ac58cd000000000000000000000000000000000000000000000000000000007bffffffffffffffffffffffffffffffffffffffffffffffffffffffff1916827bffffffffffffffffffffffffffffffffffffffffffffffffffffffff1916148061057657507f5b5e139f000000000000000000000000000000000000000000000000000000007bffffffffffffffffffffffffffffffffffffffffffffffffffffffff1916827bffffffffffffffffffffffffffffffffffffffffffffffffffffffff1916145b806105865750610585826116cc565b5b9050919050565b60606000805461059c906135d3565b80601f01602080910402602001604051908101604052809291908181526020018280546105c8906135d3565b80156106155780601f106105ea57610100808354040283529160200191610615565b820191906000526020600020905b8154815290600101906020018083116105f857829003601f168201915b5050505050905090565b600061062a82611736565b610669576040517f08c379a00000000000000000000000000000000000000000000000000000000081526004016106609061316e565b60405180910390fd5b6004600083815260200190815260200160002060009054906101000a900473ffffffffffffffffffffffffffffffffffffffff169050919050565b60006106af82610df8565b90508073ffffffffffffffffffffffffffffffffffffffff168373ffffffffffffffffffffffffffffffffffffffff161415610720576040517f08c379a0000000000000000000000000000000000000000000000000000000008152600401610717906131ae565b60405180910390fd5b8073ffffffffffffffffffffffffffffffffffffffff1661073f6117a2565b73ffffffffffffffffffffffffffffffffffffffff16148061076e575061076d816107686117a2565b6114d8565b5b6107ad576040517f08c379a00000000000000000000000000000000000000000000000000000000081526004016107a4906130ae565b60405180910390fd5b6107b783836117aa565b505050565b6060600d60008373ffffffffffffffffffffffffffffffffffffffff1673ffffffffffffffffffffffffffffffffffffffff16815260200190815260200160002080548060200260200160405190810160405280929190818152602001828054801561084757602002820191906000526020600020905b815481526020019060010190808311610833575b50505050509050919050565b600960008154809291906108669061366a565b9190505550600060095490506040518060a001604052808281526020018481526020013373ffffffffffffffffffffffffffffffffffffffff168152602001838152602001600067ffffffffffffffff8111156108ec577f4e487b7100000000000000000000000000000000000000000000000000000000600052604160045260246000fd5b60405190808252806020026020018201604052801561091a5781602001602082028036833780820191505090505b50815250600b6000838152602001908152602001600020600082015181600001556020820151816001019080519060200190610957929190612460565b5060408201518160020160006101000a81548173ffffffffffffffffffffffffffffffffffffffff021916908373ffffffffffffffffffffffffffffffffffffffff16021790555060608201518160030190805190602001906109bb929190612460565b5060808201518160040190805190602001906109d89291906124e6565b5090505033600c600083815260200190815260200160002060006101000a81548173ffffffffffffffffffffffffffffffffffffffff021916908373ffffffffffffffffffffffffffffffffffffffff160217905550600d60003373ffffffffffffffffffffffffffffffffffffffff1673ffffffffffffffffffffffffffffffffffffffff1681526020019081526020016000208190806001815401808255809150506001900390600052602060002001600090919091909150557f7b5a520c0e4b578a26c9d30d55a79e2b2aec43c74bca7a5e2719980ec06d54e08382604051610ac5929190612fbe565b60405180910390a1505050565b610ae3610add6117a2565b82611863565b610b22576040517f08c379a0000000000000000000000000000000000000000000000000000000008152600401610b19906131ce565b60405180910390fd5b610b2d838383611941565b505050565b6000610b3e8233611ba8565b9050610b6d600760009054906101000a900473ffffffffffffffffffffffffffffffffffffffff16600161117b565b60405180608001604052808281526020018681526020013373ffffffffffffffffffffffffffffffffffffffff16815260200184815250600a6000838152602001908152602001600020600082015181600001556020820151816001019080519060200190610bdd929190612460565b5060408201518160020160006101000a81548173ffffffffffffffffffffffffffffffffffffffff021916908373ffffffffffffffffffffffffffffffffffffffff1602179055506060820151816003019080519060200190610c41929190612460565b50905050600b6000600d60003373ffffffffffffffffffffffffffffffffffffffff1673ffffffffffffffffffffffffffffffffffffffff1681526020019081526020016000208681548110610cc0577f4e487b7100000000000000000000000000000000000000000000000000000000600052603260045260246000fd5b906000526020600020015481526020019081526020016000206004018190806001815401808255809150506001900390600052602060002001600090919091909150557f5ba8d7ca25df1b811b6c09ea413fa22e451ce32edb72525624253b9d74f4aec98186600b6000600d60003373ffffffffffffffffffffffffffffffffffffffff1673ffffffffffffffffffffffffffffffffffffffff1681526020019081526020016000208981548110610da1577f4e487b7100000000000000000000000000000000000000000000000000000000600052603260045260246000fd5b90600052602060002001548152602001908152602001600020604051610dc99392919061328c565b60405180910390a15050505050565b610df3838383604051806020016040528060008152506112f1565b505050565b6000806002600084815260200190815260200160002060009054906101000a900473ffffffffffffffffffffffffffffffffffffffff169050600073ffffffffffffffffffffffffffffffffffffffff168173ffffffffffffffffffffffffffffffffffffffff161415610ea1576040517f08c379a0000000000000000000000000000000000000000000000000000000008152600401610e98906130ee565b60405180910390fd5b80915050919050565b6060600060095467ffffffffffffffff811115610ef0577f4e487b7100000000000000000000000000000000000000000000000000000000600052604160045260246000fd5b604051908082528060200260200182016040528015610f1e5781602001602082028036833780820191505090505b5090506000600190505b6009548111610f8a5780828281518110610f6b577f4e487b7100000000000000000000000000000000000000000000000000000000600052603260045260246000fd5b6020026020010181815250508080610f829061366a565b915050610f28565b508091505090565b60008073ffffffffffffffffffffffffffffffffffffffff168273ffffffffffffffffffffffffffffffffffffffff161415611003576040517f08c379a0000000000000000000000000000000000000000000000000000000008152600401610ffa906130ce565b60405180910390fd5b600360008373ffffffffffffffffffffffffffffffffffffffff1673ffffffffffffffffffffffffffffffffffffffff168152602001908152602001600020549050919050565b600d602052816000526040600020818154811061106657600080fd5b90600052602060002001600091509150505481565b6060600b60008381526020019081526020016000206004018054806020026020016040519081016040528092919081815260200182805480156110dd57602002820191906000526020600020905b8154815260200190600101908083116110c9575b50505050509050919050565b6060600180546110f8906135d3565b80601f0160208091040260200160405190810160405280929190818152602001828054611124906135d3565b80156111715780601f1061114657610100808354040283529160200191611171565b820191906000526020600020905b81548152906001019060200180831161115457829003601f168201915b5050505050905090565b61118d6111866117a2565b8383611c1a565b5050565b600a6020528060005260406000206000915090508060000154908060010180546111ba906135d3565b80601f01602080910402602001604051908101604052809291908181526020018280546111e6906135d3565b80156112335780601f1061120857610100808354040283529160200191611233565b820191906000526020600020905b81548152906001019060200180831161121657829003601f168201915b5050505050908060020160009054906101000a900473ffffffffffffffffffffffffffffffffffffffff169080600301805461126e906135d3565b80601f016020809104026020016040519081016040528092919081815260200182805461129a906135d3565b80156112e75780601f106112bc576101008083540402835291602001916112e7565b820191906000526020600020905b8154815290600101906020018083116112ca57829003601f168201915b5050505050905084565b6113026112fc6117a2565b83611863565b611341576040517f08c379a0000000000000000000000000000000000000000000000000000000008152600401611338906131ce565b60405180910390fd5b61134d84848484611d87565b50505050565b600c6020528060005260406000206000915054906101000a900473ffffffffffffffffffffffffffffffffffffffff1681565b606061139182611736565b6113d0576040517f08c379a00000000000000000000000000000000000000000000000000000000081526004016113c79061314e565b60405180910390fd5b60006006600084815260200190815260200160002080546113f0906135d3565b80601f016020809104026020016040519081016040528092919081815260200182805461141c906135d3565b80156114695780601f1061143e57610100808354040283529160200191611469565b820191906000526020600020905b81548152906001019060200180831161144c57829003601f168201915b50505050509050600061147a611de3565b90506000815114156114905781925050506114d3565b6000825111156114c55780826040516020016114ad929190612ed4565b604051602081830303815290604052925050506114d3565b6114ce84611dfa565b925050505b919050565b6000600560008473ffffffffffffffffffffffffffffffffffffffff1673ffffffffffffffffffffffffffffffffffffffff16815260200190815260200160002060008373ffffffffffffffffffffffffffffffffffffffff1673ffffffffffffffffffffffffffffffffffffffff16815260200190815260200160002060009054906101000a900460ff16905092915050565b600b602052806000526040600020600091509050806000015490806001018054611595906135d3565b80601f01602080910402602001604051908101604052809291908181526020018280546115c1906135d3565b801561160e5780601f106115e35761010080835404028352916020019161160e565b820191906000526020600020905b8154815290600101906020018083116115f157829003601f168201915b5050505050908060020160009054906101000a900473ffffffffffffffffffffffffffffffffffffffff1690806003018054611649906135d3565b80601f0160208091040260200160405190810160405280929190818152602001828054611675906135d3565b80156116c25780601f10611697576101008083540402835291602001916116c2565b820191906000526020600020905b8154815290600101906020018083116116a557829003601f168201915b5050505050905084565b60007f01ffc9a7000000000000000000000000000000000000000000000000000000007bffffffffffffffffffffffffffffffffffffffffffffffffffffffff1916827bffffffffffffffffffffffffffffffffffffffffffffffffffffffff1916149050919050565b60008073ffffffffffffffffffffffffffffffffffffffff166002600084815260200190815260200160002060009054906101000a900473ffffffffffffffffffffffffffffffffffffffff1673ffffffffffffffffffffffffffffffffffffffff1614159050919050565b600033905090565b816004600083815260200190815260200160002060006101000a81548173ffffffffffffffffffffffffffffffffffffffff021916908373ffffffffffffffffffffffffffffffffffffffff160217905550808273ffffffffffffffffffffffffffffffffffffffff1661181d83610df8565b73ffffffffffffffffffffffffffffffffffffffff167f8c5be1e5ebec7d5bd14f71427d1e84f3dd0314c0f7b2291e5b200ac8c7c3b92560405160405180910390a45050565b600061186e82611736565b6118ad576040517f08c379a00000000000000000000000000000000000000000000000000000000081526004016118a49061308e565b60405180910390fd5b60006118b883610df8565b90508073ffffffffffffffffffffffffffffffffffffffff168473ffffffffffffffffffffffffffffffffffffffff16148061192757508373ffffffffffffffffffffffffffffffffffffffff1661190f8461061f565b73ffffffffffffffffffffffffffffffffffffffff16145b80611938575061193781856114d8565b5b91505092915050565b8273ffffffffffffffffffffffffffffffffffffffff1661196182610df8565b73ffffffffffffffffffffffffffffffffffffffff16146119b7576040517f08c379a00000000000000000000000000000000000000000000000000000000081526004016119ae9061300e565b60405180910390fd5b600073ffffffffffffffffffffffffffffffffffffffff168273ffffffffffffffffffffffffffffffffffffffff161415611a27576040517f08c379a0000000000000000000000000000000000000000000000000000000008152600401611a1e9061304e565b60405180910390fd5b611a32838383611ea1565b611a3d6000826117aa565b6001600360008573ffffffffffffffffffffffffffffffffffffffff1673ffffffffffffffffffffffffffffffffffffffff1681526020019081526020016000206000828254611a8d91906134bf565b925050819055506001600360008473ffffffffffffffffffffffffffffffffffffffff1673ffffffffffffffffffffffffffffffffffffffff1681526020019081526020016000206000828254611ae49190613438565b92505081905550816002600083815260200190815260200160002060006101000a81548173ffffffffffffffffffffffffffffffffffffffff021916908373ffffffffffffffffffffffffffffffffffffffff160217905550808273ffffffffffffffffffffffffffffffffffffffff168473ffffffffffffffffffffffffffffffffffffffff167fddf252ad1be2c89b69c2b068fc378daa952ba7f163c4a11628f55a4df523b3ef60405160405180910390a4611ba3838383611ea6565b505050565b600060086000815480929190611bbd9061366a565b91905055506008549050611bd18282611eab565b611bdb8184612085565b7f5d3ac5872118b949a1f8db596134a0e1587ecf18f2203bb1e3ea420c3c3f8fa98184604051611c0c929190613209565b60405180910390a192915050565b8173ffffffffffffffffffffffffffffffffffffffff168373ffffffffffffffffffffffffffffffffffffffff161415611c89576040517f08c379a0000000000000000000000000000000000000000000000000000000008152600401611c809061306e565b60405180910390fd5b80600560008573ffffffffffffffffffffffffffffffffffffffff1673ffffffffffffffffffffffffffffffffffffffff16815260200190815260200160002060008473ffffffffffffffffffffffffffffffffffffffff1673ffffffffffffffffffffffffffffffffffffffff16815260200190815260200160002060006101000a81548160ff0219169083151502179055508173ffffffffffffffffffffffffffffffffffffffff168373ffffffffffffffffffffffffffffffffffffffff167f17307eab39ab6107e8899845ad3d59bd9653f200f220920489ca2b5937696c3183604051611d7a9190612f81565b60405180910390a3505050565b611d92848484611941565b611d9e848484846120f9565b611ddd576040517f08c379a0000000000000000000000000000000000000000000000000000000008152600401611dd490612fee565b60405180910390fd5b50505050565b606060405180602001604052806000815250905090565b6060611e0582611736565b611e44576040517f08c379a0000000000000000000000000000000000000000000000000000000008152600401611e3b9061318e565b60405180910390fd5b6000611e4e611de3565b90506000815111611e6e5760405180602001604052806000815250611e99565b80611e7884612290565b604051602001611e89929190612ed4565b6040516020818303038152906040525b915050919050565b505050565b505050565b600073ffffffffffffffffffffffffffffffffffffffff168273ffffffffffffffffffffffffffffffffffffffff161415611f1b576040517f08c379a0000000000000000000000000000000000000000000000000000000008152600401611f129061312e565b60405180910390fd5b611f2481611736565b15611f64576040517f08c379a0000000000000000000000000000000000000000000000000000000008152600401611f5b9061302e565b60405180910390fd5b611f7060008383611ea1565b6001600360008473ffffffffffffffffffffffffffffffffffffffff1673ffffffffffffffffffffffffffffffffffffffff1681526020019081526020016000206000828254611fc09190613438565b92505081905550816002600083815260200190815260200160002060006101000a81548173ffffffffffffffffffffffffffffffffffffffff021916908373ffffffffffffffffffffffffffffffffffffffff160217905550808273ffffffffffffffffffffffffffffffffffffffff16600073ffffffffffffffffffffffffffffffffffffffff167fddf252ad1be2c89b69c2b068fc378daa952ba7f163c4a11628f55a4df523b3ef60405160405180910390a461208160008383611ea6565b5050565b61208e82611736565b6120cd576040517f08c379a00000000000000000000000000000000000000000000000000000000081526004016120c49061310e565b60405180910390fd5b806006600084815260200190815260200160002090805190602001906120f4929190612460565b505050565b600061211a8473ffffffffffffffffffffffffffffffffffffffff1661243d565b15612283578373ffffffffffffffffffffffffffffffffffffffff1663150b7a026121436117a2565b8786866040518563ffffffff1660e01b81526004016121659493929190612f13565b602060405180830381600087803b15801561217f57600080fd5b505af19250505080156121b057506040513d601f19601f820116820180604052508101906121ad9190612859565b60015b612233573d80600081146121e0576040519150601f19603f3d011682016040523d82523d6000602084013e6121e5565b606091505b5060008151141561222b576040517f08c379a000000000000000000000000000000000000000000000000000000000815260040161222290612fee565b60405180910390fd5b805181602001fd5b63150b7a0260e01b7bffffffffffffffffffffffffffffffffffffffffffffffffffffffff1916817bffffffffffffffffffffffffffffffffffffffffffffffffffffffff191614915050612288565b600190505b949350505050565b606060008214156122d8576040518060400160405280600181526020017f30000000000000000000000000000000000000000000000000000000000000008152509050612438565b600082905060005b6000821461230a5780806122f39061366a565b915050600a82612303919061348e565b91506122e0565b60008167ffffffffffffffff81111561234c577f4e487b7100000000000000000000000000000000000000000000000000000000600052604160045260246000fd5b6040519080825280601f01601f19166020018201604052801561237e5781602001600182028036833780820191505090505b5090505b600085146124315760018261239791906134bf565b9150600a856123a691906136b3565b60306123b29190613438565b60f81b8183815181106123ee577f4e487b7100000000000000000000000000000000000000000000000000000000600052603260045260246000fd5b60200101907effffffffffffffffffffffffffffffffffffffffffffffffffffffffffffff1916908160001a905350600a8561242a919061348e565b9450612382565b8093505050505b919050565b6000808273ffffffffffffffffffffffffffffffffffffffff163b119050919050565b82805461246c906135d3565b90600052602060002090601f01602090048101928261248e57600085556124d5565b82601f106124a757805160ff19168380011785556124d5565b828001600101855582156124d5579182015b828111156124d45782518255916020019190600101906124b9565b5b5090506124e29190612533565b5090565b828054828255906000526020600020908101928215612522579160200282015b82811115612521578251825591602001919060010190612506565b5b50905061252f9190612533565b5090565b5b8082111561254c576000816000905550600101612534565b5090565b600061256361255e846132f6565b6132d1565b90508281526020810184848401111561257b57600080fd5b612586848285613591565b509392505050565b60006125a161259c84613327565b6132d1565b9050828152602081018484840111156125b957600080fd5b6125c4848285613591565b509392505050565b6000813590506125db81613c4f565b92915050565b6000813590506125f081613c66565b92915050565b60008135905061260581613c7d565b92915050565b60008151905061261a81613c7d565b92915050565b600082601f83011261263157600080fd5b8135612641848260208601612550565b91505092915050565b600082601f83011261265b57600080fd5b813561266b84826020860161258e565b91505092915050565b60008135905061268381613c94565b92915050565b60006020828403121561269b57600080fd5b60006126a9848285016125cc565b91505092915050565b600080604083850312156126c557600080fd5b60006126d3858286016125cc565b92505060206126e4858286016125cc565b9150509250929050565b60008060006060848603121561270357600080fd5b6000612711868287016125cc565b9350506020612722868287016125cc565b925050604061273386828701612674565b9150509250925092565b6000806000806080858703121561275357600080fd5b6000612761878288016125cc565b9450506020612772878288016125cc565b935050604061278387828801612674565b925050606085013567ffffffffffffffff8111156127a057600080fd5b6127ac87828801612620565b91505092959194509250565b600080604083850312156127cb57600080fd5b60006127d9858286016125cc565b92505060206127ea858286016125e1565b9150509250929050565b6000806040838503121561280757600080fd5b6000612815858286016125cc565b925050602061282685828601612674565b9150509250929050565b60006020828403121561284257600080fd5b6000612850848285016125f6565b91505092915050565b60006020828403121561286b57600080fd5b60006128798482850161260b565b91505092915050565b6000806040838503121561289557600080fd5b600083013567ffffffffffffffff8111156128af57600080fd5b6128bb8582860161264a565b925050602083013567ffffffffffffffff8111156128d857600080fd5b6128e48582860161264a565b9150509250929050565b6000806000806080858703121561290457600080fd5b600085013567ffffffffffffffff81111561291e57600080fd5b61292a8782880161264a565b945050602061293b87828801612674565b935050604085013567ffffffffffffffff81111561295857600080fd5b6129648782880161264a565b925050606085013567ffffffffffffffff81111561298157600080fd5b61298d8782880161264a565b91505092959194509250565b6000602082840312156129ab57600080fd5b60006129b984828501612674565b91505092915050565b60006129ce8383612eb6565b60208301905092915050565b6129e38161351d565b82525050565b6129f28161351d565b82525050565b6000612a0382613392565b612a0d81856133e9565b9350612a1883613358565b8060005b83811015612a49578151612a3088826129c2565b9750612a3b836133be565b925050600181019050612a1c565b5085935050505092915050565b6000612a618261339d565b612a6b81856133d8565b9350612a7683613368565b8060005b83811015612aae57612a8b826137a0565b612a9588826129c2565b9750612aa0836133cb565b925050600181019050612a7a565b5085935050505092915050565b612ac48161352f565b82525050565b6000612ad5826133a8565b612adf81856133fa565b9350612aef8185602086016135a0565b612af8816137b3565b840191505092915050565b6000612b0e826133b3565b612b18818561341c565b9350612b288185602086016135a0565b612b31816137b3565b840191505092915050565b6000612b47826133b3565b612b51818561342d565b9350612b618185602086016135a0565b80840191505092915050565b60008154612b7a816135d3565b612b84818661340b565b94506001821660008114612b9f5760018114612bb157612be4565b60ff1983168652602086019350612be4565b612bba8561337d565b60005b83811015612bdc57815481890152600182019150602081019050612bbd565b808801955050505b50505092915050565b6000612bfa60328361341c565b9150612c05826137d1565b604082019050919050565b6000612c1d60258361341c565b9150612c2882613820565b604082019050919050565b6000612c40601c8361341c565b9150612c4b8261386f565b602082019050919050565b6000612c6360248361341c565b9150612c6e82613898565b604082019050919050565b6000612c8660198361341c565b9150612c91826138e7565b602082019050919050565b6000612ca9602c8361341c565b9150612cb482613910565b604082019050919050565b6000612ccc60388361341c565b9150612cd78261395f565b604082019050919050565b6000612cef602a8361341c565b9150612cfa826139ae565b604082019050919050565b6000612d1260298361341c565b9150612d1d826139fd565b604082019050919050565b6000612d35602e8361341c565b9150612d4082613a4c565b604082019050919050565b6000612d5860208361341c565b9150612d6382613a9b565b602082019050919050565b6000612d7b60318361341c565b9150612d8682613ac4565b604082019050919050565b6000612d9e602c8361341c565b9150612da982613b13565b604082019050919050565b6000612dc1602f8361341c565b9150612dcc82613b62565b604082019050919050565b6000612de460218361341c565b9150612def82613bb1565b604082019050919050565b6000612e0760318361341c565b9150612e1282613c00565b604082019050919050565b600060a083016000808401549050612e348161361f565b612e416000870182612eb6565b50600184018583036020870152612e588382612b6d565b92505060028401549050612e6b81613605565b612e7860408701826129da565b50600384018583036060870152612e8f8382612b6d565b925050600484018583036080870152612ea88382612a56565b925050819250505092915050565b612ebf81613587565b82525050565b612ece81613587565b82525050565b6000612ee08285612b3c565b9150612eec8284612b3c565b91508190509392505050565b6000602082019050612f0d60008301846129e9565b92915050565b6000608082019050612f2860008301876129e9565b612f3560208301866129e9565b612f426040830185612ec5565b8181036060830152612f548184612aca565b905095945050505050565b60006020820190508181036000830152612f7981846129f8565b905092915050565b6000602082019050612f966000830184612abb565b92915050565b60006020820190508181036000830152612fb68184612b03565b905092915050565b60006040820190508181036000830152612fd88185612b03565b9050612fe76020830184612ec5565b9392505050565b6000602082019050818103600083015261300781612bed565b9050919050565b6000602082019050818103600083015261302781612c10565b9050919050565b6000602082019050818103600083015261304781612c33565b9050919050565b6000602082019050818103600083015261306781612c56565b9050919050565b6000602082019050818103600083015261308781612c79565b9050919050565b600060208201905081810360008301526130a781612c9c565b9050919050565b600060208201905081810360008301526130c781612cbf565b9050919050565b600060208201905081810360008301526130e781612ce2565b9050919050565b6000602082019050818103600083015261310781612d05565b9050919050565b6000602082019050818103600083015261312781612d28565b9050919050565b6000602082019050818103600083015261314781612d4b565b9050919050565b6000602082019050818103600083015261316781612d6e565b9050919050565b6000602082019050818103600083015261318781612d91565b9050919050565b600060208201905081810360008301526131a781612db4565b9050919050565b600060208201905081810360008301526131c781612dd7565b9050919050565b600060208201905081810360008301526131e781612dfa565b9050919050565b60006020820190506132036000830184612ec5565b92915050565b600060408201905061321e6000830185612ec5565b81810360208301526132308184612b03565b90509392505050565b600060808201905061324e6000830187612ec5565b81810360208301526132608186612b03565b905061326f60408301856129e9565b81810360608301526132818184612b03565b905095945050505050565b60006060820190506132a16000830186612ec5565b81810360208301526132b38185612b03565b905081810360408301526132c78184612e1d565b9050949350505050565b60006132db6132ec565b90506132e78282613639565b919050565b6000604051905090565b600067ffffffffffffffff82111561331157613310613771565b5b61331a826137b3565b9050602081019050919050565b600067ffffffffffffffff82111561334257613341613771565b5b61334b826137b3565b9050602081019050919050565b6000819050602082019050919050565b60008190508160005260206000209050919050565b60008190508160005260206000209050919050565b600081519050919050565b600081549050919050565b600081519050919050565b600081519050919050565b6000602082019050919050565b6000600182019050919050565b600082825260208201905092915050565b600082825260208201905092915050565b600082825260208201905092915050565b600082825260208201905092915050565b600082825260208201905092915050565b600081905092915050565b600061344382613587565b915061344e83613587565b9250827fffffffffffffffffffffffffffffffffffffffffffffffffffffffffffffffff03821115613483576134826136e4565b5b828201905092915050565b600061349982613587565b91506134a483613587565b9250826134b4576134b3613713565b5b828204905092915050565b60006134ca82613587565b91506134d583613587565b9250828210156134e8576134e76136e4565b5b828203905092915050565b600073ffffffffffffffffffffffffffffffffffffffff82169050919050565b6000819050919050565b600061352882613567565b9050919050565b60008115159050919050565b60007fffffffff0000000000000000000000000000000000000000000000000000000082169050919050565b600073ffffffffffffffffffffffffffffffffffffffff82169050919050565b6000819050919050565b82818337600083830152505050565b60005b838110156135be5780820151818401526020810190506135a3565b838111156135cd576000848401525b50505050565b600060028204905060018216806135eb57607f821691505b602082108114156135ff576135fe613742565b5b50919050565b6000613618613613836137c4565b6134f3565b9050919050565b600061363261362d836137c4565b613513565b9050919050565b613642826137b3565b810181811067ffffffffffffffff8211171561366157613660613771565b5b80604052505050565b600061367582613587565b91507fffffffffffffffffffffffffffffffffffffffffffffffffffffffffffffffff8214156136a8576136a76136e4565b5b600182019050919050565b60006136be82613587565b91506136c983613587565b9250826136d9576136d8613713565b5b828206905092915050565b7f4e487b7100000000000000000000000000000000000000000000000000000000600052601160045260246000fd5b7f4e487b7100000000000000000000000000000000000000000000000000000000600052601260045260246000fd5b7f4e487b7100000000000000000000000000000000000000000000000000000000600052602260045260246000fd5b7f4e487b7100000000000000000000000000000000000000000000000000000000600052604160045260246000fd5b60006137ac825461361f565b9050919050565b6000601f19601f8301169050919050565b60008160001c9050919050565b7f4552433732313a207472616e7366657220746f206e6f6e20455243373231526560008201527f63656976657220696d706c656d656e7465720000000000000000000000000000602082015250565b7f4552433732313a207472616e736665722066726f6d20696e636f72726563742060008201527f6f776e6572000000000000000000000000000000000000000000000000000000602082015250565b7f4552433732313a20746f6b656e20616c7265616479206d696e74656400000000600082015250565b7f4552433732313a207472616e7366657220746f20746865207a65726f2061646460008201527f7265737300000000000000000000000000000000000000000000000000000000602082015250565b7f4552433732313a20617070726f766520746f2063616c6c657200000000000000600082015250565b7f4552433732313a206f70657261746f7220717565727920666f72206e6f6e657860008201527f697374656e7420746f6b656e0000000000000000000000000000000000000000602082015250565b7f4552433732313a20617070726f76652063616c6c6572206973206e6f74206f7760008201527f6e6572206e6f7220617070726f76656420666f7220616c6c0000000000000000602082015250565b7f4552433732313a2062616c616e636520717565727920666f7220746865207a6560008201527f726f206164647265737300000000000000000000000000000000000000000000602082015250565b7f4552433732313a206f776e657220717565727920666f72206e6f6e657869737460008201527f656e7420746f6b656e0000000000000000000000000000000000000000000000602082015250565b7f45524337323155524953746f726167653a2055524920736574206f66206e6f6e60008201527f6578697374656e7420746f6b656e000000000000000000000000000000000000602082015250565b7f4552433732313a206d696e7420746f20746865207a65726f2061646472657373600082015250565b7f45524337323155524953746f726167653a2055524920717565727920666f722060008201527f6e6f6e6578697374656e7420746f6b656e000000000000000000000000000000602082015250565b7f4552433732313a20617070726f76656420717565727920666f72206e6f6e657860008201527f697374656e7420746f6b656e0000000000000000000000000000000000000000602082015250565b7f4552433732314d657461646174613a2055524920717565727920666f72206e6f60008201527f6e6578697374656e7420746f6b656e0000000000000000000000000000000000602082015250565b7f4552433732313a20617070726f76616c20746f2063757272656e74206f776e6560008201527f7200000000000000000000000000000000000000000000000000000000000000602082015250565b7f4552433732313a207472616e736665722063616c6c6572206973206e6f74206f60008201527f776e6572206e6f7220617070726f766564000000000000000000000000000000602082015250565b613c588161351d565b8114613c6357600080fd5b50565b613c6f8161352f565b8114613c7a57600080fd5b50565b613c868161353b565b8114613c9157600080fd5b50565b613c9d81613587565b8114613ca857600080fd5b5056fea2646970667358221220e348938d6d9b3b53d32a63725aaec270446d6b7f8f7c992a450805564231e4ca64736f6c63430008040033",
  "linkReferences": {},
  "deployedLinkReferences": {}
}