{
  "_format": "hh-sol-artifact-1",
  "contractName": "CoreCollection",
  "sourceName": "contracts/CoreCollection.sol",
  "abi": [
    {
      "inputs": [
        {
          "internalType": "address",
          "name": "_contractAddress",
          "type": "address"
        }
      ],
      "stateMutability": "nonpayable",
      "type": "constructor"
    },
    {
      "anonymous": false,
      "inputs": [
        {
          "indexed": true,
          "internalType": "address",
          "name": "owner",
          "type": "address"
        },
        {
          "indexed": true,
          "internalType": "address",
          "name": "approved",
          "type": "address"
        },
        {
          "indexed": true,
          "internalType": "uint256",
          "name": "tokenId",
          "type": "uint256"
        }
      ],
      "name": "Approval",
      "type": "event"
    },
    {
      "anonymous": false,
      "inputs": [
        {
          "indexed": true,
          "internalType": "address",
          "name": "owner",
          "type": "address"
        },
        {
          "indexed": true,
          "internalType": "address",
          "name": "operator",
          "type": "address"
        },
        {
          "indexed": false,
          "internalType": "bool",
          "name": "approved",
          "type": "bool"
        }
      ],
      "name": "ApprovalForAll",
      "type": "event"
    },
    {
      "anonymous": false,
      "inputs": [
        {
          "indexed": false,
          "internalType": "string",
          "name": "_name",
          "type": "string"
        },
        {
          "indexed": false,
          "internalType": "uint256",
          "name": "_collectionId",
          "type": "uint256"
        }
      ],
      "name": "CollectionCreated",
      "type": "event"
    },
    {
      "anonymous": false,
      "inputs": [
        {
          "indexed": false,
          "internalType": "uint256",
          "name": "_itemId",
          "type": "uint256"
        },
        {
          "indexed": false,
          "internalType": "string",
          "name": "_NFTName",
          "type": "string"
        },
        {
          "components": [
            {
              "internalType": "uint256",
              "name": "collectionId",
              "type": "uint256"
            },
            {
              "internalType": "string",
              "name": "name",
              "type": "string"
            },
            {
              "internalType": "address",
              "name": "creator",
              "type": "address"
            },
            {
              "internalType": "string",
              "name": "collectionLink",
              "type": "string"
            },
            {
              "internalType": "uint256[]",
              "name": "itemIds",
              "type": "uint256[]"
            }
          ],
          "indexed": false,
          "internalType": "struct CoreCollection.Collection",
          "name": "_collection",
          "type": "tuple"
        }
      ],
      "name": "NFTCreated",
      "type": "event"
    },
    {
      "anonymous": false,
      "inputs": [
        {
          "indexed": false,
          "internalType": "uint256",
          "name": "_newItemId",
          "type": "uint256"
        },
        {
          "indexed": false,
          "internalType": "string",
          "name": "_tokenURI",
          "type": "string"
        }
      ],
      "name": "TokenCreated",
      "type": "event"
    },
    {
      "anonymous": false,
      "inputs": [
        {
          "indexed": true,
          "internalType": "address",
          "name": "from",
          "type": "address"
        },
        {
          "indexed": true,
          "internalType": "address",
          "name": "to",
          "type": "address"
        },
        {
          "indexed": true,
          "internalType": "uint256",
          "name": "tokenId",
          "type": "uint256"
        }
      ],
      "name": "Transfer",
      "type": "event"
    },
    {
      "inputs": [
        {
          "internalType": "uint256",
          "name": "",
          "type": "uint256"
        }
      ],
      "name": "NFTs",
      "outputs": [
        {
          "internalType": "uint256",
          "name": "itemId",
          "type": "uint256"
        },
        {
          "internalType": "string",
          "name": "nft_name",
          "type": "string"
        },
        {
          "internalType": "address",
          "name": "creator",
          "type": "address"
        },
        {
          "internalType": "string",
          "name": "externalLink",
          "type": "string"
        }
      ],
      "stateMutability": "view",
      "type": "function"
    },
    {
      "inputs": [
        {
          "internalType": "address",
          "name": "to",
          "type": "address"
        },
        {
          "internalType": "uint256",
          "name": "tokenId",
          "type": "uint256"
        }
      ],
      "name": "approve",
      "outputs": [],
      "stateMutability": "nonpayable",
      "type": "function"
    },
    {
      "inputs": [
        {
          "internalType": "address",
          "name": "owner",
          "type": "address"
        }
      ],
      "name": "balanceOf",
      "outputs": [
        {
          "internalType": "uint256",
          "name": "",
          "type": "uint256"
        }
      ],
      "stateMutability": "view",
      "type": "function"
    },
    {
      "inputs": [
        {
          "internalType": "uint256",
          "name": "",
          "type": "uint256"
        }
      ],
      "name": "collectionIdToUser",
      "outputs": [
        {
          "internalType": "address",
          "name": "",
          "type": "address"
        }
      ],
      "stateMutability": "view",
      "type": "function"
    },
    {
      "inputs": [
        {
          "internalType": "uint256",
          "name": "",
          "type": "uint256"
        }
      ],
      "name": "collections",
      "outputs": [
        {
          "internalType": "uint256",
          "name": "collectionId",
          "type": "uint256"
        },
        {
          "internalType": "string",
          "name": "name",
          "type": "string"
        },
        {
          "internalType": "address",
          "name": "creator",
          "type": "address"
        },
        {
          "internalType": "string",
          "name": "collectionLink",
          "type": "string"
        }
      ],
      "stateMutability": "view",
      "type": "function"
    },
    {
      "inputs": [
        {
          "internalType": "string",
          "name": "_name",
          "type": "string"
        },
        {
          "internalType": "string",
          "name": "_collectionLink",
          "type": "string"
        }
      ],
      "name": "createCollection",
      "outputs": [],
      "stateMutability": "nonpayable",
      "type": "function"
    },
    {
      "inputs": [
        {
          "internalType": "string",
          "name": "_NFTName",
          "type": "string"
        },
        {
          "internalType": "uint256",
          "name": "_collectionId",
          "type": "uint256"
        },
        {
          "internalType": "string",
          "name": "_externalLink",
          "type": "string"
        },
        {
          "internalType": "string",
          "name": "_tokenURI",
          "type": "string"
        }
      ],
      "name": "createNFT",
      "outputs": [],
      "stateMutability": "nonpayable",
      "type": "function"
    },
    {
      "inputs": [],
      "name": "getAllCollections",
      "outputs": [
        {
          "internalType": "uint256[]",
          "name": "",
          "type": "uint256[]"
        }
      ],
      "stateMutability": "view",
      "type": "function"
    },
    {
      "inputs": [
        {
          "internalType": "uint256",
          "name": "tokenId",
          "type": "uint256"
        }
      ],
      "name": "getApproved",
      "outputs": [
        {
          "internalType": "address",
          "name": "",
          "type": "address"
        }
      ],
      "stateMutability": "view",
      "type": "function"
    },
    {
      "inputs": [
        {
          "internalType": "address",
          "name": "_address",
          "type": "address"
        }
      ],
      "name": "getCollectionIds",
      "outputs": [
        {
          "internalType": "uint256[]",
          "name": "",
          "type": "uint256[]"
        }
      ],
      "stateMutability": "view",
      "type": "function"
    },
    {
      "inputs": [
        {
          "internalType": "uint256",
          "name": "collectionId",
          "type": "uint256"
        }
      ],
      "name": "getItems",
      "outputs": [
        {
          "internalType": "uint256[]",
          "name": "",
          "type": "uint256[]"
        }
      ],
      "stateMutability": "view",
      "type": "function"
    },
    {
      "inputs": [
        {
          "internalType": "address",
          "name": "owner",
          "type": "address"
        },
        {
          "internalType": "address",
          "name": "operator",
          "type": "address"
        }
      ],
      "name": "isApprovedForAll",
      "outputs": [
        {
          "internalType": "bool",
          "name": "",
          "type": "bool"
        }
      ],
      "stateMutability": "view",
      "type": "function"
    },
    {
      "inputs": [],
      "name": "name",
      "outputs": [
        {
          "internalType": "string",
          "name": "",
          "type": "string"
        }
      ],
      "stateMutability": "view",
      "type": "function"
    },
    {
      "inputs": [
        {
          "internalType": "uint256",
          "name": "tokenId",
          "type": "uint256"
        }
      ],
      "name": "ownerOf",
      "outputs": [
        {
          "internalType": "address",
          "name": "",
          "type": "address"
        }
      ],
      "stateMutability": "view",
      "type": "function"
    },
    {
      "inputs": [
        {
          "internalType": "address",
          "name": "from",
          "type": "address"
        },
        {
          "internalType": "address",
          "name": "to",
          "type": "address"
        },
        {
          "internalType": "uint256",
          "name": "tokenId",
          "type": "uint256"
        }
      ],
      "name": "safeTransferFrom",
      "outputs": [],
      "stateMutability": "nonpayable",
      "type": "function"
    },
    {
      "inputs": [
        {
          "internalType": "address",
          "name": "from",
          "type": "address"
        },
        {
          "internalType": "address",
          "name": "to",
          "type": "address"
        },
        {
          "internalType": "uint256",
          "name": "tokenId",
          "type": "uint256"
        },
        {
          "internalType": "bytes",
          "name": "_data",
          "type": "bytes"
        }
      ],
      "name": "safeTransferFrom",
      "outputs": [],
      "stateMutability": "nonpayable",
      "type": "function"
    },
    {
      "inputs": [
        {
          "internalType": "address",
          "name": "operator",
          "type": "address"
        },
        {
          "internalType": "bool",
          "name": "approved",
          "type": "bool"
        }
      ],
      "name": "setApprovalForAll",
      "outputs": [],
      "stateMutability": "nonpayable",
      "type": "function"
    },
    {
      "inputs": [
        {
          "internalType": "bytes4",
          "name": "interfaceId",
          "type": "bytes4"
        }
      ],
      "name": "supportsInterface",
      "outputs": [
        {
          "internalType": "bool",
          "name": "",
          "type": "bool"
        }
      ],
      "stateMutability": "view",
      "type": "function"
    },
    {
      "inputs": [],
      "name": "symbol",
      "outputs": [
        {
          "internalType": "string",
          "name": "",
          "type": "string"
        }
      ],
      "stateMutability": "view",
      "type": "function"
    },
    {
      "inputs": [
        {
          "internalType": "uint256",
          "name": "tokenId",
          "type": "uint256"
        }
      ],
      "name": "tokenURI",
      "outputs": [
        {
          "internalType": "string",
          "name": "",
          "type": "string"
        }
      ],
      "stateMutability": "view",
      "type": "function"
    },
    {
      "inputs": [
        {
          "internalType": "address",
          "name": "from",
          "type": "address"
        },
        {
          "internalType": "address",
          "name": "to",
          "type": "address"
        },
        {
          "internalType": "uint256",
          "name": "tokenId",
          "type": "uint256"
        }
      ],
      "name": "transferFrom",
      "outputs": [],
      "stateMutability": "nonpayable",
      "type": "function"
    },
    {
      "inputs": [
        {
          "internalType": "address",
          "name": "",
          "type": "address"
        },
        {
          "internalType": "uint256",
          "name": "",
          "type": "uint256"
        }
      ],
      "name": "userToCollectionIds",
      "outputs": [
        {
          "internalType": "uint256",
          "name": "",
          "type": "uint256"
        }
      ],
      "stateMutability": "view",
      "type": "function"
    }
  ],
  "bytecode": "0x60806040523480156200001157600080fd5b5060405162003fc238038062003fc28339818101604052810190620000379190620001e6565b6040518060400160405280600581526020017f4f617369730000000000000000000000000000000000000000000000000000008152506040518060400160405280600281526020017f4f430000000000000000000000000000000000000000000000000000000000008152508160009080519060200190620000bb9291906200011f565b508060019080519060200190620000d49291906200011f565b50505080600760006101000a81548173ffffffffffffffffffffffffffffffffffffffff021916908373ffffffffffffffffffffffffffffffffffffffff16021790555050620002c5565b8280546200012d9062000246565b90600052602060002090601f0160209004810192826200015157600085556200019d565b82601f106200016c57805160ff19168380011785556200019d565b828001600101855582156200019d579182015b828111156200019c5782518255916020019190600101906200017f565b5b509050620001ac9190620001b0565b5090565b5b80821115620001cb576000816000905550600101620001b1565b5090565b600081519050620001e081620002ab565b92915050565b600060208284031215620001f957600080fd5b60006200020984828501620001cf565b91505092915050565b60006200021f8262000226565b9050919050565b600073ffffffffffffffffffffffffffffffffffffffff82169050919050565b600060028204905060018216806200025f57607f821691505b602082108114156200027657620002756200027c565b5b50919050565b7f4e487b7100000000000000000000000000000000000000000000000000000000600052602260045260246000fd5b620002b68162000212565b8114620002c257600080fd5b50565b613ced80620002d56000396000f3fe608060405234801561001057600080fd5b50600436106101425760003560e01c806370a08231116100b8578063a3c0b95b1161007c578063a3c0b95b14610399578063b88d4fde146103cc578063bd0be695146103e8578063c87b56dd14610418578063e985e9c514610448578063fdbda0ec1461047857610142565b806370a08231146102cf5780637863365f146102ff578063796c5e941461032f57806395d89b411461035f578063a22cb4651461037d57610142565b8063176b9b751161010a578063176b9b751461021157806323b872dd1461022d5780633db45b541461024957806342842e0e146102655780636352211e146102815780636804a958146102b157610142565b806301ffc9a71461014757806306fdde0314610177578063081812fc14610195578063095ea7b3146101c557806309a16ae5146101e1575b600080fd5b610161600480360381019061015c919061283c565b6104ab565b60405161016e9190612f8d565b60405180910390f35b61017f61058d565b60405161018c9190612fa8565b60405180910390f35b6101af60048036038101906101aa91906129a5565b61061f565b6040516101bc9190612f04565b60405180910390f35b6101df60048036038101906101da9190612800565b6106a4565b005b6101fb60048036038101906101f69190612695565b6107bc565b6040516102089190612f6b565b60405180910390f35b61022b6004803603810190610226919061288e565b610853565b005b610247600480360381019061024291906126fa565b610ad2565b005b610263600480360381019061025e91906128fa565b610b32565b005b61027f600480360381019061027a91906126fa565b610dd8565b005b61029b600480360381019061029691906129a5565b610df8565b6040516102a89190612f04565b60405180910390f35b6102b9610eaa565b6040516102c69190612f6b565b60405180910390f35b6102e960048036038101906102e49190612695565b610f9e565b6040516102f691906131fa565b60405180910390f35b61031960048036038101906103149190612800565b611056565b60405161032691906131fa565b60405180910390f35b610349600480360381019061034491906129a5565b611087565b6040516103569190612f6b565b60405180910390f35b6103676110f5565b6040516103749190612fa8565b60405180910390f35b610397600480360381019061039291906127c4565b611187565b005b6103b360048036038101906103ae91906129a5565b61119d565b6040516103c39493929190613245565b60405180910390f35b6103e660048036038101906103e19190612749565b6112fd565b005b61040260048036038101906103fd91906129a5565b61135f565b60405161040f9190612f04565b60405180910390f35b610432600480360381019061042d91906129a5565b611392565b60405161043f9190612fa8565b60405180910390f35b610462600480360381019061045d91906126be565b6114e4565b60405161046f9190612f8d565b60405180910390f35b610492600480360381019061048d91906129a5565b611578565b6040516104a29493929190613245565b60405180910390f35b60007f80ac58cd000000000000000000000000000000000000000000000000000000007bffffffffffffffffffffffffffffffffffffffffffffffffffffffff1916827bffffffffffffffffffffffffffffffffffffffffffffffffffffffff1916148061057657507f5b5e139f000000000000000000000000000000000000000000000000000000007bffffffffffffffffffffffffffffffffffffffffffffffffffffffff1916827bffffffffffffffffffffffffffffffffffffffffffffffffffffffff1916145b806105865750610585826116d8565b5b9050919050565b60606000805461059c906135df565b80601f01602080910402602001604051908101604052809291908181526020018280546105c8906135df565b80156106155780601f106105ea57610100808354040283529160200191610615565b820191906000526020600020905b8154815290600101906020018083116105f857829003601f168201915b5050505050905090565b600061062a82611742565b610669576040517f08c379a00000000000000000000000000000000000000000000000000000000081526004016106609061317a565b60405180910390fd5b6004600083815260200190815260200160002060009054906101000a900473ffffffffffffffffffffffffffffffffffffffff169050919050565b60006106af82610df8565b90508073ffffffffffffffffffffffffffffffffffffffff168373ffffffffffffffffffffffffffffffffffffffff161415610720576040517f08c379a0000000000000000000000000000000000000000000000000000000008152600401610717906131ba565b60405180910390fd5b8073ffffffffffffffffffffffffffffffffffffffff1661073f6117ae565b73ffffffffffffffffffffffffffffffffffffffff16148061076e575061076d816107686117ae565b6114e4565b5b6107ad576040517f08c379a00000000000000000000000000000000000000000000000000000000081526004016107a4906130ba565b60405180910390fd5b6107b783836117b6565b505050565b6060600d60008373ffffffffffffffffffffffffffffffffffffffff1673ffffffffffffffffffffffffffffffffffffffff16815260200190815260200160002080548060200260200160405190810160405280929190818152602001828054801561084757602002820191906000526020600020905b815481526020019060010190808311610833575b50505050509050919050565b6009600081548092919061086690613676565b9190505550600060095490506040518060a001604052808281526020018481526020013373ffffffffffffffffffffffffffffffffffffffff168152602001838152602001600067ffffffffffffffff8111156108ec577f4e487b7100000000000000000000000000000000000000000000000000000000600052604160045260246000fd5b60405190808252806020026020018201604052801561091a5781602001602082028036833780820191505090505b50815250600b600083815260200190815260200160002060008201518160000155602082015181600101908051906020019061095792919061246c565b5060408201518160020160006101000a81548173ffffffffffffffffffffffffffffffffffffffff021916908373ffffffffffffffffffffffffffffffffffffffff16021790555060608201518160030190805190602001906109bb92919061246c565b5060808201518160040190805190602001906109d89291906124f2565b5090505033600c600083815260200190815260200160002060006101000a81548173ffffffffffffffffffffffffffffffffffffffff021916908373ffffffffffffffffffffffffffffffffffffffff160217905550600d60003373ffffffffffffffffffffffffffffffffffffffff1673ffffffffffffffffffffffffffffffffffffffff1681526020019081526020016000208190806001815401808255809150506001900390600052602060002001600090919091909150557f7b5a520c0e4b578a26c9d30d55a79e2b2aec43c74bca7a5e2719980ec06d54e08382604051610ac5929190612fca565b60405180910390a1505050565b610ae3610add6117ae565b8261186f565b610b22576040517f08c379a0000000000000000000000000000000000000000000000000000000008152600401610b19906131da565b60405180910390fd5b610b2d83838361194d565b505050565b6000610b3e8233611bb4565b9050610b6d600760009054906101000a900473ffffffffffffffffffffffffffffffffffffffff166001611187565b60405180608001604052808281526020018681526020013373ffffffffffffffffffffffffffffffffffffffff16815260200184815250600a6000838152602001908152602001600020600082015181600001556020820151816001019080519060200190610bdd92919061246c565b5060408201518160020160006101000a81548173ffffffffffffffffffffffffffffffffffffffff021916908373ffffffffffffffffffffffffffffffffffffffff1602179055506060820151816003019080519060200190610c4192919061246c565b50905050600b6000600d60003373ffffffffffffffffffffffffffffffffffffffff1673ffffffffffffffffffffffffffffffffffffffff1681526020019081526020016000208681548110610cc0577f4e487b7100000000000000000000000000000000000000000000000000000000600052603260045260246000fd5b906000526020600020015481526020019081526020016000206004018190806001815401808255809150506001900390600052602060002001600090919091909150557f5ba8d7ca25df1b811b6c09ea413fa22e451ce32edb72525624253b9d74f4aec98186600b6000600d60003373ffffffffffffffffffffffffffffffffffffffff1673ffffffffffffffffffffffffffffffffffffffff1681526020019081526020016000208981548110610da1577f4e487b7100000000000000000000000000000000000000000000000000000000600052603260045260246000fd5b90600052602060002001548152602001908152602001600020604051610dc993929190613298565b60405180910390a15050505050565b610df3838383604051806020016040528060008152506112fd565b505050565b6000806002600084815260200190815260200160002060009054906101000a900473ffffffffffffffffffffffffffffffffffffffff169050600073ffffffffffffffffffffffffffffffffffffffff168173ffffffffffffffffffffffffffffffffffffffff161415610ea1576040517f08c379a0000000000000000000000000000000000000000000000000000000008152600401610e98906130fa565b60405180910390fd5b80915050919050565b6060600060095467ffffffffffffffff811115610ef0577f4e487b7100000000000000000000000000000000000000000000000000000000600052604160045260246000fd5b604051908082528060200260200182016040528015610f1e5781602001602082028036833780820191505090505b5090506000600190505b6009548111610f96578082600183610f4091906134cb565b81518110610f77577f4e487b7100000000000000000000000000000000000000000000000000000000600052603260045260246000fd5b6020026020010181815250508080610f8e90613676565b915050610f28565b508091505090565b60008073ffffffffffffffffffffffffffffffffffffffff168273ffffffffffffffffffffffffffffffffffffffff16141561100f576040517f08c379a0000000000000000000000000000000000000000000000000000000008152600401611006906130da565b60405180910390fd5b600360008373ffffffffffffffffffffffffffffffffffffffff1673ffffffffffffffffffffffffffffffffffffffff168152602001908152602001600020549050919050565b600d602052816000526040600020818154811061107257600080fd5b90600052602060002001600091509150505481565b6060600b60008381526020019081526020016000206004018054806020026020016040519081016040528092919081815260200182805480156110e957602002820191906000526020600020905b8154815260200190600101908083116110d5575b50505050509050919050565b606060018054611104906135df565b80601f0160208091040260200160405190810160405280929190818152602001828054611130906135df565b801561117d5780601f106111525761010080835404028352916020019161117d565b820191906000526020600020905b81548152906001019060200180831161116057829003601f168201915b5050505050905090565b6111996111926117ae565b8383611c26565b5050565b600a6020528060005260406000206000915090508060000154908060010180546111c6906135df565b80601f01602080910402602001604051908101604052809291908181526020018280546111f2906135df565b801561123f5780601f106112145761010080835404028352916020019161123f565b820191906000526020600020905b81548152906001019060200180831161122257829003601f168201915b5050505050908060020160009054906101000a900473ffffffffffffffffffffffffffffffffffffffff169080600301805461127a906135df565b80601f01602080910402602001604051908101604052809291908181526020018280546112a6906135df565b80156112f35780601f106112c8576101008083540402835291602001916112f3565b820191906000526020600020905b8154815290600101906020018083116112d657829003601f168201915b5050505050905084565b61130e6113086117ae565b8361186f565b61134d576040517f08c379a0000000000000000000000000000000000000000000000000000000008152600401611344906131da565b60405180910390fd5b61135984848484611d93565b50505050565b600c6020528060005260406000206000915054906101000a900473ffffffffffffffffffffffffffffffffffffffff1681565b606061139d82611742565b6113dc576040517f08c379a00000000000000000000000000000000000000000000000000000000081526004016113d39061315a565b60405180910390fd5b60006006600084815260200190815260200160002080546113fc906135df565b80601f0160208091040260200160405190810160405280929190818152602001828054611428906135df565b80156114755780601f1061144a57610100808354040283529160200191611475565b820191906000526020600020905b81548152906001019060200180831161145857829003601f168201915b505050505090506000611486611def565b905060008151141561149c5781925050506114df565b6000825111156114d15780826040516020016114b9929190612ee0565b604051602081830303815290604052925050506114df565b6114da84611e06565b925050505b919050565b6000600560008473ffffffffffffffffffffffffffffffffffffffff1673ffffffffffffffffffffffffffffffffffffffff16815260200190815260200160002060008373ffffffffffffffffffffffffffffffffffffffff1673ffffffffffffffffffffffffffffffffffffffff16815260200190815260200160002060009054906101000a900460ff16905092915050565b600b6020528060005260406000206000915090508060000154908060010180546115a1906135df565b80601f01602080910402602001604051908101604052809291908181526020018280546115cd906135df565b801561161a5780601f106115ef5761010080835404028352916020019161161a565b820191906000526020600020905b8154815290600101906020018083116115fd57829003601f168201915b5050505050908060020160009054906101000a900473ffffffffffffffffffffffffffffffffffffffff1690806003018054611655906135df565b80601f0160208091040260200160405190810160405280929190818152602001828054611681906135df565b80156116ce5780601f106116a3576101008083540402835291602001916116ce565b820191906000526020600020905b8154815290600101906020018083116116b157829003601f168201915b5050505050905084565b60007f01ffc9a7000000000000000000000000000000000000000000000000000000007bffffffffffffffffffffffffffffffffffffffffffffffffffffffff1916827bffffffffffffffffffffffffffffffffffffffffffffffffffffffff1916149050919050565b60008073ffffffffffffffffffffffffffffffffffffffff166002600084815260200190815260200160002060009054906101000a900473ffffffffffffffffffffffffffffffffffffffff1673ffffffffffffffffffffffffffffffffffffffff1614159050919050565b600033905090565b816004600083815260200190815260200160002060006101000a81548173ffffffffffffffffffffffffffffffffffffffff021916908373ffffffffffffffffffffffffffffffffffffffff160217905550808273ffffffffffffffffffffffffffffffffffffffff1661182983610df8565b73ffffffffffffffffffffffffffffffffffffffff167f8c5be1e5ebec7d5bd14f71427d1e84f3dd0314c0f7b2291e5b200ac8c7c3b92560405160405180910390a45050565b600061187a82611742565b6118b9576040517f08c379a00000000000000000000000000000000000000000000000000000000081526004016118b09061309a565b60405180910390fd5b60006118c483610df8565b90508073ffffffffffffffffffffffffffffffffffffffff168473ffffffffffffffffffffffffffffffffffffffff16148061193357508373ffffffffffffffffffffffffffffffffffffffff1661191b8461061f565b73ffffffffffffffffffffffffffffffffffffffff16145b80611944575061194381856114e4565b5b91505092915050565b8273ffffffffffffffffffffffffffffffffffffffff1661196d82610df8565b73ffffffffffffffffffffffffffffffffffffffff16146119c3576040517f08c379a00000000000000000000000000000000000000000000000000000000081526004016119ba9061301a565b60405180910390fd5b600073ffffffffffffffffffffffffffffffffffffffff168273ffffffffffffffffffffffffffffffffffffffff161415611a33576040517f08c379a0000000000000000000000000000000000000000000000000000000008152600401611a2a9061305a565b60405180910390fd5b611a3e838383611ead565b611a496000826117b6565b6001600360008573ffffffffffffffffffffffffffffffffffffffff1673ffffffffffffffffffffffffffffffffffffffff1681526020019081526020016000206000828254611a9991906134cb565b925050819055506001600360008473ffffffffffffffffffffffffffffffffffffffff1673ffffffffffffffffffffffffffffffffffffffff1681526020019081526020016000206000828254611af09190613444565b92505081905550816002600083815260200190815260200160002060006101000a81548173ffffffffffffffffffffffffffffffffffffffff021916908373ffffffffffffffffffffffffffffffffffffffff160217905550808273ffffffffffffffffffffffffffffffffffffffff168473ffffffffffffffffffffffffffffffffffffffff167fddf252ad1be2c89b69c2b068fc378daa952ba7f163c4a11628f55a4df523b3ef60405160405180910390a4611baf838383611eb2565b505050565b600060086000815480929190611bc990613676565b91905055506008549050611bdd8282611eb7565b611be78184612091565b7f5d3ac5872118b949a1f8db596134a0e1587ecf18f2203bb1e3ea420c3c3f8fa98184604051611c18929190613215565b60405180910390a192915050565b8173ffffffffffffffffffffffffffffffffffffffff168373ffffffffffffffffffffffffffffffffffffffff161415611c95576040517f08c379a0000000000000000000000000000000000000000000000000000000008152600401611c8c9061307a565b60405180910390fd5b80600560008573ffffffffffffffffffffffffffffffffffffffff1673ffffffffffffffffffffffffffffffffffffffff16815260200190815260200160002060008473ffffffffffffffffffffffffffffffffffffffff1673ffffffffffffffffffffffffffffffffffffffff16815260200190815260200160002060006101000a81548160ff0219169083151502179055508173ffffffffffffffffffffffffffffffffffffffff168373ffffffffffffffffffffffffffffffffffffffff167f17307eab39ab6107e8899845ad3d59bd9653f200f220920489ca2b5937696c3183604051611d869190612f8d565b60405180910390a3505050565b611d9e84848461194d565b611daa84848484612105565b611de9576040517f08c379a0000000000000000000000000000000000000000000000000000000008152600401611de090612ffa565b60405180910390fd5b50505050565b606060405180602001604052806000815250905090565b6060611e1182611742565b611e50576040517f08c379a0000000000000000000000000000000000000000000000000000000008152600401611e479061319a565b60405180910390fd5b6000611e5a611def565b90506000815111611e7a5760405180602001604052806000815250611ea5565b80611e848461229c565b604051602001611e95929190612ee0565b6040516020818303038152906040525b915050919050565b505050565b505050565b600073ffffffffffffffffffffffffffffffffffffffff168273ffffffffffffffffffffffffffffffffffffffff161415611f27576040517f08c379a0000000000000000000000000000000000000000000000000000000008152600401611f1e9061313a565b60405180910390fd5b611f3081611742565b15611f70576040517f08c379a0000000000000000000000000000000000000000000000000000000008152600401611f679061303a565b60405180910390fd5b611f7c60008383611ead565b6001600360008473ffffffffffffffffffffffffffffffffffffffff1673ffffffffffffffffffffffffffffffffffffffff1681526020019081526020016000206000828254611fcc9190613444565b92505081905550816002600083815260200190815260200160002060006101000a81548173ffffffffffffffffffffffffffffffffffffffff021916908373ffffffffffffffffffffffffffffffffffffffff160217905550808273ffffffffffffffffffffffffffffffffffffffff16600073ffffffffffffffffffffffffffffffffffffffff167fddf252ad1be2c89b69c2b068fc378daa952ba7f163c4a11628f55a4df523b3ef60405160405180910390a461208d60008383611eb2565b5050565b61209a82611742565b6120d9576040517f08c379a00000000000000000000000000000000000000000000000000000000081526004016120d09061311a565b60405180910390fd5b8060066000848152602001908152602001600020908051906020019061210092919061246c565b505050565b60006121268473ffffffffffffffffffffffffffffffffffffffff16612449565b1561228f578373ffffffffffffffffffffffffffffffffffffffff1663150b7a0261214f6117ae565b8786866040518563ffffffff1660e01b81526004016121719493929190612f1f565b602060405180830381600087803b15801561218b57600080fd5b505af19250505080156121bc57506040513d601f19601f820116820180604052508101906121b99190612865565b60015b61223f573d80600081146121ec576040519150601f19603f3d011682016040523d82523d6000602084013e6121f1565b606091505b50600081511415612237576040517f08c379a000000000000000000000000000000000000000000000000000000000815260040161222e90612ffa565b60405180910390fd5b805181602001fd5b63150b7a0260e01b7bffffffffffffffffffffffffffffffffffffffffffffffffffffffff1916817bffffffffffffffffffffffffffffffffffffffffffffffffffffffff191614915050612294565b600190505b949350505050565b606060008214156122e4576040518060400160405280600181526020017f30000000000000000000000000000000000000000000000000000000000000008152509050612444565b600082905060005b600082146123165780806122ff90613676565b915050600a8261230f919061349a565b91506122ec565b60008167ffffffffffffffff811115612358577f4e487b7100000000000000000000000000000000000000000000000000000000600052604160045260246000fd5b6040519080825280601f01601f19166020018201604052801561238a5781602001600182028036833780820191505090505b5090505b6000851461243d576001826123a391906134cb565b9150600a856123b291906136bf565b60306123be9190613444565b60f81b8183815181106123fa577f4e487b7100000000000000000000000000000000000000000000000000000000600052603260045260246000fd5b60200101907effffffffffffffffffffffffffffffffffffffffffffffffffffffffffffff1916908160001a905350600a85612436919061349a565b945061238e565b8093505050505b919050565b6000808273ffffffffffffffffffffffffffffffffffffffff163b119050919050565b828054612478906135df565b90600052602060002090601f01602090048101928261249a57600085556124e1565b82601f106124b357805160ff19168380011785556124e1565b828001600101855582156124e1579182015b828111156124e05782518255916020019190600101906124c5565b5b5090506124ee919061253f565b5090565b82805482825590600052602060002090810192821561252e579160200282015b8281111561252d578251825591602001919060010190612512565b5b50905061253b919061253f565b5090565b5b80821115612558576000816000905550600101612540565b5090565b600061256f61256a84613302565b6132dd565b90508281526020810184848401111561258757600080fd5b61259284828561359d565b509392505050565b60006125ad6125a884613333565b6132dd565b9050828152602081018484840111156125c557600080fd5b6125d084828561359d565b509392505050565b6000813590506125e781613c5b565b92915050565b6000813590506125fc81613c72565b92915050565b60008135905061261181613c89565b92915050565b60008151905061262681613c89565b92915050565b600082601f83011261263d57600080fd5b813561264d84826020860161255c565b91505092915050565b600082601f83011261266757600080fd5b813561267784826020860161259a565b91505092915050565b60008135905061268f81613ca0565b92915050565b6000602082840312156126a757600080fd5b60006126b5848285016125d8565b91505092915050565b600080604083850312156126d157600080fd5b60006126df858286016125d8565b92505060206126f0858286016125d8565b9150509250929050565b60008060006060848603121561270f57600080fd5b600061271d868287016125d8565b935050602061272e868287016125d8565b925050604061273f86828701612680565b9150509250925092565b6000806000806080858703121561275f57600080fd5b600061276d878288016125d8565b945050602061277e878288016125d8565b935050604061278f87828801612680565b925050606085013567ffffffffffffffff8111156127ac57600080fd5b6127b88782880161262c565b91505092959194509250565b600080604083850312156127d757600080fd5b60006127e5858286016125d8565b92505060206127f6858286016125ed565b9150509250929050565b6000806040838503121561281357600080fd5b6000612821858286016125d8565b925050602061283285828601612680565b9150509250929050565b60006020828403121561284e57600080fd5b600061285c84828501612602565b91505092915050565b60006020828403121561287757600080fd5b600061288584828501612617565b91505092915050565b600080604083850312156128a157600080fd5b600083013567ffffffffffffffff8111156128bb57600080fd5b6128c785828601612656565b925050602083013567ffffffffffffffff8111156128e457600080fd5b6128f085828601612656565b9150509250929050565b6000806000806080858703121561291057600080fd5b600085013567ffffffffffffffff81111561292a57600080fd5b61293687828801612656565b945050602061294787828801612680565b935050604085013567ffffffffffffffff81111561296457600080fd5b61297087828801612656565b925050606085013567ffffffffffffffff81111561298d57600080fd5b61299987828801612656565b91505092959194509250565b6000602082840312156129b757600080fd5b60006129c584828501612680565b91505092915050565b60006129da8383612ec2565b60208301905092915050565b6129ef81613529565b82525050565b6129fe81613529565b82525050565b6000612a0f8261339e565b612a1981856133f5565b9350612a2483613364565b8060005b83811015612a55578151612a3c88826129ce565b9750612a47836133ca565b925050600181019050612a28565b5085935050505092915050565b6000612a6d826133a9565b612a7781856133e4565b9350612a8283613374565b8060005b83811015612aba57612a97826137ac565b612aa188826129ce565b9750612aac836133d7565b925050600181019050612a86565b5085935050505092915050565b612ad08161353b565b82525050565b6000612ae1826133b4565b612aeb8185613406565b9350612afb8185602086016135ac565b612b04816137bf565b840191505092915050565b6000612b1a826133bf565b612b248185613428565b9350612b348185602086016135ac565b612b3d816137bf565b840191505092915050565b6000612b53826133bf565b612b5d8185613439565b9350612b6d8185602086016135ac565b80840191505092915050565b60008154612b86816135df565b612b908186613417565b94506001821660008114612bab5760018114612bbd57612bf0565b60ff1983168652602086019350612bf0565b612bc685613389565b60005b83811015612be857815481890152600182019150602081019050612bc9565b808801955050505b50505092915050565b6000612c06603283613428565b9150612c11826137dd565b604082019050919050565b6000612c29602583613428565b9150612c348261382c565b604082019050919050565b6000612c4c601c83613428565b9150612c578261387b565b602082019050919050565b6000612c6f602483613428565b9150612c7a826138a4565b604082019050919050565b6000612c92601983613428565b9150612c9d826138f3565b602082019050919050565b6000612cb5602c83613428565b9150612cc08261391c565b604082019050919050565b6000612cd8603883613428565b9150612ce38261396b565b604082019050919050565b6000612cfb602a83613428565b9150612d06826139ba565b604082019050919050565b6000612d1e602983613428565b9150612d2982613a09565b604082019050919050565b6000612d41602e83613428565b9150612d4c82613a58565b604082019050919050565b6000612d64602083613428565b9150612d6f82613aa7565b602082019050919050565b6000612d87603183613428565b9150612d9282613ad0565b604082019050919050565b6000612daa602c83613428565b9150612db582613b1f565b604082019050919050565b6000612dcd602f83613428565b9150612dd882613b6e565b604082019050919050565b6000612df0602183613428565b9150612dfb82613bbd565b604082019050919050565b6000612e13603183613428565b9150612e1e82613c0c565b604082019050919050565b600060a083016000808401549050612e408161362b565b612e4d6000870182612ec2565b50600184018583036020870152612e648382612b79565b92505060028401549050612e7781613611565b612e8460408701826129e6565b50600384018583036060870152612e9b8382612b79565b925050600484018583036080870152612eb48382612a62565b925050819250505092915050565b612ecb81613593565b82525050565b612eda81613593565b82525050565b6000612eec8285612b48565b9150612ef88284612b48565b91508190509392505050565b6000602082019050612f1960008301846129f5565b92915050565b6000608082019050612f3460008301876129f5565b612f4160208301866129f5565b612f4e6040830185612ed1565b8181036060830152612f608184612ad6565b905095945050505050565b60006020820190508181036000830152612f858184612a04565b905092915050565b6000602082019050612fa26000830184612ac7565b92915050565b60006020820190508181036000830152612fc28184612b0f565b905092915050565b60006040820190508181036000830152612fe48185612b0f565b9050612ff36020830184612ed1565b9392505050565b6000602082019050818103600083015261301381612bf9565b9050919050565b6000602082019050818103600083015261303381612c1c565b9050919050565b6000602082019050818103600083015261305381612c3f565b9050919050565b6000602082019050818103600083015261307381612c62565b9050919050565b6000602082019050818103600083015261309381612c85565b9050919050565b600060208201905081810360008301526130b381612ca8565b9050919050565b600060208201905081810360008301526130d381612ccb565b9050919050565b600060208201905081810360008301526130f381612cee565b9050919050565b6000602082019050818103600083015261311381612d11565b9050919050565b6000602082019050818103600083015261313381612d34565b9050919050565b6000602082019050818103600083015261315381612d57565b9050919050565b6000602082019050818103600083015261317381612d7a565b9050919050565b6000602082019050818103600083015261319381612d9d565b9050919050565b600060208201905081810360008301526131b381612dc0565b9050919050565b600060208201905081810360008301526131d381612de3565b9050919050565b600060208201905081810360008301526131f381612e06565b9050919050565b600060208201905061320f6000830184612ed1565b92915050565b600060408201905061322a6000830185612ed1565b818103602083015261323c8184612b0f565b90509392505050565b600060808201905061325a6000830187612ed1565b818103602083015261326c8186612b0f565b905061327b60408301856129f5565b818103606083015261328d8184612b0f565b905095945050505050565b60006060820190506132ad6000830186612ed1565b81810360208301526132bf8185612b0f565b905081810360408301526132d38184612e29565b9050949350505050565b60006132e76132f8565b90506132f38282613645565b919050565b6000604051905090565b600067ffffffffffffffff82111561331d5761331c61377d565b5b613326826137bf565b9050602081019050919050565b600067ffffffffffffffff82111561334e5761334d61377d565b5b613357826137bf565b9050602081019050919050565b6000819050602082019050919050565b60008190508160005260206000209050919050565b60008190508160005260206000209050919050565b600081519050919050565b600081549050919050565b600081519050919050565b600081519050919050565b6000602082019050919050565b6000600182019050919050565b600082825260208201905092915050565b600082825260208201905092915050565b600082825260208201905092915050565b600082825260208201905092915050565b600082825260208201905092915050565b600081905092915050565b600061344f82613593565b915061345a83613593565b9250827fffffffffffffffffffffffffffffffffffffffffffffffffffffffffffffffff0382111561348f5761348e6136f0565b5b828201905092915050565b60006134a582613593565b91506134b083613593565b9250826134c0576134bf61371f565b5b828204905092915050565b60006134d682613593565b91506134e183613593565b9250828210156134f4576134f36136f0565b5b828203905092915050565b600073ffffffffffffffffffffffffffffffffffffffff82169050919050565b6000819050919050565b600061353482613573565b9050919050565b60008115159050919050565b60007fffffffff0000000000000000000000000000000000000000000000000000000082169050919050565b600073ffffffffffffffffffffffffffffffffffffffff82169050919050565b6000819050919050565b82818337600083830152505050565b60005b838110156135ca5780820151818401526020810190506135af565b838111156135d9576000848401525b50505050565b600060028204905060018216806135f757607f821691505b6020821081141561360b5761360a61374e565b5b50919050565b600061362461361f836137d0565b6134ff565b9050919050565b600061363e613639836137d0565b61351f565b9050919050565b61364e826137bf565b810181811067ffffffffffffffff8211171561366d5761366c61377d565b5b80604052505050565b600061368182613593565b91507fffffffffffffffffffffffffffffffffffffffffffffffffffffffffffffffff8214156136b4576136b36136f0565b5b600182019050919050565b60006136ca82613593565b91506136d583613593565b9250826136e5576136e461371f565b5b828206905092915050565b7f4e487b7100000000000000000000000000000000000000000000000000000000600052601160045260246000fd5b7f4e487b7100000000000000000000000000000000000000000000000000000000600052601260045260246000fd5b7f4e487b7100000000000000000000000000000000000000000000000000000000600052602260045260246000fd5b7f4e487b7100000000000000000000000000000000000000000000000000000000600052604160045260246000fd5b60006137b8825461362b565b9050919050565b6000601f19601f8301169050919050565b60008160001c9050919050565b7f4552433732313a207472616e7366657220746f206e6f6e20455243373231526560008201527f63656976657220696d706c656d656e7465720000000000000000000000000000602082015250565b7f4552433732313a207472616e736665722066726f6d20696e636f72726563742060008201527f6f776e6572000000000000000000000000000000000000000000000000000000602082015250565b7f4552433732313a20746f6b656e20616c7265616479206d696e74656400000000600082015250565b7f4552433732313a207472616e7366657220746f20746865207a65726f2061646460008201527f7265737300000000000000000000000000000000000000000000000000000000602082015250565b7f4552433732313a20617070726f766520746f2063616c6c657200000000000000600082015250565b7f4552433732313a206f70657261746f7220717565727920666f72206e6f6e657860008201527f697374656e7420746f6b656e0000000000000000000000000000000000000000602082015250565b7f4552433732313a20617070726f76652063616c6c6572206973206e6f74206f7760008201527f6e6572206e6f7220617070726f76656420666f7220616c6c0000000000000000602082015250565b7f4552433732313a2062616c616e636520717565727920666f7220746865207a6560008201527f726f206164647265737300000000000000000000000000000000000000000000602082015250565b7f4552433732313a206f776e657220717565727920666f72206e6f6e657869737460008201527f656e7420746f6b656e0000000000000000000000000000000000000000000000602082015250565b7f45524337323155524953746f726167653a2055524920736574206f66206e6f6e60008201527f6578697374656e7420746f6b656e000000000000000000000000000000000000602082015250565b7f4552433732313a206d696e7420746f20746865207a65726f2061646472657373600082015250565b7f45524337323155524953746f726167653a2055524920717565727920666f722060008201527f6e6f6e6578697374656e7420746f6b656e000000000000000000000000000000602082015250565b7f4552433732313a20617070726f76656420717565727920666f72206e6f6e657860008201527f697374656e7420746f6b656e0000000000000000000000000000000000000000602082015250565b7f4552433732314d657461646174613a2055524920717565727920666f72206e6f60008201527f6e6578697374656e7420746f6b656e0000000000000000000000000000000000602082015250565b7f4552433732313a20617070726f76616c20746f2063757272656e74206f776e6560008201527f7200000000000000000000000000000000000000000000000000000000000000602082015250565b7f4552433732313a207472616e736665722063616c6c6572206973206e6f74206f60008201527f776e6572206e6f7220617070726f766564000000000000000000000000000000602082015250565b613c6481613529565b8114613c6f57600080fd5b50565b613c7b8161353b565b8114613c8657600080fd5b50565b613c9281613547565b8114613c9d57600080fd5b50565b613ca981613593565b8114613cb457600080fd5b5056fea26469706673582212205e745199385f0b8189a126fd83c669ce2e17761aa01825289c7398c93bc88c0864736f6c63430008040033",
  "linkReferences": {},
  "deployedLinkReferences": {}
}