{
  "_format": "hh-sol-artifact-1",
  "contractName": "Market",
  "sourceName": "contracts/Market.sol",
  "abi": [
    {
      "inputs": [],
      "stateMutability": "nonpayable",
      "type": "constructor"
    },
    {
      "anonymous": false,
      "inputs": [
        {
          "indexed": false,
          "internalType": "uint256",
          "name": "_tokenId",
          "type": "uint256"
        },
        {
          "indexed": false,
          "internalType": "bool",
          "name": "_status",
          "type": "bool"
        }
      ],
      "name": "CancelListing",
      "type": "event"
    },
    {
      "anonymous": false,
      "inputs": [
        {
          "indexed": false,
          "internalType": "uint256",
          "name": "_tokenId",
          "type": "uint256"
        },
        {
          "indexed": false,
          "internalType": "uint256",
          "name": "_price",
          "type": "uint256"
        },
        {
          "indexed": false,
          "internalType": "bool",
          "name": "_status",
          "type": "bool"
        }
      ],
      "name": "ItemListed",
      "type": "event"
    },
    {
      "anonymous": false,
      "inputs": [
        {
          "indexed": false,
          "internalType": "uint256",
          "name": "_tokenId",
          "type": "uint256"
        },
        {
          "indexed": false,
          "internalType": "address",
          "name": "_buyer",
          "type": "address"
        }
      ],
      "name": "MarketSaleCreated",
      "type": "event"
    },
    {
      "anonymous": false,
      "inputs": [
        {
          "indexed": false,
          "internalType": "uint256",
          "name": "_tokenId",
          "type": "uint256"
        },
        {
          "indexed": false,
          "internalType": "uint256",
          "name": "_offerPrice",
          "type": "uint256"
        }
      ],
      "name": "OfferAccepted",
      "type": "event"
    },
    {
      "anonymous": false,
      "inputs": [
        {
          "indexed": false,
          "internalType": "uint256",
          "name": "_tokenId",
          "type": "uint256"
        },
        {
          "indexed": false,
          "internalType": "uint256",
          "name": "_offerId",
          "type": "uint256"
        }
      ],
      "name": "OfferCanceled",
      "type": "event"
    },
    {
      "anonymous": false,
      "inputs": [
        {
          "indexed": false,
          "internalType": "uint256",
          "name": "_offerId",
          "type": "uint256"
        },
        {
          "indexed": false,
          "internalType": "uint256",
          "name": "_tokenId",
          "type": "uint256"
        },
        {
          "indexed": false,
          "internalType": "uint256",
          "name": "_offerPrice",
          "type": "uint256"
        },
        {
          "indexed": false,
          "internalType": "address",
          "name": "_offerSender",
          "type": "address"
        }
      ],
      "name": "OfferSent",
      "type": "event"
    },
    {
      "anonymous": false,
      "inputs": [
        {
          "indexed": false,
          "internalType": "address",
          "name": "_from",
          "type": "address"
        },
        {
          "indexed": false,
          "internalType": "address",
          "name": "_to",
          "type": "address"
        },
        {
          "indexed": false,
          "internalType": "uint256",
          "name": "_tokenId",
          "type": "uint256"
        }
      ],
      "name": "TransferNFT",
      "type": "event"
    },
    {
      "anonymous": false,
      "inputs": [
        {
          "indexed": false,
          "internalType": "uint256",
          "name": "_tokenId",
          "type": "uint256"
        },
        {
          "indexed": false,
          "internalType": "uint256",
          "name": "_loweredPrice",
          "type": "uint256"
        }
      ],
      "name": "priceLowered",
      "type": "event"
    },
    {
      "inputs": [
        {
          "internalType": "uint256",
          "name": "_tokenId",
          "type": "uint256"
        },
        {
          "internalType": "uint256",
          "name": "_offerIndex",
          "type": "uint256"
        },
        {
          "internalType": "address",
          "name": "_coreCollection",
          "type": "address"
        }
      ],
      "name": "acceptOffer",
      "outputs": [],
      "stateMutability": "nonpayable",
      "type": "function"
    },
    {
      "inputs": [
        {
          "internalType": "uint256",
          "name": "_tokenId",
          "type": "uint256"
        },
        {
          "internalType": "address",
          "name": "_coreCollection",
          "type": "address"
        }
      ],
      "name": "buyNFT",
      "outputs": [],
      "stateMutability": "payable",
      "type": "function"
    },
    {
      "inputs": [
        {
          "internalType": "uint256",
          "name": "_tokenId",
          "type": "uint256"
        },
        {
          "internalType": "address",
          "name": "_coreCollection",
          "type": "address"
        }
      ],
      "name": "cancelListing",
      "outputs": [],
      "stateMutability": "nonpayable",
      "type": "function"
    },
    {
      "inputs": [
        {
          "internalType": "uint256",
          "name": "_tokenId",
          "type": "uint256"
        },
        {
          "internalType": "uint256",
          "name": "_offerIndex",
          "type": "uint256"
        },
        {
          "internalType": "address",
          "name": "_coreCollection",
          "type": "address"
        }
      ],
      "name": "cancelOffer",
      "outputs": [],
      "stateMutability": "nonpayable",
      "type": "function"
    },
    {
      "inputs": [
        {
          "internalType": "uint256",
          "name": "_tokenId",
          "type": "uint256"
        },
        {
          "internalType": "uint256",
          "name": "_price",
          "type": "uint256"
        },
        {
          "internalType": "address",
          "name": "_coreCollection",
          "type": "address"
        }
      ],
      "name": "createMarketItem",
      "outputs": [],
      "stateMutability": "payable",
      "type": "function"
    },
    {
      "inputs": [
        {
          "internalType": "uint256",
          "name": "_tokenId",
          "type": "uint256"
        }
      ],
      "name": "getOfferIds",
      "outputs": [
        {
          "internalType": "uint256[]",
          "name": "",
          "type": "uint256[]"
        }
      ],
      "stateMutability": "view",
      "type": "function"
    },
    {
      "inputs": [
        {
          "internalType": "uint256",
          "name": "",
          "type": "uint256"
        },
        {
          "internalType": "uint256",
          "name": "",
          "type": "uint256"
        }
      ],
      "name": "idToOffers",
      "outputs": [
        {
          "internalType": "uint256",
          "name": "",
          "type": "uint256"
        }
      ],
      "stateMutability": "view",
      "type": "function"
    },
    {
      "inputs": [
        {
          "internalType": "uint256",
          "name": "",
          "type": "uint256"
        }
      ],
      "name": "idToOnSale",
      "outputs": [
        {
          "internalType": "bool",
          "name": "",
          "type": "bool"
        }
      ],
      "stateMutability": "view",
      "type": "function"
    },
    {
      "inputs": [
        {
          "internalType": "uint256",
          "name": "",
          "type": "uint256"
        }
      ],
      "name": "idToPrice",
      "outputs": [
        {
          "internalType": "uint256",
          "name": "",
          "type": "uint256"
        }
      ],
      "stateMutability": "view",
      "type": "function"
    },
    {
      "inputs": [],
      "name": "listingFee",
      "outputs": [
        {
          "internalType": "uint256",
          "name": "",
          "type": "uint256"
        }
      ],
      "stateMutability": "view",
      "type": "function"
    },
    {
      "inputs": [
        {
          "internalType": "uint256",
          "name": "_tokenId",
          "type": "uint256"
        },
        {
          "internalType": "uint256",
          "name": "_loweredPrice",
          "type": "uint256"
        },
        {
          "internalType": "address",
          "name": "_coreCollection",
          "type": "address"
        }
      ],
      "name": "lowerPrice",
      "outputs": [],
      "stateMutability": "nonpayable",
      "type": "function"
    },
    {
      "inputs": [
        {
          "internalType": "uint256",
          "name": "_tokenId",
          "type": "uint256"
        },
        {
          "internalType": "uint256",
          "name": "_offerPrice",
          "type": "uint256"
        },
        {
          "internalType": "address",
          "name": "_coreCollection",
          "type": "address"
        }
      ],
      "name": "makeOffer",
      "outputs": [],
      "stateMutability": "payable",
      "type": "function"
    },
    {
      "inputs": [
        {
          "internalType": "uint256",
          "name": "",
          "type": "uint256"
        }
      ],
      "name": "offerIdToPrice",
      "outputs": [
        {
          "internalType": "uint256",
          "name": "",
          "type": "uint256"
        }
      ],
      "stateMutability": "view",
      "type": "function"
    },
    {
      "inputs": [
        {
          "internalType": "uint256",
          "name": "",
          "type": "uint256"
        }
      ],
      "name": "offerIdToUser",
      "outputs": [
        {
          "internalType": "address",
          "name": "",
          "type": "address"
        }
      ],
      "stateMutability": "view",
      "type": "function"
    },
    {
      "inputs": [
        {
          "internalType": "uint256",
          "name": "",
          "type": "uint256"
        }
      ],
      "name": "offerStatus",
      "outputs": [
        {
          "internalType": "bool",
          "name": "",
          "type": "bool"
        }
      ],
      "stateMutability": "view",
      "type": "function"
    }
  ],
  "bytecode": "0x60806040526703782dace9d9000060015534801561001c57600080fd5b506124578061002c6000396000f3fe6080604052600436106100e85760003560e01c80636a1b7ecc1161008a578063d8db47a711610059578063d8db47a7146102fc578063dadc6f7814610318578063e27a2bad14610341578063f9c6a0541461037e576100e8565b80636a1b7ecc1461021a5780637a734178146102455780639188148114610282578063d843b2c7146102bf576100e8565b80633af7bac6116100c65780633af7bac61461017c5780633be3076d1461019857806360101d3a146101d55780636457c4f8146101fe576100e8565b806307ae6a5d146100ed5780630f91eaee1461011657806338e4fd7f14610153575b600080fd5b3480156100f957600080fd5b50610114600480360381019061010f9190611920565b6103bb565b005b34801561012257600080fd5b5061013d6004803603810190610138919061187f565b6107be565b60405161014a9190611bf7565b60405180910390f35b34801561015f57600080fd5b5061017a60048036038101906101759190611920565b6107f1565b005b61019660048036038101906101919190611920565b610aa8565b005b3480156101a457600080fd5b506101bf60048036038101906101ba919061187f565b610c67565b6040516101cc9190611c6b565b60405180910390f35b3480156101e157600080fd5b506101fc60048036038101906101f791906118a8565b610c87565b005b61021860048036038101906102139190611920565b610e69565b005b34801561022657600080fd5b5061022f6110d2565b60405161023c9190611e26565b60405180910390f35b34801561025157600080fd5b5061026c6004803603810190610267919061187f565b6110d8565b6040516102799190611c49565b60405180910390f35b34801561028e57600080fd5b506102a960048036038101906102a4919061187f565b611143565b6040516102b69190611e26565b60405180910390f35b3480156102cb57600080fd5b506102e660048036038101906102e1919061187f565b61115b565b6040516102f39190611c6b565b60405180910390f35b610316600480360381019061031191906118a8565b61117b565b005b34801561032457600080fd5b5061033f600480360381019061033a9190611920565b611489565b005b34801561034d57600080fd5b50610368600480360381019061036391906118e4565b611691565b6040516103759190611e26565b60405180910390f35b34801561038a57600080fd5b506103a560048036038101906103a0919061187f565b6116c2565b6040516103b29190611e26565b60405180910390f35b8073ffffffffffffffffffffffffffffffffffffffff16636352211e846040518263ffffffff1660e01b81526004016103f49190611e26565b60206040518083038186803b15801561040c57600080fd5b505afa158015610420573d6000803e3d6000fd5b505050506040513d601f19601f820116820180604052508101906104449190611856565b73ffffffffffffffffffffffffffffffffffffffff163373ffffffffffffffffffffffffffffffffffffffff16146104b1576040517f08c379a00000000000000000000000000000000000000000000000000000000081526004016104a890611da6565b60405180910390fd5b60006004600085815260200190815260200160002083815481106104fe577f4e487b7100000000000000000000000000000000000000000000000000000000600052603260045260246000fd5b9060005260206000200154905060006006600083815260200190815260200160002060009054906101000a900473ffffffffffffffffffffffffffffffffffffffff1690503373ffffffffffffffffffffffffffffffffffffffff166108fc60056000858152602001908152602001600020549081150290604051600060405180830381858888f1935050505015801561059c573d6000803e3d6000fd5b5060005b600460008781526020019081526020016000208054905081101561071a57600060046000888152602001908152602001600020828154811061060b577f4e487b7100000000000000000000000000000000000000000000000000000000600052603260045260246000fd5b906000526020600020015490508381146106da576007600082815260200190815260200160002060009054906101000a900460ff16156106d95760006006600083815260200190815260200160002060009054906101000a900473ffffffffffffffffffffffffffffffffffffffff1690508073ffffffffffffffffffffffffffffffffffffffff166108fc60056000858152602001908152602001600020549081150290604051600060405180830381858888f193505050501580156106d6573d6000803e3d6000fd5b50505b5b60006007600083815260200190815260200160002060006101000a81548160ff02191690831515021790555050808061071290611fea565b9150506105a0565b5060006002600087815260200190815260200160002060006101000a81548160ff0219169083151502179055506000600360008781526020019081526020016000208190555061076b8582856116da565b7f397f87b3946767b09967764d50032941de13a2606bcb39dfed61d7b1ed0192cc8560056000858152602001908152602001600020546040516107af929190611ea1565b60405180910390a15050505050565b60066020528060005260406000206000915054906101000a900473ffffffffffffffffffffffffffffffffffffffff1681565b8073ffffffffffffffffffffffffffffffffffffffff16636352211e846040518263ffffffff1660e01b815260040161082a9190611e26565b60206040518083038186803b15801561084257600080fd5b505afa158015610856573d6000803e3d6000fd5b505050506040513d601f19601f8201168201806040525081019061087a9190611856565b73ffffffffffffffffffffffffffffffffffffffff163373ffffffffffffffffffffffffffffffffffffffff1614156108e8576040517f08c379a00000000000000000000000000000000000000000000000000000000081526004016108df90611ca6565b60405180910390fd5b6000600460008581526020019081526020016000208381548110610935577f4e487b7100000000000000000000000000000000000000000000000000000000600052603260045260246000fd5b906000526020600020015490506006600082815260200190815260200160002060009054906101000a900473ffffffffffffffffffffffffffffffffffffffff1673ffffffffffffffffffffffffffffffffffffffff163373ffffffffffffffffffffffffffffffffffffffff16146109e3576040517f08c379a00000000000000000000000000000000000000000000000000000000081526004016109da90611c86565b60405180910390fd5b60006007600083815260200190815260200160002060006101000a81548160ff0219169083151502179055503373ffffffffffffffffffffffffffffffffffffffff166108fc60056000848152602001908152602001600020549081150290604051600060405180830381858888f19350505050158015610a68573d6000803e3d6000fd5b507fc3631089d86cf1fe0600bb8be145021dc1f4dbf1053ce815836f092d69cd9bdc8482604051610a9a929190611ea1565b60405180910390a150505050565b8073ffffffffffffffffffffffffffffffffffffffff16636352211e846040518263ffffffff1660e01b8152600401610ae19190611e26565b60206040518083038186803b158015610af957600080fd5b505afa158015610b0d573d6000803e3d6000fd5b505050506040513d601f19601f82011682018060405250810190610b319190611856565b73ffffffffffffffffffffffffffffffffffffffff163373ffffffffffffffffffffffffffffffffffffffff1614610b9e576040517f08c379a0000000000000000000000000000000000000000000000000000000008152600401610b9590611d46565b60405180910390fd5b6001543414610be2576040517f08c379a0000000000000000000000000000000000000000000000000000000008152600401610bd990611de6565b60405180910390fd5b60016002600085815260200190815260200160002060006101000a81548160ff0219169083151502179055508160036000858152602001908152602001600020819055507f75845d8942c02cfb07e8d06e14d01a718bd3578c7b9c4b84de3363a85e05859083836001604051610c5a93929190611eca565b60405180910390a1505050565b60026020528060005260406000206000915054906101000a900460ff1681565b8073ffffffffffffffffffffffffffffffffffffffff16636352211e836040518263ffffffff1660e01b8152600401610cc09190611e26565b60206040518083038186803b158015610cd857600080fd5b505afa158015610cec573d6000803e3d6000fd5b505050506040513d601f19601f82011682018060405250810190610d109190611856565b73ffffffffffffffffffffffffffffffffffffffff163373ffffffffffffffffffffffffffffffffffffffff1614610d7d576040517f08c379a0000000000000000000000000000000000000000000000000000000008152600401610d7490611d46565b60405180910390fd5b600115156002600084815260200190815260200160002060009054906101000a900460ff16151514610de4576040517f08c379a0000000000000000000000000000000000000000000000000000000008152600401610ddb90611ce6565b60405180910390fd5b60006002600084815260200190815260200160002060006101000a81548160ff021916908315150217905550600060036000848152602001908152602001600020819055507f75845d8942c02cfb07e8d06e14d01a718bd3578c7b9c4b84de3363a85e05859082600080604051610e5d93929190611e6a565b60405180910390a15050565b8073ffffffffffffffffffffffffffffffffffffffff16636352211e846040518263ffffffff1660e01b8152600401610ea29190611e26565b60206040518083038186803b158015610eba57600080fd5b505afa158015610ece573d6000803e3d6000fd5b505050506040513d601f19601f82011682018060405250810190610ef29190611856565b73ffffffffffffffffffffffffffffffffffffffff163373ffffffffffffffffffffffffffffffffffffffff161415610f60576040517f08c379a0000000000000000000000000000000000000000000000000000000008152600401610f5790611d66565b60405180910390fd5b813414610fa2576040517f08c379a0000000000000000000000000000000000000000000000000000000008152600401610f9990611d86565b60405180910390fd5b600080815480929190610fb490611fea565b91905055506004600084815260200190815260200160002060005490806001815401808255809150506001900390600052602060002001600090919091909150558160056000805481526020019081526020016000208190555033600660008054815260200190815260200160002060006101000a81548173ffffffffffffffffffffffffffffffffffffffff021916908373ffffffffffffffffffffffffffffffffffffffff1602179055506001600760008054815260200190815260200160002060006101000a81548160ff0219169083151502179055507f8be753c301313a50fa263b5ea0b1a43b951e9e1940460a8cdc79aca9b14b7c6b6000548484336040516110c59493929190611f01565b60405180910390a1505050565b60015481565b60606004600083815260200190815260200160002080548060200260200160405190810160405280929190818152602001828054801561113757602002820191906000526020600020905b815481526020019060010190808311611123575b50505050509050919050565b60056020528060005260406000206000915090505481565b60076020528060005260406000206000915054906101000a900460ff1681565b6000600360008481526020019081526020016000205490506002600084815260200190815260200160002060009054906101000a900460ff166111f3576040517f08c379a00000000000000000000000000000000000000000000000000000000081526004016111ea90611cc6565b60405180910390fd5b803414611235576040517f08c379a000000000000000000000000000000000000000000000000000000000815260040161122c90611e06565b60405180910390fd5b8173ffffffffffffffffffffffffffffffffffffffff16636352211e846040518263ffffffff1660e01b815260040161126e9190611e26565b60206040518083038186803b15801561128657600080fd5b505afa15801561129a573d6000803e3d6000fd5b505050506040513d601f19601f820116820180604052508101906112be9190611856565b73ffffffffffffffffffffffffffffffffffffffff163373ffffffffffffffffffffffffffffffffffffffff16141561132c576040517f08c379a000000000000000000000000000000000000000000000000000000000815260040161132390611d06565b60405180910390fd5b8173ffffffffffffffffffffffffffffffffffffffff16636352211e846040518263ffffffff1660e01b81526004016113659190611e26565b60206040518083038186803b15801561137d57600080fd5b505afa158015611391573d6000803e3d6000fd5b505050506040513d601f19601f820116820180604052508101906113b59190611856565b73ffffffffffffffffffffffffffffffffffffffff166108fc349081150290604051600060405180830381858888f193505050501580156113fa573d6000803e3d6000fd5b506114068333846116da565b60006002600085815260200190815260200160002060006101000a81548160ff021916908315150217905550600060036000858152602001908152602001600020819055507ff0b3c9b1f0b20104eaa0188304d1a1561775a07e1c058447f0ac560ea1212eda833360405161147c929190611e41565b60405180910390a1505050565b600115156002600085815260200190815260200160002060009054906101000a900460ff161515146114f0576040517f08c379a00000000000000000000000000000000000000000000000000000000081526004016114e790611ce6565b60405180910390fd5b60036000848152602001908152602001600020548210611545576040517f08c379a000000000000000000000000000000000000000000000000000000000815260040161153c90611dc6565b60405180910390fd5b8073ffffffffffffffffffffffffffffffffffffffff16636352211e846040518263ffffffff1660e01b815260040161157e9190611e26565b60206040518083038186803b15801561159657600080fd5b505afa1580156115aa573d6000803e3d6000fd5b505050506040513d601f19601f820116820180604052508101906115ce9190611856565b73ffffffffffffffffffffffffffffffffffffffff163373ffffffffffffffffffffffffffffffffffffffff161461163b576040517f08c379a000000000000000000000000000000000000000000000000000000000815260040161163290611d26565b60405180910390fd5b8160036000858152602001908152602001600020819055507f25a53b4765f33963a2b56848068188a323acb28e46d6194203c835e5883f4ea38383604051611684929190611ea1565b60405180910390a1505050565b600460205281600052604060002081815481106116ad57600080fd5b90600052602060002001600091509150505481565b60036020528060005260406000206000915090505481565b60008173ffffffffffffffffffffffffffffffffffffffff16636352211e856040518263ffffffff1660e01b81526004016117159190611e26565b60206040518083038186803b15801561172d57600080fd5b505afa158015611741573d6000803e3d6000fd5b505050506040513d601f19601f820116820180604052508101906117659190611856565b90508173ffffffffffffffffffffffffffffffffffffffff166323b872dd8285876040518463ffffffff1660e01b81526004016117a493929190611c12565b600060405180830381600087803b1580156117be57600080fd5b505af11580156117d2573d6000803e3d6000fd5b505050507fa64cdec004d2859ac7547f4ed3252f53d0fa0b8dcbcc93a47894eee072714b6281848660405161180993929190611c12565b60405180910390a150505050565b600081359050611826816123f3565b92915050565b60008151905061183b816123f3565b92915050565b6000813590506118508161240a565b92915050565b60006020828403121561186857600080fd5b60006118768482850161182c565b91505092915050565b60006020828403121561189157600080fd5b600061189f84828501611841565b91505092915050565b600080604083850312156118bb57600080fd5b60006118c985828601611841565b92505060206118da85828601611817565b9150509250929050565b600080604083850312156118f757600080fd5b600061190585828601611841565b925050602061191685828601611841565b9150509250929050565b60008060006060848603121561193557600080fd5b600061194386828701611841565b935050602061195486828701611841565b925050604061196586828701611817565b9150509250925092565b600061197b8383611bd9565b60208301905092915050565b61199081611f90565b82525050565b60006119a182611f56565b6119ab8185611f6e565b93506119b683611f46565b8060005b838110156119e75781516119ce888261196f565b97506119d983611f61565b9250506001810190506119ba565b5085935050505092915050565b6119fd81611fa2565b82525050565b611a0c81611fd8565b82525050565b6000611a1f603083611f7f565b9150611a2a82612062565b604082019050919050565b6000611a42602e83611f7f565b9150611a4d826120b1565b604082019050919050565b6000611a65602d83611f7f565b9150611a7082612100565b604082019050919050565b6000611a88602283611f7f565b9150611a938261214f565b604082019050919050565b6000611aab602683611f7f565b9150611ab68261219e565b604082019050919050565b6000611ace602683611f7f565b9150611ad9826121ed565b604082019050919050565b6000611af1602883611f7f565b9150611afc8261223c565b604082019050919050565b6000611b14601883611f7f565b9150611b1f8261228b565b602082019050919050565b6000611b37602983611f7f565b9150611b42826122b4565b604082019050919050565b6000611b5a601f83611f7f565b9150611b6582612303565b602082019050919050565b6000611b7d602c83611f7f565b9150611b888261232c565b604082019050919050565b6000611ba0602183611f7f565b9150611bab8261237b565b604082019050919050565b6000611bc3601983611f7f565b9150611bce826123ca565b602082019050919050565b611be281611fce565b82525050565b611bf181611fce565b82525050565b6000602082019050611c0c6000830184611987565b92915050565b6000606082019050611c276000830186611987565b611c346020830185611987565b611c416040830184611be8565b949350505050565b60006020820190508181036000830152611c638184611996565b905092915050565b6000602082019050611c8060008301846119f4565b92915050565b60006020820190508181036000830152611c9f81611a12565b9050919050565b60006020820190508181036000830152611cbf81611a35565b9050919050565b60006020820190508181036000830152611cdf81611a58565b9050919050565b60006020820190508181036000830152611cff81611a7b565b9050919050565b60006020820190508181036000830152611d1f81611a9e565b9050919050565b60006020820190508181036000830152611d3f81611ac1565b9050919050565b60006020820190508181036000830152611d5f81611ae4565b9050919050565b60006020820190508181036000830152611d7f81611b07565b9050919050565b60006020820190508181036000830152611d9f81611b2a565b9050919050565b60006020820190508181036000830152611dbf81611b4d565b9050919050565b60006020820190508181036000830152611ddf81611b70565b9050919050565b60006020820190508181036000830152611dff81611b93565b9050919050565b60006020820190508181036000830152611e1f81611bb6565b9050919050565b6000602082019050611e3b6000830184611be8565b92915050565b6000604082019050611e566000830185611be8565b611e636020830184611987565b9392505050565b6000606082019050611e7f6000830186611be8565b611e8c6020830185611a03565b611e9960408301846119f4565b949350505050565b6000604082019050611eb66000830185611be8565b611ec36020830184611be8565b9392505050565b6000606082019050611edf6000830186611be8565b611eec6020830185611be8565b611ef960408301846119f4565b949350505050565b6000608082019050611f166000830187611be8565b611f236020830186611be8565b611f306040830185611be8565b611f3d6060830184611987565b95945050505050565b6000819050602082019050919050565b600081519050919050565b6000602082019050919050565b600082825260208201905092915050565b600082825260208201905092915050565b6000611f9b82611fae565b9050919050565b60008115159050919050565b600073ffffffffffffffffffffffffffffffffffffffff82169050919050565b6000819050919050565b6000611fe382611fce565b9050919050565b6000611ff582611fce565b91507fffffffffffffffffffffffffffffffffffffffffffffffffffffffffffffffff82141561202857612027612033565b5b600182019050919050565b7f4e487b7100000000000000000000000000000000000000000000000000000000600052601160045260246000fd5b7f556e617574686f72697a656420706572736f6e20747279696e6720746f20636160008201527f6e63656c20746865206c697374696e6700000000000000000000000000000000602082015250565b7f4f776e65722063616e6e6f742063616e63656c206c697374696e67206f66207360008201527f6f6d656f6e652773206f66666572000000000000000000000000000000000000602082015250565b7f43616e6e6f7420627579204e46547320776869636820617265206e6f74206c6960008201527f7374656420666f722073616c6500000000000000000000000000000000000000602082015250565b7f546865206974656d2073686f756c64206265206c697374656420666f7220736160008201527f6c65000000000000000000000000000000000000000000000000000000000000602082015250565b7f46756e6374696f6e2063616e6e6f742062652063616c6c65642062792074686560008201527f204f776e65720000000000000000000000000000000000000000000000000000602082015250565b7f546865207072696365206f6e6c79206265206c6f77657265642062792074686560008201527f206f776e65720000000000000000000000000000000000000000000000000000602082015250565b7f46756e6374696f6e2063616e206f6e6c792062652063616c6c6564206279207460008201527f6865206f776e6572000000000000000000000000000000000000000000000000602082015250565b7f4f776e65722063616e6e6f74206d616b65206f66666572730000000000000000600082015250565b7f4d7573742070617920746865206f66666572207072696365206d656e74696f6e60008201527f656420627920796f750000000000000000000000000000000000000000000000602082015250565b7f4f6e6c79206f776e65722063616e2061636365707420746865206f6666657200600082015250565b7f50726963652073686f756c64206265206c6f776572207468616e20746865206360008201527f757272656e742070726963650000000000000000000000000000000000000000602082015250565b7f4d7573742070617920746865207265717569726564204c697374696e6720466560008201527f6500000000000000000000000000000000000000000000000000000000000000602082015250565b7f4d7573742070617920746865206c697374656420707269636500000000000000600082015250565b6123fc81611f90565b811461240757600080fd5b50565b61241381611fce565b811461241e57600080fd5b5056fea2646970667358221220f0fa32484cf299dc127f03a46f02c5a67e656af970e098062168aa83a29f7b2b64736f6c63430008040033",
  "linkReferences": {},
  "deployedLinkReferences": {}
}