{
  "_format": "hh-sol-artifact-1",
  "contractName": "Market",
  "sourceName": "contracts/Market.sol",
  "abi": [
    {
      "inputs": [],
      "stateMutability": "nonpayable",
      "type": "constructor"
    },
    {
      "anonymous": false,
      "inputs": [
        {
          "indexed": false,
          "internalType": "uint256",
          "name": "_tokenId",
          "type": "uint256"
        }
      ],
      "name": "CancelListing",
      "type": "event"
    },
    {
      "anonymous": false,
      "inputs": [
        {
          "indexed": false,
          "internalType": "uint256",
          "name": "_tokenId",
          "type": "uint256"
        },
        {
          "indexed": false,
          "internalType": "uint256",
          "name": "_price",
          "type": "uint256"
        }
      ],
      "name": "ItemListed",
      "type": "event"
    },
    {
      "anonymous": false,
      "inputs": [
        {
          "indexed": false,
          "internalType": "uint256",
          "name": "_tokenId",
          "type": "uint256"
        },
        {
          "indexed": false,
          "internalType": "address",
          "name": "_buyer",
          "type": "address"
        }
      ],
      "name": "MarketSaleCreated",
      "type": "event"
    },
    {
      "anonymous": false,
      "inputs": [
        {
          "indexed": false,
          "internalType": "uint256",
          "name": "_tokenId",
          "type": "uint256"
        },
        {
          "indexed": false,
          "internalType": "uint256",
          "name": "_offerPrice",
          "type": "uint256"
        }
      ],
      "name": "OfferAccepted",
      "type": "event"
    },
    {
      "anonymous": false,
      "inputs": [
        {
          "indexed": false,
          "internalType": "uint256",
          "name": "_tokenId",
          "type": "uint256"
        },
        {
          "indexed": false,
          "internalType": "uint256",
          "name": "_offerId",
          "type": "uint256"
        }
      ],
      "name": "OfferCanceled",
      "type": "event"
    },
    {
      "anonymous": false,
      "inputs": [
        {
          "indexed": false,
          "internalType": "uint256",
          "name": "_tokenId",
          "type": "uint256"
        },
        {
          "indexed": false,
          "internalType": "uint256",
          "name": "_offerPrice",
          "type": "uint256"
        }
      ],
      "name": "OfferSent",
      "type": "event"
    },
    {
      "anonymous": false,
      "inputs": [
        {
          "indexed": false,
          "internalType": "address",
          "name": "_from",
          "type": "address"
        },
        {
          "indexed": false,
          "internalType": "address",
          "name": "_to",
          "type": "address"
        },
        {
          "indexed": false,
          "internalType": "uint256",
          "name": "_tokenId",
          "type": "uint256"
        }
      ],
      "name": "TransferNFT",
      "type": "event"
    },
    {
      "anonymous": false,
      "inputs": [
        {
          "indexed": false,
          "internalType": "uint256",
          "name": "_tokenId",
          "type": "uint256"
        },
        {
          "indexed": false,
          "internalType": "uint256",
          "name": "_loweredPrice",
          "type": "uint256"
        }
      ],
      "name": "priceLowered",
      "type": "event"
    },
    {
      "inputs": [
        {
          "internalType": "uint256",
          "name": "_tokenId",
          "type": "uint256"
        },
        {
          "internalType": "uint256",
          "name": "_offerIndex",
          "type": "uint256"
        },
        {
          "internalType": "address",
          "name": "_coreCollection",
          "type": "address"
        }
      ],
      "name": "acceptOffer",
      "outputs": [],
      "stateMutability": "nonpayable",
      "type": "function"
    },
    {
      "inputs": [
        {
          "internalType": "uint256",
          "name": "_tokenId",
          "type": "uint256"
        },
        {
          "internalType": "address",
          "name": "_coreCollection",
          "type": "address"
        }
      ],
      "name": "buyNFT",
      "outputs": [],
      "stateMutability": "payable",
      "type": "function"
    },
    {
      "inputs": [
        {
          "internalType": "uint256",
          "name": "_tokenId",
          "type": "uint256"
        },
        {
          "internalType": "address",
          "name": "_coreCollection",
          "type": "address"
        }
      ],
      "name": "cancelListing",
      "outputs": [],
      "stateMutability": "nonpayable",
      "type": "function"
    },
    {
      "inputs": [
        {
          "internalType": "uint256",
          "name": "_tokenId",
          "type": "uint256"
        },
        {
          "internalType": "uint256",
          "name": "_offerIndex",
          "type": "uint256"
        },
        {
          "internalType": "address",
          "name": "_coreCollection",
          "type": "address"
        }
      ],
      "name": "cancelOffer",
      "outputs": [],
      "stateMutability": "nonpayable",
      "type": "function"
    },
    {
      "inputs": [
        {
          "internalType": "uint256",
          "name": "_tokenId",
          "type": "uint256"
        },
        {
          "internalType": "uint256",
          "name": "_price",
          "type": "uint256"
        },
        {
          "internalType": "address",
          "name": "_coreCollection",
          "type": "address"
        }
      ],
      "name": "createMarketItem",
      "outputs": [],
      "stateMutability": "payable",
      "type": "function"
    },
    {
      "inputs": [
        {
          "internalType": "uint256",
          "name": "",
          "type": "uint256"
        },
        {
          "internalType": "uint256",
          "name": "",
          "type": "uint256"
        }
      ],
      "name": "idToOffers",
      "outputs": [
        {
          "internalType": "uint256",
          "name": "",
          "type": "uint256"
        }
      ],
      "stateMutability": "view",
      "type": "function"
    },
    {
      "inputs": [
        {
          "internalType": "uint256",
          "name": "",
          "type": "uint256"
        }
      ],
      "name": "idToOnSale",
      "outputs": [
        {
          "internalType": "bool",
          "name": "",
          "type": "bool"
        }
      ],
      "stateMutability": "view",
      "type": "function"
    },
    {
      "inputs": [
        {
          "internalType": "uint256",
          "name": "",
          "type": "uint256"
        }
      ],
      "name": "idToPrice",
      "outputs": [
        {
          "internalType": "uint256",
          "name": "",
          "type": "uint256"
        }
      ],
      "stateMutability": "view",
      "type": "function"
    },
    {
      "inputs": [],
      "name": "listingFee",
      "outputs": [
        {
          "internalType": "uint256",
          "name": "",
          "type": "uint256"
        }
      ],
      "stateMutability": "view",
      "type": "function"
    },
    {
      "inputs": [
        {
          "internalType": "uint256",
          "name": "_tokenId",
          "type": "uint256"
        },
        {
          "internalType": "uint256",
          "name": "_loweredPrice",
          "type": "uint256"
        },
        {
          "internalType": "address",
          "name": "_coreCollection",
          "type": "address"
        }
      ],
      "name": "lowerPrice",
      "outputs": [],
      "stateMutability": "nonpayable",
      "type": "function"
    },
    {
      "inputs": [
        {
          "internalType": "uint256",
          "name": "_tokenId",
          "type": "uint256"
        },
        {
          "internalType": "uint256",
          "name": "_offerPrice",
          "type": "uint256"
        },
        {
          "internalType": "address",
          "name": "_coreCollection",
          "type": "address"
        }
      ],
      "name": "makeOffer",
      "outputs": [],
      "stateMutability": "payable",
      "type": "function"
    },
    {
      "inputs": [
        {
          "internalType": "uint256",
          "name": "",
          "type": "uint256"
        }
      ],
      "name": "offerIdToPrice",
      "outputs": [
        {
          "internalType": "uint256",
          "name": "",
          "type": "uint256"
        }
      ],
      "stateMutability": "view",
      "type": "function"
    },
    {
      "inputs": [
        {
          "internalType": "uint256",
          "name": "",
          "type": "uint256"
        }
      ],
      "name": "offerIdToUser",
      "outputs": [
        {
          "internalType": "address",
          "name": "",
          "type": "address"
        }
      ],
      "stateMutability": "view",
      "type": "function"
    },
    {
      "inputs": [
        {
          "internalType": "uint256",
          "name": "",
          "type": "uint256"
        }
      ],
      "name": "offerStatus",
      "outputs": [
        {
          "internalType": "bool",
          "name": "",
          "type": "bool"
        }
      ],
      "stateMutability": "view",
      "type": "function"
    }
  ],
  "bytecode": "0x60806040526703782dace9d9000060015534801561001c57600080fd5b506121748061002c6000396000f3fe6080604052600436106100dd5760003560e01c80636a1b7ecc1161007f578063d8db47a711610059578063d8db47a7146102b4578063dadc6f78146102d0578063e27a2bad146102f9578063f9c6a05414610336576100dd565b80636a1b7ecc1461020f578063918814811461023a578063d843b2c714610277576100dd565b80633af7bac6116100bb5780633af7bac6146101715780633be3076d1461018d57806360101d3a146101ca5780636457c4f8146101f3576100dd565b806307ae6a5d146100e25780630f91eaee1461010b57806338e4fd7f14610148575b600080fd5b3480156100ee57600080fd5b50610109600480360381019061010491906117f1565b610373565b005b34801561011757600080fd5b50610132600480360381019061012d9190611750565b61074f565b60405161013f9190611a34565b60405180910390f35b34801561015457600080fd5b5061016f600480360381019061016a91906117f1565b610782565b005b61018b600480360381019061018691906117f1565b6109df565b005b34801561019957600080fd5b506101b460048036038101906101af9190611750565b610bae565b6040516101c19190611a86565b60405180910390f35b3480156101d657600080fd5b506101f160048036038101906101ec9190611779565b610bce565b005b61020d600480360381019061020891906117f1565b610dab565b005b34801561021b57600080fd5b5061022461100e565b6040516102319190611c41565b60405180910390f35b34801561024657600080fd5b50610261600480360381019061025c9190611750565b611014565b60405161026e9190611c41565b60405180910390f35b34801561028357600080fd5b5061029e60048036038101906102999190611750565b61102c565b6040516102ab9190611a86565b60405180910390f35b6102ce60048036038101906102c99190611779565b61104c565b005b3480156102dc57600080fd5b506102f760048036038101906102f291906117f1565b61135a565b005b34801561030557600080fd5b50610320600480360381019061031b91906117b5565b611562565b60405161032d9190611c41565b60405180910390f35b34801561034257600080fd5b5061035d60048036038101906103589190611750565b611593565b60405161036a9190611c41565b60405180910390f35b8073ffffffffffffffffffffffffffffffffffffffff16636352211e846040518263ffffffff1660e01b81526004016103ac9190611c41565b60206040518083038186803b1580156103c457600080fd5b505afa1580156103d8573d6000803e3d6000fd5b505050506040513d601f19601f820116820180604052508101906103fc9190611727565b73ffffffffffffffffffffffffffffffffffffffff163373ffffffffffffffffffffffffffffffffffffffff1614610469576040517f08c379a000000000000000000000000000000000000000000000000000000000815260040161046090611bc1565b60405180910390fd5b60006004600085815260200190815260200160002083815481106104b6577f4e487b7100000000000000000000000000000000000000000000000000000000600052603260045260246000fd5b9060005260206000200154905060006006600083815260200190815260200160002060009054906101000a900473ffffffffffffffffffffffffffffffffffffffff1690503373ffffffffffffffffffffffffffffffffffffffff166108fc60056000858152602001908152602001600020549081150290604051600060405180830381858888f19350505050158015610554573d6000803e3d6000fd5b5060005b60046000878152602001908152602001600020805490508110156106ab5760006004600088815260200190815260200160002082815481106105c3577f4e487b7100000000000000000000000000000000000000000000000000000000600052603260045260246000fd5b9060005260206000200154905083811461066b5760006006600083815260200190815260200160002060009054906101000a900473ffffffffffffffffffffffffffffffffffffffff1690508073ffffffffffffffffffffffffffffffffffffffff166108fc60056000858152602001908152602001600020549081150290604051600060405180830381858888f19350505050158015610668573d6000803e3d6000fd5b50505b60006007600083815260200190815260200160002060006101000a81548160ff0219169083151502179055505080806106a390611d07565b915050610558565b5060006002600087815260200190815260200160002060006101000a81548160ff021916908315150217905550600060036000878152602001908152602001600020819055506106fc8582856115ab565b7f397f87b3946767b09967764d50032941de13a2606bcb39dfed61d7b1ed0192cc856005600085815260200190815260200160002054604051610740929190611c85565b60405180910390a15050505050565b60066020528060005260406000206000915054906101000a900473ffffffffffffffffffffffffffffffffffffffff1681565b8073ffffffffffffffffffffffffffffffffffffffff16636352211e846040518263ffffffff1660e01b81526004016107bb9190611c41565b60206040518083038186803b1580156107d357600080fd5b505afa1580156107e7573d6000803e3d6000fd5b505050506040513d601f19601f8201168201806040525081019061080b9190611727565b73ffffffffffffffffffffffffffffffffffffffff163373ffffffffffffffffffffffffffffffffffffffff161415610879576040517f08c379a000000000000000000000000000000000000000000000000000000000815260040161087090611ac1565b60405180910390fd5b60006004600085815260200190815260200160002083815481106108c6577f4e487b7100000000000000000000000000000000000000000000000000000000600052603260045260246000fd5b906000526020600020015490506006600082815260200190815260200160002060009054906101000a900473ffffffffffffffffffffffffffffffffffffffff1673ffffffffffffffffffffffffffffffffffffffff163373ffffffffffffffffffffffffffffffffffffffff1614610974576040517f08c379a000000000000000000000000000000000000000000000000000000000815260040161096b90611aa1565b60405180910390fd5b60006007600083815260200190815260200160002060006101000a81548160ff0219169083151502179055507fc3631089d86cf1fe0600bb8be145021dc1f4dbf1053ce815836f092d69cd9bdc84826040516109d1929190611c85565b60405180910390a150505050565b8073ffffffffffffffffffffffffffffffffffffffff16636352211e846040518263ffffffff1660e01b8152600401610a189190611c41565b60206040518083038186803b158015610a3057600080fd5b505afa158015610a44573d6000803e3d6000fd5b505050506040513d601f19601f82011682018060405250810190610a689190611727565b73ffffffffffffffffffffffffffffffffffffffff163373ffffffffffffffffffffffffffffffffffffffff1614610ad5576040517f08c379a0000000000000000000000000000000000000000000000000000000008152600401610acc90611b61565b60405180910390fd5b6001543414610b19576040517f08c379a0000000000000000000000000000000000000000000000000000000008152600401610b1090611c01565b60405180910390fd5b60016002600085815260200190815260200160002060006101000a81548160ff0219169083151502179055508160036000858152602001908152602001600020819055507f5cedb4b4e9d21f2b6ae92d858fd47c1f6ef4af540c48aea4cccc861bdfbffb69836003600086815260200190815260200160002054604051610ba1929190611c85565b60405180910390a1505050565b60026020528060005260406000206000915054906101000a900460ff1681565b8073ffffffffffffffffffffffffffffffffffffffff16636352211e836040518263ffffffff1660e01b8152600401610c079190611c41565b60206040518083038186803b158015610c1f57600080fd5b505afa158015610c33573d6000803e3d6000fd5b505050506040513d601f19601f82011682018060405250810190610c579190611727565b73ffffffffffffffffffffffffffffffffffffffff163373ffffffffffffffffffffffffffffffffffffffff1614610cc4576040517f08c379a0000000000000000000000000000000000000000000000000000000008152600401610cbb90611b61565b60405180910390fd5b600115156002600084815260200190815260200160002060009054906101000a900460ff16151514610d2b576040517f08c379a0000000000000000000000000000000000000000000000000000000008152600401610d2290611b01565b60405180910390fd5b60006002600084815260200190815260200160002060006101000a81548160ff021916908315150217905550600060036000848152602001908152602001600020819055507fa5a50019386103d06e1a716ed5398f455d38288e801607ee55320507043468e582604051610d9f9190611c41565b60405180910390a15050565b8073ffffffffffffffffffffffffffffffffffffffff16636352211e846040518263ffffffff1660e01b8152600401610de49190611c41565b60206040518083038186803b158015610dfc57600080fd5b505afa158015610e10573d6000803e3d6000fd5b505050506040513d601f19601f82011682018060405250810190610e349190611727565b73ffffffffffffffffffffffffffffffffffffffff163373ffffffffffffffffffffffffffffffffffffffff161415610ea2576040517f08c379a0000000000000000000000000000000000000000000000000000000008152600401610e9990611b81565b60405180910390fd5b813414610ee4576040517f08c379a0000000000000000000000000000000000000000000000000000000008152600401610edb90611ba1565b60405180910390fd5b600080815480929190610ef690611d07565b91905055506004600084815260200190815260200160002060005490806001815401808255809150506001900390600052602060002001600090919091909150558160056000805481526020019081526020016000208190555033600660008054815260200190815260200160002060006101000a81548173ffffffffffffffffffffffffffffffffffffffff021916908373ffffffffffffffffffffffffffffffffffffffff1602179055506001600760008054815260200190815260200160002060006101000a81548160ff0219169083151502179055507fa804d23695e6c56bb2b898c77e1f65a24131c2aac85e2d4dbd697a1b8f2983f18383604051611001929190611c85565b60405180910390a1505050565b60015481565b60056020528060005260406000206000915090505481565b60076020528060005260406000206000915054906101000a900460ff1681565b6000600360008481526020019081526020016000205490506002600084815260200190815260200160002060009054906101000a900460ff166110c4576040517f08c379a00000000000000000000000000000000000000000000000000000000081526004016110bb90611ae1565b60405180910390fd5b803414611106576040517f08c379a00000000000000000000000000000000000000000000000000000000081526004016110fd90611c21565b60405180910390fd5b8173ffffffffffffffffffffffffffffffffffffffff16636352211e846040518263ffffffff1660e01b815260040161113f9190611c41565b60206040518083038186803b15801561115757600080fd5b505afa15801561116b573d6000803e3d6000fd5b505050506040513d601f19601f8201168201806040525081019061118f9190611727565b73ffffffffffffffffffffffffffffffffffffffff163373ffffffffffffffffffffffffffffffffffffffff1614156111fd576040517f08c379a00000000000000000000000000000000000000000000000000000000081526004016111f490611b21565b60405180910390fd5b8173ffffffffffffffffffffffffffffffffffffffff16636352211e846040518263ffffffff1660e01b81526004016112369190611c41565b60206040518083038186803b15801561124e57600080fd5b505afa158015611262573d6000803e3d6000fd5b505050506040513d601f19601f820116820180604052508101906112869190611727565b73ffffffffffffffffffffffffffffffffffffffff166108fc349081150290604051600060405180830381858888f193505050501580156112cb573d6000803e3d6000fd5b506112d78333846115ab565b60006002600085815260200190815260200160002060006101000a81548160ff021916908315150217905550600060036000858152602001908152602001600020819055507ff0b3c9b1f0b20104eaa0188304d1a1561775a07e1c058447f0ac560ea1212eda833360405161134d929190611c5c565b60405180910390a1505050565b600115156002600085815260200190815260200160002060009054906101000a900460ff161515146113c1576040517f08c379a00000000000000000000000000000000000000000000000000000000081526004016113b890611b01565b60405180910390fd5b60036000848152602001908152602001600020548210611416576040517f08c379a000000000000000000000000000000000000000000000000000000000815260040161140d90611be1565b60405180910390fd5b8073ffffffffffffffffffffffffffffffffffffffff16636352211e846040518263ffffffff1660e01b815260040161144f9190611c41565b60206040518083038186803b15801561146757600080fd5b505afa15801561147b573d6000803e3d6000fd5b505050506040513d601f19601f8201168201806040525081019061149f9190611727565b73ffffffffffffffffffffffffffffffffffffffff163373ffffffffffffffffffffffffffffffffffffffff161461150c576040517f08c379a000000000000000000000000000000000000000000000000000000000815260040161150390611b41565b60405180910390fd5b8160036000858152602001908152602001600020819055507f25a53b4765f33963a2b56848068188a323acb28e46d6194203c835e5883f4ea38383604051611555929190611c85565b60405180910390a1505050565b6004602052816000526040600020818154811061157e57600080fd5b90600052602060002001600091509150505481565b60036020528060005260406000206000915090505481565b60008173ffffffffffffffffffffffffffffffffffffffff16636352211e856040518263ffffffff1660e01b81526004016115e69190611c41565b60206040518083038186803b1580156115fe57600080fd5b505afa158015611612573d6000803e3d6000fd5b505050506040513d601f19601f820116820180604052508101906116369190611727565b90508173ffffffffffffffffffffffffffffffffffffffff166323b872dd8285876040518463ffffffff1660e01b815260040161167593929190611a4f565b600060405180830381600087803b15801561168f57600080fd5b505af11580156116a3573d6000803e3d6000fd5b505050507fa64cdec004d2859ac7547f4ed3252f53d0fa0b8dcbcc93a47894eee072714b628184866040516116da93929190611a4f565b60405180910390a150505050565b6000813590506116f781612110565b92915050565b60008151905061170c81612110565b92915050565b60008135905061172181612127565b92915050565b60006020828403121561173957600080fd5b6000611747848285016116fd565b91505092915050565b60006020828403121561176257600080fd5b600061177084828501611712565b91505092915050565b6000806040838503121561178c57600080fd5b600061179a85828601611712565b92505060206117ab858286016116e8565b9150509250929050565b600080604083850312156117c857600080fd5b60006117d685828601611712565b92505060206117e785828601611712565b9150509250929050565b60008060006060848603121561180657600080fd5b600061181486828701611712565b935050602061182586828701611712565b9250506040611836868287016116e8565b9150509250925092565b61184981611cbf565b82525050565b61185881611cd1565b82525050565b600061186b603083611cae565b915061187682611d7f565b604082019050919050565b600061188e602e83611cae565b915061189982611dce565b604082019050919050565b60006118b1602d83611cae565b91506118bc82611e1d565b604082019050919050565b60006118d4602283611cae565b91506118df82611e6c565b604082019050919050565b60006118f7602683611cae565b915061190282611ebb565b604082019050919050565b600061191a602683611cae565b915061192582611f0a565b604082019050919050565b600061193d602883611cae565b915061194882611f59565b604082019050919050565b6000611960601883611cae565b915061196b82611fa8565b602082019050919050565b6000611983602983611cae565b915061198e82611fd1565b604082019050919050565b60006119a6601f83611cae565b91506119b182612020565b602082019050919050565b60006119c9602c83611cae565b91506119d482612049565b604082019050919050565b60006119ec602183611cae565b91506119f782612098565b604082019050919050565b6000611a0f601983611cae565b9150611a1a826120e7565b602082019050919050565b611a2e81611cfd565b82525050565b6000602082019050611a496000830184611840565b92915050565b6000606082019050611a646000830186611840565b611a716020830185611840565b611a7e6040830184611a25565b949350505050565b6000602082019050611a9b600083018461184f565b92915050565b60006020820190508181036000830152611aba8161185e565b9050919050565b60006020820190508181036000830152611ada81611881565b9050919050565b60006020820190508181036000830152611afa816118a4565b9050919050565b60006020820190508181036000830152611b1a816118c7565b9050919050565b60006020820190508181036000830152611b3a816118ea565b9050919050565b60006020820190508181036000830152611b5a8161190d565b9050919050565b60006020820190508181036000830152611b7a81611930565b9050919050565b60006020820190508181036000830152611b9a81611953565b9050919050565b60006020820190508181036000830152611bba81611976565b9050919050565b60006020820190508181036000830152611bda81611999565b9050919050565b60006020820190508181036000830152611bfa816119bc565b9050919050565b60006020820190508181036000830152611c1a816119df565b9050919050565b60006020820190508181036000830152611c3a81611a02565b9050919050565b6000602082019050611c566000830184611a25565b92915050565b6000604082019050611c716000830185611a25565b611c7e6020830184611840565b9392505050565b6000604082019050611c9a6000830185611a25565b611ca76020830184611a25565b9392505050565b600082825260208201905092915050565b6000611cca82611cdd565b9050919050565b60008115159050919050565b600073ffffffffffffffffffffffffffffffffffffffff82169050919050565b6000819050919050565b6000611d1282611cfd565b91507fffffffffffffffffffffffffffffffffffffffffffffffffffffffffffffffff821415611d4557611d44611d50565b5b600182019050919050565b7f4e487b7100000000000000000000000000000000000000000000000000000000600052601160045260246000fd5b7f556e617574686f72697a656420706572736f6e20747279696e6720746f20636160008201527f6e63656c20746865206c697374696e6700000000000000000000000000000000602082015250565b7f4f776e65722063616e6e6f742063616e63656c206c697374696e67206f66207360008201527f6f6d656f6e652773206f66666572000000000000000000000000000000000000602082015250565b7f43616e6e6f7420627579204e46547320776869636820617265206e6f74206c6960008201527f7374656420666f722073616c6500000000000000000000000000000000000000602082015250565b7f546865206974656d2073686f756c64206265206c697374656420666f7220736160008201527f6c65000000000000000000000000000000000000000000000000000000000000602082015250565b7f46756e6374696f6e2063616e6e6f742062652063616c6c65642062792074686560008201527f204f776e65720000000000000000000000000000000000000000000000000000602082015250565b7f546865207072696365206f6e6c79206265206c6f77657265642062792074686560008201527f206f776e65720000000000000000000000000000000000000000000000000000602082015250565b7f46756e6374696f6e2063616e206f6e6c792062652063616c6c6564206279207460008201527f6865206f776e6572000000000000000000000000000000000000000000000000602082015250565b7f4f776e65722063616e6e6f74206d616b65206f66666572730000000000000000600082015250565b7f4d7573742070617920746865206f66666572207072696365206d656e74696f6e60008201527f656420627920796f750000000000000000000000000000000000000000000000602082015250565b7f4f6e6c79206f776e65722063616e2061636365707420746865206f6666657200600082015250565b7f50726963652073686f756c64206265206c6f776572207468616e20746865206360008201527f757272656e742070726963650000000000000000000000000000000000000000602082015250565b7f4d7573742070617920746865207265717569726564204c697374696e6720466560008201527f6500000000000000000000000000000000000000000000000000000000000000602082015250565b7f4d7573742070617920746865206c697374656420707269636500000000000000600082015250565b61211981611cbf565b811461212457600080fd5b50565b61213081611cfd565b811461213b57600080fd5b5056fea26469706673582212206d4d9906e2eceb7e2a54c68fdd410f9f2de75e01428b831a158dfd2126ad6bc464736f6c63430008040033",
  "linkReferences": {},
  "deployedLinkReferences": {}
}