{
  "_format": "hh-sol-artifact-1",
  "contractName": "Market",
  "sourceName": "contracts/Market.sol",
  "abi": [
    {
      "inputs": [],
      "stateMutability": "nonpayable",
      "type": "constructor"
    },
    {
      "anonymous": false,
      "inputs": [
        {
          "indexed": false,
          "internalType": "uint256",
          "name": "_tokenId",
          "type": "uint256"
        }
      ],
      "name": "CancelListing",
      "type": "event"
    },
    {
      "anonymous": false,
      "inputs": [
        {
          "indexed": false,
          "internalType": "uint256",
          "name": "_tokenId",
          "type": "uint256"
        },
        {
          "indexed": false,
          "internalType": "uint256",
          "name": "_price",
          "type": "uint256"
        }
      ],
      "name": "ItemListed",
      "type": "event"
    },
    {
      "anonymous": false,
      "inputs": [
        {
          "indexed": false,
          "internalType": "uint256",
          "name": "_tokenId",
          "type": "uint256"
        },
        {
          "indexed": false,
          "internalType": "address",
          "name": "_buyer",
          "type": "address"
        }
      ],
      "name": "MarketSaleCreated",
      "type": "event"
    },
    {
      "anonymous": false,
      "inputs": [
        {
          "indexed": false,
          "internalType": "uint256",
          "name": "_tokenId",
          "type": "uint256"
        },
        {
          "indexed": false,
          "internalType": "uint256",
          "name": "_offerPrice",
          "type": "uint256"
        }
      ],
      "name": "OfferAccepted",
      "type": "event"
    },
    {
      "anonymous": false,
      "inputs": [
        {
          "indexed": false,
          "internalType": "uint256",
          "name": "_tokenId",
          "type": "uint256"
        },
        {
          "indexed": false,
          "internalType": "uint256",
          "name": "_offerId",
          "type": "uint256"
        }
      ],
      "name": "OfferCanceled",
      "type": "event"
    },
    {
      "anonymous": false,
      "inputs": [
        {
          "indexed": false,
          "internalType": "uint256",
          "name": "_tokenId",
          "type": "uint256"
        },
        {
          "indexed": false,
          "internalType": "uint256",
          "name": "_offerPrice",
          "type": "uint256"
        }
      ],
      "name": "OfferSent",
      "type": "event"
    },
    {
      "anonymous": false,
      "inputs": [
        {
          "indexed": false,
          "internalType": "address",
          "name": "_from",
          "type": "address"
        },
        {
          "indexed": false,
          "internalType": "address",
          "name": "_to",
          "type": "address"
        },
        {
          "indexed": false,
          "internalType": "uint256",
          "name": "_tokenId",
          "type": "uint256"
        }
      ],
      "name": "TransferNFT",
      "type": "event"
    },
    {
      "anonymous": false,
      "inputs": [
        {
          "indexed": false,
          "internalType": "uint256",
          "name": "_tokenId",
          "type": "uint256"
        },
        {
          "indexed": false,
          "internalType": "uint256",
          "name": "_loweredPrice",
          "type": "uint256"
        }
      ],
      "name": "priceLowered",
      "type": "event"
    },
    {
      "inputs": [
        {
          "internalType": "uint256",
          "name": "_tokenId",
          "type": "uint256"
        },
        {
          "internalType": "uint256",
          "name": "_offerIndex",
          "type": "uint256"
        },
        {
          "internalType": "address",
          "name": "_coreCollection",
          "type": "address"
        }
      ],
      "name": "acceptOffer",
      "outputs": [],
      "stateMutability": "nonpayable",
      "type": "function"
    },
    {
      "inputs": [
        {
          "internalType": "uint256",
          "name": "_tokenId",
          "type": "uint256"
        },
        {
          "internalType": "address",
          "name": "_coreCollection",
          "type": "address"
        }
      ],
      "name": "buyNFT",
      "outputs": [],
      "stateMutability": "payable",
      "type": "function"
    },
    {
      "inputs": [
        {
          "internalType": "uint256",
          "name": "_tokenId",
          "type": "uint256"
        },
        {
          "internalType": "address",
          "name": "_coreCollection",
          "type": "address"
        }
      ],
      "name": "cancelListing",
      "outputs": [],
      "stateMutability": "nonpayable",
      "type": "function"
    },
    {
      "inputs": [
        {
          "internalType": "uint256",
          "name": "_tokenId",
          "type": "uint256"
        },
        {
          "internalType": "uint256",
          "name": "_offerIndex",
          "type": "uint256"
        },
        {
          "internalType": "address",
          "name": "_coreCollection",
          "type": "address"
        }
      ],
      "name": "cancelOffer",
      "outputs": [],
      "stateMutability": "nonpayable",
      "type": "function"
    },
    {
      "inputs": [
        {
          "internalType": "uint256",
          "name": "_tokenId",
          "type": "uint256"
        },
        {
          "internalType": "uint256",
          "name": "_price",
          "type": "uint256"
        },
        {
          "internalType": "address",
          "name": "_coreCollection",
          "type": "address"
        }
      ],
      "name": "createMarketItem",
      "outputs": [],
      "stateMutability": "payable",
      "type": "function"
    },
    {
      "inputs": [
        {
          "internalType": "uint256",
          "name": "",
          "type": "uint256"
        },
        {
          "internalType": "uint256",
          "name": "",
          "type": "uint256"
        }
      ],
      "name": "idToOffers",
      "outputs": [
        {
          "internalType": "uint256",
          "name": "",
          "type": "uint256"
        }
      ],
      "stateMutability": "view",
      "type": "function"
    },
    {
      "inputs": [
        {
          "internalType": "uint256",
          "name": "",
          "type": "uint256"
        }
      ],
      "name": "idToOnSale",
      "outputs": [
        {
          "internalType": "bool",
          "name": "",
          "type": "bool"
        }
      ],
      "stateMutability": "view",
      "type": "function"
    },
    {
      "inputs": [
        {
          "internalType": "uint256",
          "name": "",
          "type": "uint256"
        }
      ],
      "name": "idToPrice",
      "outputs": [
        {
          "internalType": "uint256",
          "name": "",
          "type": "uint256"
        }
      ],
      "stateMutability": "view",
      "type": "function"
    },
    {
      "inputs": [],
      "name": "listingFee",
      "outputs": [
        {
          "internalType": "uint256",
          "name": "",
          "type": "uint256"
        }
      ],
      "stateMutability": "view",
      "type": "function"
    },
    {
      "inputs": [
        {
          "internalType": "uint256",
          "name": "_tokenId",
          "type": "uint256"
        },
        {
          "internalType": "uint256",
          "name": "_loweredPrice",
          "type": "uint256"
        },
        {
          "internalType": "address",
          "name": "_coreCollection",
          "type": "address"
        }
      ],
      "name": "lowerPrice",
      "outputs": [],
      "stateMutability": "nonpayable",
      "type": "function"
    },
    {
      "inputs": [
        {
          "internalType": "uint256",
          "name": "_tokenId",
          "type": "uint256"
        },
        {
          "internalType": "uint256",
          "name": "_offerPrice",
          "type": "uint256"
        },
        {
          "internalType": "address",
          "name": "_coreCollection",
          "type": "address"
        }
      ],
      "name": "makeOffer",
      "outputs": [],
      "stateMutability": "payable",
      "type": "function"
    },
    {
      "inputs": [
        {
          "internalType": "uint256",
          "name": "",
          "type": "uint256"
        }
      ],
      "name": "offerIdToPrice",
      "outputs": [
        {
          "internalType": "uint256",
          "name": "",
          "type": "uint256"
        }
      ],
      "stateMutability": "view",
      "type": "function"
    },
    {
      "inputs": [
        {
          "internalType": "uint256",
          "name": "",
          "type": "uint256"
        }
      ],
      "name": "offerIdToUser",
      "outputs": [
        {
          "internalType": "address",
          "name": "",
          "type": "address"
        }
      ],
      "stateMutability": "view",
      "type": "function"
    },
    {
      "inputs": [
        {
          "internalType": "uint256",
          "name": "",
          "type": "uint256"
        }
      ],
      "name": "offerStatus",
      "outputs": [
        {
          "internalType": "bool",
          "name": "",
          "type": "bool"
        }
      ],
      "stateMutability": "view",
      "type": "function"
    }
  ],
  "bytecode": "0x60806040526703782dace9d9000060015534801561001c57600080fd5b506121f58061002c6000396000f3fe6080604052600436106100dd5760003560e01c80636a1b7ecc1161007f578063d8db47a711610059578063d8db47a7146102b4578063dadc6f78146102d0578063e27a2bad146102f9578063f9c6a05414610336576100dd565b80636a1b7ecc1461020f578063918814811461023a578063d843b2c714610277576100dd565b80633af7bac6116100bb5780633af7bac6146101715780633be3076d1461018d57806360101d3a146101ca5780636457c4f8146101f3576100dd565b806307ae6a5d146100e25780630f91eaee1461010b57806338e4fd7f14610148575b600080fd5b3480156100ee57600080fd5b5061010960048036038101906101049190611872565b610373565b005b34801561011757600080fd5b50610132600480360381019061012d91906117d1565b610776565b60405161013f9190611ab5565b60405180910390f35b34801561015457600080fd5b5061016f600480360381019061016a9190611872565b6107a9565b005b61018b60048036038101906101869190611872565b610a60565b005b34801561019957600080fd5b506101b460048036038101906101af91906117d1565b610c2f565b6040516101c19190611b07565b60405180910390f35b3480156101d657600080fd5b506101f160048036038101906101ec91906117fa565b610c4f565b005b61020d60048036038101906102089190611872565b610e2c565b005b34801561021b57600080fd5b5061022461108f565b6040516102319190611cc2565b60405180910390f35b34801561024657600080fd5b50610261600480360381019061025c91906117d1565b611095565b60405161026e9190611cc2565b60405180910390f35b34801561028357600080fd5b5061029e600480360381019061029991906117d1565b6110ad565b6040516102ab9190611b07565b60405180910390f35b6102ce60048036038101906102c991906117fa565b6110cd565b005b3480156102dc57600080fd5b506102f760048036038101906102f29190611872565b6113db565b005b34801561030557600080fd5b50610320600480360381019061031b9190611836565b6115e3565b60405161032d9190611cc2565b60405180910390f35b34801561034257600080fd5b5061035d600480360381019061035891906117d1565b611614565b60405161036a9190611cc2565b60405180910390f35b8073ffffffffffffffffffffffffffffffffffffffff16636352211e846040518263ffffffff1660e01b81526004016103ac9190611cc2565b60206040518083038186803b1580156103c457600080fd5b505afa1580156103d8573d6000803e3d6000fd5b505050506040513d601f19601f820116820180604052508101906103fc91906117a8565b73ffffffffffffffffffffffffffffffffffffffff163373ffffffffffffffffffffffffffffffffffffffff1614610469576040517f08c379a000000000000000000000000000000000000000000000000000000000815260040161046090611c42565b60405180910390fd5b60006004600085815260200190815260200160002083815481106104b6577f4e487b7100000000000000000000000000000000000000000000000000000000600052603260045260246000fd5b9060005260206000200154905060006006600083815260200190815260200160002060009054906101000a900473ffffffffffffffffffffffffffffffffffffffff1690503373ffffffffffffffffffffffffffffffffffffffff166108fc60056000858152602001908152602001600020549081150290604051600060405180830381858888f19350505050158015610554573d6000803e3d6000fd5b5060005b60046000878152602001908152602001600020805490508110156106d25760006004600088815260200190815260200160002082815481106105c3577f4e487b7100000000000000000000000000000000000000000000000000000000600052603260045260246000fd5b90600052602060002001549050838114610692576007600082815260200190815260200160002060009054906101000a900460ff16156106915760006006600083815260200190815260200160002060009054906101000a900473ffffffffffffffffffffffffffffffffffffffff1690508073ffffffffffffffffffffffffffffffffffffffff166108fc60056000858152602001908152602001600020549081150290604051600060405180830381858888f1935050505015801561068e573d6000803e3d6000fd5b50505b5b60006007600083815260200190815260200160002060006101000a81548160ff0219169083151502179055505080806106ca90611d88565b915050610558565b5060006002600087815260200190815260200160002060006101000a81548160ff0219169083151502179055506000600360008781526020019081526020016000208190555061072385828561162c565b7f397f87b3946767b09967764d50032941de13a2606bcb39dfed61d7b1ed0192cc856005600085815260200190815260200160002054604051610767929190611d06565b60405180910390a15050505050565b60066020528060005260406000206000915054906101000a900473ffffffffffffffffffffffffffffffffffffffff1681565b8073ffffffffffffffffffffffffffffffffffffffff16636352211e846040518263ffffffff1660e01b81526004016107e29190611cc2565b60206040518083038186803b1580156107fa57600080fd5b505afa15801561080e573d6000803e3d6000fd5b505050506040513d601f19601f8201168201806040525081019061083291906117a8565b73ffffffffffffffffffffffffffffffffffffffff163373ffffffffffffffffffffffffffffffffffffffff1614156108a0576040517f08c379a000000000000000000000000000000000000000000000000000000000815260040161089790611b42565b60405180910390fd5b60006004600085815260200190815260200160002083815481106108ed577f4e487b7100000000000000000000000000000000000000000000000000000000600052603260045260246000fd5b906000526020600020015490506006600082815260200190815260200160002060009054906101000a900473ffffffffffffffffffffffffffffffffffffffff1673ffffffffffffffffffffffffffffffffffffffff163373ffffffffffffffffffffffffffffffffffffffff161461099b576040517f08c379a000000000000000000000000000000000000000000000000000000000815260040161099290611b22565b60405180910390fd5b60006007600083815260200190815260200160002060006101000a81548160ff0219169083151502179055503373ffffffffffffffffffffffffffffffffffffffff166108fc60056000848152602001908152602001600020549081150290604051600060405180830381858888f19350505050158015610a20573d6000803e3d6000fd5b507fc3631089d86cf1fe0600bb8be145021dc1f4dbf1053ce815836f092d69cd9bdc8482604051610a52929190611d06565b60405180910390a150505050565b8073ffffffffffffffffffffffffffffffffffffffff16636352211e846040518263ffffffff1660e01b8152600401610a999190611cc2565b60206040518083038186803b158015610ab157600080fd5b505afa158015610ac5573d6000803e3d6000fd5b505050506040513d601f19601f82011682018060405250810190610ae991906117a8565b73ffffffffffffffffffffffffffffffffffffffff163373ffffffffffffffffffffffffffffffffffffffff1614610b56576040517f08c379a0000000000000000000000000000000000000000000000000000000008152600401610b4d90611be2565b60405180910390fd5b6001543414610b9a576040517f08c379a0000000000000000000000000000000000000000000000000000000008152600401610b9190611c82565b60405180910390fd5b60016002600085815260200190815260200160002060006101000a81548160ff0219169083151502179055508160036000858152602001908152602001600020819055507f5cedb4b4e9d21f2b6ae92d858fd47c1f6ef4af540c48aea4cccc861bdfbffb69836003600086815260200190815260200160002054604051610c22929190611d06565b60405180910390a1505050565b60026020528060005260406000206000915054906101000a900460ff1681565b8073ffffffffffffffffffffffffffffffffffffffff16636352211e836040518263ffffffff1660e01b8152600401610c889190611cc2565b60206040518083038186803b158015610ca057600080fd5b505afa158015610cb4573d6000803e3d6000fd5b505050506040513d601f19601f82011682018060405250810190610cd891906117a8565b73ffffffffffffffffffffffffffffffffffffffff163373ffffffffffffffffffffffffffffffffffffffff1614610d45576040517f08c379a0000000000000000000000000000000000000000000000000000000008152600401610d3c90611be2565b60405180910390fd5b600115156002600084815260200190815260200160002060009054906101000a900460ff16151514610dac576040517f08c379a0000000000000000000000000000000000000000000000000000000008152600401610da390611b82565b60405180910390fd5b60006002600084815260200190815260200160002060006101000a81548160ff021916908315150217905550600060036000848152602001908152602001600020819055507fa5a50019386103d06e1a716ed5398f455d38288e801607ee55320507043468e582604051610e209190611cc2565b60405180910390a15050565b8073ffffffffffffffffffffffffffffffffffffffff16636352211e846040518263ffffffff1660e01b8152600401610e659190611cc2565b60206040518083038186803b158015610e7d57600080fd5b505afa158015610e91573d6000803e3d6000fd5b505050506040513d601f19601f82011682018060405250810190610eb591906117a8565b73ffffffffffffffffffffffffffffffffffffffff163373ffffffffffffffffffffffffffffffffffffffff161415610f23576040517f08c379a0000000000000000000000000000000000000000000000000000000008152600401610f1a90611c02565b60405180910390fd5b813414610f65576040517f08c379a0000000000000000000000000000000000000000000000000000000008152600401610f5c90611c22565b60405180910390fd5b600080815480929190610f7790611d88565b91905055506004600084815260200190815260200160002060005490806001815401808255809150506001900390600052602060002001600090919091909150558160056000805481526020019081526020016000208190555033600660008054815260200190815260200160002060006101000a81548173ffffffffffffffffffffffffffffffffffffffff021916908373ffffffffffffffffffffffffffffffffffffffff1602179055506001600760008054815260200190815260200160002060006101000a81548160ff0219169083151502179055507fa804d23695e6c56bb2b898c77e1f65a24131c2aac85e2d4dbd697a1b8f2983f18383604051611082929190611d06565b60405180910390a1505050565b60015481565b60056020528060005260406000206000915090505481565b60076020528060005260406000206000915054906101000a900460ff1681565b6000600360008481526020019081526020016000205490506002600084815260200190815260200160002060009054906101000a900460ff16611145576040517f08c379a000000000000000000000000000000000000000000000000000000000815260040161113c90611b62565b60405180910390fd5b803414611187576040517f08c379a000000000000000000000000000000000000000000000000000000000815260040161117e90611ca2565b60405180910390fd5b8173ffffffffffffffffffffffffffffffffffffffff16636352211e846040518263ffffffff1660e01b81526004016111c09190611cc2565b60206040518083038186803b1580156111d857600080fd5b505afa1580156111ec573d6000803e3d6000fd5b505050506040513d601f19601f8201168201806040525081019061121091906117a8565b73ffffffffffffffffffffffffffffffffffffffff163373ffffffffffffffffffffffffffffffffffffffff16141561127e576040517f08c379a000000000000000000000000000000000000000000000000000000000815260040161127590611ba2565b60405180910390fd5b8173ffffffffffffffffffffffffffffffffffffffff16636352211e846040518263ffffffff1660e01b81526004016112b79190611cc2565b60206040518083038186803b1580156112cf57600080fd5b505afa1580156112e3573d6000803e3d6000fd5b505050506040513d601f19601f8201168201806040525081019061130791906117a8565b73ffffffffffffffffffffffffffffffffffffffff166108fc349081150290604051600060405180830381858888f1935050505015801561134c573d6000803e3d6000fd5b5061135883338461162c565b60006002600085815260200190815260200160002060006101000a81548160ff021916908315150217905550600060036000858152602001908152602001600020819055507ff0b3c9b1f0b20104eaa0188304d1a1561775a07e1c058447f0ac560ea1212eda83336040516113ce929190611cdd565b60405180910390a1505050565b600115156002600085815260200190815260200160002060009054906101000a900460ff16151514611442576040517f08c379a000000000000000000000000000000000000000000000000000000000815260040161143990611b82565b60405180910390fd5b60036000848152602001908152602001600020548210611497576040517f08c379a000000000000000000000000000000000000000000000000000000000815260040161148e90611c62565b60405180910390fd5b8073ffffffffffffffffffffffffffffffffffffffff16636352211e846040518263ffffffff1660e01b81526004016114d09190611cc2565b60206040518083038186803b1580156114e857600080fd5b505afa1580156114fc573d6000803e3d6000fd5b505050506040513d601f19601f8201168201806040525081019061152091906117a8565b73ffffffffffffffffffffffffffffffffffffffff163373ffffffffffffffffffffffffffffffffffffffff161461158d576040517f08c379a000000000000000000000000000000000000000000000000000000000815260040161158490611bc2565b60405180910390fd5b8160036000858152602001908152602001600020819055507f25a53b4765f33963a2b56848068188a323acb28e46d6194203c835e5883f4ea383836040516115d6929190611d06565b60405180910390a1505050565b600460205281600052604060002081815481106115ff57600080fd5b90600052602060002001600091509150505481565b60036020528060005260406000206000915090505481565b60008173ffffffffffffffffffffffffffffffffffffffff16636352211e856040518263ffffffff1660e01b81526004016116679190611cc2565b60206040518083038186803b15801561167f57600080fd5b505afa158015611693573d6000803e3d6000fd5b505050506040513d601f19601f820116820180604052508101906116b791906117a8565b90508173ffffffffffffffffffffffffffffffffffffffff166323b872dd8285876040518463ffffffff1660e01b81526004016116f693929190611ad0565b600060405180830381600087803b15801561171057600080fd5b505af1158015611724573d6000803e3d6000fd5b505050507fa64cdec004d2859ac7547f4ed3252f53d0fa0b8dcbcc93a47894eee072714b6281848660405161175b93929190611ad0565b60405180910390a150505050565b60008135905061177881612191565b92915050565b60008151905061178d81612191565b92915050565b6000813590506117a2816121a8565b92915050565b6000602082840312156117ba57600080fd5b60006117c88482850161177e565b91505092915050565b6000602082840312156117e357600080fd5b60006117f184828501611793565b91505092915050565b6000806040838503121561180d57600080fd5b600061181b85828601611793565b925050602061182c85828601611769565b9150509250929050565b6000806040838503121561184957600080fd5b600061185785828601611793565b925050602061186885828601611793565b9150509250929050565b60008060006060848603121561188757600080fd5b600061189586828701611793565b93505060206118a686828701611793565b92505060406118b786828701611769565b9150509250925092565b6118ca81611d40565b82525050565b6118d981611d52565b82525050565b60006118ec603083611d2f565b91506118f782611e00565b604082019050919050565b600061190f602e83611d2f565b915061191a82611e4f565b604082019050919050565b6000611932602d83611d2f565b915061193d82611e9e565b604082019050919050565b6000611955602283611d2f565b915061196082611eed565b604082019050919050565b6000611978602683611d2f565b915061198382611f3c565b604082019050919050565b600061199b602683611d2f565b91506119a682611f8b565b604082019050919050565b60006119be602883611d2f565b91506119c982611fda565b604082019050919050565b60006119e1601883611d2f565b91506119ec82612029565b602082019050919050565b6000611a04602983611d2f565b9150611a0f82612052565b604082019050919050565b6000611a27601f83611d2f565b9150611a32826120a1565b602082019050919050565b6000611a4a602c83611d2f565b9150611a55826120ca565b604082019050919050565b6000611a6d602183611d2f565b9150611a7882612119565b604082019050919050565b6000611a90601983611d2f565b9150611a9b82612168565b602082019050919050565b611aaf81611d7e565b82525050565b6000602082019050611aca60008301846118c1565b92915050565b6000606082019050611ae560008301866118c1565b611af260208301856118c1565b611aff6040830184611aa6565b949350505050565b6000602082019050611b1c60008301846118d0565b92915050565b60006020820190508181036000830152611b3b816118df565b9050919050565b60006020820190508181036000830152611b5b81611902565b9050919050565b60006020820190508181036000830152611b7b81611925565b9050919050565b60006020820190508181036000830152611b9b81611948565b9050919050565b60006020820190508181036000830152611bbb8161196b565b9050919050565b60006020820190508181036000830152611bdb8161198e565b9050919050565b60006020820190508181036000830152611bfb816119b1565b9050919050565b60006020820190508181036000830152611c1b816119d4565b9050919050565b60006020820190508181036000830152611c3b816119f7565b9050919050565b60006020820190508181036000830152611c5b81611a1a565b9050919050565b60006020820190508181036000830152611c7b81611a3d565b9050919050565b60006020820190508181036000830152611c9b81611a60565b9050919050565b60006020820190508181036000830152611cbb81611a83565b9050919050565b6000602082019050611cd76000830184611aa6565b92915050565b6000604082019050611cf26000830185611aa6565b611cff60208301846118c1565b9392505050565b6000604082019050611d1b6000830185611aa6565b611d286020830184611aa6565b9392505050565b600082825260208201905092915050565b6000611d4b82611d5e565b9050919050565b60008115159050919050565b600073ffffffffffffffffffffffffffffffffffffffff82169050919050565b6000819050919050565b6000611d9382611d7e565b91507fffffffffffffffffffffffffffffffffffffffffffffffffffffffffffffffff821415611dc657611dc5611dd1565b5b600182019050919050565b7f4e487b7100000000000000000000000000000000000000000000000000000000600052601160045260246000fd5b7f556e617574686f72697a656420706572736f6e20747279696e6720746f20636160008201527f6e63656c20746865206c697374696e6700000000000000000000000000000000602082015250565b7f4f776e65722063616e6e6f742063616e63656c206c697374696e67206f66207360008201527f6f6d656f6e652773206f66666572000000000000000000000000000000000000602082015250565b7f43616e6e6f7420627579204e46547320776869636820617265206e6f74206c6960008201527f7374656420666f722073616c6500000000000000000000000000000000000000602082015250565b7f546865206974656d2073686f756c64206265206c697374656420666f7220736160008201527f6c65000000000000000000000000000000000000000000000000000000000000602082015250565b7f46756e6374696f6e2063616e6e6f742062652063616c6c65642062792074686560008201527f204f776e65720000000000000000000000000000000000000000000000000000602082015250565b7f546865207072696365206f6e6c79206265206c6f77657265642062792074686560008201527f206f776e65720000000000000000000000000000000000000000000000000000602082015250565b7f46756e6374696f6e2063616e206f6e6c792062652063616c6c6564206279207460008201527f6865206f776e6572000000000000000000000000000000000000000000000000602082015250565b7f4f776e65722063616e6e6f74206d616b65206f66666572730000000000000000600082015250565b7f4d7573742070617920746865206f66666572207072696365206d656e74696f6e60008201527f656420627920796f750000000000000000000000000000000000000000000000602082015250565b7f4f6e6c79206f776e65722063616e2061636365707420746865206f6666657200600082015250565b7f50726963652073686f756c64206265206c6f776572207468616e20746865206360008201527f757272656e742070726963650000000000000000000000000000000000000000602082015250565b7f4d7573742070617920746865207265717569726564204c697374696e6720466560008201527f6500000000000000000000000000000000000000000000000000000000000000602082015250565b7f4d7573742070617920746865206c697374656420707269636500000000000000600082015250565b61219a81611d40565b81146121a557600080fd5b50565b6121b181611d7e565b81146121bc57600080fd5b5056fea2646970667358221220a62e1d420ca9ee173bfd40bbf6fbfe6ba7d75fd2b09b6393e504ed2d23195b0a64736f6c63430008040033",
  "linkReferences": {},
  "deployedLinkReferences": {}
}