{
  "_format": "hh-sol-artifact-1",
  "contractName": "Market",
  "sourceName": "contracts/Market.sol",
  "abi": [
    {
      "inputs": [],
      "stateMutability": "nonpayable",
      "type": "constructor"
    },
    {
      "anonymous": false,
      "inputs": [
        {
          "indexed": false,
          "internalType": "uint256",
          "name": "_tokenId",
          "type": "uint256"
        }
      ],
      "name": "CancelListing",
      "type": "event"
    },
    {
      "anonymous": false,
      "inputs": [
        {
          "indexed": false,
          "internalType": "uint256",
          "name": "_tokenId",
          "type": "uint256"
        },
        {
          "indexed": false,
          "internalType": "uint256",
          "name": "_price",
          "type": "uint256"
        }
      ],
      "name": "ItemListed",
      "type": "event"
    },
    {
      "anonymous": false,
      "inputs": [
        {
          "indexed": false,
          "internalType": "uint256",
          "name": "_tokenId",
          "type": "uint256"
        },
        {
          "indexed": false,
          "internalType": "address",
          "name": "_buyer",
          "type": "address"
        }
      ],
      "name": "MarketSaleCreated",
      "type": "event"
    },
    {
      "anonymous": false,
      "inputs": [
        {
          "indexed": false,
          "internalType": "uint256",
          "name": "_tokenId",
          "type": "uint256"
        },
        {
          "indexed": false,
          "internalType": "uint256",
          "name": "_offerPrice",
          "type": "uint256"
        }
      ],
      "name": "OfferAccepted",
      "type": "event"
    },
    {
      "anonymous": false,
      "inputs": [
        {
          "indexed": false,
          "internalType": "uint256",
          "name": "_tokenId",
          "type": "uint256"
        },
        {
          "indexed": false,
          "internalType": "uint256",
          "name": "_offerId",
          "type": "uint256"
        }
      ],
      "name": "OfferCanceled",
      "type": "event"
    },
    {
      "anonymous": false,
      "inputs": [
        {
          "indexed": false,
          "internalType": "uint256",
          "name": "_tokenId",
          "type": "uint256"
        },
        {
          "indexed": false,
          "internalType": "uint256",
          "name": "_offerPrice",
          "type": "uint256"
        }
      ],
      "name": "OfferSent",
      "type": "event"
    },
    {
      "anonymous": false,
      "inputs": [
        {
          "indexed": false,
          "internalType": "address",
          "name": "_from",
          "type": "address"
        },
        {
          "indexed": false,
          "internalType": "address",
          "name": "_to",
          "type": "address"
        },
        {
          "indexed": false,
          "internalType": "uint256",
          "name": "_tokenId",
          "type": "uint256"
        }
      ],
      "name": "TransferNFT",
      "type": "event"
    },
    {
      "anonymous": false,
      "inputs": [
        {
          "indexed": false,
          "internalType": "uint256",
          "name": "_tokenId",
          "type": "uint256"
        },
        {
          "indexed": false,
          "internalType": "uint256",
          "name": "_loweredPrice",
          "type": "uint256"
        }
      ],
      "name": "priceLowered",
      "type": "event"
    },
    {
      "inputs": [
        {
          "internalType": "uint256",
          "name": "_tokenId",
          "type": "uint256"
        },
        {
          "internalType": "uint256",
          "name": "_offerIndex",
          "type": "uint256"
        },
        {
          "internalType": "address",
          "name": "_coreCollection",
          "type": "address"
        }
      ],
      "name": "acceptOffer",
      "outputs": [],
      "stateMutability": "nonpayable",
      "type": "function"
    },
    {
      "inputs": [
        {
          "internalType": "uint256",
          "name": "_tokenId",
          "type": "uint256"
        },
        {
          "internalType": "address",
          "name": "_coreCollection",
          "type": "address"
        }
      ],
      "name": "buyNFT",
      "outputs": [],
      "stateMutability": "payable",
      "type": "function"
    },
    {
      "inputs": [
        {
          "internalType": "uint256",
          "name": "_tokenId",
          "type": "uint256"
        },
        {
          "internalType": "address",
          "name": "_coreCollection",
          "type": "address"
        }
      ],
      "name": "cancelListing",
      "outputs": [],
      "stateMutability": "nonpayable",
      "type": "function"
    },
    {
      "inputs": [
        {
          "internalType": "uint256",
          "name": "_tokenId",
          "type": "uint256"
        },
        {
          "internalType": "uint256",
          "name": "_offerIndex",
          "type": "uint256"
        },
        {
          "internalType": "address",
          "name": "_coreCollection",
          "type": "address"
        }
      ],
      "name": "cancelOffer",
      "outputs": [],
      "stateMutability": "nonpayable",
      "type": "function"
    },
    {
      "inputs": [
        {
          "internalType": "uint256",
          "name": "_tokenId",
          "type": "uint256"
        },
        {
          "internalType": "uint256",
          "name": "_price",
          "type": "uint256"
        },
        {
          "internalType": "address",
          "name": "_coreCollection",
          "type": "address"
        }
      ],
      "name": "createMarketItem",
      "outputs": [],
      "stateMutability": "payable",
      "type": "function"
    },
    {
      "inputs": [
        {
          "internalType": "uint256",
          "name": "_tokenId",
          "type": "uint256"
        }
      ],
      "name": "getOfferIds",
      "outputs": [
        {
          "internalType": "uint256[]",
          "name": "",
          "type": "uint256[]"
        }
      ],
      "stateMutability": "view",
      "type": "function"
    },
    {
      "inputs": [
        {
          "internalType": "uint256",
          "name": "",
          "type": "uint256"
        },
        {
          "internalType": "uint256",
          "name": "",
          "type": "uint256"
        }
      ],
      "name": "idToOffers",
      "outputs": [
        {
          "internalType": "uint256",
          "name": "",
          "type": "uint256"
        }
      ],
      "stateMutability": "view",
      "type": "function"
    },
    {
      "inputs": [
        {
          "internalType": "uint256",
          "name": "",
          "type": "uint256"
        }
      ],
      "name": "idToOnSale",
      "outputs": [
        {
          "internalType": "bool",
          "name": "",
          "type": "bool"
        }
      ],
      "stateMutability": "view",
      "type": "function"
    },
    {
      "inputs": [
        {
          "internalType": "uint256",
          "name": "",
          "type": "uint256"
        }
      ],
      "name": "idToPrice",
      "outputs": [
        {
          "internalType": "uint256",
          "name": "",
          "type": "uint256"
        }
      ],
      "stateMutability": "view",
      "type": "function"
    },
    {
      "inputs": [],
      "name": "listingFee",
      "outputs": [
        {
          "internalType": "uint256",
          "name": "",
          "type": "uint256"
        }
      ],
      "stateMutability": "view",
      "type": "function"
    },
    {
      "inputs": [
        {
          "internalType": "uint256",
          "name": "_tokenId",
          "type": "uint256"
        },
        {
          "internalType": "uint256",
          "name": "_loweredPrice",
          "type": "uint256"
        },
        {
          "internalType": "address",
          "name": "_coreCollection",
          "type": "address"
        }
      ],
      "name": "lowerPrice",
      "outputs": [],
      "stateMutability": "nonpayable",
      "type": "function"
    },
    {
      "inputs": [
        {
          "internalType": "uint256",
          "name": "_tokenId",
          "type": "uint256"
        },
        {
          "internalType": "uint256",
          "name": "_offerPrice",
          "type": "uint256"
        },
        {
          "internalType": "address",
          "name": "_coreCollection",
          "type": "address"
        }
      ],
      "name": "makeOffer",
      "outputs": [],
      "stateMutability": "payable",
      "type": "function"
    },
    {
      "inputs": [
        {
          "internalType": "uint256",
          "name": "",
          "type": "uint256"
        }
      ],
      "name": "offerIdToPrice",
      "outputs": [
        {
          "internalType": "uint256",
          "name": "",
          "type": "uint256"
        }
      ],
      "stateMutability": "view",
      "type": "function"
    },
    {
      "inputs": [
        {
          "internalType": "uint256",
          "name": "",
          "type": "uint256"
        }
      ],
      "name": "offerIdToUser",
      "outputs": [
        {
          "internalType": "address",
          "name": "",
          "type": "address"
        }
      ],
      "stateMutability": "view",
      "type": "function"
    },
    {
      "inputs": [
        {
          "internalType": "uint256",
          "name": "",
          "type": "uint256"
        }
      ],
      "name": "offerStatus",
      "outputs": [
        {
          "internalType": "bool",
          "name": "",
          "type": "bool"
        }
      ],
      "stateMutability": "view",
      "type": "function"
    }
  ],
  "bytecode": "0x60806040526703782dace9d9000060015534801561001c57600080fd5b506123888061002c6000396000f3fe6080604052600436106100e85760003560e01c80636a1b7ecc1161008a578063d8db47a711610059578063d8db47a7146102fc578063dadc6f7814610318578063e27a2bad14610341578063f9c6a0541461037e576100e8565b80636a1b7ecc1461021a5780637a734178146102455780639188148114610282578063d843b2c7146102bf576100e8565b80633af7bac6116100c65780633af7bac61461017c5780633be3076d1461019857806360101d3a146101d55780636457c4f8146101fe576100e8565b806307ae6a5d146100ed5780630f91eaee1461011657806338e4fd7f14610153575b600080fd5b3480156100f957600080fd5b50610114600480360381019061010f9190611925565b6103bb565b005b34801561012257600080fd5b5061013d60048036038101906101389190611884565b6107be565b60405161014a9190611bed565b60405180910390f35b34801561015f57600080fd5b5061017a60048036038101906101759190611925565b6107f1565b005b61019660048036038101906101919190611925565b610aa8565b005b3480156101a457600080fd5b506101bf60048036038101906101ba9190611884565b610c77565b6040516101cc9190611c61565b60405180910390f35b3480156101e157600080fd5b506101fc60048036038101906101f791906118ad565b610c97565b005b61021860048036038101906102139190611925565b610e74565b005b34801561022657600080fd5b5061022f6110d7565b60405161023c9190611e1c565b60405180910390f35b34801561025157600080fd5b5061026c60048036038101906102679190611884565b6110dd565b6040516102799190611c3f565b60405180910390f35b34801561028e57600080fd5b506102a960048036038101906102a49190611884565b611148565b6040516102b69190611e1c565b60405180910390f35b3480156102cb57600080fd5b506102e660048036038101906102e19190611884565b611160565b6040516102f39190611c61565b60405180910390f35b610316600480360381019061031191906118ad565b611180565b005b34801561032457600080fd5b5061033f600480360381019061033a9190611925565b61148e565b005b34801561034d57600080fd5b50610368600480360381019061036391906118e9565b611696565b6040516103759190611e1c565b60405180910390f35b34801561038a57600080fd5b506103a560048036038101906103a09190611884565b6116c7565b6040516103b29190611e1c565b60405180910390f35b8073ffffffffffffffffffffffffffffffffffffffff16636352211e846040518263ffffffff1660e01b81526004016103f49190611e1c565b60206040518083038186803b15801561040c57600080fd5b505afa158015610420573d6000803e3d6000fd5b505050506040513d601f19601f82011682018060405250810190610444919061185b565b73ffffffffffffffffffffffffffffffffffffffff163373ffffffffffffffffffffffffffffffffffffffff16146104b1576040517f08c379a00000000000000000000000000000000000000000000000000000000081526004016104a890611d9c565b60405180910390fd5b60006004600085815260200190815260200160002083815481106104fe577f4e487b7100000000000000000000000000000000000000000000000000000000600052603260045260246000fd5b9060005260206000200154905060006006600083815260200190815260200160002060009054906101000a900473ffffffffffffffffffffffffffffffffffffffff1690503373ffffffffffffffffffffffffffffffffffffffff166108fc60056000858152602001908152602001600020549081150290604051600060405180830381858888f1935050505015801561059c573d6000803e3d6000fd5b5060005b600460008781526020019081526020016000208054905081101561071a57600060046000888152602001908152602001600020828154811061060b577f4e487b7100000000000000000000000000000000000000000000000000000000600052603260045260246000fd5b906000526020600020015490508381146106da576007600082815260200190815260200160002060009054906101000a900460ff16156106d95760006006600083815260200190815260200160002060009054906101000a900473ffffffffffffffffffffffffffffffffffffffff1690508073ffffffffffffffffffffffffffffffffffffffff166108fc60056000858152602001908152602001600020549081150290604051600060405180830381858888f193505050501580156106d6573d6000803e3d6000fd5b50505b5b60006007600083815260200190815260200160002060006101000a81548160ff02191690831515021790555050808061071290611f1b565b9150506105a0565b5060006002600087815260200190815260200160002060006101000a81548160ff0219169083151502179055506000600360008781526020019081526020016000208190555061076b8582856116df565b7f397f87b3946767b09967764d50032941de13a2606bcb39dfed61d7b1ed0192cc8560056000858152602001908152602001600020546040516107af929190611e60565b60405180910390a15050505050565b60066020528060005260406000206000915054906101000a900473ffffffffffffffffffffffffffffffffffffffff1681565b8073ffffffffffffffffffffffffffffffffffffffff16636352211e846040518263ffffffff1660e01b815260040161082a9190611e1c565b60206040518083038186803b15801561084257600080fd5b505afa158015610856573d6000803e3d6000fd5b505050506040513d601f19601f8201168201806040525081019061087a919061185b565b73ffffffffffffffffffffffffffffffffffffffff163373ffffffffffffffffffffffffffffffffffffffff1614156108e8576040517f08c379a00000000000000000000000000000000000000000000000000000000081526004016108df90611c9c565b60405180910390fd5b6000600460008581526020019081526020016000208381548110610935577f4e487b7100000000000000000000000000000000000000000000000000000000600052603260045260246000fd5b906000526020600020015490506006600082815260200190815260200160002060009054906101000a900473ffffffffffffffffffffffffffffffffffffffff1673ffffffffffffffffffffffffffffffffffffffff163373ffffffffffffffffffffffffffffffffffffffff16146109e3576040517f08c379a00000000000000000000000000000000000000000000000000000000081526004016109da90611c7c565b60405180910390fd5b60006007600083815260200190815260200160002060006101000a81548160ff0219169083151502179055503373ffffffffffffffffffffffffffffffffffffffff166108fc60056000848152602001908152602001600020549081150290604051600060405180830381858888f19350505050158015610a68573d6000803e3d6000fd5b507fc3631089d86cf1fe0600bb8be145021dc1f4dbf1053ce815836f092d69cd9bdc8482604051610a9a929190611e60565b60405180910390a150505050565b8073ffffffffffffffffffffffffffffffffffffffff16636352211e846040518263ffffffff1660e01b8152600401610ae19190611e1c565b60206040518083038186803b158015610af957600080fd5b505afa158015610b0d573d6000803e3d6000fd5b505050506040513d601f19601f82011682018060405250810190610b31919061185b565b73ffffffffffffffffffffffffffffffffffffffff163373ffffffffffffffffffffffffffffffffffffffff1614610b9e576040517f08c379a0000000000000000000000000000000000000000000000000000000008152600401610b9590611d3c565b60405180910390fd5b6001543414610be2576040517f08c379a0000000000000000000000000000000000000000000000000000000008152600401610bd990611ddc565b60405180910390fd5b60016002600085815260200190815260200160002060006101000a81548160ff0219169083151502179055508160036000858152602001908152602001600020819055507f5cedb4b4e9d21f2b6ae92d858fd47c1f6ef4af540c48aea4cccc861bdfbffb69836003600086815260200190815260200160002054604051610c6a929190611e60565b60405180910390a1505050565b60026020528060005260406000206000915054906101000a900460ff1681565b8073ffffffffffffffffffffffffffffffffffffffff16636352211e836040518263ffffffff1660e01b8152600401610cd09190611e1c565b60206040518083038186803b158015610ce857600080fd5b505afa158015610cfc573d6000803e3d6000fd5b505050506040513d601f19601f82011682018060405250810190610d20919061185b565b73ffffffffffffffffffffffffffffffffffffffff163373ffffffffffffffffffffffffffffffffffffffff1614610d8d576040517f08c379a0000000000000000000000000000000000000000000000000000000008152600401610d8490611d3c565b60405180910390fd5b600115156002600084815260200190815260200160002060009054906101000a900460ff16151514610df4576040517f08c379a0000000000000000000000000000000000000000000000000000000008152600401610deb90611cdc565b60405180910390fd5b60006002600084815260200190815260200160002060006101000a81548160ff021916908315150217905550600060036000848152602001908152602001600020819055507fa5a50019386103d06e1a716ed5398f455d38288e801607ee55320507043468e582604051610e689190611e1c565b60405180910390a15050565b8073ffffffffffffffffffffffffffffffffffffffff16636352211e846040518263ffffffff1660e01b8152600401610ead9190611e1c565b60206040518083038186803b158015610ec557600080fd5b505afa158015610ed9573d6000803e3d6000fd5b505050506040513d601f19601f82011682018060405250810190610efd919061185b565b73ffffffffffffffffffffffffffffffffffffffff163373ffffffffffffffffffffffffffffffffffffffff161415610f6b576040517f08c379a0000000000000000000000000000000000000000000000000000000008152600401610f6290611d5c565b60405180910390fd5b813414610fad576040517f08c379a0000000000000000000000000000000000000000000000000000000008152600401610fa490611d7c565b60405180910390fd5b600080815480929190610fbf90611f1b565b91905055506004600084815260200190815260200160002060005490806001815401808255809150506001900390600052602060002001600090919091909150558160056000805481526020019081526020016000208190555033600660008054815260200190815260200160002060006101000a81548173ffffffffffffffffffffffffffffffffffffffff021916908373ffffffffffffffffffffffffffffffffffffffff1602179055506001600760008054815260200190815260200160002060006101000a81548160ff0219169083151502179055507fa804d23695e6c56bb2b898c77e1f65a24131c2aac85e2d4dbd697a1b8f2983f183836040516110ca929190611e60565b60405180910390a1505050565b60015481565b60606004600083815260200190815260200160002080548060200260200160405190810160405280929190818152602001828054801561113c57602002820191906000526020600020905b815481526020019060010190808311611128575b50505050509050919050565b60056020528060005260406000206000915090505481565b60076020528060005260406000206000915054906101000a900460ff1681565b6000600360008481526020019081526020016000205490506002600084815260200190815260200160002060009054906101000a900460ff166111f8576040517f08c379a00000000000000000000000000000000000000000000000000000000081526004016111ef90611cbc565b60405180910390fd5b80341461123a576040517f08c379a000000000000000000000000000000000000000000000000000000000815260040161123190611dfc565b60405180910390fd5b8173ffffffffffffffffffffffffffffffffffffffff16636352211e846040518263ffffffff1660e01b81526004016112739190611e1c565b60206040518083038186803b15801561128b57600080fd5b505afa15801561129f573d6000803e3d6000fd5b505050506040513d601f19601f820116820180604052508101906112c3919061185b565b73ffffffffffffffffffffffffffffffffffffffff163373ffffffffffffffffffffffffffffffffffffffff161415611331576040517f08c379a000000000000000000000000000000000000000000000000000000000815260040161132890611cfc565b60405180910390fd5b8173ffffffffffffffffffffffffffffffffffffffff16636352211e846040518263ffffffff1660e01b815260040161136a9190611e1c565b60206040518083038186803b15801561138257600080fd5b505afa158015611396573d6000803e3d6000fd5b505050506040513d601f19601f820116820180604052508101906113ba919061185b565b73ffffffffffffffffffffffffffffffffffffffff166108fc349081150290604051600060405180830381858888f193505050501580156113ff573d6000803e3d6000fd5b5061140b8333846116df565b60006002600085815260200190815260200160002060006101000a81548160ff021916908315150217905550600060036000858152602001908152602001600020819055507ff0b3c9b1f0b20104eaa0188304d1a1561775a07e1c058447f0ac560ea1212eda8333604051611481929190611e37565b60405180910390a1505050565b600115156002600085815260200190815260200160002060009054906101000a900460ff161515146114f5576040517f08c379a00000000000000000000000000000000000000000000000000000000081526004016114ec90611cdc565b60405180910390fd5b6003600084815260200190815260200160002054821061154a576040517f08c379a000000000000000000000000000000000000000000000000000000000815260040161154190611dbc565b60405180910390fd5b8073ffffffffffffffffffffffffffffffffffffffff16636352211e846040518263ffffffff1660e01b81526004016115839190611e1c565b60206040518083038186803b15801561159b57600080fd5b505afa1580156115af573d6000803e3d6000fd5b505050506040513d601f19601f820116820180604052508101906115d3919061185b565b73ffffffffffffffffffffffffffffffffffffffff163373ffffffffffffffffffffffffffffffffffffffff1614611640576040517f08c379a000000000000000000000000000000000000000000000000000000000815260040161163790611d1c565b60405180910390fd5b8160036000858152602001908152602001600020819055507f25a53b4765f33963a2b56848068188a323acb28e46d6194203c835e5883f4ea38383604051611689929190611e60565b60405180910390a1505050565b600460205281600052604060002081815481106116b257600080fd5b90600052602060002001600091509150505481565b60036020528060005260406000206000915090505481565b60008173ffffffffffffffffffffffffffffffffffffffff16636352211e856040518263ffffffff1660e01b815260040161171a9190611e1c565b60206040518083038186803b15801561173257600080fd5b505afa158015611746573d6000803e3d6000fd5b505050506040513d601f19601f8201168201806040525081019061176a919061185b565b90508173ffffffffffffffffffffffffffffffffffffffff166323b872dd8285876040518463ffffffff1660e01b81526004016117a993929190611c08565b600060405180830381600087803b1580156117c357600080fd5b505af11580156117d7573d6000803e3d6000fd5b505050507fa64cdec004d2859ac7547f4ed3252f53d0fa0b8dcbcc93a47894eee072714b6281848660405161180e93929190611c08565b60405180910390a150505050565b60008135905061182b81612324565b92915050565b60008151905061184081612324565b92915050565b6000813590506118558161233b565b92915050565b60006020828403121561186d57600080fd5b600061187b84828501611831565b91505092915050565b60006020828403121561189657600080fd5b60006118a484828501611846565b91505092915050565b600080604083850312156118c057600080fd5b60006118ce85828601611846565b92505060206118df8582860161181c565b9150509250929050565b600080604083850312156118fc57600080fd5b600061190a85828601611846565b925050602061191b85828601611846565b9150509250929050565b60008060006060848603121561193a57600080fd5b600061194886828701611846565b935050602061195986828701611846565b925050604061196a8682870161181c565b9150509250925092565b60006119808383611bcf565b60208301905092915050565b61199581611ed3565b82525050565b60006119a682611e99565b6119b08185611eb1565b93506119bb83611e89565b8060005b838110156119ec5781516119d38882611974565b97506119de83611ea4565b9250506001810190506119bf565b5085935050505092915050565b611a0281611ee5565b82525050565b6000611a15603083611ec2565b9150611a2082611f93565b604082019050919050565b6000611a38602e83611ec2565b9150611a4382611fe2565b604082019050919050565b6000611a5b602d83611ec2565b9150611a6682612031565b604082019050919050565b6000611a7e602283611ec2565b9150611a8982612080565b604082019050919050565b6000611aa1602683611ec2565b9150611aac826120cf565b604082019050919050565b6000611ac4602683611ec2565b9150611acf8261211e565b604082019050919050565b6000611ae7602883611ec2565b9150611af28261216d565b604082019050919050565b6000611b0a601883611ec2565b9150611b15826121bc565b602082019050919050565b6000611b2d602983611ec2565b9150611b38826121e5565b604082019050919050565b6000611b50601f83611ec2565b9150611b5b82612234565b602082019050919050565b6000611b73602c83611ec2565b9150611b7e8261225d565b604082019050919050565b6000611b96602183611ec2565b9150611ba1826122ac565b604082019050919050565b6000611bb9601983611ec2565b9150611bc4826122fb565b602082019050919050565b611bd881611f11565b82525050565b611be781611f11565b82525050565b6000602082019050611c02600083018461198c565b92915050565b6000606082019050611c1d600083018661198c565b611c2a602083018561198c565b611c376040830184611bde565b949350505050565b60006020820190508181036000830152611c59818461199b565b905092915050565b6000602082019050611c7660008301846119f9565b92915050565b60006020820190508181036000830152611c9581611a08565b9050919050565b60006020820190508181036000830152611cb581611a2b565b9050919050565b60006020820190508181036000830152611cd581611a4e565b9050919050565b60006020820190508181036000830152611cf581611a71565b9050919050565b60006020820190508181036000830152611d1581611a94565b9050919050565b60006020820190508181036000830152611d3581611ab7565b9050919050565b60006020820190508181036000830152611d5581611ada565b9050919050565b60006020820190508181036000830152611d7581611afd565b9050919050565b60006020820190508181036000830152611d9581611b20565b9050919050565b60006020820190508181036000830152611db581611b43565b9050919050565b60006020820190508181036000830152611dd581611b66565b9050919050565b60006020820190508181036000830152611df581611b89565b9050919050565b60006020820190508181036000830152611e1581611bac565b9050919050565b6000602082019050611e316000830184611bde565b92915050565b6000604082019050611e4c6000830185611bde565b611e59602083018461198c565b9392505050565b6000604082019050611e756000830185611bde565b611e826020830184611bde565b9392505050565b6000819050602082019050919050565b600081519050919050565b6000602082019050919050565b600082825260208201905092915050565b600082825260208201905092915050565b6000611ede82611ef1565b9050919050565b60008115159050919050565b600073ffffffffffffffffffffffffffffffffffffffff82169050919050565b6000819050919050565b6000611f2682611f11565b91507fffffffffffffffffffffffffffffffffffffffffffffffffffffffffffffffff821415611f5957611f58611f64565b5b600182019050919050565b7f4e487b7100000000000000000000000000000000000000000000000000000000600052601160045260246000fd5b7f556e617574686f72697a656420706572736f6e20747279696e6720746f20636160008201527f6e63656c20746865206c697374696e6700000000000000000000000000000000602082015250565b7f4f776e65722063616e6e6f742063616e63656c206c697374696e67206f66207360008201527f6f6d656f6e652773206f66666572000000000000000000000000000000000000602082015250565b7f43616e6e6f7420627579204e46547320776869636820617265206e6f74206c6960008201527f7374656420666f722073616c6500000000000000000000000000000000000000602082015250565b7f546865206974656d2073686f756c64206265206c697374656420666f7220736160008201527f6c65000000000000000000000000000000000000000000000000000000000000602082015250565b7f46756e6374696f6e2063616e6e6f742062652063616c6c65642062792074686560008201527f204f776e65720000000000000000000000000000000000000000000000000000602082015250565b7f546865207072696365206f6e6c79206265206c6f77657265642062792074686560008201527f206f776e65720000000000000000000000000000000000000000000000000000602082015250565b7f46756e6374696f6e2063616e206f6e6c792062652063616c6c6564206279207460008201527f6865206f776e6572000000000000000000000000000000000000000000000000602082015250565b7f4f776e65722063616e6e6f74206d616b65206f66666572730000000000000000600082015250565b7f4d7573742070617920746865206f66666572207072696365206d656e74696f6e60008201527f656420627920796f750000000000000000000000000000000000000000000000602082015250565b7f4f6e6c79206f776e65722063616e2061636365707420746865206f6666657200600082015250565b7f50726963652073686f756c64206265206c6f776572207468616e20746865206360008201527f757272656e742070726963650000000000000000000000000000000000000000602082015250565b7f4d7573742070617920746865207265717569726564204c697374696e6720466560008201527f6500000000000000000000000000000000000000000000000000000000000000602082015250565b7f4d7573742070617920746865206c697374656420707269636500000000000000600082015250565b61232d81611ed3565b811461233857600080fd5b50565b61234481611f11565b811461234f57600080fd5b5056fea2646970667358221220122bd85604f7246a8fa167bfdffb4890b93cb714ad6a3b283d5e484045cf8ff564736f6c63430008040033",
  "linkReferences": {},
  "deployedLinkReferences": {}
}