{
  "_format": "hh-sol-artifact-1",
  "contractName": "CoreCollection",
  "sourceName": "contracts/CoreCollection.sol",
  "abi": [
    {
      "inputs": [],
      "stateMutability": "nonpayable",
      "type": "constructor"
    },
    {
      "anonymous": false,
      "inputs": [
        {
          "indexed": true,
          "internalType": "address",
          "name": "owner",
          "type": "address"
        },
        {
          "indexed": true,
          "internalType": "address",
          "name": "approved",
          "type": "address"
        },
        {
          "indexed": true,
          "internalType": "uint256",
          "name": "tokenId",
          "type": "uint256"
        }
      ],
      "name": "Approval",
      "type": "event"
    },
    {
      "anonymous": false,
      "inputs": [
        {
          "indexed": true,
          "internalType": "address",
          "name": "owner",
          "type": "address"
        },
        {
          "indexed": true,
          "internalType": "address",
          "name": "operator",
          "type": "address"
        },
        {
          "indexed": false,
          "internalType": "bool",
          "name": "approved",
          "type": "bool"
        }
      ],
      "name": "ApprovalForAll",
      "type": "event"
    },
    {
      "anonymous": false,
      "inputs": [
        {
          "indexed": true,
          "internalType": "address",
          "name": "from",
          "type": "address"
        },
        {
          "indexed": true,
          "internalType": "address",
          "name": "to",
          "type": "address"
        },
        {
          "indexed": true,
          "internalType": "uint256",
          "name": "tokenId",
          "type": "uint256"
        }
      ],
      "name": "Transfer",
      "type": "event"
    },
    {
      "anonymous": false,
      "inputs": [
        {
          "indexed": false,
          "internalType": "string",
          "name": "_name",
          "type": "string"
        },
        {
          "indexed": false,
          "internalType": "uint256",
          "name": "_collectionId",
          "type": "uint256"
        }
      ],
      "name": "collectionCreated",
      "type": "event"
    },
    {
      "anonymous": false,
      "inputs": [
        {
          "indexed": false,
          "internalType": "uint256",
          "name": "_newItemId",
          "type": "uint256"
        },
        {
          "indexed": false,
          "internalType": "string",
          "name": "_tokenURI",
          "type": "string"
        }
      ],
      "name": "tokenCreated",
      "type": "event"
    },
    {
      "inputs": [
        {
          "internalType": "address",
          "name": "to",
          "type": "address"
        },
        {
          "internalType": "uint256",
          "name": "tokenId",
          "type": "uint256"
        }
      ],
      "name": "approve",
      "outputs": [],
      "stateMutability": "nonpayable",
      "type": "function"
    },
    {
      "inputs": [
        {
          "internalType": "address",
          "name": "owner",
          "type": "address"
        }
      ],
      "name": "balanceOf",
      "outputs": [
        {
          "internalType": "uint256",
          "name": "",
          "type": "uint256"
        }
      ],
      "stateMutability": "view",
      "type": "function"
    },
    {
      "inputs": [
        {
          "internalType": "uint256",
          "name": "",
          "type": "uint256"
        }
      ],
      "name": "collectionIdToUser",
      "outputs": [
        {
          "internalType": "address",
          "name": "",
          "type": "address"
        }
      ],
      "stateMutability": "view",
      "type": "function"
    },
    {
      "inputs": [
        {
          "internalType": "uint256",
          "name": "",
          "type": "uint256"
        }
      ],
      "name": "collections",
      "outputs": [
        {
          "internalType": "uint256",
          "name": "collectionId",
          "type": "uint256"
        },
        {
          "internalType": "string",
          "name": "name",
          "type": "string"
        },
        {
          "internalType": "address",
          "name": "creator",
          "type": "address"
        }
      ],
      "stateMutability": "view",
      "type": "function"
    },
    {
      "inputs": [
        {
          "internalType": "string",
          "name": "_name",
          "type": "string"
        }
      ],
      "name": "createCollection",
      "outputs": [],
      "stateMutability": "nonpayable",
      "type": "function"
    },
    {
      "inputs": [
        {
          "internalType": "string",
          "name": "_tokenURI",
          "type": "string"
        },
        {
          "internalType": "uint256",
          "name": "_collectionId",
          "type": "uint256"
        }
      ],
      "name": "createToken",
      "outputs": [],
      "stateMutability": "nonpayable",
      "type": "function"
    },
    {
      "inputs": [
        {
          "internalType": "uint256",
          "name": "tokenId",
          "type": "uint256"
        }
      ],
      "name": "getApproved",
      "outputs": [
        {
          "internalType": "address",
          "name": "",
          "type": "address"
        }
      ],
      "stateMutability": "view",
      "type": "function"
    },
    {
      "inputs": [
        {
          "internalType": "address",
          "name": "owner",
          "type": "address"
        },
        {
          "internalType": "address",
          "name": "operator",
          "type": "address"
        }
      ],
      "name": "isApprovedForAll",
      "outputs": [
        {
          "internalType": "bool",
          "name": "",
          "type": "bool"
        }
      ],
      "stateMutability": "view",
      "type": "function"
    },
    {
      "inputs": [],
      "name": "name",
      "outputs": [
        {
          "internalType": "string",
          "name": "",
          "type": "string"
        }
      ],
      "stateMutability": "view",
      "type": "function"
    },
    {
      "inputs": [
        {
          "internalType": "uint256",
          "name": "tokenId",
          "type": "uint256"
        }
      ],
      "name": "ownerOf",
      "outputs": [
        {
          "internalType": "address",
          "name": "",
          "type": "address"
        }
      ],
      "stateMutability": "view",
      "type": "function"
    },
    {
      "inputs": [
        {
          "internalType": "address",
          "name": "from",
          "type": "address"
        },
        {
          "internalType": "address",
          "name": "to",
          "type": "address"
        },
        {
          "internalType": "uint256",
          "name": "tokenId",
          "type": "uint256"
        }
      ],
      "name": "safeTransferFrom",
      "outputs": [],
      "stateMutability": "nonpayable",
      "type": "function"
    },
    {
      "inputs": [
        {
          "internalType": "address",
          "name": "from",
          "type": "address"
        },
        {
          "internalType": "address",
          "name": "to",
          "type": "address"
        },
        {
          "internalType": "uint256",
          "name": "tokenId",
          "type": "uint256"
        },
        {
          "internalType": "bytes",
          "name": "_data",
          "type": "bytes"
        }
      ],
      "name": "safeTransferFrom",
      "outputs": [],
      "stateMutability": "nonpayable",
      "type": "function"
    },
    {
      "inputs": [
        {
          "internalType": "address",
          "name": "operator",
          "type": "address"
        },
        {
          "internalType": "bool",
          "name": "approved",
          "type": "bool"
        }
      ],
      "name": "setApprovalForAll",
      "outputs": [],
      "stateMutability": "nonpayable",
      "type": "function"
    },
    {
      "inputs": [
        {
          "internalType": "bytes4",
          "name": "interfaceId",
          "type": "bytes4"
        }
      ],
      "name": "supportsInterface",
      "outputs": [
        {
          "internalType": "bool",
          "name": "",
          "type": "bool"
        }
      ],
      "stateMutability": "view",
      "type": "function"
    },
    {
      "inputs": [],
      "name": "symbol",
      "outputs": [
        {
          "internalType": "string",
          "name": "",
          "type": "string"
        }
      ],
      "stateMutability": "view",
      "type": "function"
    },
    {
      "inputs": [
        {
          "internalType": "uint256",
          "name": "tokenId",
          "type": "uint256"
        }
      ],
      "name": "tokenURI",
      "outputs": [
        {
          "internalType": "string",
          "name": "",
          "type": "string"
        }
      ],
      "stateMutability": "view",
      "type": "function"
    },
    {
      "inputs": [
        {
          "internalType": "address",
          "name": "from",
          "type": "address"
        },
        {
          "internalType": "address",
          "name": "to",
          "type": "address"
        },
        {
          "internalType": "uint256",
          "name": "tokenId",
          "type": "uint256"
        }
      ],
      "name": "transferFrom",
      "outputs": [],
      "stateMutability": "nonpayable",
      "type": "function"
    },
    {
      "inputs": [
        {
          "internalType": "address",
          "name": "",
          "type": "address"
        },
        {
          "internalType": "uint256",
          "name": "",
          "type": "uint256"
        }
      ],
      "name": "userToCollectionIds",
      "outputs": [
        {
          "internalType": "uint256",
          "name": "",
          "type": "uint256"
        }
      ],
      "stateMutability": "view",
      "type": "function"
    }
  ],
  "bytecode": "0x60806040523480156200001157600080fd5b506040518060400160405280600581526020017f4f617369730000000000000000000000000000000000000000000000000000008152506040518060400160405280600281526020017f4f43000000000000000000000000000000000000000000000000000000000000815250816000908051906020019062000096929190620000b8565b508060019080519060200190620000af929190620000b8565b505050620001cd565b828054620000c69062000168565b90600052602060002090601f016020900481019282620000ea576000855562000136565b82601f106200010557805160ff191683800117855562000136565b8280016001018555821562000136579182015b828111156200013557825182559160200191906001019062000118565b5b50905062000145919062000149565b5090565b5b80821115620001645760008160009055506001016200014a565b5090565b600060028204905060018216806200018157607f821691505b602082108114156200019857620001976200019e565b5b50919050565b7f4e487b7100000000000000000000000000000000000000000000000000000000600052602260045260246000fd5b6131f080620001dd6000396000f3fe608060405234801561001057600080fd5b50600436106101165760003560e01c806372b3b620116100a2578063b88d4fde11610071578063b88d4fde146102ef578063bd0be6951461030b578063c87b56dd1461033b578063e985e9c51461036b578063fdbda0ec1461039b57610116565b806372b3b620146102695780637863365f1461028557806395d89b41146102b5578063a22cb465146102d357610116565b8063095ea7b3116100e9578063095ea7b3146101b557806323b872dd146101d157806342842e0e146101ed5780636352211e1461020957806370a082311461023957610116565b806301ffc9a71461011b578063059dfe131461014b57806306fdde0314610167578063081812fc14610185575b600080fd5b6101356004803603810190610130919061216a565b6103cd565b6040516101429190612605565b60405180910390f35b610165600480360381019061016091906121bc565b6104af565b005b61016f61070a565b60405161017c9190612620565b60405180910390f35b61019f600480360381019061019a9190612251565b61079c565b6040516101ac919061259e565b60405180910390f35b6101cf60048036038101906101ca919061212e565b610821565b005b6101eb60048036038101906101e69190612028565b610939565b005b61020760048036038101906102029190612028565b610999565b005b610223600480360381019061021e9190612251565b6109b9565b604051610230919061259e565b60405180910390f35b610253600480360381019061024e9190611fc3565b610a6b565b6040516102609190612872565b60405180910390f35b610283600480360381019061027e91906121fd565b610b23565b005b61029f600480360381019061029a919061212e565b610c52565b6040516102ac9190612872565b60405180910390f35b6102bd610c83565b6040516102ca9190612620565b60405180910390f35b6102ed60048036038101906102e891906120f2565b610d15565b005b61030960048036038101906103049190612077565b610d2b565b005b61032560048036038101906103209190612251565b610d8d565b604051610332919061259e565b60405180910390f35b61035560048036038101906103509190612251565b610dc0565b6040516103629190612620565b60405180910390f35b61038560048036038101906103809190611fec565b610f12565b6040516103929190612605565b60405180910390f35b6103b560048036038101906103b09190612251565b610fa6565b6040516103c4939291906128bd565b60405180910390f35b60007f80ac58cd000000000000000000000000000000000000000000000000000000007bffffffffffffffffffffffffffffffffffffffffffffffffffffffff1916827bffffffffffffffffffffffffffffffffffffffffffffffffffffffff1916148061049857507f5b5e139f000000000000000000000000000000000000000000000000000000007bffffffffffffffffffffffffffffffffffffffffffffffffffffffff1916827bffffffffffffffffffffffffffffffffffffffffffffffffffffffff1916145b806104a857506104a782611078565b5b9050919050565b600860008154809291906104c290612b99565b91905055506000600854905060405180608001604052808281526020018381526020013373ffffffffffffffffffffffffffffffffffffffff168152602001600067ffffffffffffffff811115610542577f4e487b7100000000000000000000000000000000000000000000000000000000600052604160045260246000fd5b6040519080825280602002602001820160405280156105705781602001602082028036833780820191505090505b50815250600960008381526020019081526020016000206000820151816000015560208201518160010190805190602001906105ad929190611d9a565b5060408201518160020160006101000a81548173ffffffffffffffffffffffffffffffffffffffff021916908373ffffffffffffffffffffffffffffffffffffffff1602179055506060820151816003019080519060200190610611929190611e20565b5090505033600a600083815260200190815260200160002060006101000a81548173ffffffffffffffffffffffffffffffffffffffff021916908373ffffffffffffffffffffffffffffffffffffffff160217905550600b60003373ffffffffffffffffffffffffffffffffffffffff1673ffffffffffffffffffffffffffffffffffffffff1681526020019081526020016000208190806001815401808255809150506001900390600052602060002001600090919091909150557f90242f5a393a7ff2d66ea9f40c0e13a1b5398078c43cf3fc66b2d321ed57410482826040516106fe929190612642565b60405180910390a15050565b60606000805461071990612b36565b80601f016020809104026020016040519081016040528092919081815260200182805461074590612b36565b80156107925780601f1061076757610100808354040283529160200191610792565b820191906000526020600020905b81548152906001019060200180831161077557829003601f168201915b5050505050905090565b60006107a7826110e2565b6107e6576040517f08c379a00000000000000000000000000000000000000000000000000000000081526004016107dd906127f2565b60405180910390fd5b6004600083815260200190815260200160002060009054906101000a900473ffffffffffffffffffffffffffffffffffffffff169050919050565b600061082c826109b9565b90508073ffffffffffffffffffffffffffffffffffffffff168373ffffffffffffffffffffffffffffffffffffffff16141561089d576040517f08c379a000000000000000000000000000000000000000000000000000000000815260040161089490612832565b60405180910390fd5b8073ffffffffffffffffffffffffffffffffffffffff166108bc61114e565b73ffffffffffffffffffffffffffffffffffffffff1614806108eb57506108ea816108e561114e565b610f12565b5b61092a576040517f08c379a000000000000000000000000000000000000000000000000000000000815260040161092190612732565b60405180910390fd5b6109348383611156565b505050565b61094a61094461114e565b8261120f565b610989576040517f08c379a000000000000000000000000000000000000000000000000000000000815260040161098090612852565b60405180910390fd5b6109948383836112ed565b505050565b6109b483838360405180602001604052806000815250610d2b565b505050565b6000806002600084815260200190815260200160002060009054906101000a900473ffffffffffffffffffffffffffffffffffffffff169050600073ffffffffffffffffffffffffffffffffffffffff168173ffffffffffffffffffffffffffffffffffffffff161415610a62576040517f08c379a0000000000000000000000000000000000000000000000000000000008152600401610a5990612772565b60405180910390fd5b80915050919050565b60008073ffffffffffffffffffffffffffffffffffffffff168273ffffffffffffffffffffffffffffffffffffffff161415610adc576040517f08c379a0000000000000000000000000000000000000000000000000000000008152600401610ad390612752565b60405180910390fd5b600360008373ffffffffffffffffffffffffffffffffffffffff1673ffffffffffffffffffffffffffffffffffffffff168152602001908152602001600020549050919050565b60076000815480929190610b3690612b99565b919050555060006007549050610b4c3382611554565b610b56818461172e565b60096000600b60003373ffffffffffffffffffffffffffffffffffffffff1673ffffffffffffffffffffffffffffffffffffffff1681526020019081526020016000208481548110610bd1577f4e487b7100000000000000000000000000000000000000000000000000000000600052603260045260246000fd5b906000526020600020015481526020019081526020016000206003018190806001815401808255809150506001900390600052602060002001600090919091909150557f5331e138388752e18e94f91b33da00f055896a339faa7c178291b63e10cc45998184604051610c4592919061288d565b60405180910390a1505050565b600b6020528160005260406000208181548110610c6e57600080fd5b90600052602060002001600091509150505481565b606060018054610c9290612b36565b80601f0160208091040260200160405190810160405280929190818152602001828054610cbe90612b36565b8015610d0b5780601f10610ce057610100808354040283529160200191610d0b565b820191906000526020600020905b815481529060010190602001808311610cee57829003601f168201915b5050505050905090565b610d27610d2061114e565b83836117a2565b5050565b610d3c610d3661114e565b8361120f565b610d7b576040517f08c379a0000000000000000000000000000000000000000000000000000000008152600401610d7290612852565b60405180910390fd5b610d878484848461190f565b50505050565b600a6020528060005260406000206000915054906101000a900473ffffffffffffffffffffffffffffffffffffffff1681565b6060610dcb826110e2565b610e0a576040517f08c379a0000000000000000000000000000000000000000000000000000000008152600401610e01906127d2565b60405180910390fd5b6000600660008481526020019081526020016000208054610e2a90612b36565b80601f0160208091040260200160405190810160405280929190818152602001828054610e5690612b36565b8015610ea35780601f10610e7857610100808354040283529160200191610ea3565b820191906000526020600020905b815481529060010190602001808311610e8657829003601f168201915b505050505090506000610eb461196b565b9050600081511415610eca578192505050610f0d565b600082511115610eff578082604051602001610ee792919061257a565b60405160208183030381529060405292505050610f0d565b610f0884611982565b925050505b919050565b6000600560008473ffffffffffffffffffffffffffffffffffffffff1673ffffffffffffffffffffffffffffffffffffffff16815260200190815260200160002060008373ffffffffffffffffffffffffffffffffffffffff1673ffffffffffffffffffffffffffffffffffffffff16815260200190815260200160002060009054906101000a900460ff16905092915050565b6009602052806000526040600020600091509050806000015490806001018054610fcf90612b36565b80601f0160208091040260200160405190810160405280929190818152602001828054610ffb90612b36565b80156110485780601f1061101d57610100808354040283529160200191611048565b820191906000526020600020905b81548152906001019060200180831161102b57829003601f168201915b5050505050908060020160009054906101000a900473ffffffffffffffffffffffffffffffffffffffff16905083565b60007f01ffc9a7000000000000000000000000000000000000000000000000000000007bffffffffffffffffffffffffffffffffffffffffffffffffffffffff1916827bffffffffffffffffffffffffffffffffffffffffffffffffffffffff1916149050919050565b60008073ffffffffffffffffffffffffffffffffffffffff166002600084815260200190815260200160002060009054906101000a900473ffffffffffffffffffffffffffffffffffffffff1673ffffffffffffffffffffffffffffffffffffffff1614159050919050565b600033905090565b816004600083815260200190815260200160002060006101000a81548173ffffffffffffffffffffffffffffffffffffffff021916908373ffffffffffffffffffffffffffffffffffffffff160217905550808273ffffffffffffffffffffffffffffffffffffffff166111c9836109b9565b73ffffffffffffffffffffffffffffffffffffffff167f8c5be1e5ebec7d5bd14f71427d1e84f3dd0314c0f7b2291e5b200ac8c7c3b92560405160405180910390a45050565b600061121a826110e2565b611259576040517f08c379a000000000000000000000000000000000000000000000000000000000815260040161125090612712565b60405180910390fd5b6000611264836109b9565b90508073ffffffffffffffffffffffffffffffffffffffff168473ffffffffffffffffffffffffffffffffffffffff1614806112d357508373ffffffffffffffffffffffffffffffffffffffff166112bb8461079c565b73ffffffffffffffffffffffffffffffffffffffff16145b806112e457506112e38185610f12565b5b91505092915050565b8273ffffffffffffffffffffffffffffffffffffffff1661130d826109b9565b73ffffffffffffffffffffffffffffffffffffffff1614611363576040517f08c379a000000000000000000000000000000000000000000000000000000000815260040161135a90612692565b60405180910390fd5b600073ffffffffffffffffffffffffffffffffffffffff168273ffffffffffffffffffffffffffffffffffffffff1614156113d3576040517f08c379a00000000000000000000000000000000000000000000000000000000081526004016113ca906126d2565b60405180910390fd5b6113de838383611a29565b6113e9600082611156565b6001600360008573ffffffffffffffffffffffffffffffffffffffff1673ffffffffffffffffffffffffffffffffffffffff16815260200190815260200160002060008282546114399190612a4c565b925050819055506001600360008473ffffffffffffffffffffffffffffffffffffffff1673ffffffffffffffffffffffffffffffffffffffff168152602001908152602001600020600082825461149091906129c5565b92505081905550816002600083815260200190815260200160002060006101000a81548173ffffffffffffffffffffffffffffffffffffffff021916908373ffffffffffffffffffffffffffffffffffffffff160217905550808273ffffffffffffffffffffffffffffffffffffffff168473ffffffffffffffffffffffffffffffffffffffff167fddf252ad1be2c89b69c2b068fc378daa952ba7f163c4a11628f55a4df523b3ef60405160405180910390a461154f838383611a2e565b505050565b600073ffffffffffffffffffffffffffffffffffffffff168273ffffffffffffffffffffffffffffffffffffffff1614156115c4576040517f08c379a00000000000000000000000000000000000000000000000000000000081526004016115bb906127b2565b60405180910390fd5b6115cd816110e2565b1561160d576040517f08c379a0000000000000000000000000000000000000000000000000000000008152600401611604906126b2565b60405180910390fd5b61161960008383611a29565b6001600360008473ffffffffffffffffffffffffffffffffffffffff1673ffffffffffffffffffffffffffffffffffffffff168152602001908152602001600020600082825461166991906129c5565b92505081905550816002600083815260200190815260200160002060006101000a81548173ffffffffffffffffffffffffffffffffffffffff021916908373ffffffffffffffffffffffffffffffffffffffff160217905550808273ffffffffffffffffffffffffffffffffffffffff16600073ffffffffffffffffffffffffffffffffffffffff167fddf252ad1be2c89b69c2b068fc378daa952ba7f163c4a11628f55a4df523b3ef60405160405180910390a461172a60008383611a2e565b5050565b611737826110e2565b611776576040517f08c379a000000000000000000000000000000000000000000000000000000000815260040161176d90612792565b60405180910390fd5b8060066000848152602001908152602001600020908051906020019061179d929190611d9a565b505050565b8173ffffffffffffffffffffffffffffffffffffffff168373ffffffffffffffffffffffffffffffffffffffff161415611811576040517f08c379a0000000000000000000000000000000000000000000000000000000008152600401611808906126f2565b60405180910390fd5b80600560008573ffffffffffffffffffffffffffffffffffffffff1673ffffffffffffffffffffffffffffffffffffffff16815260200190815260200160002060008473ffffffffffffffffffffffffffffffffffffffff1673ffffffffffffffffffffffffffffffffffffffff16815260200190815260200160002060006101000a81548160ff0219169083151502179055508173ffffffffffffffffffffffffffffffffffffffff168373ffffffffffffffffffffffffffffffffffffffff167f17307eab39ab6107e8899845ad3d59bd9653f200f220920489ca2b5937696c31836040516119029190612605565b60405180910390a3505050565b61191a8484846112ed565b61192684848484611a33565b611965576040517f08c379a000000000000000000000000000000000000000000000000000000000815260040161195c90612672565b60405180910390fd5b50505050565b606060405180602001604052806000815250905090565b606061198d826110e2565b6119cc576040517f08c379a00000000000000000000000000000000000000000000000000000000081526004016119c390612812565b60405180910390fd5b60006119d661196b565b905060008151116119f65760405180602001604052806000815250611a21565b80611a0084611bca565b604051602001611a1192919061257a565b6040516020818303038152906040525b915050919050565b505050565b505050565b6000611a548473ffffffffffffffffffffffffffffffffffffffff16611d77565b15611bbd578373ffffffffffffffffffffffffffffffffffffffff1663150b7a02611a7d61114e565b8786866040518563ffffffff1660e01b8152600401611a9f94939291906125b9565b602060405180830381600087803b158015611ab957600080fd5b505af1925050508015611aea57506040513d601f19601f82011682018060405250810190611ae79190612193565b60015b611b6d573d8060008114611b1a576040519150601f19603f3d011682016040523d82523d6000602084013e611b1f565b606091505b50600081511415611b65576040517f08c379a0000000000000000000000000000000000000000000000000000000008152600401611b5c90612672565b60405180910390fd5b805181602001fd5b63150b7a0260e01b7bffffffffffffffffffffffffffffffffffffffffffffffffffffffff1916817bffffffffffffffffffffffffffffffffffffffffffffffffffffffff191614915050611bc2565b600190505b949350505050565b60606000821415611c12576040518060400160405280600181526020017f30000000000000000000000000000000000000000000000000000000000000008152509050611d72565b600082905060005b60008214611c44578080611c2d90612b99565b915050600a82611c3d9190612a1b565b9150611c1a565b60008167ffffffffffffffff811115611c86577f4e487b7100000000000000000000000000000000000000000000000000000000600052604160045260246000fd5b6040519080825280601f01601f191660200182016040528015611cb85781602001600182028036833780820191505090505b5090505b60008514611d6b57600182611cd19190612a4c565b9150600a85611ce09190612be2565b6030611cec91906129c5565b60f81b818381518110611d28577f4e487b7100000000000000000000000000000000000000000000000000000000600052603260045260246000fd5b60200101907effffffffffffffffffffffffffffffffffffffffffffffffffffffffffffff1916908160001a905350600a85611d649190612a1b565b9450611cbc565b8093505050505b919050565b6000808273ffffffffffffffffffffffffffffffffffffffff163b119050919050565b828054611da690612b36565b90600052602060002090601f016020900481019282611dc85760008555611e0f565b82601f10611de157805160ff1916838001178555611e0f565b82800160010185558215611e0f579182015b82811115611e0e578251825591602001919060010190611df3565b5b509050611e1c9190611e6d565b5090565b828054828255906000526020600020908101928215611e5c579160200282015b82811115611e5b578251825591602001919060010190611e40565b5b509050611e699190611e6d565b5090565b5b80821115611e86576000816000905550600101611e6e565b5090565b6000611e9d611e9884612920565b6128fb565b905082815260208101848484011115611eb557600080fd5b611ec0848285612af4565b509392505050565b6000611edb611ed684612951565b6128fb565b905082815260208101848484011115611ef357600080fd5b611efe848285612af4565b509392505050565b600081359050611f158161315e565b92915050565b600081359050611f2a81613175565b92915050565b600081359050611f3f8161318c565b92915050565b600081519050611f548161318c565b92915050565b600082601f830112611f6b57600080fd5b8135611f7b848260208601611e8a565b91505092915050565b600082601f830112611f9557600080fd5b8135611fa5848260208601611ec8565b91505092915050565b600081359050611fbd816131a3565b92915050565b600060208284031215611fd557600080fd5b6000611fe384828501611f06565b91505092915050565b60008060408385031215611fff57600080fd5b600061200d85828601611f06565b925050602061201e85828601611f06565b9150509250929050565b60008060006060848603121561203d57600080fd5b600061204b86828701611f06565b935050602061205c86828701611f06565b925050604061206d86828701611fae565b9150509250925092565b6000806000806080858703121561208d57600080fd5b600061209b87828801611f06565b94505060206120ac87828801611f06565b93505060406120bd87828801611fae565b925050606085013567ffffffffffffffff8111156120da57600080fd5b6120e687828801611f5a565b91505092959194509250565b6000806040838503121561210557600080fd5b600061211385828601611f06565b925050602061212485828601611f1b565b9150509250929050565b6000806040838503121561214157600080fd5b600061214f85828601611f06565b925050602061216085828601611fae565b9150509250929050565b60006020828403121561217c57600080fd5b600061218a84828501611f30565b91505092915050565b6000602082840312156121a557600080fd5b60006121b384828501611f45565b91505092915050565b6000602082840312156121ce57600080fd5b600082013567ffffffffffffffff8111156121e857600080fd5b6121f484828501611f84565b91505092915050565b6000806040838503121561221057600080fd5b600083013567ffffffffffffffff81111561222a57600080fd5b61223685828601611f84565b925050602061224785828601611fae565b9150509250929050565b60006020828403121561226357600080fd5b600061227184828501611fae565b91505092915050565b61228381612a80565b82525050565b61229281612a92565b82525050565b60006122a382612982565b6122ad8185612998565b93506122bd818560208601612b03565b6122c681612ccf565b840191505092915050565b60006122dc8261298d565b6122e681856129a9565b93506122f6818560208601612b03565b6122ff81612ccf565b840191505092915050565b60006123158261298d565b61231f81856129ba565b935061232f818560208601612b03565b80840191505092915050565b60006123486032836129a9565b915061235382612ce0565b604082019050919050565b600061236b6025836129a9565b915061237682612d2f565b604082019050919050565b600061238e601c836129a9565b915061239982612d7e565b602082019050919050565b60006123b16024836129a9565b91506123bc82612da7565b604082019050919050565b60006123d46019836129a9565b91506123df82612df6565b602082019050919050565b60006123f7602c836129a9565b915061240282612e1f565b604082019050919050565b600061241a6038836129a9565b915061242582612e6e565b604082019050919050565b600061243d602a836129a9565b915061244882612ebd565b604082019050919050565b60006124606029836129a9565b915061246b82612f0c565b604082019050919050565b6000612483602e836129a9565b915061248e82612f5b565b604082019050919050565b60006124a66020836129a9565b91506124b182612faa565b602082019050919050565b60006124c96031836129a9565b91506124d482612fd3565b604082019050919050565b60006124ec602c836129a9565b91506124f782613022565b604082019050919050565b600061250f602f836129a9565b915061251a82613071565b604082019050919050565b60006125326021836129a9565b915061253d826130c0565b604082019050919050565b60006125556031836129a9565b91506125608261310f565b604082019050919050565b61257481612aea565b82525050565b6000612586828561230a565b9150612592828461230a565b91508190509392505050565b60006020820190506125b3600083018461227a565b92915050565b60006080820190506125ce600083018761227a565b6125db602083018661227a565b6125e8604083018561256b565b81810360608301526125fa8184612298565b905095945050505050565b600060208201905061261a6000830184612289565b92915050565b6000602082019050818103600083015261263a81846122d1565b905092915050565b6000604082019050818103600083015261265c81856122d1565b905061266b602083018461256b565b9392505050565b6000602082019050818103600083015261268b8161233b565b9050919050565b600060208201905081810360008301526126ab8161235e565b9050919050565b600060208201905081810360008301526126cb81612381565b9050919050565b600060208201905081810360008301526126eb816123a4565b9050919050565b6000602082019050818103600083015261270b816123c7565b9050919050565b6000602082019050818103600083015261272b816123ea565b9050919050565b6000602082019050818103600083015261274b8161240d565b9050919050565b6000602082019050818103600083015261276b81612430565b9050919050565b6000602082019050818103600083015261278b81612453565b9050919050565b600060208201905081810360008301526127ab81612476565b9050919050565b600060208201905081810360008301526127cb81612499565b9050919050565b600060208201905081810360008301526127eb816124bc565b9050919050565b6000602082019050818103600083015261280b816124df565b9050919050565b6000602082019050818103600083015261282b81612502565b9050919050565b6000602082019050818103600083015261284b81612525565b9050919050565b6000602082019050818103600083015261286b81612548565b9050919050565b6000602082019050612887600083018461256b565b92915050565b60006040820190506128a2600083018561256b565b81810360208301526128b481846122d1565b90509392505050565b60006060820190506128d2600083018661256b565b81810360208301526128e481856122d1565b90506128f3604083018461227a565b949350505050565b6000612905612916565b90506129118282612b68565b919050565b6000604051905090565b600067ffffffffffffffff82111561293b5761293a612ca0565b5b61294482612ccf565b9050602081019050919050565b600067ffffffffffffffff82111561296c5761296b612ca0565b5b61297582612ccf565b9050602081019050919050565b600081519050919050565b600081519050919050565b600082825260208201905092915050565b600082825260208201905092915050565b600081905092915050565b60006129d082612aea565b91506129db83612aea565b9250827fffffffffffffffffffffffffffffffffffffffffffffffffffffffffffffffff03821115612a1057612a0f612c13565b5b828201905092915050565b6000612a2682612aea565b9150612a3183612aea565b925082612a4157612a40612c42565b5b828204905092915050565b6000612a5782612aea565b9150612a6283612aea565b925082821015612a7557612a74612c13565b5b828203905092915050565b6000612a8b82612aca565b9050919050565b60008115159050919050565b60007fffffffff0000000000000000000000000000000000000000000000000000000082169050919050565b600073ffffffffffffffffffffffffffffffffffffffff82169050919050565b6000819050919050565b82818337600083830152505050565b60005b83811015612b21578082015181840152602081019050612b06565b83811115612b30576000848401525b50505050565b60006002820490506001821680612b4e57607f821691505b60208210811415612b6257612b61612c71565b5b50919050565b612b7182612ccf565b810181811067ffffffffffffffff82111715612b9057612b8f612ca0565b5b80604052505050565b6000612ba482612aea565b91507fffffffffffffffffffffffffffffffffffffffffffffffffffffffffffffffff821415612bd757612bd6612c13565b5b600182019050919050565b6000612bed82612aea565b9150612bf883612aea565b925082612c0857612c07612c42565b5b828206905092915050565b7f4e487b7100000000000000000000000000000000000000000000000000000000600052601160045260246000fd5b7f4e487b7100000000000000000000000000000000000000000000000000000000600052601260045260246000fd5b7f4e487b7100000000000000000000000000000000000000000000000000000000600052602260045260246000fd5b7f4e487b7100000000000000000000000000000000000000000000000000000000600052604160045260246000fd5b6000601f19601f8301169050919050565b7f4552433732313a207472616e7366657220746f206e6f6e20455243373231526560008201527f63656976657220696d706c656d656e7465720000000000000000000000000000602082015250565b7f4552433732313a207472616e736665722066726f6d20696e636f72726563742060008201527f6f776e6572000000000000000000000000000000000000000000000000000000602082015250565b7f4552433732313a20746f6b656e20616c7265616479206d696e74656400000000600082015250565b7f4552433732313a207472616e7366657220746f20746865207a65726f2061646460008201527f7265737300000000000000000000000000000000000000000000000000000000602082015250565b7f4552433732313a20617070726f766520746f2063616c6c657200000000000000600082015250565b7f4552433732313a206f70657261746f7220717565727920666f72206e6f6e657860008201527f697374656e7420746f6b656e0000000000000000000000000000000000000000602082015250565b7f4552433732313a20617070726f76652063616c6c6572206973206e6f74206f7760008201527f6e6572206e6f7220617070726f76656420666f7220616c6c0000000000000000602082015250565b7f4552433732313a2062616c616e636520717565727920666f7220746865207a6560008201527f726f206164647265737300000000000000000000000000000000000000000000602082015250565b7f4552433732313a206f776e657220717565727920666f72206e6f6e657869737460008201527f656e7420746f6b656e0000000000000000000000000000000000000000000000602082015250565b7f45524337323155524953746f726167653a2055524920736574206f66206e6f6e60008201527f6578697374656e7420746f6b656e000000000000000000000000000000000000602082015250565b7f4552433732313a206d696e7420746f20746865207a65726f2061646472657373600082015250565b7f45524337323155524953746f726167653a2055524920717565727920666f722060008201527f6e6f6e6578697374656e7420746f6b656e000000000000000000000000000000602082015250565b7f4552433732313a20617070726f76656420717565727920666f72206e6f6e657860008201527f697374656e7420746f6b656e0000000000000000000000000000000000000000602082015250565b7f4552433732314d657461646174613a2055524920717565727920666f72206e6f60008201527f6e6578697374656e7420746f6b656e0000000000000000000000000000000000602082015250565b7f4552433732313a20617070726f76616c20746f2063757272656e74206f776e6560008201527f7200000000000000000000000000000000000000000000000000000000000000602082015250565b7f4552433732313a207472616e736665722063616c6c6572206973206e6f74206f60008201527f776e6572206e6f7220617070726f766564000000000000000000000000000000602082015250565b61316781612a80565b811461317257600080fd5b50565b61317e81612a92565b811461318957600080fd5b50565b61319581612a9e565b81146131a057600080fd5b50565b6131ac81612aea565b81146131b757600080fd5b5056fea26469706673582212204bb45259e68de81f79a79040551ae89dbaa12e22efb38425d7fffd2bf2554b1364736f6c63430008040033",
  "linkReferences": {},
  "deployedLinkReferences": {}
}